{
  "_format": "hh-sol-artifact-1",
  "contractName": "CustodianRegistry",
  "sourceName": "contracts/CustodianRegistry.sol",
  "abi": [
    {
      "inputs": [],
      "stateMutability": "nonpayable",
      "type": "constructor"
    },
    {
      "inputs": [],
      "name": "AccessControlBadConfirmation",
      "type": "error"
    },
    {
      "inputs": [
        {
          "internalType": "address",
          "name": "account",
          "type": "address"
        },
        {
          "internalType": "bytes32",
          "name": "neededRole",
          "type": "bytes32"
        }
      ],
      "name": "AccessControlUnauthorizedAccount",
      "type": "error"
    },
    {
      "inputs": [
        {
          "internalType": "address",
          "name": "target",
          "type": "address"
        }
      ],
      "name": "AddressEmptyCode",
      "type": "error"
    },
    {
      "inputs": [
        {
          "internalType": "address",
          "name": "implementation",
          "type": "address"
        }
      ],
      "name": "ERC1967InvalidImplementation",
      "type": "error"
    },
    {
      "inputs": [],
      "name": "ERC1967NonPayable",
      "type": "error"
    },
    {
      "inputs": [],
      "name": "FailedCall",
      "type": "error"
    },
    {
      "inputs": [],
      "name": "InvalidInitialization",
      "type": "error"
    },
    {
      "inputs": [],
      "name": "NotInitializing",
      "type": "error"
    },
    {
      "inputs": [],
      "name": "UUPSUnauthorizedCallContext",
      "type": "error"
    },
    {
      "inputs": [
        {
          "internalType": "bytes32",
          "name": "slot",
          "type": "bytes32"
        }
      ],
      "name": "UUPSUnsupportedProxiableUUID",
      "type": "error"
    },
    {
      "anonymous": false,
      "inputs": [
        {
          "indexed": false,
          "internalType": "uint64",
          "name": "version",
          "type": "uint64"
        }
      ],
      "name": "Initialized",
      "type": "event"
    },
    {
      "anonymous": false,
      "inputs": [
        {
          "indexed": true,
          "internalType": "address",
          "name": "userAddress",
          "type": "address"
        },
        {
          "indexed": true,
          "internalType": "address",
          "name": "custodian",
          "type": "address"
        },
        {
          "indexed": false,
          "internalType": "uint256",
          "name": "kycValidatedTimestamp",
          "type": "uint256"
        },
        {
          "indexed": false,
          "internalType": "uint256",
          "name": "kycExpiresTimestamp",
          "type": "uint256"
        }
      ],
      "name": "KYCStatusUpdated",
      "type": "event"
    },
    {
      "anonymous": false,
      "inputs": [
        {
          "indexed": true,
          "internalType": "bytes32",
          "name": "role",
          "type": "bytes32"
        },
        {
          "indexed": true,
          "internalType": "bytes32",
          "name": "previousAdminRole",
          "type": "bytes32"
        },
        {
          "indexed": true,
          "internalType": "bytes32",
          "name": "newAdminRole",
          "type": "bytes32"
        }
      ],
      "name": "RoleAdminChanged",
      "type": "event"
    },
    {
      "anonymous": false,
      "inputs": [
        {
          "indexed": true,
          "internalType": "bytes32",
          "name": "role",
          "type": "bytes32"
        },
        {
          "indexed": true,
          "internalType": "address",
          "name": "account",
          "type": "address"
        },
        {
          "indexed": true,
          "internalType": "address",
          "name": "sender",
          "type": "address"
        }
      ],
      "name": "RoleGranted",
      "type": "event"
    },
    {
      "anonymous": false,
      "inputs": [
        {
          "indexed": true,
          "internalType": "bytes32",
          "name": "role",
          "type": "bytes32"
        },
        {
          "indexed": true,
          "internalType": "address",
          "name": "account",
          "type": "address"
        },
        {
          "indexed": true,
          "internalType": "address",
          "name": "sender",
          "type": "address"
        }
      ],
      "name": "RoleRevoked",
      "type": "event"
    },
    {
      "anonymous": false,
      "inputs": [
        {
          "indexed": true,
          "internalType": "address",
          "name": "implementation",
          "type": "address"
        }
      ],
      "name": "Upgraded",
      "type": "event"
    },
    {
      "anonymous": false,
      "inputs": [
        {
          "indexed": true,
          "internalType": "address",
          "name": "userAddress",
          "type": "address"
        },
        {
          "indexed": true,
          "internalType": "address",
          "name": "custodian",
          "type": "address"
        },
        {
          "indexed": false,
          "internalType": "uint256",
          "name": "kycValidatedTimestamp",
          "type": "uint256"
        },
        {
          "indexed": false,
          "internalType": "uint256",
          "name": "kycExpiresTimestamp",
          "type": "uint256"
        }
      ],
      "name": "WalletRegistered",
      "type": "event"
    },
    {
      "anonymous": false,
      "inputs": [
        {
          "indexed": true,
          "internalType": "address",
          "name": "userAddress",
          "type": "address"
        },
        {
          "indexed": true,
          "internalType": "address",
          "name": "custodian",
          "type": "address"
        }
      ],
      "name": "WalletUnregistered",
      "type": "event"
    },
    {
      "inputs": [],
      "name": "ADMIN_ROLE",
      "outputs": [
        {
          "internalType": "bytes32",
          "name": "",
          "type": "bytes32"
        }
      ],
      "stateMutability": "view",
      "type": "function"
    },
    {
      "inputs": [],
      "name": "CUSTODIAN_ROLE",
      "outputs": [
        {
          "internalType": "bytes32",
          "name": "",
          "type": "bytes32"
        }
      ],
      "stateMutability": "view",
      "type": "function"
    },
    {
      "inputs": [],
      "name": "DEFAULT_ADMIN_ROLE",
      "outputs": [
        {
          "internalType": "bytes32",
          "name": "",
          "type": "bytes32"
        }
      ],
      "stateMutability": "view",
      "type": "function"
    },
    {
      "inputs": [],
      "name": "UPGRADE_INTERFACE_VERSION",
      "outputs": [
        {
          "internalType": "string",
          "name": "",
          "type": "string"
        }
      ],
      "stateMutability": "view",
      "type": "function"
    },
    {
      "inputs": [
        {
          "internalType": "uint256",
          "name": "index",
          "type": "uint256"
        }
      ],
      "name": "custodianAtIndex",
      "outputs": [
        {
          "internalType": "address",
          "name": "",
          "type": "address"
        }
      ],
      "stateMutability": "view",
      "type": "function"
    },
    {
      "inputs": [],
      "name": "custodianCount",
      "outputs": [
        {
          "internalType": "uint256",
          "name": "",
          "type": "uint256"
        }
      ],
      "stateMutability": "view",
      "type": "function"
    },
    {
      "inputs": [
        {
          "internalType": "address",
          "name": "userAddress",
          "type": "address"
        }
      ],
      "name": "getCustodian",
      "outputs": [
        {
          "internalType": "address",
          "name": "",
          "type": "address"
        }
      ],
      "stateMutability": "view",
      "type": "function"
    },
    {
      "inputs": [
        {
          "internalType": "address",
          "name": "userAddress",
          "type": "address"
        }
      ],
      "name": "getKYCTimestamps",
      "outputs": [
        {
          "internalType": "uint256",
          "name": "validatedTimestamp",
          "type": "uint256"
        },
        {
          "internalType": "uint256",
          "name": "expiresTimestamp",
          "type": "uint256"
        }
      ],
      "stateMutability": "view",
      "type": "function"
    },
    {
      "inputs": [
        {
          "internalType": "bytes32",
          "name": "role",
          "type": "bytes32"
        }
      ],
      "name": "getRoleAdmin",
      "outputs": [
        {
          "internalType": "bytes32",
          "name": "",
          "type": "bytes32"
        }
      ],
      "stateMutability": "view",
      "type": "function"
    },
    {
      "inputs": [
        {
          "internalType": "address",
          "name": "fiAddress",
          "type": "address"
        }
      ],
      "name": "grantCustodianRole",
      "outputs": [],
      "stateMutability": "nonpayable",
      "type": "function"
    },
    {
      "inputs": [
        {
          "internalType": "bytes32",
          "name": "role",
          "type": "bytes32"
        },
        {
          "internalType": "address",
          "name": "account",
          "type": "address"
        }
      ],
      "name": "grantRole",
      "outputs": [],
      "stateMutability": "nonpayable",
      "type": "function"
    },
    {
      "inputs": [
        {
          "internalType": "bytes32",
          "name": "role",
          "type": "bytes32"
        },
        {
          "internalType": "address",
          "name": "account",
          "type": "address"
        }
      ],
      "name": "hasRole",
      "outputs": [
        {
          "internalType": "bool",
          "name": "",
          "type": "bool"
        }
      ],
      "stateMutability": "view",
      "type": "function"
    },
    {
      "inputs": [
        {
          "internalType": "address",
          "name": "initialAdmin",
          "type": "address"
        }
      ],
      "name": "initialize",
      "outputs": [],
      "stateMutability": "nonpayable",
      "type": "function"
    },
    {
      "inputs": [
        {
          "internalType": "address",
          "name": "userAddress",
          "type": "address"
        }
      ],
      "name": "isKYCValid",
      "outputs": [
        {
          "internalType": "bool",
          "name": "",
          "type": "bool"
        }
      ],
      "stateMutability": "view",
      "type": "function"
    },
    {
      "inputs": [],
      "name": "proxiableUUID",
      "outputs": [
        {
          "internalType": "bytes32",
          "name": "",
          "type": "bytes32"
        }
      ],
      "stateMutability": "view",
      "type": "function"
    },
    {
      "inputs": [
        {
          "internalType": "address",
          "name": "userAddress",
          "type": "address"
        },
        {
          "internalType": "uint256",
          "name": "kycValidatedTimestamp",
          "type": "uint256"
        },
        {
          "internalType": "uint256",
          "name": "kycExpiresTimestamp",
          "type": "uint256"
        }
      ],
      "name": "registerCustodiedWallet",
      "outputs": [],
      "stateMutability": "nonpayable",
      "type": "function"
    },
    {
      "inputs": [
        {
          "internalType": "bytes32",
          "name": "role",
          "type": "bytes32"
        },
        {
          "internalType": "address",
          "name": "callerConfirmation",
          "type": "address"
        }
      ],
      "name": "renounceRole",
      "outputs": [],
      "stateMutability": "nonpayable",
      "type": "function"
    },
    {
      "inputs": [
        {
          "internalType": "address",
          "name": "fiAddress",
          "type": "address"
        }
      ],
      "name": "revokeCustodianRole",
      "outputs": [],
      "stateMutability": "nonpayable",
      "type": "function"
    },
    {
      "inputs": [
        {
          "internalType": "bytes32",
          "name": "role",
          "type": "bytes32"
        },
        {
          "internalType": "address",
          "name": "account",
          "type": "address"
        }
      ],
      "name": "revokeRole",
      "outputs": [],
      "stateMutability": "nonpayable",
      "type": "function"
    },
    {
      "inputs": [
        {
          "internalType": "bytes4",
          "name": "interfaceId",
          "type": "bytes4"
        }
      ],
      "name": "supportsInterface",
      "outputs": [
        {
          "internalType": "bool",
          "name": "",
          "type": "bool"
        }
      ],
      "stateMutability": "view",
      "type": "function"
    },
    {
      "inputs": [
        {
          "internalType": "address",
          "name": "userAddress",
          "type": "address"
        }
      ],
      "name": "unregisterCustodiedWallet",
      "outputs": [],
      "stateMutability": "nonpayable",
      "type": "function"
    },
    {
      "inputs": [
        {
          "internalType": "address",
          "name": "userAddress",
          "type": "address"
        },
        {
          "internalType": "uint256",
          "name": "kycValidatedTimestamp",
          "type": "uint256"
        },
        {
          "internalType": "uint256",
          "name": "kycExpiresTimestamp",
          "type": "uint256"
        }
      ],
      "name": "updateKYCStatus",
      "outputs": [],
      "stateMutability": "nonpayable",
      "type": "function"
    },
    {
      "inputs": [
        {
          "internalType": "address",
          "name": "newImplementation",
          "type": "address"
        },
        {
          "internalType": "bytes",
          "name": "data",
          "type": "bytes"
        }
      ],
      "name": "upgradeToAndCall",
      "outputs": [],
      "stateMutability": "payable",
      "type": "function"
    }
  ],
  "bytecode": "0x60a06040523073ffffffffffffffffffffffffffffffffffffffff1660809073ffffffffffffffffffffffffffffffffffffffff168152503480156200004457600080fd5b50620000616763b52c4a7e5589b460c01b620000af60201b60201c565b6200007d67977b21a224c2ca4960c01b620000af60201b60201c565b62000099676f7e24a3f0ccbc2860c01b620000af60201b60201c565b620000a9620000b260201b60201c565b62000245565b50565b6000620000c4620001bc60201b60201c565b90508060000160089054906101000a900460ff161562000110576040517ff92ee8a900000000000000000000000000000000000000000000000000000000815260040160405180910390fd5b67ffffffffffffffff80168160000160009054906101000a900467ffffffffffffffff1667ffffffffffffffff1614620001b95767ffffffffffffffff8160000160006101000a81548167ffffffffffffffff021916908367ffffffffffffffff1602179055507fc7f505b2f371ae2175ee4913f4499e1f2633a7b5936321eed1cdaeb6115181d267ffffffffffffffff604051620001b0919062000228565b60405180910390a15b50565b600080620001cf620001d860201b60201c565b90508091505090565b60007ff0c57e16840df040f15088dc2f81fe391c3923bec73e23a9662efc9c229c6a0060001b905090565b600067ffffffffffffffff82169050919050565b620002228162000203565b82525050565b60006020820190506200023f600083018462000217565b92915050565b6080516133716200026f60003960008181611fe50152818161203a015261225401526133716000f3fe6080604052600436106101405760003560e01c806385c40f49116100b6578063ca8a5e121161006f578063ca8a5e121461044d578063cb5aa7e914610476578063cf0e0f9d146104b3578063d547741f146104f0578063e1e7518814610519578063ef0c98d61461055757610140565b806385c40f491461032957806391d1485414610366578063a217fddf146103a3578063ad3cb1cc146103ce578063c4d66de8146103f9578063c79445d01461042257610140565b806336568abe1161010857806336568abe1461023a5780634f1ef2861461026357806352d1902d1461027f5780636f7949f7146102aa57806375b238fc146102d55780638289836e1461030057610140565b806301ffc9a71461014557806310f69a3e146101825780631e5e7d5a146101ab578063248a9ca3146101d45780632f2ff15d14610211575b600080fd5b34801561015157600080fd5b5061016c60048036038101906101679190612a36565b610580565b6040516101799190612a7e565b60405180910390f35b34801561018e57600080fd5b506101a960048036038101906101a49190612af7565b6105ce565b005b3480156101b757600080fd5b506101d260048036038101906101cd9190612af7565b610987565b005b3480156101e057600080fd5b506101fb60048036038101906101f69190612b5a565b610b40565b6040516102089190612b96565b60405180910390f35b34801561021d57600080fd5b5061023860048036038101906102339190612bb1565b610b6e565b005b34801561024657600080fd5b50610261600480360381019061025c9190612bb1565b610b90565b005b61027d60048036038101906102789190612d37565b610c0b565b005b34801561028b57600080fd5b50610294610c2a565b6040516102a19190612b96565b60405180910390f35b3480156102b657600080fd5b506102bf610c5d565b6040516102cc9190612dac565b60405180910390f35b3480156102e157600080fd5b506102ea610caa565b6040516102f79190612b96565b60405180910390f35b34801561030c57600080fd5b5061032760048036038101906103229190612df3565b610cce565b005b34801561033557600080fd5b50610350600480360381019061034b9190612e46565b611074565b60405161035d9190612e82565b60405180910390f35b34801561037257600080fd5b5061038d60048036038101906103889190612bb1565b6110cd565b60405161039a9190612a7e565b60405180910390f35b3480156103af57600080fd5b506103b8611146565b6040516103c59190612b96565b60405180910390f35b3480156103da57600080fd5b506103e361114d565b6040516103f09190612f1c565b60405180910390f35b34801561040557600080fd5b50610420600480360381019061041b9190612af7565b611186565b005b34801561042e57600080fd5b50610437611431565b6040516104449190612b96565b60405180910390f35b34801561045957600080fd5b50610474600480360381019061046f9190612af7565b611455565b005b34801561048257600080fd5b5061049d60048036038101906104989190612af7565b61160e565b6040516104aa9190612e82565b60405180910390f35b3480156104bf57600080fd5b506104da60048036038101906104d59190612af7565b6116b5565b6040516104e79190612a7e565b60405180910390f35b3480156104fc57600080fd5b5061051760048036038101906105129190612bb1565b6117c4565b005b34801561052557600080fd5b50610540600480360381019061053b9190612af7565b6117e6565b60405161054e929190612f3e565b60405180910390f35b34801561056357600080fd5b5061057e60048036038101906105799190612df3565b6118a3565b005b60006105966730bf124a4096215860c01b611cef565b6105aa679cff6226b9eef87360c01b611cef565b6105be6763bf0d915ab0731760c01b611cef565b6105c782611cf2565b9050919050565b6105e2670f11b7790276ebba60c01b611cef565b7fe28434228950b641dbbc0178de89daa359a87c6ee0d8399aeace52a98fe902b961060c81611d6c565b610620672be90d7a238f8f9e60c01b611cef565b610634678690ccb20623c1be60c01b611cef565b61064867fa7b9dfbb78f01de60c01b611cef565b61065c6723c864a86c52f95060c01b611cef565b6106706707df8ab4dbc1ed6a60c01b611cef565b600073ffffffffffffffffffffffffffffffffffffffff168273ffffffffffffffffffffffffffffffffffffffff16036106df576040517f08c379a00000000000000000000000000000000000000000000000000000000081526004016106d690612fb3565b60405180910390fd5b6106f367e82a95414297dddf60c01b611cef565b610707679a6d91d6bcd616aa60c01b611cef565b61071b67ace43393ab385caa60c01b611cef565b6000610725611d80565b905061073b67bfef920fa1e238d460c01b611cef565b61074f67d833fe5973722fe360c01b611cef565b60008060008573ffffffffffffffffffffffffffffffffffffffff1673ffffffffffffffffffffffffffffffffffffffff16815260200190815260200160002090506107a5673a7cc180b0beaab760c01b611cef565b6107b9671bb62db5c8b79fbe60c01b611cef565b6107cd67098097362d4122f460c01b611cef565b8173ffffffffffffffffffffffffffffffffffffffff168160000160009054906101000a900473ffffffffffffffffffffffffffffffffffffffff1673ffffffffffffffffffffffffffffffffffffffff161461085f576040517f08c379a000000000000000000000000000000000000000000000000000000000815260040161085690613045565b60405180910390fd5b61087367eb8b73ac0fcf7ee160c01b611cef565b6108876711f12846d23a926560c01b611cef565b6000808573ffffffffffffffffffffffffffffffffffffffff1673ffffffffffffffffffffffffffffffffffffffff168152602001908152602001600020600080820160006101000a81549073ffffffffffffffffffffffffffffffffffffffff0219169055600182016000905560028201600090555050610913679729e1dbefa55d4f60c01b611cef565b6109276702861d062ce4a41360c01b611cef565b8173ffffffffffffffffffffffffffffffffffffffff168473ffffffffffffffffffffffffffffffffffffffff167feda8a21ceab321f39831c4a21c8a60cc97bb4d844303e693e8fc7c8ab4526a7260405160405180910390a350505050565b61099b67d2c3d931ae0ef64d60c01b611cef565b7fa49807205ce4d355092ef5a8a18f56e8913cf4a201fbe287825b095693c217756109c581611d6c565b6109d9677e5254ac1adcb49060c01b611cef565b6109ed678d43e31a68f5e3dc60c01b611cef565b610a016788ddd7ba7076bfff60c01b611cef565b610a1567d80b0404fc97e5d860c01b611cef565b610a296709453e4117225de460c01b611cef565b600073ffffffffffffffffffffffffffffffffffffffff168273ffffffffffffffffffffffffffffffffffffffff1603610a98576040517f08c379a0000000000000000000000000000000000000000000000000000000008152600401610a8f906130b1565b60405180910390fd5b610aac67b39a9d494a27cca560c01b611cef565b610ac067d40bb03d4a18d96660c01b611cef565b610ad4670971025ae860b40760c01b611cef565b610afe7fe28434228950b641dbbc0178de89daa359a87c6ee0d8399aeace52a98fe902b983611d88565b50610b13675ba33738e82ea10c60c01b611cef565b610b2767b6fe98de4723d4d960c01b611cef565b610b3b826001611e8a90919063ffffffff16565b505050565b600080610b4b611eba565b905080600001600084815260200190815260200160002060010154915050919050565b610b7782610b40565b610b8081611d6c565b610b8a8383611ee2565b50505050565b610b98611d80565b73ffffffffffffffffffffffffffffffffffffffff168173ffffffffffffffffffffffffffffffffffffffff1614610bfc576040517f6697b23200000000000000000000000000000000000000000000000000000000815260040160405180910390fd5b610c068282611d88565b505050565b610c13611fe3565b610c1c826120c9565b610c268282612133565b5050565b6000610c34612252565b7f360894a13ba1a3210667c828492db98dca3e2076cc3735a920a3ca505d382bbc60001b905090565b6000610c73676ad6f26108b8084e60c01b611cef565b610c87677f4045cbb554c52c60c01b611cef565b610c9b6792e3dc6df65bd04660c01b611cef565b610ca560016122d9565b905090565b7fa49807205ce4d355092ef5a8a18f56e8913cf4a201fbe287825b095693c2177581565b610ce2671dae7656d384491560c01b611cef565b7fe28434228950b641dbbc0178de89daa359a87c6ee0d8399aeace52a98fe902b9610d0c81611d6c565b610d206710cb39964e355bc460c01b611cef565b610d3467402304bf759b2b5360c01b611cef565b610d4867326e0b515695760460c01b611cef565b610d5c679ce0cb337571f00c60c01b611cef565b610d7067e2d6ea6e6485fb2760c01b611cef565b600073ffffffffffffffffffffffffffffffffffffffff168473ffffffffffffffffffffffffffffffffffffffff1603610ddf576040517f08c379a0000000000000000000000000000000000000000000000000000000008152600401610dd690612fb3565b60405180910390fd5b610df367ac472cecd96a0a4360c01b611cef565b610e07675bb513d6237c78b360c01b611cef565b610e1b6776d3c8f8f79b2db860c01b611cef565b610e2f67a16650a55ca3584c60c01b611cef565b600082148015610e4f5750610e4e67b962beb43c2399ab60c01b6122ee565b5b80610e765750828210158015610e755750610e7467047674f4c4f8656160c01b6122ee565b5b5b610eb5576040517f08c379a0000000000000000000000000000000000000000000000000000000008152600401610eac9061311d565b60405180910390fd5b610ec967ac5b281755dfdd8c60c01b611cef565b610edd677db922ad1c5137c960c01b611cef565b610ef167daf99ec94a79ef5460c01b611cef565b6000610efb611d80565b9050610f11676feb14d90506959d60c01b611cef565b60405180606001604052808273ffffffffffffffffffffffffffffffffffffffff168152602001858152602001848152506000808773ffffffffffffffffffffffffffffffffffffffff1673ffffffffffffffffffffffffffffffffffffffff16815260200190815260200160002060008201518160000160006101000a81548173ffffffffffffffffffffffffffffffffffffffff021916908373ffffffffffffffffffffffffffffffffffffffff1602179055506020820151816001015560408201518160020155905050610ff26722f095c61a3cf6e960c01b611cef565b6110066731e266c19621ac1860c01b611cef565b8073ffffffffffffffffffffffffffffffffffffffff168573ffffffffffffffffffffffffffffffffffffffff167f634c47f05bf8adf94f3da009bf2ac07a991711e8d8197c80d8bfa873437635858686604051611065929190612f3e565b60405180910390a35050505050565b600061108a67aa606fc515eec33b60c01b611cef565b61109e67af012c8f9a4fae3560c01b611cef565b6110b267553518f9d1073b1260c01b611cef565b6110c68260016122f990919063ffffffff16565b9050919050565b6000806110d8611eba565b905080600001600085815260200190815260200160002060000160008473ffffffffffffffffffffffffffffffffffffffff1673ffffffffffffffffffffffffffffffffffffffff16815260200190815260200160002060009054906101000a900460ff1691505092915050565b6000801b81565b6040518060400160405280600581526020017f352e302e3000000000000000000000000000000000000000000000000000000081525081565b61119a67b71861b12ca3c9a960c01b611cef565b60006111a4612313565b905060008160000160089054906101000a900460ff1615905060008260000160009054906101000a900467ffffffffffffffff1690506000808267ffffffffffffffff161480156111f25750825b9050600060018367ffffffffffffffff16148015611227575060003073ffffffffffffffffffffffffffffffffffffffff163b145b905081158015611235575080155b1561126c576040517ff92ee8a900000000000000000000000000000000000000000000000000000000815260040160405180910390fd5b60018560000160006101000a81548167ffffffffffffffff021916908367ffffffffffffffff16021790555083156112bc5760018560000160086101000a81548160ff0219169083151502179055505b6112d06719cf7bed4b1b275360c01b611cef565b6112e467e9aad56c5aaa1f1f60c01b611cef565b6112f86773484cbd0819758260c01b611cef565b61130c67d31eb3d7e2cb50bf60c01b611cef565b611314612327565b6113286732568b270cd3bb7260c01b611cef565b61133c67a20f504b8a095b7060c01b611cef565b611344612331565b611358672911006218967c8460c01b611cef565b61136c674021cc0a0f93ed2660c01b611cef565b6113796000801b87611ee2565b5061138e6781c3e320a6dc19f260c01b611cef565b6113a267676d6f79c3ded77560c01b611cef565b6113cc7fa49807205ce4d355092ef5a8a18f56e8913cf4a201fbe287825b095693c2177587611ee2565b5083156114295760008560000160086101000a81548160ff0219169083151502179055507fc7f505b2f371ae2175ee4913f4499e1f2633a7b5936321eed1cdaeb6115181d260016040516114209190613196565b60405180910390a15b505050505050565b7fe28434228950b641dbbc0178de89daa359a87c6ee0d8399aeace52a98fe902b981565b61146967b583b7fc8b1d8c4860c01b611cef565b7fa49807205ce4d355092ef5a8a18f56e8913cf4a201fbe287825b095693c2177561149381611d6c565b6114a767342537cf515bef3560c01b611cef565b6114bb67961621d5b0b816a960c01b611cef565b6114cf67d775bd6e0b2cd51660c01b611cef565b6114e367811218636f4ce94f60c01b611cef565b6114f767d7dddffa6c6b103c60c01b611cef565b600073ffffffffffffffffffffffffffffffffffffffff168273ffffffffffffffffffffffffffffffffffffffff1603611566576040517f08c379a000000000000000000000000000000000000000000000000000000000815260040161155d906130b1565b60405180910390fd5b61157a6728fd9415505ba3f260c01b611cef565b61158e67d352aba96077d64a60c01b611cef565b6115a2677cf594d64c8247da60c01b611cef565b6115cc7fe28434228950b641dbbc0178de89daa359a87c6ee0d8399aeace52a98fe902b983611ee2565b506115e167b57d6ef04a03f20260c01b611cef565b6115f567661927aa51adec2760c01b611cef565b61160982600161233b90919063ffffffff16565b505050565b600061162467adf026f10755db2060c01b611cef565b6116386706ceb0af039e356e60c01b611cef565b61164c6758bd2fbfc512144060c01b611cef565b6000808373ffffffffffffffffffffffffffffffffffffffff1673ffffffffffffffffffffffffffffffffffffffff16815260200190815260200160002060000160009054906101000a900473ffffffffffffffffffffffffffffffffffffffff169050919050565b60006116cb67e89a6577dd945eb360c01b611cef565b6116df67fcec9d734502fd7260c01b611cef565b6116f3672232a3c67df9012b60c01b611cef565b60008060008473ffffffffffffffffffffffffffffffffffffffff1673ffffffffffffffffffffffffffffffffffffffff168152602001908152602001600020905061174967f732f452d780714960c01b611cef565b61175d67c95022546e4a8e6960c01b611cef565b600081600101541180156117bc575060008160020154148015611790575061178f677703cb658e533e2b60c01b6122ee565b5b806117bb5750428160020154101580156117ba57506117b967171ca48a6333497460c01b6122ee565b5b5b5b915050919050565b6117cd82610b40565b6117d681611d6c565b6117e08383611d88565b50505050565b6000806117fd67c26b315e752c3dee60c01b611cef565b611811674135a51fe7a5657960c01b611cef565b61182567d0041b86d6861e6760c01b611cef565b60008060008573ffffffffffffffffffffffffffffffffffffffff1673ffffffffffffffffffffffffffffffffffffffff168152602001908152602001600020905061187b67435adc5db9a8ecc160c01b611cef565b61188f675fa866c830cc84b860c01b611cef565b806001015481600201549250925050915091565b6118b76734e37add227f43fc60c01b611cef565b7fe28434228950b641dbbc0178de89daa359a87c6ee0d8399aeace52a98fe902b96118e181611d6c565b6118f5672eabf0788cb44bf460c01b611cef565b611909670291af4730373a2c60c01b611cef565b61191d6781c71d2beab6c2d160c01b611cef565b61193167f801665ed9f5701b60c01b611cef565b61194567a65a7e37125bfb9460c01b611cef565b600073ffffffffffffffffffffffffffffffffffffffff168473ffffffffffffffffffffffffffffffffffffffff16036119b4576040517f08c379a00000000000000000000000000000000000000000000000000000000081526004016119ab90612fb3565b60405180910390fd5b6119c867e1a8a383fcf9ee8e60c01b611cef565b6119dc67ace947230dea852d60c01b611cef565b6119f067d6a43584893955f960c01b611cef565b60006119fa611d80565b9050611a1067923d73c7655dfbfb60c01b611cef565b611a2467f00e057b5038ccae60c01b611cef565b60008060008773ffffffffffffffffffffffffffffffffffffffff1673ffffffffffffffffffffffffffffffffffffffff1681526020019081526020016000209050611a7a6741ca2e39145dd73860c01b611cef565b611a8e67979019650ab1a8d960c01b611cef565b611aa267275e8c589628923d60c01b611cef565b8173ffffffffffffffffffffffffffffffffffffffff168160000160009054906101000a900473ffffffffffffffffffffffffffffffffffffffff1673ffffffffffffffffffffffffffffffffffffffff1614611b34576040517f08c379a0000000000000000000000000000000000000000000000000000000008152600401611b2b90613045565b60405180910390fd5b611b4867795f19af7eecd3b760c01b611cef565b611b5c67ce020aca6939cb4960c01b611cef565b611b70677cf1d0e1d2b78cca60c01b611cef565b611b846738b99e2e572f066960c01b611cef565b600084148015611ba45750611ba367cb43a9db1aa9266f60c01b6122ee565b5b80611bcb5750848410158015611bca5750611bc96762ddb8ca68acdd2660c01b6122ee565b5b5b611c0a576040517f08c379a0000000000000000000000000000000000000000000000000000000008152600401611c019061311d565b60405180910390fd5b611c1e67fd04e3860f297c3660c01b611cef565b611c32670d3cd4e56d68482360c01b611cef565b848160010181905550611c4f67e033c250f6dc033d60c01b611cef565b838160020181905550611c6c67d427cea4ff2129b560c01b611cef565b611c80677233d428ee9552bb60c01b611cef565b8173ffffffffffffffffffffffffffffffffffffffff168673ffffffffffffffffffffffffffffffffffffffff167fee79ff8223fea588b4d71e08a1628aaf55f92de31cee63f4b6ab01bfd3de8c608787604051611cdf929190612f3e565b60405180910390a3505050505050565b50565b60007f7965db0b000000000000000000000000000000000000000000000000000000007bffffffffffffffffffffffffffffffffffffffffffffffffffffffff1916827bffffffffffffffffffffffffffffffffffffffffffffffffffffffff19161480611d655750611d648261236b565b5b9050919050565b611d7d81611d78611d80565b6123d5565b50565b600033905090565b600080611d93611eba565b9050611d9f84846110cd565b15611e7e57600081600001600086815260200190815260200160002060000160008573ffffffffffffffffffffffffffffffffffffffff1673ffffffffffffffffffffffffffffffffffffffff16815260200190815260200160002060006101000a81548160ff021916908315150217905550611e1a611d80565b73ffffffffffffffffffffffffffffffffffffffff168373ffffffffffffffffffffffffffffffffffffffff16857ff6391f5c32d9c69d2a47ea670b442974b53935d1edc7fd64eb21e047a839171b60405160405180910390a46001915050611e84565b60009150505b92915050565b6000611eb2836000018373ffffffffffffffffffffffffffffffffffffffff1660001b612426565b905092915050565b60007f02dd7bc7dec4dceedda775e58dd541e08a116c6c53815c0bd028192f7b626800905090565b600080611eed611eba565b9050611ef984846110cd565b611fd757600181600001600086815260200190815260200160002060000160008573ffffffffffffffffffffffffffffffffffffffff1673ffffffffffffffffffffffffffffffffffffffff16815260200190815260200160002060006101000a81548160ff021916908315150217905550611f73611d80565b73ffffffffffffffffffffffffffffffffffffffff168373ffffffffffffffffffffffffffffffffffffffff16857f2f8788117e7eff1d82e926ec794901d17c78024a50270940304540a733656f0d60405160405180910390a46001915050611fdd565b60009150505b92915050565b7f000000000000000000000000000000000000000000000000000000000000000073ffffffffffffffffffffffffffffffffffffffff163073ffffffffffffffffffffffffffffffffffffffff16148061209057507f000000000000000000000000000000000000000000000000000000000000000073ffffffffffffffffffffffffffffffffffffffff1661207761253a565b73ffffffffffffffffffffffffffffffffffffffff1614155b156120c7576040517fe07c8dba00000000000000000000000000000000000000000000000000000000815260040160405180910390fd5b565b6120dd670718a396dbbf63a560c01b611cef565b7fa49807205ce4d355092ef5a8a18f56e8913cf4a201fbe287825b095693c2177561210781611d6c565b61211b6781b4368a6dfce77c60c01b611cef565b61212f673540c7cd77ea790160c01b611cef565b5050565b8173ffffffffffffffffffffffffffffffffffffffff166352d1902d6040518163ffffffff1660e01b8152600401602060405180830381865afa92505050801561219b57506040513d601f19601f8201168201806040525081019061219891906131c6565b60015b6121dc57816040517f4c9c8ce30000000000000000000000000000000000000000000000000000000081526004016121d39190612e82565b60405180910390fd5b7f360894a13ba1a3210667c828492db98dca3e2076cc3735a920a3ca505d382bbc60001b811461224357806040517faa1d49a400000000000000000000000000000000000000000000000000000000815260040161223a9190612b96565b60405180910390fd5b61224d8383612591565b505050565b7f000000000000000000000000000000000000000000000000000000000000000073ffffffffffffffffffffffffffffffffffffffff163073ffffffffffffffffffffffffffffffffffffffff16146122d7576040517fe07c8dba00000000000000000000000000000000000000000000000000000000815260040160405180910390fd5b565b60006122e782600001612604565b9050919050565b600060019050919050565b60006123088360000183612615565b60001c905092915050565b60008061231e612640565b90508091505090565b61232f61266b565b565b61233961266b565b565b6000612363836000018373ffffffffffffffffffffffffffffffffffffffff1660001b6126ab565b905092915050565b60007f01ffc9a7000000000000000000000000000000000000000000000000000000007bffffffffffffffffffffffffffffffffffffffffffffffffffffffff1916827bffffffffffffffffffffffffffffffffffffffffffffffffffffffff1916149050919050565b6123df82826110cd565b6124225780826040517fe2517d3f0000000000000000000000000000000000000000000000000000000081526004016124199291906131f3565b60405180910390fd5b5050565b6000808360010160008481526020019081526020016000205490506000811461252e576000600182612458919061324b565b9050600060018660000180549050612470919061324b565b90508082146124df5760008660000182815481106124915761249061327f565b5b90600052602060002001549050808760000184815481106124b5576124b461327f565b5b90600052602060002001819055508387600101600083815260200190815260200160002081905550505b856000018054806124f3576124f26132ae565b5b600190038181906000526020600020016000905590558560010160008681526020019081526020016000206000905560019350505050612534565b60009150505b92915050565b60006125687f360894a13ba1a3210667c828492db98dca3e2076cc3735a920a3ca505d382bbc60001b61271b565b60000160009054906101000a900473ffffffffffffffffffffffffffffffffffffffff16905090565b61259a82612725565b8173ffffffffffffffffffffffffffffffffffffffff167fbc7cd75a20ee27fd9adebab32041f755214dbc6bffa90cc0225b39da2e5c2d3b60405160405180910390a26000815111156125f7576125f182826127f2565b50612600565b6125ff612876565b5b5050565b600081600001805490509050919050565b600082600001828154811061262d5761262c61327f565b5b9060005260206000200154905092915050565b60007ff0c57e16840df040f15088dc2f81fe391c3923bec73e23a9662efc9c229c6a0060001b905090565b6126736128b3565b6126a9576040517fd7e6bcf800000000000000000000000000000000000000000000000000000000815260040160405180910390fd5b565b60006126b783836128d3565b612710578260000182908060018154018082558091505060019003906000526020600020016000909190919091505582600001805490508360010160008481526020019081526020016000208190555060019050612715565b600090505b92915050565b6000819050919050565b60008173ffffffffffffffffffffffffffffffffffffffff163b0361278157806040517f4c9c8ce30000000000000000000000000000000000000000000000000000000081526004016127789190612e82565b60405180910390fd5b806127ae7f360894a13ba1a3210667c828492db98dca3e2076cc3735a920a3ca505d382bbc60001b61271b565b60000160006101000a81548173ffffffffffffffffffffffffffffffffffffffff021916908373ffffffffffffffffffffffffffffffffffffffff16021790555050565b60606000808473ffffffffffffffffffffffffffffffffffffffff168460405161281c9190613324565b600060405180830381855af49150503d8060008114612857576040519150601f19603f3d011682016040523d82523d6000602084013e61285c565b606091505b509150915061286c8583836128f6565b9250505092915050565b60003411156128b1576040517fb398979f00000000000000000000000000000000000000000000000000000000815260040160405180910390fd5b565b60006128bd612313565b60000160089054906101000a900460ff16905090565b600080836001016000848152602001908152602001600020541415905092915050565b60608261290b5761290682612985565b61297d565b60008251148015612933575060008473ffffffffffffffffffffffffffffffffffffffff163b145b1561297557836040517f9996b31500000000000000000000000000000000000000000000000000000000815260040161296c9190612e82565b60405180910390fd5b81905061297e565b5b9392505050565b6000815111156129985780518082602001fd5b6040517fd6bda27500000000000000000000000000000000000000000000000000000000815260040160405180910390fd5b6000604051905090565b600080fd5b600080fd5b60007fffffffff0000000000000000000000000000000000000000000000000000000082169050919050565b612a13816129de565b8114612a1e57600080fd5b50565b600081359050612a3081612a0a565b92915050565b600060208284031215612a4c57612a4b6129d4565b5b6000612a5a84828501612a21565b91505092915050565b60008115159050919050565b612a7881612a63565b82525050565b6000602082019050612a936000830184612a6f565b92915050565b600073ffffffffffffffffffffffffffffffffffffffff82169050919050565b6000612ac482612a99565b9050919050565b612ad481612ab9565b8114612adf57600080fd5b50565b600081359050612af181612acb565b92915050565b600060208284031215612b0d57612b0c6129d4565b5b6000612b1b84828501612ae2565b91505092915050565b6000819050919050565b612b3781612b24565b8114612b4257600080fd5b50565b600081359050612b5481612b2e565b92915050565b600060208284031215612b7057612b6f6129d4565b5b6000612b7e84828501612b45565b91505092915050565b612b9081612b24565b82525050565b6000602082019050612bab6000830184612b87565b92915050565b60008060408385031215612bc857612bc76129d4565b5b6000612bd685828601612b45565b9250506020612be785828601612ae2565b9150509250929050565b600080fd5b600080fd5b6000601f19601f8301169050919050565b7f4e487b7100000000000000000000000000000000000000000000000000000000600052604160045260246000fd5b612c4482612bfb565b810181811067ffffffffffffffff82111715612c6357612c62612c0c565b5b80604052505050565b6000612c766129ca565b9050612c828282612c3b565b919050565b600067ffffffffffffffff821115612ca257612ca1612c0c565b5b612cab82612bfb565b9050602081019050919050565b82818337600083830152505050565b6000612cda612cd584612c87565b612c6c565b905082815260208101848484011115612cf657612cf5612bf6565b5b612d01848285612cb8565b509392505050565b600082601f830112612d1e57612d1d612bf1565b5b8135612d2e848260208601612cc7565b91505092915050565b60008060408385031215612d4e57612d4d6129d4565b5b6000612d5c85828601612ae2565b925050602083013567ffffffffffffffff811115612d7d57612d7c6129d9565b5b612d8985828601612d09565b9150509250929050565b6000819050919050565b612da681612d93565b82525050565b6000602082019050612dc16000830184612d9d565b92915050565b612dd081612d93565b8114612ddb57600080fd5b50565b600081359050612ded81612dc7565b92915050565b600080600060608486031215612e0c57612e0b6129d4565b5b6000612e1a86828701612ae2565b9350506020612e2b86828701612dde565b9250506040612e3c86828701612dde565b9150509250925092565b600060208284031215612e5c57612e5b6129d4565b5b6000612e6a84828501612dde565b91505092915050565b612e7c81612ab9565b82525050565b6000602082019050612e976000830184612e73565b92915050565b600081519050919050565b600082825260208201905092915050565b60005b83811015612ed7578082015181840152602081019050612ebc565b60008484015250505050565b6000612eee82612e9d565b612ef88185612ea8565b9350612f08818560208601612eb9565b612f1181612bfb565b840191505092915050565b60006020820190508181036000830152612f368184612ee3565b905092915050565b6000604082019050612f536000830185612d9d565b612f606020830184612d9d565b9392505050565b7f5573657220616464726573732063616e6e6f74206265207a65726f0000000000600082015250565b6000612f9d601b83612ea8565b9150612fa882612f67565b602082019050919050565b60006020820190508181036000830152612fcc81612f90565b9050919050565b7f43616c6c6572206973206e6f742074686520726567697374657265642063757360008201527f746f6469616e0000000000000000000000000000000000000000000000000000602082015250565b600061302f602683612ea8565b915061303a82612fd3565b604082019050919050565b6000602082019050818103600083015261305e81613022565b9050919050565b7f437573746f6469616e2063616e6e6f74206265207a65726f2061646472657373600082015250565b600061309b602083612ea8565b91506130a682613065565b602082019050919050565b600060208201905081810360008301526130ca8161308e565b9050919050565b7f4b594320657870697279206265666f72652076616c69646174696f6e00000000600082015250565b6000613107601c83612ea8565b9150613112826130d1565b602082019050919050565b60006020820190508181036000830152613136816130fa565b9050919050565b6000819050919050565b600067ffffffffffffffff82169050919050565b6000819050919050565b600061318061317b6131768461313d565b61315b565b613147565b9050919050565b61319081613165565b82525050565b60006020820190506131ab6000830184613187565b92915050565b6000815190506131c081612b2e565b92915050565b6000602082840312156131dc576131db6129d4565b5b60006131ea848285016131b1565b91505092915050565b60006040820190506132086000830185612e73565b6132156020830184612b87565b9392505050565b7f4e487b7100000000000000000000000000000000000000000000000000000000600052601160045260246000fd5b600061325682612d93565b915061326183612d93565b92508282039050818111156132795761327861321c565b5b92915050565b7f4e487b7100000000000000000000000000000000000000000000000000000000600052603260045260246000fd5b7f4e487b7100000000000000000000000000000000000000000000000000000000600052603160045260246000fd5b600081519050919050565b600081905092915050565b60006132fe826132dd565b61330881856132e8565b9350613318818560208601612eb9565b80840191505092915050565b600061333082846132f3565b91508190509291505056fea26469706673582212205eed9bc33f95e7d3747ad9b1e02a69b20fce67a428ad6ef6346cb35e9349323f64736f6c63430008180033",
  "linkReferences": {},
  "deployedLinkReferences": {}
}