{
  "_format": "hh-sol-artifact-1",
  "contractName": "CustodianRegistry",
  "sourceName": "contracts/CustodianRegistry.sol",
  "abi": [
    {
      "inputs": [],
      "stateMutability": "nonpayable",
      "type": "constructor"
    },
    {
      "inputs": [
        {
          "internalType": "address",
          "name": "admin",
          "type": "address"
        }
      ],
      "name": "AccessControlBadAdmin",
      "type": "error"
    },
    {
      "inputs": [],
      "name": "AccessControlBadConfirmation",
      "type": "error"
    },
    {
      "inputs": [
        {
          "internalType": "address",
          "name": "account",
          "type": "address"
        },
        {
          "internalType": "bytes32",
          "name": "neededRole",
          "type": "bytes32"
        }
      ],
      "name": "AccessControlUnauthorizedAccount",
      "type": "error"
    },
    {
      "inputs": [
        {
          "internalType": "address",
          "name": "target",
          "type": "address"
        }
      ],
      "name": "AddressEmptyCode",
      "type": "error"
    },
    {
      "inputs": [
        {
          "internalType": "address",
          "name": "implementation",
          "type": "address"
        }
      ],
      "name": "ERC1967InvalidImplementation",
      "type": "error"
    },
    {
      "inputs": [],
      "name": "ERC1967NonPayable",
      "type": "error"
    },
    {
      "inputs": [],
      "name": "FailedCall",
      "type": "error"
    },
    {
      "inputs": [],
      "name": "InvalidInitialization",
      "type": "error"
    },
    {
      "inputs": [],
      "name": "NotInitializing",
      "type": "error"
    },
    {
      "inputs": [],
      "name": "UUPSUnauthorizedCallContext",
      "type": "error"
    },
    {
      "inputs": [
        {
          "internalType": "bytes32",
          "name": "slot",
          "type": "bytes32"
        }
      ],
      "name": "UUPSUnsupportedProxiableUUID",
      "type": "error"
    },
    {
      "anonymous": false,
      "inputs": [
        {
          "indexed": false,
          "internalType": "uint64",
          "name": "version",
          "type": "uint64"
        }
      ],
      "name": "Initialized",
      "type": "event"
    },
    {
      "anonymous": false,
      "inputs": [
        {
          "indexed": true,
          "internalType": "address",
          "name": "userAddress",
          "type": "address"
        },
        {
          "indexed": true,
          "internalType": "address",
          "name": "custodian",
          "type": "address"
        },
        {
          "indexed": false,
          "internalType": "uint256",
          "name": "kycValidatedTimestamp",
          "type": "uint256"
        },
        {
          "indexed": false,
          "internalType": "uint256",
          "name": "kycExpiresTimestamp",
          "type": "uint256"
        }
      ],
      "name": "KYCStatusUpdated",
      "type": "event"
    },
    {
      "anonymous": false,
      "inputs": [
        {
          "indexed": true,
          "internalType": "bytes32",
          "name": "role",
          "type": "bytes32"
        },
        {
          "indexed": true,
          "internalType": "bytes32",
          "name": "previousAdminRole",
          "type": "bytes32"
        },
        {
          "indexed": true,
          "internalType": "bytes32",
          "name": "newAdminRole",
          "type": "bytes32"
        }
      ],
      "name": "RoleAdminChanged",
      "type": "event"
    },
    {
      "anonymous": false,
      "inputs": [
        {
          "indexed": true,
          "internalType": "bytes32",
          "name": "role",
          "type": "bytes32"
        },
        {
          "indexed": true,
          "internalType": "address",
          "name": "account",
          "type": "address"
        },
        {
          "indexed": true,
          "internalType": "address",
          "name": "sender",
          "type": "address"
        }
      ],
      "name": "RoleGranted",
      "type": "event"
    },
    {
      "anonymous": false,
      "inputs": [
        {
          "indexed": true,
          "internalType": "bytes32",
          "name": "role",
          "type": "bytes32"
        },
        {
          "indexed": true,
          "internalType": "address",
          "name": "account",
          "type": "address"
        },
        {
          "indexed": true,
          "internalType": "address",
          "name": "sender",
          "type": "address"
        }
      ],
      "name": "RoleRevoked",
      "type": "event"
    },
    {
      "anonymous": false,
      "inputs": [
        {
          "indexed": true,
          "internalType": "address",
          "name": "implementation",
          "type": "address"
        }
      ],
      "name": "Upgraded",
      "type": "event"
    },
    {
      "anonymous": false,
      "inputs": [
        {
          "indexed": true,
          "internalType": "address",
          "name": "userAddress",
          "type": "address"
        },
        {
          "indexed": true,
          "internalType": "address",
          "name": "custodian",
          "type": "address"
        },
        {
          "indexed": false,
          "internalType": "uint256",
          "name": "kycValidatedTimestamp",
          "type": "uint256"
        },
        {
          "indexed": false,
          "internalType": "uint256",
          "name": "kycExpiresTimestamp",
          "type": "uint256"
        }
      ],
      "name": "WalletRegistered",
      "type": "event"
    },
    {
      "anonymous": false,
      "inputs": [
        {
          "indexed": true,
          "internalType": "address",
          "name": "userAddress",
          "type": "address"
        },
        {
          "indexed": true,
          "internalType": "address",
          "name": "custodian",
          "type": "address"
        }
      ],
      "name": "WalletUnregistered",
      "type": "event"
    },
    {
      "inputs": [],
      "name": "ADMIN_ROLE",
      "outputs": [
        {
          "internalType": "bytes32",
          "name": "",
          "type": "bytes32"
        }
      ],
      "stateMutability": "view",
      "type": "function"
    },
    {
      "inputs": [],
      "name": "CUSTODIAN_ROLE",
      "outputs": [
        {
          "internalType": "bytes32",
          "name": "",
          "type": "bytes32"
        }
      ],
      "stateMutability": "view",
      "type": "function"
    },
    {
      "inputs": [],
      "name": "DEFAULT_ADMIN_ROLE",
      "outputs": [
        {
          "internalType": "bytes32",
          "name": "",
          "type": "bytes32"
        }
      ],
      "stateMutability": "view",
      "type": "function"
    },
    {
      "inputs": [],
      "name": "UPGRADE_INTERFACE_VERSION",
      "outputs": [
        {
          "internalType": "string",
          "name": "",
          "type": "string"
        }
      ],
      "stateMutability": "view",
      "type": "function"
    },
    {
      "inputs": [
        {
          "internalType": "uint256",
          "name": "index",
          "type": "uint256"
        }
      ],
      "name": "custodianAtIndex",
      "outputs": [
        {
          "internalType": "address",
          "name": "",
          "type": "address"
        }
      ],
      "stateMutability": "view",
      "type": "function"
    },
    {
      "inputs": [],
      "name": "custodianCount",
      "outputs": [
        {
          "internalType": "uint256",
          "name": "",
          "type": "uint256"
        }
      ],
      "stateMutability": "view",
      "type": "function"
    },
    {
      "inputs": [
        {
          "internalType": "address",
          "name": "userAddress",
          "type": "address"
        }
      ],
      "name": "getCustodian",
      "outputs": [
        {
          "internalType": "address",
          "name": "",
          "type": "address"
        }
      ],
      "stateMutability": "view",
      "type": "function"
    },
    {
      "inputs": [
        {
          "internalType": "address",
          "name": "userAddress",
          "type": "address"
        }
      ],
      "name": "getKYCTimestamps",
      "outputs": [
        {
          "internalType": "uint256",
          "name": "validatedTimestamp",
          "type": "uint256"
        },
        {
          "internalType": "uint256",
          "name": "expiresTimestamp",
          "type": "uint256"
        }
      ],
      "stateMutability": "view",
      "type": "function"
    },
    {
      "inputs": [
        {
          "internalType": "bytes32",
          "name": "role",
          "type": "bytes32"
        }
      ],
      "name": "getRoleAdmin",
      "outputs": [
        {
          "internalType": "bytes32",
          "name": "",
          "type": "bytes32"
        }
      ],
      "stateMutability": "view",
      "type": "function"
    },
    {
      "inputs": [
        {
          "internalType": "address",
          "name": "fiAddress",
          "type": "address"
        }
      ],
      "name": "grantCustodianRole",
      "outputs": [],
      "stateMutability": "nonpayable",
      "type": "function"
    },
    {
      "inputs": [
        {
          "internalType": "bytes32",
          "name": "role",
          "type": "bytes32"
        },
        {
          "internalType": "address",
          "name": "account",
          "type": "address"
        }
      ],
      "name": "grantRole",
      "outputs": [],
      "stateMutability": "nonpayable",
      "type": "function"
    },
    {
      "inputs": [
        {
          "internalType": "bytes32",
          "name": "role",
          "type": "bytes32"
        },
        {
          "internalType": "address",
          "name": "account",
          "type": "address"
        }
      ],
      "name": "hasRole",
      "outputs": [
        {
          "internalType": "bool",
          "name": "",
          "type": "bool"
        }
      ],
      "stateMutability": "view",
      "type": "function"
    },
    {
      "inputs": [
        {
          "internalType": "address",
          "name": "initialAdmin",
          "type": "address"
        }
      ],
      "name": "initialize",
      "outputs": [],
      "stateMutability": "nonpayable",
      "type": "function"
    },
    {
      "inputs": [
        {
          "internalType": "address",
          "name": "userAddress",
          "type": "address"
        }
      ],
      "name": "isKYCValid",
      "outputs": [
        {
          "internalType": "bool",
          "name": "",
          "type": "bool"
        }
      ],
      "stateMutability": "view",
      "type": "function"
    },
    {
      "inputs": [],
      "name": "proxiableUUID",
      "outputs": [
        {
          "internalType": "bytes32",
          "name": "",
          "type": "bytes32"
        }
      ],
      "stateMutability": "view",
      "type": "function"
    },
    {
      "inputs": [
        {
          "internalType": "address",
          "name": "userAddress",
          "type": "address"
        },
        {
          "internalType": "uint256",
          "name": "kycValidatedTimestamp",
          "type": "uint256"
        },
        {
          "internalType": "uint256",
          "name": "kycExpiresTimestamp",
          "type": "uint256"
        }
      ],
      "name": "registerCustodiedWallet",
      "outputs": [],
      "stateMutability": "nonpayable",
      "type": "function"
    },
    {
      "inputs": [
        {
          "internalType": "bytes32",
          "name": "role",
          "type": "bytes32"
        },
        {
          "internalType": "address",
          "name": "callerConfirmation",
          "type": "address"
        }
      ],
      "name": "renounceRole",
      "outputs": [],
      "stateMutability": "nonpayable",
      "type": "function"
    },
    {
      "inputs": [
        {
          "internalType": "address",
          "name": "fiAddress",
          "type": "address"
        }
      ],
      "name": "revokeCustodianRole",
      "outputs": [],
      "stateMutability": "nonpayable",
      "type": "function"
    },
    {
      "inputs": [
        {
          "internalType": "bytes32",
          "name": "role",
          "type": "bytes32"
        },
        {
          "internalType": "address",
          "name": "account",
          "type": "address"
        }
      ],
      "name": "revokeRole",
      "outputs": [],
      "stateMutability": "nonpayable",
      "type": "function"
    },
    {
      "inputs": [
        {
          "internalType": "bytes4",
          "name": "interfaceId",
          "type": "bytes4"
        }
      ],
      "name": "supportsInterface",
      "outputs": [
        {
          "internalType": "bool",
          "name": "",
          "type": "bool"
        }
      ],
      "stateMutability": "view",
      "type": "function"
    },
    {
      "inputs": [
        {
          "internalType": "address",
          "name": "userAddress",
          "type": "address"
        }
      ],
      "name": "unregisterCustodiedWallet",
      "outputs": [],
      "stateMutability": "nonpayable",
      "type": "function"
    },
    {
      "inputs": [
        {
          "internalType": "address",
          "name": "userAddress",
          "type": "address"
        },
        {
          "internalType": "uint256",
          "name": "kycValidatedTimestamp",
          "type": "uint256"
        },
        {
          "internalType": "uint256",
          "name": "kycExpiresTimestamp",
          "type": "uint256"
        }
      ],
      "name": "updateKYCStatus",
      "outputs": [],
      "stateMutability": "nonpayable",
      "type": "function"
    },
    {
      "inputs": [
        {
          "internalType": "address",
          "name": "newImplementation",
          "type": "address"
        },
        {
          "internalType": "bytes",
          "name": "data",
          "type": "bytes"
        }
      ],
      "name": "upgradeToAndCall",
      "outputs": [],
      "stateMutability": "payable",
      "type": "function"
    }
  ],
  "bytecode": "0x60a06040523073ffffffffffffffffffffffffffffffffffffffff1660809073ffffffffffffffffffffffffffffffffffffffff168152503480156200004457600080fd5b506200006167024c8ab0db427d0e60c01b620000af60201b60201c565b6200007d67b37b616f8dc2f62f60c01b620000af60201b60201c565b6200009967226ca8fc084acfb360c01b620000af60201b60201c565b620000a9620000b260201b60201c565b62000245565b50565b6000620000c4620001bc60201b60201c565b90508060000160089054906101000a900460ff161562000110576040517ff92ee8a900000000000000000000000000000000000000000000000000000000815260040160405180910390fd5b67ffffffffffffffff80168160000160009054906101000a900467ffffffffffffffff1667ffffffffffffffff1614620001b95767ffffffffffffffff8160000160006101000a81548167ffffffffffffffff021916908367ffffffffffffffff1602179055507fc7f505b2f371ae2175ee4913f4499e1f2633a7b5936321eed1cdaeb6115181d267ffffffffffffffff604051620001b0919062000228565b60405180910390a15b50565b600080620001cf620001d860201b60201c565b90508091505090565b60007ff0c57e16840df040f15088dc2f81fe391c3923bec73e23a9662efc9c229c6a0060001b905090565b600067ffffffffffffffff82169050919050565b620002228162000203565b82525050565b60006020820190506200023f600083018462000217565b92915050565b6080516134466200026f600039600081816120ba0152818161210f015261232901526134466000f3fe6080604052600436106101405760003560e01c806385c40f49116100b6578063ca8a5e121161006f578063ca8a5e121461044d578063cb5aa7e914610476578063cf0e0f9d146104b3578063d547741f146104f0578063e1e7518814610519578063ef0c98d61461055757610140565b806385c40f491461032957806391d1485414610366578063a217fddf146103a3578063ad3cb1cc146103ce578063c4d66de8146103f9578063c79445d01461042257610140565b806336568abe1161010857806336568abe1461023a5780634f1ef2861461026357806352d1902d1461027f5780636f7949f7146102aa57806375b238fc146102d55780638289836e1461030057610140565b806301ffc9a71461014557806310f69a3e146101825780631e5e7d5a146101ab578063248a9ca3146101d45780632f2ff15d14610211575b600080fd5b34801561015157600080fd5b5061016c60048036038101906101679190612b0b565b610580565b6040516101799190612b53565b60405180910390f35b34801561018e57600080fd5b506101a960048036038101906101a49190612bcc565b6105ce565b005b3480156101b757600080fd5b506101d260048036038101906101cd9190612bcc565b610987565b005b3480156101e057600080fd5b506101fb60048036038101906101f69190612c2f565b610b40565b6040516102089190612c6b565b60405180910390f35b34801561021d57600080fd5b5061023860048036038101906102339190612c86565b610b6e565b005b34801561024657600080fd5b50610261600480360381019061025c9190612c86565b610b90565b005b61027d60048036038101906102789190612e0c565b610c0b565b005b34801561028b57600080fd5b50610294610c2a565b6040516102a19190612c6b565b60405180910390f35b3480156102b657600080fd5b506102bf610c5d565b6040516102cc9190612e81565b60405180910390f35b3480156102e157600080fd5b506102ea610caa565b6040516102f79190612c6b565b60405180910390f35b34801561030c57600080fd5b5061032760048036038101906103229190612ec8565b610cce565b005b34801561033557600080fd5b50610350600480360381019061034b9190612f1b565b611074565b60405161035d9190612f57565b60405180910390f35b34801561037257600080fd5b5061038d60048036038101906103889190612c86565b6110cd565b60405161039a9190612b53565b60405180910390f35b3480156103af57600080fd5b506103b8611146565b6040516103c59190612c6b565b60405180910390f35b3480156103da57600080fd5b506103e361114d565b6040516103f09190612ff1565b60405180910390f35b34801561040557600080fd5b50610420600480360381019061041b9190612bcc565b611186565b005b34801561042e57600080fd5b50610437611506565b6040516104449190612c6b565b60405180910390f35b34801561045957600080fd5b50610474600480360381019061046f9190612bcc565b61152a565b005b34801561048257600080fd5b5061049d60048036038101906104989190612bcc565b6116e3565b6040516104aa9190612f57565b60405180910390f35b3480156104bf57600080fd5b506104da60048036038101906104d59190612bcc565b61178a565b6040516104e79190612b53565b60405180910390f35b3480156104fc57600080fd5b5061051760048036038101906105129190612c86565b611899565b005b34801561052557600080fd5b50610540600480360381019061053b9190612bcc565b6118bb565b60405161054e929190613013565b60405180910390f35b34801561056357600080fd5b5061057e60048036038101906105799190612ec8565b611978565b005b60006105966730bf124a4096215860c01b611dc4565b6105aa679cff6226b9eef87360c01b611dc4565b6105be6763bf0d915ab0731760c01b611dc4565b6105c782611dc7565b9050919050565b6105e267ba6a4e88486e8cdd60c01b611dc4565b7fe28434228950b641dbbc0178de89daa359a87c6ee0d8399aeace52a98fe902b961060c81611e41565b61062067586cc65c6dd476be60c01b611dc4565b610634678690ccb20623c1be60c01b611dc4565b61064867fa7b9dfbb78f01de60c01b611dc4565b61065c6723c864a86c52f95060c01b611dc4565b6106706707df8ab4dbc1ed6a60c01b611dc4565b600073ffffffffffffffffffffffffffffffffffffffff168273ffffffffffffffffffffffffffffffffffffffff16036106df576040517f08c379a00000000000000000000000000000000000000000000000000000000081526004016106d690613088565b60405180910390fd5b6106f367e82a95414297dddf60c01b611dc4565b610707679a6d91d6bcd616aa60c01b611dc4565b61071b67ace43393ab385caa60c01b611dc4565b6000610725611e55565b905061073b67bfef920fa1e238d460c01b611dc4565b61074f67d833fe5973722fe360c01b611dc4565b60008060008573ffffffffffffffffffffffffffffffffffffffff1673ffffffffffffffffffffffffffffffffffffffff16815260200190815260200160002090506107a5673a7cc180b0beaab760c01b611dc4565b6107b9671bb62db5c8b79fbe60c01b611dc4565b6107cd67098097362d4122f460c01b611dc4565b8173ffffffffffffffffffffffffffffffffffffffff168160000160009054906101000a900473ffffffffffffffffffffffffffffffffffffffff1673ffffffffffffffffffffffffffffffffffffffff161461085f576040517f08c379a00000000000000000000000000000000000000000000000000000000081526004016108569061311a565b60405180910390fd5b61087367eb8b73ac0fcf7ee160c01b611dc4565b6108876711f12846d23a926560c01b611dc4565b6000808573ffffffffffffffffffffffffffffffffffffffff1673ffffffffffffffffffffffffffffffffffffffff168152602001908152602001600020600080820160006101000a81549073ffffffffffffffffffffffffffffffffffffffff0219169055600182016000905560028201600090555050610913679729e1dbefa55d4f60c01b611dc4565b6109276702861d062ce4a41360c01b611dc4565b8173ffffffffffffffffffffffffffffffffffffffff168473ffffffffffffffffffffffffffffffffffffffff167feda8a21ceab321f39831c4a21c8a60cc97bb4d844303e693e8fc7c8ab4526a7260405160405180910390a350505050565b61099b675c552f5dc5edcc5e60c01b611dc4565b7fa49807205ce4d355092ef5a8a18f56e8913cf4a201fbe287825b095693c217756109c581611e41565b6109d967e97805327ee850af60c01b611dc4565b6109ed678d43e31a68f5e3dc60c01b611dc4565b610a016788ddd7ba7076bfff60c01b611dc4565b610a1567d80b0404fc97e5d860c01b611dc4565b610a296709453e4117225de460c01b611dc4565b600073ffffffffffffffffffffffffffffffffffffffff168273ffffffffffffffffffffffffffffffffffffffff1603610a98576040517f08c379a0000000000000000000000000000000000000000000000000000000008152600401610a8f90613186565b60405180910390fd5b610aac67b39a9d494a27cca560c01b611dc4565b610ac067d40bb03d4a18d96660c01b611dc4565b610ad4670971025ae860b40760c01b611dc4565b610afe7fe28434228950b641dbbc0178de89daa359a87c6ee0d8399aeace52a98fe902b983611e5d565b50610b13675ba33738e82ea10c60c01b611dc4565b610b2767b6fe98de4723d4d960c01b611dc4565b610b3b826001611f5f90919063ffffffff16565b505050565b600080610b4b611f8f565b905080600001600084815260200190815260200160002060010154915050919050565b610b7782610b40565b610b8081611e41565b610b8a8383611fb7565b50505050565b610b98611e55565b73ffffffffffffffffffffffffffffffffffffffff168173ffffffffffffffffffffffffffffffffffffffff1614610bfc576040517f6697b23200000000000000000000000000000000000000000000000000000000815260040160405180910390fd5b610c068282611e5d565b505050565b610c136120b8565b610c1c8261219e565b610c268282612208565b5050565b6000610c34612327565b7f360894a13ba1a3210667c828492db98dca3e2076cc3735a920a3ca505d382bbc60001b905090565b6000610c73676ad6f26108b8084e60c01b611dc4565b610c87677f4045cbb554c52c60c01b611dc4565b610c9b6792e3dc6df65bd04660c01b611dc4565b610ca560016123ae565b905090565b7fa49807205ce4d355092ef5a8a18f56e8913cf4a201fbe287825b095693c2177581565b610ce267b3b0ff5fe44d88de60c01b611dc4565b7fe28434228950b641dbbc0178de89daa359a87c6ee0d8399aeace52a98fe902b9610d0c81611e41565b610d2067763b016708dbfb2560c01b611dc4565b610d3467402304bf759b2b5360c01b611dc4565b610d4867326e0b515695760460c01b611dc4565b610d5c679ce0cb337571f00c60c01b611dc4565b610d7067e2d6ea6e6485fb2760c01b611dc4565b600073ffffffffffffffffffffffffffffffffffffffff168473ffffffffffffffffffffffffffffffffffffffff1603610ddf576040517f08c379a0000000000000000000000000000000000000000000000000000000008152600401610dd690613088565b60405180910390fd5b610df367ac472cecd96a0a4360c01b611dc4565b610e07675bb513d6237c78b360c01b611dc4565b610e1b6776d3c8f8f79b2db860c01b611dc4565b610e2f67a16650a55ca3584c60c01b611dc4565b600082148015610e4f5750610e4e67b962beb43c2399ab60c01b6123c3565b5b80610e765750828210158015610e755750610e7467047674f4c4f8656160c01b6123c3565b5b5b610eb5576040517f08c379a0000000000000000000000000000000000000000000000000000000008152600401610eac906131f2565b60405180910390fd5b610ec967ac5b281755dfdd8c60c01b611dc4565b610edd677db922ad1c5137c960c01b611dc4565b610ef167daf99ec94a79ef5460c01b611dc4565b6000610efb611e55565b9050610f11676feb14d90506959d60c01b611dc4565b60405180606001604052808273ffffffffffffffffffffffffffffffffffffffff168152602001858152602001848152506000808773ffffffffffffffffffffffffffffffffffffffff1673ffffffffffffffffffffffffffffffffffffffff16815260200190815260200160002060008201518160000160006101000a81548173ffffffffffffffffffffffffffffffffffffffff021916908373ffffffffffffffffffffffffffffffffffffffff1602179055506020820151816001015560408201518160020155905050610ff26722f095c61a3cf6e960c01b611dc4565b6110066731e266c19621ac1860c01b611dc4565b8073ffffffffffffffffffffffffffffffffffffffff168573ffffffffffffffffffffffffffffffffffffffff167f634c47f05bf8adf94f3da009bf2ac07a991711e8d8197c80d8bfa873437635858686604051611065929190613013565b60405180910390a35050505050565b600061108a67aa606fc515eec33b60c01b611dc4565b61109e67af012c8f9a4fae3560c01b611dc4565b6110b267553518f9d1073b1260c01b611dc4565b6110c68260016123ce90919063ffffffff16565b9050919050565b6000806110d8611f8f565b905080600001600085815260200190815260200160002060000160008473ffffffffffffffffffffffffffffffffffffffff1673ffffffffffffffffffffffffffffffffffffffff16815260200190815260200160002060009054906101000a900460ff1691505092915050565b6000801b81565b6040518060400160405280600581526020017f352e302e3000000000000000000000000000000000000000000000000000000081525081565b61119a676d75b0fd7820e86a60c01b611dc4565b60006111a46123e8565b905060008160000160089054906101000a900460ff1615905060008260000160009054906101000a900467ffffffffffffffff1690506000808267ffffffffffffffff161480156111f25750825b9050600060018367ffffffffffffffff16148015611227575060003073ffffffffffffffffffffffffffffffffffffffff163b145b905081158015611235575080155b1561126c576040517ff92ee8a900000000000000000000000000000000000000000000000000000000815260040160405180910390fd5b60018560000160006101000a81548167ffffffffffffffff021916908367ffffffffffffffff16021790555083156112bc5760018560000160086101000a81548160ff0219169083151502179055505b6112d067c7d66de8fa1f824360c01b611dc4565b6112e46763b52c4a7e5589b460c01b611dc4565b6112f867977b21a224c2ca4960c01b611dc4565b61130c676f7e24a3f0ccbc2860c01b611dc4565b600073ffffffffffffffffffffffffffffffffffffffff168673ffffffffffffffffffffffffffffffffffffffff16036113a55761135467234c2b955fb59fb360c01b611dc4565b61136867e2fac467e67b212860c01b611dc4565b856040517f91664ad300000000000000000000000000000000000000000000000000000000815260040161139c9190612f57565b60405180910390fd5b6113b967e9aad56c5aaa1f1f60c01b611dc4565b6113cd6773484cbd0819758260c01b611dc4565b6113e167d31eb3d7e2cb50bf60c01b611dc4565b6113e96123fc565b6113fd6732568b270cd3bb7260c01b611dc4565b61141167a20f504b8a095b7060c01b611dc4565b611419612406565b61142d672911006218967c8460c01b611dc4565b611441674021cc0a0f93ed2660c01b611dc4565b61144e6000801b87611fb7565b506114636781c3e320a6dc19f260c01b611dc4565b61147767676d6f79c3ded77560c01b611dc4565b6114a17fa49807205ce4d355092ef5a8a18f56e8913cf4a201fbe287825b095693c2177587611fb7565b5083156114fe5760008560000160086101000a81548160ff0219169083151502179055507fc7f505b2f371ae2175ee4913f4499e1f2633a7b5936321eed1cdaeb6115181d260016040516114f5919061326b565b60405180910390a15b505050505050565b7fe28434228950b641dbbc0178de89daa359a87c6ee0d8399aeace52a98fe902b981565b61153e67d9ec10987d3e3d1060c01b611dc4565b7fa49807205ce4d355092ef5a8a18f56e8913cf4a201fbe287825b095693c2177561156881611e41565b61157c67b3afb4442b86e1e860c01b611dc4565b61159067961621d5b0b816a960c01b611dc4565b6115a467d775bd6e0b2cd51660c01b611dc4565b6115b867811218636f4ce94f60c01b611dc4565b6115cc67d7dddffa6c6b103c60c01b611dc4565b600073ffffffffffffffffffffffffffffffffffffffff168273ffffffffffffffffffffffffffffffffffffffff160361163b576040517f08c379a000000000000000000000000000000000000000000000000000000000815260040161163290613186565b60405180910390fd5b61164f6728fd9415505ba3f260c01b611dc4565b61166367d352aba96077d64a60c01b611dc4565b611677677cf594d64c8247da60c01b611dc4565b6116a17fe28434228950b641dbbc0178de89daa359a87c6ee0d8399aeace52a98fe902b983611fb7565b506116b667b57d6ef04a03f20260c01b611dc4565b6116ca67661927aa51adec2760c01b611dc4565b6116de82600161241090919063ffffffff16565b505050565b60006116f967adf026f10755db2060c01b611dc4565b61170d6706ceb0af039e356e60c01b611dc4565b6117216758bd2fbfc512144060c01b611dc4565b6000808373ffffffffffffffffffffffffffffffffffffffff1673ffffffffffffffffffffffffffffffffffffffff16815260200190815260200160002060000160009054906101000a900473ffffffffffffffffffffffffffffffffffffffff169050919050565b60006117a067e89a6577dd945eb360c01b611dc4565b6117b467fcec9d734502fd7260c01b611dc4565b6117c8672232a3c67df9012b60c01b611dc4565b60008060008473ffffffffffffffffffffffffffffffffffffffff1673ffffffffffffffffffffffffffffffffffffffff168152602001908152602001600020905061181e67f732f452d780714960c01b611dc4565b61183267c95022546e4a8e6960c01b611dc4565b600081600101541180156118915750600081600201541480156118655750611864677703cb658e533e2b60c01b6123c3565b5b8061189057504281600201541015801561188f575061188e67171ca48a6333497460c01b6123c3565b5b5b5b915050919050565b6118a282610b40565b6118ab81611e41565b6118b58383611e5d565b50505050565b6000806118d267c26b315e752c3dee60c01b611dc4565b6118e6674135a51fe7a5657960c01b611dc4565b6118fa67d0041b86d6861e6760c01b611dc4565b60008060008573ffffffffffffffffffffffffffffffffffffffff1673ffffffffffffffffffffffffffffffffffffffff168152602001908152602001600020905061195067435adc5db9a8ecc160c01b611dc4565b611964675fa866c830cc84b860c01b611dc4565b806001015481600201549250925050915091565b61198c677ee4296f4dde348060c01b611dc4565b7fe28434228950b641dbbc0178de89daa359a87c6ee0d8399aeace52a98fe902b96119b681611e41565b6119ca67c18fd2e3a210afca60c01b611dc4565b6119de670291af4730373a2c60c01b611dc4565b6119f26781c71d2beab6c2d160c01b611dc4565b611a0667f801665ed9f5701b60c01b611dc4565b611a1a67a65a7e37125bfb9460c01b611dc4565b600073ffffffffffffffffffffffffffffffffffffffff168473ffffffffffffffffffffffffffffffffffffffff1603611a89576040517f08c379a0000000000000000000000000000000000000000000000000000000008152600401611a8090613088565b60405180910390fd5b611a9d67e1a8a383fcf9ee8e60c01b611dc4565b611ab167ace947230dea852d60c01b611dc4565b611ac567d6a43584893955f960c01b611dc4565b6000611acf611e55565b9050611ae567923d73c7655dfbfb60c01b611dc4565b611af967f00e057b5038ccae60c01b611dc4565b60008060008773ffffffffffffffffffffffffffffffffffffffff1673ffffffffffffffffffffffffffffffffffffffff1681526020019081526020016000209050611b4f6741ca2e39145dd73860c01b611dc4565b611b6367979019650ab1a8d960c01b611dc4565b611b7767275e8c589628923d60c01b611dc4565b8173ffffffffffffffffffffffffffffffffffffffff168160000160009054906101000a900473ffffffffffffffffffffffffffffffffffffffff1673ffffffffffffffffffffffffffffffffffffffff1614611c09576040517f08c379a0000000000000000000000000000000000000000000000000000000008152600401611c009061311a565b60405180910390fd5b611c1d67795f19af7eecd3b760c01b611dc4565b611c3167ce020aca6939cb4960c01b611dc4565b611c45677cf1d0e1d2b78cca60c01b611dc4565b611c596738b99e2e572f066960c01b611dc4565b600084148015611c795750611c7867cb43a9db1aa9266f60c01b6123c3565b5b80611ca05750848410158015611c9f5750611c9e6762ddb8ca68acdd2660c01b6123c3565b5b5b611cdf576040517f08c379a0000000000000000000000000000000000000000000000000000000008152600401611cd6906131f2565b60405180910390fd5b611cf367fd04e3860f297c3660c01b611dc4565b611d07670d3cd4e56d68482360c01b611dc4565b848160010181905550611d2467e033c250f6dc033d60c01b611dc4565b838160020181905550611d4167d427cea4ff2129b560c01b611dc4565b611d55677233d428ee9552bb60c01b611dc4565b8173ffffffffffffffffffffffffffffffffffffffff168673ffffffffffffffffffffffffffffffffffffffff167fee79ff8223fea588b4d71e08a1628aaf55f92de31cee63f4b6ab01bfd3de8c608787604051611db4929190613013565b60405180910390a3505050505050565b50565b60007f7965db0b000000000000000000000000000000000000000000000000000000007bffffffffffffffffffffffffffffffffffffffffffffffffffffffff1916827bffffffffffffffffffffffffffffffffffffffffffffffffffffffff19161480611e3a5750611e3982612440565b5b9050919050565b611e5281611e4d611e55565b6124aa565b50565b600033905090565b600080611e68611f8f565b9050611e7484846110cd565b15611f5357600081600001600086815260200190815260200160002060000160008573ffffffffffffffffffffffffffffffffffffffff1673ffffffffffffffffffffffffffffffffffffffff16815260200190815260200160002060006101000a81548160ff021916908315150217905550611eef611e55565b73ffffffffffffffffffffffffffffffffffffffff168373ffffffffffffffffffffffffffffffffffffffff16857ff6391f5c32d9c69d2a47ea670b442974b53935d1edc7fd64eb21e047a839171b60405160405180910390a46001915050611f59565b60009150505b92915050565b6000611f87836000018373ffffffffffffffffffffffffffffffffffffffff1660001b6124fb565b905092915050565b60007f02dd7bc7dec4dceedda775e58dd541e08a116c6c53815c0bd028192f7b626800905090565b600080611fc2611f8f565b9050611fce84846110cd565b6120ac57600181600001600086815260200190815260200160002060000160008573ffffffffffffffffffffffffffffffffffffffff1673ffffffffffffffffffffffffffffffffffffffff16815260200190815260200160002060006101000a81548160ff021916908315150217905550612048611e55565b73ffffffffffffffffffffffffffffffffffffffff168373ffffffffffffffffffffffffffffffffffffffff16857f2f8788117e7eff1d82e926ec794901d17c78024a50270940304540a733656f0d60405160405180910390a460019150506120b2565b60009150505b92915050565b7f000000000000000000000000000000000000000000000000000000000000000073ffffffffffffffffffffffffffffffffffffffff163073ffffffffffffffffffffffffffffffffffffffff16148061216557507f000000000000000000000000000000000000000000000000000000000000000073ffffffffffffffffffffffffffffffffffffffff1661214c61260f565b73ffffffffffffffffffffffffffffffffffffffff1614155b1561219c576040517fe07c8dba00000000000000000000000000000000000000000000000000000000815260040160405180910390fd5b565b6121b26769608ee6e506ba0860c01b611dc4565b7fa49807205ce4d355092ef5a8a18f56e8913cf4a201fbe287825b095693c217756121dc81611e41565b6121f067b1248abb5947395360c01b611dc4565b612204673540c7cd77ea790160c01b611dc4565b5050565b8173ffffffffffffffffffffffffffffffffffffffff166352d1902d6040518163ffffffff1660e01b8152600401602060405180830381865afa92505050801561227057506040513d601f19601f8201168201806040525081019061226d919061329b565b60015b6122b157816040517f4c9c8ce30000000000000000000000000000000000000000000000000000000081526004016122a89190612f57565b60405180910390fd5b7f360894a13ba1a3210667c828492db98dca3e2076cc3735a920a3ca505d382bbc60001b811461231857806040517faa1d49a400000000000000000000000000000000000000000000000000000000815260040161230f9190612c6b565b60405180910390fd5b6123228383612666565b505050565b7f000000000000000000000000000000000000000000000000000000000000000073ffffffffffffffffffffffffffffffffffffffff163073ffffffffffffffffffffffffffffffffffffffff16146123ac576040517fe07c8dba00000000000000000000000000000000000000000000000000000000815260040160405180910390fd5b565b60006123bc826000016126d9565b9050919050565b600060019050919050565b60006123dd83600001836126ea565b60001c905092915050565b6000806123f3612715565b90508091505090565b612404612740565b565b61240e612740565b565b6000612438836000018373ffffffffffffffffffffffffffffffffffffffff1660001b612780565b905092915050565b60007f01ffc9a7000000000000000000000000000000000000000000000000000000007bffffffffffffffffffffffffffffffffffffffffffffffffffffffff1916827bffffffffffffffffffffffffffffffffffffffffffffffffffffffff1916149050919050565b6124b482826110cd565b6124f75780826040517fe2517d3f0000000000000000000000000000000000000000000000000000000081526004016124ee9291906132c8565b60405180910390fd5b5050565b6000808360010160008481526020019081526020016000205490506000811461260357600060018261252d9190613320565b90506000600186600001805490506125459190613320565b90508082146125b457600086600001828154811061256657612565613354565b5b906000526020600020015490508087600001848154811061258a57612589613354565b5b90600052602060002001819055508387600101600083815260200190815260200160002081905550505b856000018054806125c8576125c7613383565b5b600190038181906000526020600020016000905590558560010160008681526020019081526020016000206000905560019350505050612609565b60009150505b92915050565b600061263d7f360894a13ba1a3210667c828492db98dca3e2076cc3735a920a3ca505d382bbc60001b6127f0565b60000160009054906101000a900473ffffffffffffffffffffffffffffffffffffffff16905090565b61266f826127fa565b8173ffffffffffffffffffffffffffffffffffffffff167fbc7cd75a20ee27fd9adebab32041f755214dbc6bffa90cc0225b39da2e5c2d3b60405160405180910390a26000815111156126cc576126c682826128c7565b506126d5565b6126d461294b565b5b5050565b600081600001805490509050919050565b600082600001828154811061270257612701613354565b5b9060005260206000200154905092915050565b60007ff0c57e16840df040f15088dc2f81fe391c3923bec73e23a9662efc9c229c6a0060001b905090565b612748612988565b61277e576040517fd7e6bcf800000000000000000000000000000000000000000000000000000000815260040160405180910390fd5b565b600061278c83836129a8565b6127e55782600001829080600181540180825580915050600190039060005260206000200160009091909190915055826000018054905083600101600084815260200190815260200160002081905550600190506127ea565b600090505b92915050565b6000819050919050565b60008173ffffffffffffffffffffffffffffffffffffffff163b0361285657806040517f4c9c8ce300000000000000000000000000000000000000000000000000000000815260040161284d9190612f57565b60405180910390fd5b806128837f360894a13ba1a3210667c828492db98dca3e2076cc3735a920a3ca505d382bbc60001b6127f0565b60000160006101000a81548173ffffffffffffffffffffffffffffffffffffffff021916908373ffffffffffffffffffffffffffffffffffffffff16021790555050565b60606000808473ffffffffffffffffffffffffffffffffffffffff16846040516128f191906133f9565b600060405180830381855af49150503d806000811461292c576040519150601f19603f3d011682016040523d82523d6000602084013e612931565b606091505b50915091506129418583836129cb565b9250505092915050565b6000341115612986576040517fb398979f00000000000000000000000000000000000000000000000000000000815260040160405180910390fd5b565b60006129926123e8565b60000160089054906101000a900460ff16905090565b600080836001016000848152602001908152602001600020541415905092915050565b6060826129e0576129db82612a5a565b612a52565b60008251148015612a08575060008473ffffffffffffffffffffffffffffffffffffffff163b145b15612a4a57836040517f9996b315000000000000000000000000000000000000000000000000000000008152600401612a419190612f57565b60405180910390fd5b819050612a53565b5b9392505050565b600081511115612a6d5780518082602001fd5b6040517fd6bda27500000000000000000000000000000000000000000000000000000000815260040160405180910390fd5b6000604051905090565b600080fd5b600080fd5b60007fffffffff0000000000000000000000000000000000000000000000000000000082169050919050565b612ae881612ab3565b8114612af357600080fd5b50565b600081359050612b0581612adf565b92915050565b600060208284031215612b2157612b20612aa9565b5b6000612b2f84828501612af6565b91505092915050565b60008115159050919050565b612b4d81612b38565b82525050565b6000602082019050612b686000830184612b44565b92915050565b600073ffffffffffffffffffffffffffffffffffffffff82169050919050565b6000612b9982612b6e565b9050919050565b612ba981612b8e565b8114612bb457600080fd5b50565b600081359050612bc681612ba0565b92915050565b600060208284031215612be257612be1612aa9565b5b6000612bf084828501612bb7565b91505092915050565b6000819050919050565b612c0c81612bf9565b8114612c1757600080fd5b50565b600081359050612c2981612c03565b92915050565b600060208284031215612c4557612c44612aa9565b5b6000612c5384828501612c1a565b91505092915050565b612c6581612bf9565b82525050565b6000602082019050612c806000830184612c5c565b92915050565b60008060408385031215612c9d57612c9c612aa9565b5b6000612cab85828601612c1a565b9250506020612cbc85828601612bb7565b9150509250929050565b600080fd5b600080fd5b6000601f19601f8301169050919050565b7f4e487b7100000000000000000000000000000000000000000000000000000000600052604160045260246000fd5b612d1982612cd0565b810181811067ffffffffffffffff82111715612d3857612d37612ce1565b5b80604052505050565b6000612d4b612a9f565b9050612d578282612d10565b919050565b600067ffffffffffffffff821115612d7757612d76612ce1565b5b612d8082612cd0565b9050602081019050919050565b82818337600083830152505050565b6000612daf612daa84612d5c565b612d41565b905082815260208101848484011115612dcb57612dca612ccb565b5b612dd6848285612d8d565b509392505050565b600082601f830112612df357612df2612cc6565b5b8135612e03848260208601612d9c565b91505092915050565b60008060408385031215612e2357612e22612aa9565b5b6000612e3185828601612bb7565b925050602083013567ffffffffffffffff811115612e5257612e51612aae565b5b612e5e85828601612dde565b9150509250929050565b6000819050919050565b612e7b81612e68565b82525050565b6000602082019050612e966000830184612e72565b92915050565b612ea581612e68565b8114612eb057600080fd5b50565b600081359050612ec281612e9c565b92915050565b600080600060608486031215612ee157612ee0612aa9565b5b6000612eef86828701612bb7565b9350506020612f0086828701612eb3565b9250506040612f1186828701612eb3565b9150509250925092565b600060208284031215612f3157612f30612aa9565b5b6000612f3f84828501612eb3565b91505092915050565b612f5181612b8e565b82525050565b6000602082019050612f6c6000830184612f48565b92915050565b600081519050919050565b600082825260208201905092915050565b60005b83811015612fac578082015181840152602081019050612f91565b60008484015250505050565b6000612fc382612f72565b612fcd8185612f7d565b9350612fdd818560208601612f8e565b612fe681612cd0565b840191505092915050565b6000602082019050818103600083015261300b8184612fb8565b905092915050565b60006040820190506130286000830185612e72565b6130356020830184612e72565b9392505050565b7f5573657220616464726573732063616e6e6f74206265207a65726f0000000000600082015250565b6000613072601b83612f7d565b915061307d8261303c565b602082019050919050565b600060208201905081810360008301526130a181613065565b9050919050565b7f43616c6c6572206973206e6f742074686520726567697374657265642063757360008201527f746f6469616e0000000000000000000000000000000000000000000000000000602082015250565b6000613104602683612f7d565b915061310f826130a8565b604082019050919050565b60006020820190508181036000830152613133816130f7565b9050919050565b7f437573746f6469616e2063616e6e6f74206265207a65726f2061646472657373600082015250565b6000613170602083612f7d565b915061317b8261313a565b602082019050919050565b6000602082019050818103600083015261319f81613163565b9050919050565b7f4b594320657870697279206265666f72652076616c69646174696f6e00000000600082015250565b60006131dc601c83612f7d565b91506131e7826131a6565b602082019050919050565b6000602082019050818103600083015261320b816131cf565b9050919050565b6000819050919050565b600067ffffffffffffffff82169050919050565b6000819050919050565b600061325561325061324b84613212565b613230565b61321c565b9050919050565b6132658161323a565b82525050565b6000602082019050613280600083018461325c565b92915050565b60008151905061329581612c03565b92915050565b6000602082840312156132b1576132b0612aa9565b5b60006132bf84828501613286565b91505092915050565b60006040820190506132dd6000830185612f48565b6132ea6020830184612c5c565b9392505050565b7f4e487b7100000000000000000000000000000000000000000000000000000000600052601160045260246000fd5b600061332b82612e68565b915061333683612e68565b925082820390508181111561334e5761334d6132f1565b5b92915050565b7f4e487b7100000000000000000000000000000000000000000000000000000000600052603260045260246000fd5b7f4e487b7100000000000000000000000000000000000000000000000000000000600052603160045260246000fd5b600081519050919050565b600081905092915050565b60006133d3826133b2565b6133dd81856133bd565b93506133ed818560208601612f8e565b80840191505092915050565b600061340582846133c8565b91508190509291505056fea26469706673582212203fcd8fb5feae858ae0507504aa3fced138f11175c69c1c7226b59869000d367264736f6c63430008180033",
  "linkReferences": {},
  "deployedLinkReferences": {}
}