{"contracts/T3Token.sol":{"T3Token":{"abi":[{"inputs":[],"stateMutability":"nonpayable","type":"constructor"},{"inputs":[],"name":"AccessControlBadConfirmation","type":"error"},{"inputs":[{"internalType":"address","name":"account","type":"address"},{"internalType":"bytes32","name":"neededRole","type":"bytes32"}],"name":"AccessControlUnauthorizedAccount","type":"error"},{"inputs":[{"internalType":"address","name":"target","type":"address"}],"name":"AddressEmptyCode","type":"error"},{"inputs":[{"internalType":"address","name":"implementation","type":"address"}],"name":"ERC1967InvalidImplementation","type":"error"},{"inputs":[],"name":"ERC1967NonPayable","type":"error"},{"inputs":[{"internalType":"address","name":"spender","type":"address"},{"internalType":"uint256","name":"allowance","type":"uint256"},{"internalType":"uint256","name":"needed","type":"uint256"}],"name":"ERC20InsufficientAllowance","type":"error"},{"inputs":[{"internalType":"address","name":"sender","type":"address"},{"internalType":"uint256","name":"balance","type":"uint256"},{"internalType":"uint256","name":"needed","type":"uint256"}],"name":"ERC20InsufficientBalance","type":"error"},{"inputs":[{"internalType":"address","name":"approver","type":"address"}],"name":"ERC20InvalidApprover","type":"error"},{"inputs":[{"internalType":"address","name":"receiver","type":"address"}],"name":"ERC20InvalidReceiver","type":"error"},{"inputs":[{"internalType":"address","name":"sender","type":"address"}],"name":"ERC20InvalidSender","type":"error"},{"inputs":[{"internalType":"address","name":"spender","type":"address"}],"name":"ERC20InvalidSpender","type":"error"},{"inputs":[],"name":"EnforcedPause","type":"error"},{"inputs":[],"name":"ExpectedPause","type":"error"},{"inputs":[],"name":"FailedCall","type":"error"},{"inputs":[],"name":"InvalidInitialization","type":"error"},{"inputs":[],"name":"NotInitializing","type":"error"},{"inputs":[],"name":"ReentrancyGuardReentrantCall","type":"error"},{"inputs":[],"name":"UUPSUnauthorizedCallContext","type":"error"},{"inputs":[{"internalType":"bytes32","name":"slot","type":"bytes32"}],"name":"UUPSUnsupportedProxiableUUID","type":"error"},{"anonymous":false,"inputs":[{"indexed":true,"internalType":"address","name":"owner","type":"address"},{"indexed":true,"internalType":"address","name":"spender","type":"address"},{"indexed":false,"internalType":"uint256","name":"value","type":"uint256"}],"name":"Approval","type":"event"},{"anonymous":false,"inputs":[{"indexed":true,"internalType":"address","name":"user","type":"address"},{"indexed":false,"internalType":"uint256","name":"amount","type":"uint256"}],"name":"FeePrefunded","type":"event"},{"anonymous":false,"inputs":[{"indexed":true,"internalType":"address","name":"wallet","type":"address"},{"indexed":false,"internalType":"uint256","name":"timestamp","type":"uint256"}],"name":"HalfLifeExpired","type":"event"},{"anonymous":false,"inputs":[{"indexed":true,"internalType":"address","name":"user","type":"address"},{"indexed":false,"internalType":"uint256","name":"amountUsed","type":"uint256"}],"name":"IncentiveCreditUsed","type":"event"},{"anonymous":false,"inputs":[{"indexed":false,"internalType":"uint64","name":"version","type":"uint64"}],"name":"Initialized","type":"event"},{"anonymous":false,"inputs":[{"indexed":true,"internalType":"address","name":"debtor","type":"address"},{"indexed":true,"internalType":"address","name":"creditor","type":"address"},{"indexed":false,"internalType":"uint256","name":"amountCleared","type":"uint256"}],"name":"InterbankLiabilityCleared","type":"event"},{"anonymous":false,"inputs":[{"indexed":true,"internalType":"address","name":"debtor","type":"address"},{"indexed":true,"internalType":"address","name":"creditor","type":"address"},{"indexed":false,"internalType":"uint256","name":"amount","type":"uint256"}],"name":"InterbankLiabilityRecorded","type":"event"},{"anonymous":false,"inputs":[{"indexed":true,"internalType":"address","name":"wallet","type":"address"},{"indexed":false,"internalType":"uint256","name":"amount","type":"uint256"}],"name":"LoyaltyRefundProcessed","type":"event"},{"anonymous":false,"inputs":[{"indexed":false,"internalType":"address","name":"account","type":"address"}],"name":"Paused","type":"event"},{"anonymous":false,"inputs":[{"indexed":true,"internalType":"address","name":"user","type":"address"},{"indexed":false,"internalType":"uint256","name":"amountUsed","type":"uint256"}],"name":"PrefundedFeeUsed","type":"event"},{"anonymous":false,"inputs":[{"indexed":true,"internalType":"address","name":"user","type":"address"},{"indexed":false,"internalType":"uint256","name":"amount","type":"uint256"}],"name":"PrefundedFeeWithdrawn","type":"event"},{"anonymous":false,"inputs":[{"indexed":true,"internalType":"address","name":"wallet","type":"address"},{"indexed":false,"internalType":"uint256","name":"newRiskFactor","type":"uint256"}],"name":"RiskFactorUpdated","type":"event"},{"anonymous":false,"inputs":[{"indexed":true,"internalType":"bytes32","name":"role","type":"bytes32"},{"indexed":true,"internalType":"bytes32","name":"previousAdminRole","type":"bytes32"},{"indexed":true,"internalType":"bytes32","name":"newAdminRole","type":"bytes32"}],"name":"RoleAdminChanged","type":"event"},{"anonymous":false,"inputs":[{"indexed":true,"internalType":"bytes32","name":"role","type":"bytes32"},{"indexed":true,"internalType":"address","name":"account","type":"address"},{"indexed":true,"internalType":"address","name":"sender","type":"address"}],"name":"RoleGranted","type":"event"},{"anonymous":false,"inputs":[{"indexed":true,"internalType":"bytes32","name":"role","type":"bytes32"},{"indexed":true,"internalType":"address","name":"account","type":"address"},{"indexed":true,"internalType":"address","name":"sender","type":"address"}],"name":"RoleRevoked","type":"event"},{"anonymous":false,"inputs":[{"indexed":true,"internalType":"address","name":"minter","type":"address"},{"indexed":true,"internalType":"address","name":"recipient","type":"address"},{"indexed":false,"internalType":"uint256","name":"amount","type":"uint256"}],"name":"TokensMinted","type":"event"},{"anonymous":false,"inputs":[{"indexed":true,"internalType":"address","name":"from","type":"address"},{"indexed":true,"internalType":"address","name":"to","type":"address"},{"indexed":false,"internalType":"uint256","name":"value","type":"uint256"}],"name":"Transfer","type":"event"},{"anonymous":false,"inputs":[{"indexed":true,"internalType":"address","name":"from","type":"address"},{"indexed":true,"internalType":"address","name":"to","type":"address"},{"indexed":false,"internalType":"uint256","name":"amount","type":"uint256"}],"name":"TransferReversed","type":"event"},{"anonymous":false,"inputs":[{"indexed":true,"internalType":"address","name":"from","type":"address"},{"indexed":true,"internalType":"address","name":"to","type":"address"},{"indexed":false,"internalType":"uint256","name":"amountSentToRecipient","type":"uint256"},{"indexed":false,"internalType":"uint256","name":"totalFeeAssessed","type":"uint256"},{"indexed":false,"internalType":"uint256","name":"feePaidFromBalance","type":"uint256"},{"indexed":false,"internalType":"uint256","name":"feePaidFromPrefund","type":"uint256"},{"indexed":false,"internalType":"uint256","name":"feePaidFromCredits","type":"uint256"}],"name":"TransferWithFee","type":"event"},{"anonymous":false,"inputs":[{"indexed":false,"internalType":"address","name":"account","type":"address"}],"name":"Unpaused","type":"event"},{"anonymous":false,"inputs":[{"indexed":true,"internalType":"address","name":"implementation","type":"address"}],"name":"Upgraded","type":"event"},{"inputs":[],"name":"ADMIN_ROLE","outputs":[{"internalType":"bytes32","name":"","type":"bytes32"}],"stateMutability":"view","type":"function"},{"inputs":[],"name":"BURNER_ROLE","outputs":[{"internalType":"bytes32","name":"","type":"bytes32"}],"stateMutability":"view","type":"function"},{"inputs":[],"name":"DEFAULT_ADMIN_ROLE","outputs":[{"internalType":"bytes32","name":"","type":"bytes32"}],"stateMutability":"view","type":"function"},{"inputs":[],"name":"MINTER_ROLE","outputs":[{"internalType":"bytes32","name":"","type":"bytes32"}],"stateMutability":"view","type":"function"},{"inputs":[],"name":"PAUSER_ROLE","outputs":[{"internalType":"bytes32","name":"","type":"bytes32"}],"stateMutability":"view","type":"function"},{"inputs":[],"name":"UPGRADE_INTERFACE_VERSION","outputs":[{"internalType":"string","name":"","type":"string"}],"stateMutability":"view","type":"function"},{"inputs":[{"internalType":"address","name":"owner","type":"address"},{"internalType":"address","name":"spender","type":"address"}],"name":"allowance","outputs":[{"internalType":"uint256","name":"","type":"uint256"}],"stateMutability":"view","type":"function"},{"inputs":[{"internalType":"address","name":"spender","type":"address"},{"internalType":"uint256","name":"value","type":"uint256"}],"name":"approve","outputs":[{"internalType":"bool","name":"","type":"bool"}],"stateMutability":"nonpayable","type":"function"},{"inputs":[{"internalType":"address","name":"account","type":"address"}],"name":"balanceOf","outputs":[{"internalType":"uint256","name":"","type":"uint256"}],"stateMutability":"view","type":"function"},{"inputs":[{"internalType":"uint256","name":"amount","type":"uint256"}],"name":"burn","outputs":[],"stateMutability":"nonpayable","type":"function"},{"inputs":[{"internalType":"address","name":"account","type":"address"},{"internalType":"uint256","name":"amount","type":"uint256"}],"name":"burnFrom","outputs":[],"stateMutability":"nonpayable","type":"function"},{"inputs":[{"internalType":"address","name":"wallet","type":"address"}],"name":"calculateRiskFactor","outputs":[{"internalType":"uint256","name":"","type":"uint256"}],"stateMutability":"view","type":"function"},{"inputs":[{"internalType":"address","name":"wallet","type":"address"}],"name":"checkHalfLifeExpiry","outputs":[],"stateMutability":"nonpayable","type":"function"},{"inputs":[{"internalType":"address","name":"debtor","type":"address"},{"internalType":"address","name":"creditor","type":"address"},{"internalType":"uint256","name":"amountToClear","type":"uint256"}],"name":"clearInterbankLiability","outputs":[],"stateMutability":"nonpayable","type":"function"},{"inputs":[],"name":"decimals","outputs":[{"internalType":"uint8","name":"","type":"uint8"}],"stateMutability":"view","type":"function"},{"inputs":[{"internalType":"address","name":"sender","type":"address"},{"internalType":"address","name":"recipient","type":"address"},{"internalType":"uint256","name":"amountIntendedForRecipient","type":"uint256"}],"name":"estimateTransferFeeDetails","outputs":[{"components":[{"internalType":"uint256","name":"requestedAmount","type":"uint256"},{"internalType":"uint256","name":"baseFeeAmount","type":"uint256"},{"internalType":"uint256","name":"senderRiskScore","type":"uint256"},{"internalType":"uint256","name":"recipientRiskScore","type":"uint256"},{"internalType":"uint256","name":"applicableRiskScore","type":"uint256"},{"internalType":"uint256","name":"amountRiskScaler","type":"uint256"},{"internalType":"uint256","name":"scaledRiskImpactBps","type":"uint256"},{"internalType":"uint256","name":"finalRiskFactorBps","type":"uint256"},{"internalType":"uint256","name":"feeBeforeCreditsAndBounds","type":"uint256"},{"internalType":"uint256","name":"availableCredits","type":"uint256"},{"internalType":"uint256","name":"creditsToApply","type":"uint256"},{"internalType":"uint256","name":"feeAfterCredits","type":"uint256"},{"internalType":"uint256","name":"maxFeeBound","type":"uint256"},{"internalType":"uint256","name":"minFeeBound","type":"uint256"},{"internalType":"bool","name":"maxFeeApplied","type":"bool"},{"internalType":"bool","name":"minFeeApplied","type":"bool"},{"internalType":"uint256","name":"totalFeeAssessed","type":"uint256"},{"internalType":"uint256","name":"netAmountToSendToRecipient","type":"uint256"}],"internalType":"struct T3Token.FeeDetails","name":"details","type":"tuple"}],"stateMutability":"view","type":"function"},{"inputs":[{"internalType":"address","name":"wallet","type":"address"}],"name":"flagAbnormalTransaction","outputs":[],"stateMutability":"nonpayable","type":"function"},{"inputs":[{"internalType":"address","name":"wallet","type":"address"}],"name":"getAvailableCredits","outputs":[{"internalType":"uint256","name":"","type":"uint256"}],"stateMutability":"view","type":"function"},{"inputs":[{"internalType":"address","name":"wallet","type":"address"}],"name":"getPrefundedFeeBalance","outputs":[{"internalType":"uint256","name":"","type":"uint256"}],"stateMutability":"view","type":"function"},{"inputs":[{"internalType":"bytes32","name":"role","type":"bytes32"}],"name":"getRoleAdmin","outputs":[{"internalType":"bytes32","name":"","type":"bytes32"}],"stateMutability":"view","type":"function"},{"inputs":[{"internalType":"bytes32","name":"role","type":"bytes32"},{"internalType":"address","name":"account","type":"address"}],"name":"grantRole","outputs":[],"stateMutability":"nonpayable","type":"function"},{"inputs":[],"name":"halfLifeDuration","outputs":[{"internalType":"uint256","name":"","type":"uint256"}],"stateMutability":"view","type":"function"},{"inputs":[{"internalType":"bytes32","name":"role","type":"bytes32"},{"internalType":"address","name":"account","type":"address"}],"name":"hasRole","outputs":[{"internalType":"bool","name":"","type":"bool"}],"stateMutability":"view","type":"function"},{"inputs":[],"name":"inactivityResetPeriod","outputs":[{"internalType":"uint256","name":"","type":"uint256"}],"stateMutability":"view","type":"function"},{"inputs":[{"internalType":"address","name":"","type":"address"}],"name":"incentiveCredits","outputs":[{"internalType":"uint256","name":"amount","type":"uint256"},{"internalType":"uint256","name":"lastUpdated","type":"uint256"}],"stateMutability":"view","type":"function"},{"inputs":[{"internalType":"string","name":"name","type":"string"},{"internalType":"string","name":"symbol","type":"string"},{"internalType":"address","name":"initialAdmin","type":"address"},{"internalType":"address","name":"_treasuryAddress","type":"address"},{"internalType":"uint256","name":"initialMintAmount","type":"uint256"},{"internalType":"uint256","name":"_initialHalfLifeDuration","type":"uint256"},{"internalType":"uint256","name":"_initialMinHalfLifeDuration","type":"uint256"},{"internalType":"uint256","name":"_initialMaxHalfLifeDuration","type":"uint256"},{"internalType":"uint256","name":"_initialInactivityResetPeriod","type":"uint256"}],"name":"initialize","outputs":[],"stateMutability":"nonpayable","type":"function"},{"inputs":[{"internalType":"address","name":"","type":"address"},{"internalType":"address","name":"","type":"address"}],"name":"interbankLiability","outputs":[{"internalType":"uint256","name":"","type":"uint256"}],"stateMutability":"view","type":"function"},{"inputs":[],"name":"maxHalfLifeDuration","outputs":[{"internalType":"uint256","name":"","type":"uint256"}],"stateMutability":"view","type":"function"},{"inputs":[],"name":"minHalfLifeDuration","outputs":[{"internalType":"uint256","name":"","type":"uint256"}],"stateMutability":"view","type":"function"},{"inputs":[{"internalType":"address","name":"recipient","type":"address"},{"internalType":"uint256","name":"amount","type":"uint256"}],"name":"mint","outputs":[],"stateMutability":"nonpayable","type":"function"},{"inputs":[{"internalType":"address","name":"","type":"address"}],"name":"mintedByMinter","outputs":[{"internalType":"uint256","name":"","type":"uint256"}],"stateMutability":"view","type":"function"},{"inputs":[],"name":"name","outputs":[{"internalType":"string","name":"","type":"string"}],"stateMutability":"view","type":"function"},{"inputs":[],"name":"pause","outputs":[],"stateMutability":"nonpayable","type":"function"},{"inputs":[],"name":"paused","outputs":[{"internalType":"bool","name":"","type":"bool"}],"stateMutability":"view","type":"function"},{"inputs":[{"internalType":"uint256","name":"amount","type":"uint256"}],"name":"prefundFees","outputs":[],"stateMutability":"nonpayable","type":"function"},{"inputs":[{"internalType":"address","name":"","type":"address"}],"name":"prefundedFeeBalances","outputs":[{"internalType":"uint256","name":"","type":"uint256"}],"stateMutability":"view","type":"function"},{"inputs":[],"name":"proxiableUUID","outputs":[{"internalType":"bytes32","name":"","type":"bytes32"}],"stateMutability":"view","type":"function"},{"inputs":[{"internalType":"address","name":"debtor","type":"address"},{"internalType":"address","name":"creditor","type":"address"},{"internalType":"uint256","name":"amount","type":"uint256"}],"name":"recordInterbankLiability","outputs":[],"stateMutability":"nonpayable","type":"function"},{"inputs":[{"internalType":"bytes32","name":"role","type":"bytes32"},{"internalType":"address","name":"callerConfirmation","type":"address"}],"name":"renounceRole","outputs":[],"stateMutability":"nonpayable","type":"function"},{"inputs":[{"internalType":"address","name":"recipientOfOriginalTransfer","type":"address"},{"internalType":"uint256","name":"amountToReverse","type":"uint256"}],"name":"reverseTransfer","outputs":[],"stateMutability":"nonpayable","type":"function"},{"inputs":[{"internalType":"bytes32","name":"role","type":"bytes32"},{"internalType":"address","name":"account","type":"address"}],"name":"revokeRole","outputs":[],"stateMutability":"nonpayable","type":"function"},{"inputs":[{"internalType":"address","name":"","type":"address"}],"name":"rollingAverages","outputs":[{"internalType":"uint256","name":"totalAmount","type":"uint256"},{"internalType":"uint256","name":"count","type":"uint256"},{"internalType":"uint256","name":"lastUpdated","type":"uint256"}],"stateMutability":"view","type":"function"},{"inputs":[{"internalType":"uint256","name":"_halfLifeDuration","type":"uint256"}],"name":"setHalfLifeDuration","outputs":[],"stateMutability":"nonpayable","type":"function"},{"inputs":[{"internalType":"uint256","name":"_inactivityResetPeriod","type":"uint256"}],"name":"setInactivityResetPeriod","outputs":[],"stateMutability":"nonpayable","type":"function"},{"inputs":[{"internalType":"uint256","name":"_maxHalfLifeDuration","type":"uint256"}],"name":"setMaxHalfLifeDuration","outputs":[],"stateMutability":"nonpayable","type":"function"},{"inputs":[{"internalType":"uint256","name":"_minHalfLifeDuration","type":"uint256"}],"name":"setMinHalfLifeDuration","outputs":[],"stateMutability":"nonpayable","type":"function"},{"inputs":[{"internalType":"address","name":"_treasuryAddress","type":"address"}],"name":"setTreasuryAddress","outputs":[],"stateMutability":"nonpayable","type":"function"},{"inputs":[{"internalType":"bytes4","name":"interfaceId","type":"bytes4"}],"name":"supportsInterface","outputs":[{"internalType":"bool","name":"","type":"bool"}],"stateMutability":"view","type":"function"},{"inputs":[],"name":"symbol","outputs":[{"internalType":"string","name":"","type":"string"}],"stateMutability":"view","type":"function"},{"inputs":[],"name":"totalSupply","outputs":[{"internalType":"uint256","name":"","type":"uint256"}],"stateMutability":"view","type":"function"},{"inputs":[{"internalType":"address","name":"","type":"address"},{"internalType":"address","name":"","type":"address"}],"name":"transactionCountBetween","outputs":[{"internalType":"uint256","name":"","type":"uint256"}],"stateMutability":"view","type":"function"},{"inputs":[{"internalType":"address","name":"recipient","type":"address"},{"internalType":"uint256","name":"amountIntendedForRecipient","type":"uint256"}],"name":"transfer","outputs":[{"internalType":"bool","name":"","type":"bool"}],"stateMutability":"nonpayable","type":"function"},{"inputs":[{"internalType":"address","name":"","type":"address"}],"name":"transferData","outputs":[{"internalType":"uint256","name":"commitWindowEnd","type":"uint256"},{"internalType":"uint256","name":"halfLifeDuration","type":"uint256"},{"internalType":"address","name":"originator","type":"address"},{"internalType":"uint256","name":"transferCount","type":"uint256"},{"internalType":"bytes32","name":"reversalHash","type":"bytes32"},{"internalType":"uint256","name":"totalFeeAssessed","type":"uint256"},{"internalType":"bool","name":"isReversed","type":"bool"}],"stateMutability":"view","type":"function"},{"inputs":[{"internalType":"address","name":"from","type":"address"},{"internalType":"address","name":"to","type":"address"},{"internalType":"uint256","name":"amountIntendedForRecipient","type":"uint256"}],"name":"transferFrom","outputs":[{"internalType":"bool","name":"","type":"bool"}],"stateMutability":"nonpayable","type":"function"},{"inputs":[],"name":"treasuryAddress","outputs":[{"internalType":"address","name":"","type":"address"}],"stateMutability":"view","type":"function"},{"inputs":[],"name":"unpause","outputs":[],"stateMutability":"nonpayable","type":"function"},{"inputs":[{"internalType":"address","name":"newImplementation","type":"address"},{"internalType":"bytes","name":"data","type":"bytes"}],"name":"upgradeToAndCall","outputs":[],"stateMutability":"payable","type":"function"},{"inputs":[{"internalType":"address","name":"","type":"address"}],"name":"walletRiskProfiles","outputs":[{"internalType":"uint256","name":"reversalCount","type":"uint256"},{"internalType":"uint256","name":"lastReversal","type":"uint256"},{"internalType":"uint256","name":"creationTime","type":"uint256"},{"internalType":"uint256","name":"abnormalTxCount","type":"uint256"}],"stateMutability":"view","type":"function"},{"inputs":[{"internalType":"uint256","name":"amount","type":"uint256"}],"name":"withdrawPrefundedFees","outputs":[],"stateMutability":"nonpayable","type":"function"}],"evm":{"bytecode":{"linkReferences":{},"object":"60a0604052306080523480156200001557600080fd5b506200002062000026565b620000da565b7ff0c57e16840df040f15088dc2f81fe391c3923bec73e23a9662efc9c229c6a00805468010000000000000000900460ff1615620000775760405163f92ee8a960e01b815260040160405180910390fd5b80546001600160401b0390811614620000d75780546001600160401b0319166001600160401b0390811782556040519081527fc7f505b2f371ae2175ee4913f4499e1f2633a7b5936321eed1cdaeb6115181d29060200160405180910390a15b50565b608051614d966200010460003960008181612f8701528181612fb001526131010152614d966000f3fe60806040526004361061038c5760003560e01c80636605bfda116101dc578063a217fddf11610102578063d5391393116100a0578063e63ab1e91161006f578063e63ab1e914610c37578063e697da6814610c59578063f58978cc14610d47578063f7ad9ca514610d6757600080fd5b8063d539139314610ba3578063d547741f14610bd7578063dd62ed3e14610bf7578063dd7faab114610c1757600080fd5b8063af20d942116100dc578063af20d94214610aff578063b065a8e514610b1f578063c5f956af14610b55578063c750f20314610b8d57600080fd5b8063a217fddf14610a99578063a9059cbb14610aae578063ad3cb1cc14610ace57600080fd5b806377647f271161017a5780638ffa15d4116101495780638ffa15d4146109ff578063905b7fcb14610a3757806391d1485414610a6457806395d89b4114610a8457600080fd5b806377647f271461097e57806379cc6790146109b4578063800753cf146109d45780638456cb59146109ea57600080fd5b80636e2fae47116101b65780636e2fae47146108fc57806370a082311461091c57806375b238fc1461093c57806376223a271461095e57600080fd5b80636605bfda1461089c5780636b6ef953146108bc5780636cd9ca14146108dc57600080fd5b806336568abe116102c15780634f1ef2861161025f5780635a0f385a1161022e5780635a0f385a146107745780635c975abb146107945780635ed61097146107b957806362d3f814146107f157600080fd5b80634f1ef2861461070c578063508c06341461071f57806352d1902d1461073f57806357fe51d21461075457600080fd5b806340c10f191161029b57806340c10f191461069657806342966c68146106b65780634c915d18146106d65780634d8183cc146106ec57600080fd5b806336568abe146105ff5780633d8d1dce1461061f5780633f4ba83a1461068157600080fd5b806318160ddd1161032e578063282c51f311610308578063282c51f3146105625780632f2ff15d14610596578063313ce567146105b657806333dcdacb146105d257600080fd5b806318160ddd146104ee57806323b872dd14610522578063248a9ca31461054257600080fd5b806308d887d01161036a57806308d887d01461040c578063095ea7b3146104635780630c27ab5a146104835780630f3f0803146104cc57600080fd5b806301ffc9a71461039157806303833501146103c657806306fdde03146103ea575b600080fd5b34801561039d57600080fd5b506103b16103ac366004614647565b610d87565b60405190151581526020015b60405180910390f35b3480156103d257600080fd5b506103dc60035481565b6040519081526020016103bd565b3480156103f657600080fd5b506103ff610d98565b6040516103bd9190614695565b34801561041857600080fd5b506104486104273660046146e4565b60066020526000908152604090208054600182015460029092015490919083565b604080519384526020840192909252908201526060016103bd565b34801561046f57600080fd5b506103b161047e3660046146ff565b610e5b565b34801561048f57600080fd5b506104b761049e3660046146e4565b6009602052600090815260409020805460019091015482565b604080519283526020830191909152016103bd565b3480156104d857600080fd5b506104ec6104e7366004614729565b610e73565b005b3480156104fa57600080fd5b507f52c63247e1f47db19d5ce0460030c497f067ca4cebf71ba98eeadabe20bace02546103dc565b34801561052e57600080fd5b506103b161053d366004614742565b610f1a565b34801561054e57600080fd5b506103dc61055d366004614729565b610f48565b34801561056e57600080fd5b506103dc7f3c11d16cbaffd01df69ce1c404f6340ee057498f5f00246190ea54220576a84881565b3480156105a257600080fd5b506104ec6105b136600461477e565b610f6a565b3480156105c257600080fd5b50604051601281526020016103bd565b3480156105de57600080fd5b506103dc6105ed3660046146e4565b600c6020526000908152604090205481565b34801561060b57600080fd5b506104ec61061a36600461477e565b610f8c565b34801561062b57600080fd5b5061066161063a3660046146e4565b60086020526000908152604090208054600182015460028301546003909301549192909184565b6040805194855260208501939093529183015260608201526080016103bd565b34801561068d57600080fd5b506104ec610fc4565b3480156106a257600080fd5b506104ec6106b13660046146ff565b610fe7565b3480156106c257600080fd5b506104ec6106d1366004614729565b611154565b3480156106e257600080fd5b506103dc60005481565b3480156106f857600080fd5b506104ec610707366004614742565b6111b6565b6104ec61071a366004614836565b611425565b34801561072b57600080fd5b506104ec61073a3660046146e4565b611444565b34801561074b57600080fd5b506103dc61173c565b34801561076057600080fd5b506104ec61076f366004614729565b611759565b34801561078057600080fd5b506104ec61078f3660046146ff565b611817565b3480156107a057600080fd5b50600080516020614d218339815191525460ff166103b1565b3480156107c557600080fd5b506103dc6107d4366004614898565b600b60209081526000928352604080842090915290825290205481565b3480156107fd57600080fd5b5061085761080c3660046146e4565b60056020819052600091825260409091208054600182015460028301546003840154600485015495850154600690950154939592946001600160a01b03909216939092919060ff1687565b6040805197885260208801969096526001600160a01b03909416948601949094526060850191909152608084015260a0830191909152151560c082015260e0016103bd565b3480156108a857600080fd5b506104ec6108b73660046146e4565b611a7c565b3480156108c857600080fd5b506103dc6108d73660046146e4565b611b0d565b3480156108e857600080fd5b506104ec6108f7366004614729565b611c0c565b34801561090857600080fd5b506104ec6109173660046146e4565b611c7a565b34801561092857600080fd5b506103dc6109373660046146e4565b611ccb565b34801561094857600080fd5b506103dc600080516020614d4183398151915281565b34801561096a57600080fd5b506104ec610979366004614729565b611cf3565b34801561098a57600080fd5b506103dc6109993660046146e4565b6001600160a01b03166000908152600c602052604090205490565b3480156109c057600080fd5b506104ec6109cf3660046146ff565b611daf565b3480156109e057600080fd5b506103dc60015481565b3480156109f657600080fd5b506104ec611e1d565b348015610a0b57600080fd5b506103dc610a1a366004614898565b600760209081526000928352604080842090915290825290205481565b348015610a4357600080fd5b506103dc610a523660046146e4565b600a6020526000908152604090205481565b348015610a7057600080fd5b506103b1610a7f36600461477e565b611e3d565b348015610a9057600080fd5b506103ff611e75565b348015610aa557600080fd5b506103dc600081565b348015610aba57600080fd5b506103b1610ac93660046146ff565b611eb4565b348015610ada57600080fd5b506103ff604051806040016040528060058152602001640352e302e360dc1b81525081565b348015610b0b57600080fd5b506104ec610b1a366004614729565b611eca565b348015610b2b57600080fd5b506103dc610b3a3660046146e4565b6001600160a01b031660009081526009602052604090205490565b348015610b6157600080fd5b50600454610b75906001600160a01b031681565b6040516001600160a01b0390911681526020016103bd565b348015610b9957600080fd5b506103dc60025481565b348015610baf57600080fd5b506103dc7f9f2df0fed2c77648de5860a4cc508cd0818c85b8b8a1ab4ceeef8d981c8956a681565b348015610be357600080fd5b506104ec610bf236600461477e565b611fda565b348015610c0357600080fd5b506103dc610c12366004614898565b611ff6565b348015610c2357600080fd5b506104ec610c32366004614742565b612040565b348015610c4357600080fd5b506103dc600080516020614ce183398151915281565b348015610c6557600080fd5b50610c79610c74366004614742565b612234565b6040516103bd9190815181526020808301519082015260408083015190820152606080830151908201526080808301519082015260a0808301519082015260c0808301519082015260e08083015190820152610100808301519082015261012080830151908201526101408083015190820152610160808301519082015261018080830151908201526101a080830151908201526101c0808301511515908201526101e080830151151590820152610200808301519082015261022091820151918101919091526102400190565b348015610d5357600080fd5b506104ec610d623660046148e2565b612572565b348015610d7357600080fd5b506104ec610d82366004614729565b6128fb565b6000610d9282612a39565b92915050565b7f52c63247e1f47db19d5ce0460030c497f067ca4cebf71ba98eeadabe20bace038054606091600080516020614ca183398151915291610dd790614995565b80601f0160208091040260200160405190810160405280929190818152602001828054610e0390614995565b8015610e505780601f10610e2557610100808354040283529160200191610e50565b820191906000526020600020905b815481529060010190602001808311610e3357829003601f168201915b505050505091505090565b600033610e69818585612a6e565b5060019392505050565b600080516020614d41833981519152610e8b81612a7b565b600154821015610ed25760405162461bcd60e51b815260206004820152600d60248201526c42656c6f77206d696e696d756d60981b60448201526064015b60405180910390fd5b600254821115610f145760405162461bcd60e51b815260206004820152600d60248201526c41626f7665206d6178696d756d60981b6044820152606401610ec9565b50600055565b6000610f24612a85565b33610f30858285612ab8565b610f3b858585612b19565b60019150505b9392505050565b6000908152600080516020614d01833981519152602052604090206001015490565b610f7382610f48565b610f7c81612a7b565b610f868383612d39565b50505050565b6001600160a01b0381163314610fb55760405163334bd91960e11b815260040160405180910390fd5b610fbf8282612dde565b505050565b600080516020614ce1833981519152610fdc81612a7b565b610fe4612e5a565b50565b610fef612a85565b7f9f2df0fed2c77648de5860a4cc508cd0818c85b8b8a1ab4ceeef8d981c8956a661101981612a7b565b6001600160a01b03831661106f5760405162461bcd60e51b815260206004820152601860248201527f4d696e7420746f20746865207a65726f206164647265737300000000000000006044820152606401610ec9565b600082116110bf5760405162461bcd60e51b815260206004820152601c60248201527f4d696e7420616d6f756e74206d75737420626520706f736974697665000000006044820152606401610ec9565b336110ca8484612eba565b6001600160a01b0381166000908152600a6020526040812080548592906110f29084906149e5565b90915550611101905084612ef0565b836001600160a01b0316816001600160a01b03167fbf67ec129007be07f346d9d2933215293a6612ce7ff17d6b479a5a5cae72890c8560405161114691815260200190565b60405180910390a350505050565b61115c612a85565b600081116111ac5760405162461bcd60e51b815260206004820152601c60248201527f4275726e20616d6f756e74206d75737420626520706f736974697665000000006044820152606401610ec9565b610fe43382612f46565b600080516020614d418339815191526111ce81612a7b565b6001600160a01b0384166112245760405162461bcd60e51b815260206004820152601d60248201527f446562746f722063616e6e6f74206265207a65726f20616464726573730000006044820152606401610ec9565b6001600160a01b03831661127a5760405162461bcd60e51b815260206004820152601f60248201527f4372656469746f722063616e6e6f74206265207a65726f2061646472657373006044820152606401610ec9565b826001600160a01b0316846001600160a01b0316036112d75760405162461bcd60e51b81526020600482015260196024820152782232b13a37b91031b0b73737ba1031329031b932b234ba37b960391b6044820152606401610ec9565b600082116113275760405162461bcd60e51b815260206004820181905260248201527f416d6f756e7420746f20636c656172206d75737420626520706f7369746976656044820152606401610ec9565b6001600160a01b038085166000908152600b6020908152604080832093871683529290522054808311156113b35760405162461bcd60e51b815260206004820152602d60248201527f416d6f756e7420746f20636c6561722065786365656473206f75747374616e6460448201526c696e67206c696162696c69747960981b6064820152608401610ec9565b6113bd83826149f8565b6001600160a01b038681166000818152600b60209081526040808320948a16808452948252918290209490945551868152919290917f59ee8f52c52e61b33b5c6a4f2311c6855f389b6d4667bc980aaa3eb4fa8d7b7f91015b60405180910390a35050505050565b61142d612f7c565b61143682613021565b6114408282613039565b5050565b61144c612a85565b6001600160a01b038116600090815260056020526040902080546114b25760405162461bcd60e51b815260206004820152601f60248201527f4578706972793a204e6f20616374697665207472616e736665722064617461006044820152606401610ec9565b600681015460ff16156115075760405162461bcd60e51b815260206004820152601d60248201527f4578706972793a205472616e73666572207761732072657665727365640000006044820152606401610ec9565b80544210156115585760405162461bcd60e51b815260206004820181905260248201527f4578706972793a2048616c664c696665206e6f742065787069726564207965746044820152606401610ec9565b600581015480156116a8576000611570600883614a0b565b905080156116a6576000611585600283614a0b565b905080156116a45760028401546001600160a01b0316600090815260096020526040812080548392906115b99084906149e5565b90915550506002840180546001600160a01b0390811660009081526009602090815260409182902042600190910155925490518481529116917ffdfa38dc30c58b0662200654ef296c1527abbf34b03b2f908af130d2a35db878910160405180910390a26001600160a01b038516600090815260096020526040812080548392906116459084906149e5565b90915550506001600160a01b0385166000818152600960205260409081902042600190910155517ffdfa38dc30c58b0662200654ef296c1527abbf34b03b2f908af130d2a35db8789061169b9084815260200190565b60405180910390a25b505b505b6001600160a01b0383166000818152600560208190526040808320838155600181018490556002810180546001600160a01b0319169055600381018490556004810184905591820192909255600601805460ff19169055517f23bd7f8191a147e373def338d5a76dce96b4d2f7d15a43eca83e3ee6e75061439061172f9042815260200190565b60405180910390a2505050565b60006117466130f6565b50600080516020614cc183398151915290565b600080516020614d4183398151915261177181612a7b565b600082116117b85760405162461bcd60e51b81526020600482015260146024820152734d6178206d75737420626520706f73697469766560601b6044820152606401610ec9565b6001548210156117fe5760405162461bcd60e51b81526020600482015260116024820152704d61782062656c6f77206d696e696d756d60781b6044820152606401610ec9565b6002829055600054821015611440576002546000555050565b61181f612a85565b6001600160a01b0382811660009081526005602052604090206002810154339216821461188e5760405162461bcd60e51b815260206004820152601960248201527f526576657273616c3a2053656e646572206d69736d61746368000000000000006044820152606401610ec9565b80546118dc5760405162461bcd60e51b815260206004820152601c60248201527f526576657273616c3a204e6f20616374697665207472616e73666572000000006044820152606401610ec9565b8054421061192c5760405162461bcd60e51b815260206004820152601a60248201527f526576657273616c3a2048616c664c69666520657870697265640000000000006044820152606401610ec9565b600681015460ff161561198d5760405162461bcd60e51b815260206004820152602360248201527f526576657273616c3a205472616e7366657220616c72656164792072657665726044820152621cd95960ea1b6064820152608401610ec9565b8261199785611ccb565b1015611a0b5760405162461bcd60e51b815260206004820152603c60248201527f526576657273616c3a20496e73756666696369656e7420726563697069656e7460448201527f2062616c616e636520666f7220726576657273616c20616d6f756e74000000006064820152608401610ec9565b60068101805460ff19166001179055611a238261313f565b611a2c8461313f565b611a3784838561317e565b836001600160a01b0316826001600160a01b03167f55608e3380952b490f6dc0b1b0bcf7a16177fe10590cf1599b7a84f430b70e378560405161114691815260200190565b600080516020614d41833981519152611a9481612a7b565b6001600160a01b038216611aea5760405162461bcd60e51b815260206004820152601f60248201527f547265617375727920616464726573732063616e6e6f74206265207a65726f006044820152606401610ec9565b50600480546001600160a01b0319166001600160a01b0392909216919091179055565b6001600160a01b038116600090815260086020526040812060028101546127109015801590611b4d575062093a80826002015442611b4b91906149f8565b105b15611b6157611b5e611388826149e5565b90505b60008260010154118015611b86575062278d00826001015442611b8491906149f8565b105b15611b9a57611b97612710826149e5565b90505b815461c35090600090611baf906103e8614a2d565b9050818111611bbe5780611bc0565b815b611bca90846149e5565b60038501549093506161a890600090611be5906101f4614a2d565b9050818111611bf45780611bf6565b815b611c0090866149e5565b98975050505050505050565b600080516020614d41833981519152611c2481612a7b565b60008211611c745760405162461bcd60e51b815260206004820152601760248201527f506572696f64206d75737420626520706f7369746976650000000000000000006044820152606401610ec9565b50600355565b600080516020614d41833981519152611c9281612a7b565b611c9b82612ef0565b6001600160a01b0382166000908152600860205260408120600301805491611cc283614a44565b91905055505050565b6001600160a01b03166000908152600080516020614ca1833981519152602052604090205490565b600080516020614d41833981519152611d0b81612a7b565b60008211611d525760405162461bcd60e51b81526020600482015260146024820152734d696e206d75737420626520706f73697469766560601b6044820152606401610ec9565b600254821115611d965760405162461bcd60e51b815260206004820152600f60248201526e09ad2dc40caf0c6cacac8e640dac2f608b1b6044820152606401610ec9565b6001829055600054821115611440576001546000555050565b611db7612a85565b60008111611e075760405162461bcd60e51b815260206004820152601c60248201527f4275726e20616d6f756e74206d75737420626520706f736974697665000000006044820152606401610ec9565b33611e13838284612ab8565b610fbf8383612f46565b600080516020614ce1833981519152611e3581612a7b565b610fe46131dd565b6000918252600080516020614d01833981519152602090815260408084206001600160a01b0393909316845291905290205460ff1690565b7f52c63247e1f47db19d5ce0460030c497f067ca4cebf71ba98eeadabe20bace048054606091600080516020614ca183398151915291610dd790614995565b6000611ebe612a85565b33610e69818585612b19565b611ed2612a85565b611eda613226565b60008111611f2a5760405162461bcd60e51b815260206004820152601f60248201527f50726566756e6420616d6f756e74206d75737420626520706f736974697665006044820152606401610ec9565b6004543390611f449082906001600160a01b03168461317e565b6001600160a01b0381166000908152600c602052604081208054849290611f6c9084906149e5565b90915550506040518281526001600160a01b038216907f8e7bdecf6a0dc0bc4aeb18783cb10538303214d73bdbbb056d532848500edc0e906020015b60405180910390a250610fe460017f9b779b17422d0df92223018b32b4d1fa46e071723d6817e2486d003becc55f0055565b611fe382610f48565b611fec81612a7b565b610f868383612dde565b6001600160a01b0391821660009081527f52c63247e1f47db19d5ce0460030c497f067ca4cebf71ba98eeadabe20bace016020908152604080832093909416825291909152205490565b600080516020614d4183398151915261205881612a7b565b6001600160a01b0384166120ae5760405162461bcd60e51b815260206004820152601d60248201527f446562746f722063616e6e6f74206265207a65726f20616464726573730000006044820152606401610ec9565b6001600160a01b0383166121045760405162461bcd60e51b815260206004820152601f60248201527f4372656469746f722063616e6e6f74206265207a65726f2061646472657373006044820152606401610ec9565b826001600160a01b0316846001600160a01b0316036121615760405162461bcd60e51b81526020600482015260196024820152782232b13a37b91031b0b73737ba1031329031b932b234ba37b960391b6044820152606401610ec9565b600082116121b15760405162461bcd60e51b815260206004820152601760248201527f416d6f756e74206d75737420626520706f7369746976650000000000000000006044820152606401610ec9565b6001600160a01b038085166000908152600b60209081526040808320938716835292905290812080548492906121e89084906149e5565b92505081905550826001600160a01b0316846001600160a01b03167fbd91b9538487013e1f78426333a3445bdfcdece5d02e402f33f9e598122919f58460405161114691815260200190565b6122c6604051806102400160405280600081526020016000815260200160008152602001600081526020016000815260200160008152602001600081526020016000815260200160008152602001600081526020016000815260200160008152602001600081526020016000815260200160001515815260200160001515815260200160008152602001600081525090565b6001600160a01b0383166123275760405162461bcd60e51b815260206004820152602260248201527f457374696d6174653a205472616e7366657220746f207a65726f206164647265604482015261737360f01b6064820152608401610ec9565b600082116123935760405162461bcd60e51b815260206004820152603360248201527f457374696d6174653a205472616e7366657220616d6f756e74206d7573742062604482015272652067726561746572207468616e207a65726f60681b6064820152608401610ec9565b81815260006123a183613296565b905060006123b182878787613806565b610200840181905290506127106123ca6103e886614a2d565b6123d49190614a0b565b610180840181905261020084015111156124015761018083015161020084015260016101c084015261240a565b60006101c08401525b6509184e72a0006101a0840152610200830151158015906124345750826101a00151836102000151105b80156124455750826101a001518410155b156124b657826101800151836101a0015111158015612469575083836101a0015111155b156124a9576101a0830151610200840181905260016101e08501526101808401511161249c5760016101c08401526124bf565b60006101c08401526124bf565b60006101e08401526124bf565b60006101e08401525b61010083018190526001600160a01b03861660009081526009602052604081208054610120860181905290919015806124fb5750610200850151155b156125145750600061014085015261020084015161255a565b846102000151856101200151106125395750610200840151610140850152600061255a565b610120850151610140860181905261020086015161255791906149f8565b90505b61016085015250505061022081018290529392505050565b600061257c6138da565b805490915060ff600160401b820416159067ffffffffffffffff166000811580156125a45750825b905060008267ffffffffffffffff1660011480156125c15750303b155b9050811580156125cf575080155b156125ed5760405163f92ee8a960e01b815260040160405180910390fd5b845467ffffffffffffffff19166001178555831561261757845460ff60401b1916600160401b1785555b6126218e8e613903565b612629613915565b612631613915565b612639613915565b61264161391d565b6001600160a01b038b166126975760405162461bcd60e51b815260206004820152601f60248201527f547265617375727920616464726573732063616e6e6f74206265207a65726f006044820152606401610ec9565b600480546001600160a01b0319166001600160a01b038d161790556126bd60008d612d39565b506126d6600080516020614d418339815191528d612d39565b506126ef600080516020614ce18339815191528d612d39565b508915612700576127008c8b612eba565b6000899055600188905560028790556003869055876127615760405162461bcd60e51b815260206004820152601d60248201527f4d696e2048616c664c696665206d75737420626520706f7369746976650000006044820152606401610ec9565b60025460015411156127b55760405162461bcd60e51b815260206004820152601860248201527f4d696e2048616c664c6966652065786365656473206d617800000000000000006044820152606401610ec9565b600154600054101580156127cd575060025460005411155b6128195760405162461bcd60e51b815260206004820152601e60248201527f496e697469616c2048616c664c696665206f7574206f6620626f756e647300006044820152606401610ec9565b6000600354116128765760405162461bcd60e51b815260206004820152602260248201527f496e616374697669747920706572696f64206d75737420626520706f73697469604482015261766560f01b6064820152608401610ec9565b6001600160a01b038c16156128a5576001600160a01b038c166000908152600860205260409020426002909101555b83156128eb57845460ff60401b19168555604051600181527fc7f505b2f371ae2175ee4913f4499e1f2633a7b5936321eed1cdaeb6115181d29060200160405180910390a15b5050505050505050505050505050565b612903612a85565b61290b613226565b6000811161295b5760405162461bcd60e51b815260206004820181905260248201527f576974686472617720616d6f756e74206d75737420626520706f7369746976656044820152606401610ec9565b336000818152600c60205260409020548211156129ba5760405162461bcd60e51b815260206004820152601f60248201527f496e73756666696369656e74207072652d66756e6465642062616c616e6365006044820152606401610ec9565b6001600160a01b0381166000908152600c6020526040812080548492906129e29084906149f8565b90915550506004546129fe906001600160a01b0316828461317e565b806001600160a01b03167fbd55d9f44220c89bc817dc6343b4106e55550456ade2a5ed215bbd2c24a46d4e83604051611fa891815260200190565b60006001600160e01b03198216637965db0b60e01b1480610d9257506301ffc9a760e01b6001600160e01b0319831614610d92565b610fbf838383600161392d565b610fe48133613a0c565b600080516020614d218339815191525460ff1615612ab65760405163d93c066560e01b815260040160405180910390fd5b565b6000612ac48484611ff6565b9050600019811015610f865781811015612b0a57604051637dc7a0d960e11b81526001600160a01b03841660048201526024810182905260448101839052606401610ec9565b610f868484848403600061392d565b6001600160a01b038216612b6f5760405162461bcd60e51b815260206004820152601860248201527f5472616e7366657220746f207a65726f206164647265737300000000000000006044820152606401610ec9565b60008111612bd15760405162461bcd60e51b815260206004820152602960248201527f5472616e7366657220616d6f756e74206d7573742062652067726561746572206044820152687468616e207a65726f60b81b6064820152608401610ec9565b6001600160a01b03831660009081526005602052604090205442108015612c1857506001600160a01b03838116600090815260056020526040902060020154811690831614155b15612c8d576040805162461bcd60e51b81526020600482015260248101919091527f43616e6e6f74207472616e7366657220647572696e672048616c664c6966652060448201527f706572696f6420657863657074206261636b20746f206f726967696e61746f726064820152608401610ec9565b6000612c9a848484613a45565b90506000806000612cad87878787613ad9565b919450925090508315612cc557612cc5878786613cd2565b612cd187878787613da9565b604080518681526020810186905290810182905260608101849052608081018390526001600160a01b0380881691908916907f8657fd10f23e08d990dfb64ede272bec69b6400f33c93f96a1c0030a1cc6a3809060a00160405180910390a350505050505050565b6000600080516020614d01833981519152612d548484611e3d565b612dd4576000848152602082815260408083206001600160a01b03871684529091529020805460ff19166001179055612d8a3390565b6001600160a01b0316836001600160a01b0316857f2f8788117e7eff1d82e926ec794901d17c78024a50270940304540a733656f0d60405160405180910390a46001915050610d92565b6000915050610d92565b6000600080516020614d01833981519152612df98484611e3d565b15612dd4576000848152602082815260408083206001600160a01b0387168085529252808320805460ff1916905551339287917ff6391f5c32d9c69d2a47ea670b442974b53935d1edc7fd64eb21e047a839171b9190a46001915050610d92565b612e62613f3c565b600080516020614d21833981519152805460ff191681557f5db9ee0a495bf2e6ff9c91a7834c1ba4fdd244a5e8aa4e537bd38aeae4b073aa335b6040516001600160a01b03909116815260200160405180910390a150565b6001600160a01b038216612ee45760405163ec442f0560e01b815260006004820152602401610ec9565b61144060008383613f6c565b6001600160a01b03811615801590612f2157506001600160a01b038116600090815260086020526040902060020154155b15610fe4576001600160a01b0316600090815260086020526040902042600290910155565b6001600160a01b038216612f7057604051634b637e8f60e11b815260006004820152602401610ec9565b61144082600083613f6c565b306001600160a01b037f000000000000000000000000000000000000000000000000000000000000000016148061300357507f00000000000000000000000000000000000000000000000000000000000000006001600160a01b0316612ff7600080516020614cc1833981519152546001600160a01b031690565b6001600160a01b031614155b15612ab65760405163703e46dd60e11b815260040160405180910390fd5b600080516020614d4183398151915261144081612a7b565b816001600160a01b03166352d1902d6040518163ffffffff1660e01b8152600401602060405180830381865afa925050508015613093575060408051601f3d908101601f1916820190925261309091810190614a5d565b60015b6130bb57604051634c9c8ce360e01b81526001600160a01b0383166004820152602401610ec9565b600080516020614cc183398151915281146130ec57604051632a87526960e21b815260048101829052602401610ec9565b610fbf8383613f7f565b306001600160a01b037f00000000000000000000000000000000000000000000000000000000000000001614612ab65760405163703e46dd60e11b815260040160405180910390fd5b61314881612ef0565b6001600160a01b038116600090815260086020526040812080549091829061316f83614a44565b90915550504260019091015550565b6001600160a01b0383166131a857604051634b637e8f60e11b815260006004820152602401610ec9565b6001600160a01b0382166131d25760405163ec442f0560e01b815260006004820152602401610ec9565b610fbf838383613f6c565b6131e5612a85565b600080516020614d21833981519152805460ff191660011781557f62e78cea01bee320cd4e420270b5ea74000d11b0c9f74754ebdbfc544b05a25833612e9c565b7f9b779b17422d0df92223018b32b4d1fa46e071723d6817e2486d003becc55f0080546001190161326a57604051633ee5aeb560e01b815260040160405180910390fd5b60029055565b60017f9b779b17422d0df92223018b32b4d1fa46e071723d6817e2486d003becc55f0055565b6000816000036132a857506000919050565b60408051600b8082526101808201909252600091829190816020015b6132cc614629565b8152602001906001900390816132c457505060408051808201909152662386f26fc1000081529091506103e8906020810161330a83620186a0614a2d565b8152508260008151811061332057613320614a76565b6020026020010181905250604051806040016040528067016345785d8a00008152602001826127106133529190614a2d565b8152508260018151811061336857613368614a76565b60200260200101819052506040518060400160405280670de0b6b3a76400008152602001826103e861339a9190614a2d565b815250826002815181106133b0576133b0614a76565b60200260200101819052506040518060400160405280678ac7230489e8000081526020018260646133e19190614a2d565b815250826003815181106133f7576133f7614a76565b6020026020010181905250604051806040016040528068056bc75e2d63100000815260200182600a6134299190614a2d565b8152508260048151811061343f5761343f614a76565b60200260200101819052506040518060400160405280683635c9adc5dea0000081526020018260016134719190614a2d565b8152508260058151811061348757613487614a76565b6020026020010181905250604051806040016040528069021e19e0c9bab24000008152602001600a8360016134bc9190614a2d565b6134c69190614a0b565b815250826006815181106134dc576134dc614a76565b6020026020010181905250604051806040016040528069152d02c7e14af6800000815260200160648360016135119190614a2d565b61351b9190614a0b565b8152508260078151811061353157613531614a76565b6020026020010181905250604051806040016040528069d3c21bcecceda100000081526020016103e88360016135679190614a2d565b6135719190614a0b565b8152508260088151811061358757613587614a76565b6020026020010181905250604051806040016040528060001981526020016127108360016135b59190614a2d565b6135bf9190614a0b565b815250826009815181106135d5576135d5614a76565b602002602001018190525060405180604001604052806000198152602001620186a08360016136049190614a2d565b61360e9190614a0b565b81525082600a8151811061362457613624614a76565b602002602001018190525060005b82518110156137fc57600083828151811061364f5761364f614a76565b602002602001015160006002811061366957613669614a76565b60200201519050600084838151811061368457613684614a76565b602002602001015160016002811061369e5761369e614a76565b60200201519050600083156136ed57856136b96001866149f8565b815181106136c9576136c9614a76565b60200260200101516000600281106136e3576136e3614a76565b60200201516136f0565b60005b90506000818a111561379757838a1061378a578184111561371c5761371582856149f8565b9050613797565b506000600019841480156137305750600085115b80156137775750600019876137466001886149f8565b8151811061375657613756614a76565b602002602001015160006002811061377057613770614a76565b6020020151145b1561378557505050506137fc565b613797565b613794828b6149f8565b90505b6000811180156137a75750600083115b156137db576137ba6103e8612710614a2d565b6137c48483614a2d565b6137ce9190614a0b565b6137d890896149e5565b97505b838a10156137ec57505050506137fc565b5050600190920191506136329050565b5091949350505050565b600084600003613818575060006138d2565b600061382385611b0d565b9050600061383085611b0d565b905060008183116138415781613843565b825b905060006127108211613857576000613863565b613863612710836149f8565b90508060000361387957889450505050506138d2565b600061388487613fd5565b905060006127106138958385614a2d565b61389f9190614a0b565b905060006138af826127106149e5565b90506127106138be828e614a2d565b6138c89190614a0b565b9750505050505050505b949350505050565b6000807ff0c57e16840df040f15088dc2f81fe391c3923bec73e23a9662efc9c229c6a00610d92565b61390b61408f565b61144082826140b4565b612ab661408f565b61392561408f565b612ab6614105565b600080516020614ca18339815191526001600160a01b0385166139665760405163e602df0560e01b815260006004820152602401610ec9565b6001600160a01b03841661399057604051634a1406b160e11b815260006004820152602401610ec9565b6001600160a01b03808616600090815260018301602090815260408083209388168352929052208390558115613a0557836001600160a01b0316856001600160a01b03167f8c5be1e5ebec7d5bd14f71427d1e84f3dd0314c0f7b2291e5b200ac8c7c3b9258560405161141691815260200190565b5050505050565b613a168282611e3d565b6114405760405163e2517d3f60e01b81526001600160a01b038216600482015260248101839052604401610ec9565b600080613a5183613296565b90506000613a6182878787613806565b9050806000612710613a756103e888614a2d565b613a7f9190614a0b565b905080821115613a8d578091505b6509184e72a0008215801590613aa257508083105b8015613aae5750808710155b15613acc57818111158015613ac35750868111155b15613acc578092505b5090979650505050505050565b60008080838015801590613b0457506001600160a01b0388166000908152600c602052604090205415155b15613bd7576001600160a01b0388166000908152600c60205260408120548210613b46576001600160a01b0389166000908152600c6020526040902054613b48565b815b6001600160a01b038a166000908152600c6020526040812080549293508392909190613b759084906149f8565b90915550909450849050613b8981836149f8565b91508015613bd557886001600160a01b03167f61b2f2053fc2ed5f431a02115cc5585518b9e5118fc14db10fa1fa57310feec182604051613bcc91815260200190565b60405180910390a25b505b8015613c4157600080613bea8a8461410d565b955093508391508490508015613c3e57896001600160a01b03167fc7228b105191bcf0ea43e3534e8b2b750c8e8371115d300ef38189bfcd4bc26e82604051613c3591815260200190565b60405180910390a25b50505b6000613c4d83886149e5565b90506000613c5a8a611ccb565b905081811015613c965760405163391434e360e21b81526001600160a01b038b1660048201526024810182905260448101839052606401610ec9565b8315613cb457600454613cb4908b906001600160a01b03168661317e565b8715613cc557613cc58a8a8a61317e565b5050509450945094915050565b80600003613cdf57505050565b6000613cec600483614a0b565b90506000613cfb600484614a0b565b90508115613d50576001600160a01b03851660009081526009602052604081208054849290613d2b9084906149e5565b90915550506001600160a01b0385166000908152600960205260409020426001909101555b8015613a05576001600160a01b03841660009081526009602052604081208054839290613d7e9084906149e5565b90915550506001600160a01b0384166000908152600960205260409020426001909101555050505050565b6001600160a01b0380851660009081526007602090815260408083209387168352929052908120805491613ddc83614a44565b91905055506000613dee8585856141a6565b90506040518060e001604052808242613e0791906149e5565b8152602001828152602001866001600160a01b0316815260200160056000876001600160a01b03166001600160a01b03168152602001908152602001600020600301546001613e5691906149e5565b8152604051606088811b6bffffffffffffffffffffffff199081166020808501919091529189901b166034830152604882018790529091019060680160408051808303601f190181529181528151602092830120835282820186905260009281018390526001600160a01b03888116845260058084529382902085518155928501516001840155908401516002830180546001600160a01b03191691909216179055606083015160038201556080830151600482015560a08301519181019190915560c0909101516006909101805460ff1916911515919091179055613a0584846142db565b600080516020614d218339815191525460ff16612ab657604051638dfc202b60e01b815260040160405180910390fd5b613f74612a85565b610fbf838383614360565b613f8882614490565b6040516001600160a01b038316907fbc7cd75a20ee27fd9adebab32041f755214dbc6bffa90cc0225b39da2e5c2d3b90600090a2805115613fcd57610fbf82826144f5565b61144061456b565b600081600003613fe757506000919050565b60126000613ff682600a614b68565b614001906001614a2d565b905060015b8185118015614016575061271081105b15614079576000614028600a84614a2d565b9050614037600a600019614a0b565b8311156140445750614079565b915081614054600a600019614a0b565b82111561406657612710915050614079565b614071600a83614a2d565b915050614006565b6127108111156138d25750612710949350505050565b61409761458a565b612ab657604051631afcd79f60e31b815260040160405180910390fd5b6140bc61408f565b600080516020614ca18339815191527f52c63247e1f47db19d5ce0460030c497f067ca4cebf71ba98eeadabe20bace036140f68482614bc4565b5060048101610f868382614bc4565b61327061408f565b6001600160a01b038216600090815260096020526040812080548291901580614134575083155b1561414657836000925092505061419f565b8054841161417a578391508381600001600082825461416591906149f8565b9091555050426001909101556000915061419f565b8054915061418882856149f8565b6000825542600190920191909155915061419f565b505b9250929050565b600080546001600160a01b03808616835260076020908152604080852092871685529190528220548015614221576000605a6141e383600a614a2d565b116141f8576141f382600a614a2d565b6141fb565b605a5b9050606461420982826149f8565b6142139085614a2d565b61421d9190614a0b565b9250505b6001600160a01b038616600090815260066020526040902060018101541580159061424c5750805415155b156142ac576001810154815460009161426491614a0b565b905061427181600a614a2d565b8611156142aa576000614285856002614a2d565b90506142946002600019614a0b565b85116142a2578094506142a8565b60001994505b505b505b6001548310156142c05760015492506142d0565b6002548311156142d05760025492505b509095945050505050565b6001600160a01b03821660009081526006602052604090206002810154158015906143155750600354600282015461431390426149f8565b115b1561432557600080825560018201555b8181600001600082825461433991906149e5565b909155505060018101805490600061435083614a44565b9091555050426002909101555050565b600080516020614ca18339815191526001600160a01b03841661439c578181600201600082825461439191906149e5565b9091555061440e9050565b6001600160a01b038416600090815260208290526040902054828110156143ef5760405163391434e360e21b81526001600160a01b03861660048201526024810182905260448101849052606401610ec9565b6001600160a01b03851660009081526020839052604090209083900390555b6001600160a01b03831661442c57600281018054839003905561444b565b6001600160a01b03831660009081526020829052604090208054830190555b826001600160a01b0316846001600160a01b03167fddf252ad1be2c89b69c2b068fc378daa952ba7f163c4a11628f55a4df523b3ef8460405161114691815260200190565b806001600160a01b03163b6000036144c657604051634c9c8ce360e01b81526001600160a01b0382166004820152602401610ec9565b600080516020614cc183398151915280546001600160a01b0319166001600160a01b0392909216919091179055565b6060600080846001600160a01b0316846040516145129190614c84565b600060405180830381855af49150503d806000811461454d576040519150601f19603f3d011682016040523d82523d6000602084013e614552565b606091505b50915091506145628583836145a4565b95945050505050565b3415612ab65760405163b398979f60e01b815260040160405180910390fd5b60006145946138da565b54600160401b900460ff16919050565b6060826145b9576145b482614600565b610f41565b81511580156145d057506001600160a01b0384163b155b156145f957604051639996b31560e01b81526001600160a01b0385166004820152602401610ec9565b5080610f41565b8051156146105780518082602001fd5b60405163d6bda27560e01b815260040160405180910390fd5b60405180604001604052806002906020820280368337509192915050565b60006020828403121561465957600080fd5b81356001600160e01b031981168114610f4157600080fd5b60005b8381101561468c578181015183820152602001614674565b50506000910152565b60208152600082518060208401526146b4816040850160208701614671565b601f01601f19169190910160400192915050565b80356001600160a01b03811681146146df57600080fd5b919050565b6000602082840312156146f657600080fd5b610f41826146c8565b6000806040838503121561471257600080fd5b61471b836146c8565b946020939093013593505050565b60006020828403121561473b57600080fd5b5035919050565b60008060006060848603121561475757600080fd5b614760846146c8565b925061476e602085016146c8565b9150604084013590509250925092565b6000806040838503121561479157600080fd5b823591506147a1602084016146c8565b90509250929050565b634e487b7160e01b600052604160045260246000fd5b600067ffffffffffffffff808411156147db576147db6147aa565b604051601f8501601f19908116603f01168101908282118183101715614803576148036147aa565b8160405280935085815286868601111561481c57600080fd5b858560208301376000602087830101525050509392505050565b6000806040838503121561484957600080fd5b614852836146c8565b9150602083013567ffffffffffffffff81111561486e57600080fd5b8301601f8101851361487f57600080fd5b61488e858235602084016147c0565b9150509250929050565b600080604083850312156148ab57600080fd5b6148b4836146c8565b91506147a1602084016146c8565b600082601f8301126148d357600080fd5b610f41838335602085016147c0565b60008060008060008060008060006101208a8c03121561490157600080fd5b893567ffffffffffffffff8082111561491957600080fd5b6149258d838e016148c2565b9a5060208c013591508082111561493b57600080fd5b506149488c828d016148c2565b98505061495760408b016146c8565b965061496560608b016146c8565b989b979a50959860808101359760a0820135975060c0820135965060e08201359550610100909101359350915050565b600181811c908216806149a957607f821691505b6020821081036149c957634e487b7160e01b600052602260045260246000fd5b50919050565b634e487b7160e01b600052601160045260246000fd5b80820180821115610d9257610d926149cf565b81810381811115610d9257610d926149cf565b600082614a2857634e487b7160e01b600052601260045260246000fd5b500490565b8082028115828204841417610d9257610d926149cf565b600060018201614a5657614a566149cf565b5060010190565b600060208284031215614a6f57600080fd5b5051919050565b634e487b7160e01b600052603260045260246000fd5b600181815b8085111561419d578160001904821115614aad57614aad6149cf565b80851615614aba57918102915b93841c9390800290614a91565b600082614ad657506001610d92565b81614ae357506000610d92565b8160018114614af95760028114614b0357614b1f565b6001915050610d92565b60ff841115614b1457614b146149cf565b50506001821b610d92565b5060208310610133831016604e8410600b8410161715614b42575081810a610d92565b614b4c8383614a8c565b8060001904821115614b6057614b606149cf565b029392505050565b6000610f418383614ac7565b601f821115610fbf576000816000526020600020601f850160051c81016020861015614b9d5750805b601f850160051c820191505b81811015614bbc57828155600101614ba9565b505050505050565b815167ffffffffffffffff811115614bde57614bde6147aa565b614bf281614bec8454614995565b84614b74565b602080601f831160018114614c275760008415614c0f5750858301515b600019600386901b1c1916600185901b178555614bbc565b600085815260208120601f198616915b82811015614c5657888601518255948401946001909101908401614c37565b5085821015614c745787850151600019600388901b60f8161c191681555b5050505050600190811b01905550565b60008251614c96818460208701614671565b919091019291505056fe52c63247e1f47db19d5ce0460030c497f067ca4cebf71ba98eeadabe20bace00360894a13ba1a3210667c828492db98dca3e2076cc3735a920a3ca505d382bbc65d7a28e3265b37a6474929f336521b332c1681b933f6cb9f3376673440d862a02dd7bc7dec4dceedda775e58dd541e08a116c6c53815c0bd028192f7b626800cd5ed15c6e187e77e9aee88184c21f4f2182ab5827cb3b7e07fbedcd63f03300a49807205ce4d355092ef5a8a18f56e8913cf4a201fbe287825b095693c21775a2646970667358221220cbf7913be7f34f7121723fb51c8b9e9aa711539205b5838f2518357ea64a10a064736f6c63430008180033","opcodes":"PUSH1 0xA0 PUSH1 0x40 MSTORE ADDRESS PUSH1 0x80 MSTORE CALLVALUE DUP1 ISZERO PUSH3 0x15 JUMPI PUSH1 0x0 DUP1 REVERT JUMPDEST POP PUSH3 0x20 PUSH3 0x26 JUMP JUMPDEST PUSH3 0xDA JUMP JUMPDEST PUSH32 0xF0C57E16840DF040F15088DC2F81FE391C3923BEC73E23A9662EFC9C229C6A00 DUP1 SLOAD PUSH9 0x10000000000000000 SWAP1 DIV PUSH1 0xFF AND ISZERO PUSH3 0x77 JUMPI PUSH1 0x40 MLOAD PUSH4 0xF92EE8A9 PUSH1 0xE0 SHL DUP2 MSTORE PUSH1 0x4 ADD PUSH1 0x40 MLOAD DUP1 SWAP2 SUB SWAP1 REVERT JUMPDEST DUP1 SLOAD PUSH1 0x1 PUSH1 0x1 PUSH1 0x40 SHL SUB SWAP1 DUP2 AND EQ PUSH3 0xD7 JUMPI DUP1 SLOAD PUSH1 0x1 PUSH1 0x1 PUSH1 0x40 SHL SUB NOT AND PUSH1 0x1 PUSH1 0x1 PUSH1 0x40 SHL SUB SWAP1 DUP2 OR DUP3 SSTORE PUSH1 0x40 MLOAD SWAP1 DUP2 MSTORE PUSH32 0xC7F505B2F371AE2175EE4913F4499E1F2633A7B5936321EED1CDAEB6115181D2 SWAP1 PUSH1 0x20 ADD PUSH1 0x40 MLOAD DUP1 SWAP2 SUB SWAP1 LOG1 JUMPDEST POP JUMP JUMPDEST PUSH1 0x80 MLOAD PUSH2 0x4D96 PUSH3 0x104 PUSH1 0x0 CODECOPY PUSH1 0x0 DUP2 DUP2 PUSH2 0x2F87 ADD MSTORE DUP2 DUP2 PUSH2 0x2FB0 ADD MSTORE PUSH2 0x3101 ADD MSTORE PUSH2 0x4D96 PUSH1 0x0 RETURN INVALID PUSH1 0x80 PUSH1 0x40 MSTORE PUSH1 0x4 CALLDATASIZE LT PUSH2 0x38C JUMPI PUSH1 0x0 CALLDATALOAD PUSH1 0xE0 SHR DUP1 PUSH4 0x6605BFDA GT PUSH2 0x1DC JUMPI DUP1 PUSH4 0xA217FDDF GT PUSH2 0x102 JUMPI DUP1 PUSH4 0xD5391393 GT PUSH2 0xA0 JUMPI DUP1 PUSH4 0xE63AB1E9 GT PUSH2 0x6F JUMPI DUP1 PUSH4 0xE63AB1E9 EQ PUSH2 0xC37 JUMPI DUP1 PUSH4 0xE697DA68 EQ PUSH2 0xC59 JUMPI DUP1 PUSH4 0xF58978CC EQ PUSH2 0xD47 JUMPI DUP1 PUSH4 0xF7AD9CA5 EQ PUSH2 0xD67 JUMPI PUSH1 0x0 DUP1 REVERT JUMPDEST DUP1 PUSH4 0xD5391393 EQ PUSH2 0xBA3 JUMPI DUP1 PUSH4 0xD547741F EQ PUSH2 0xBD7 JUMPI DUP1 PUSH4 0xDD62ED3E EQ PUSH2 0xBF7 JUMPI DUP1 PUSH4 0xDD7FAAB1 EQ PUSH2 0xC17 JUMPI PUSH1 0x0 DUP1 REVERT JUMPDEST DUP1 PUSH4 0xAF20D942 GT PUSH2 0xDC JUMPI DUP1 PUSH4 0xAF20D942 EQ PUSH2 0xAFF JUMPI DUP1 PUSH4 0xB065A8E5 EQ PUSH2 0xB1F JUMPI DUP1 PUSH4 0xC5F956AF EQ PUSH2 0xB55 JUMPI DUP1 PUSH4 0xC750F203 EQ PUSH2 0xB8D JUMPI PUSH1 0x0 DUP1 REVERT JUMPDEST DUP1 PUSH4 0xA217FDDF EQ PUSH2 0xA99 JUMPI DUP1 PUSH4 0xA9059CBB EQ PUSH2 0xAAE JUMPI DUP1 PUSH4 0xAD3CB1CC EQ PUSH2 0xACE JUMPI PUSH1 0x0 DUP1 REVERT JUMPDEST DUP1 PUSH4 0x77647F27 GT PUSH2 0x17A JUMPI DUP1 PUSH4 0x8FFA15D4 GT PUSH2 0x149 JUMPI DUP1 PUSH4 0x8FFA15D4 EQ PUSH2 0x9FF JUMPI DUP1 PUSH4 0x905B7FCB EQ PUSH2 0xA37 JUMPI DUP1 PUSH4 0x91D14854 EQ PUSH2 0xA64 JUMPI DUP1 PUSH4 0x95D89B41 EQ PUSH2 0xA84 JUMPI PUSH1 0x0 DUP1 REVERT JUMPDEST DUP1 PUSH4 0x77647F27 EQ PUSH2 0x97E JUMPI DUP1 PUSH4 0x79CC6790 EQ PUSH2 0x9B4 JUMPI DUP1 PUSH4 0x800753CF EQ PUSH2 0x9D4 JUMPI DUP1 PUSH4 0x8456CB59 EQ PUSH2 0x9EA JUMPI PUSH1 0x0 DUP1 REVERT JUMPDEST DUP1 PUSH4 0x6E2FAE47 GT PUSH2 0x1B6 JUMPI DUP1 PUSH4 0x6E2FAE47 EQ PUSH2 0x8FC JUMPI DUP1 PUSH4 0x70A08231 EQ PUSH2 0x91C JUMPI DUP1 PUSH4 0x75B238FC EQ PUSH2 0x93C JUMPI DUP1 PUSH4 0x76223A27 EQ PUSH2 0x95E JUMPI PUSH1 0x0 DUP1 REVERT JUMPDEST DUP1 PUSH4 0x6605BFDA EQ PUSH2 0x89C JUMPI DUP1 PUSH4 0x6B6EF953 EQ PUSH2 0x8BC JUMPI DUP1 PUSH4 0x6CD9CA14 EQ PUSH2 0x8DC JUMPI PUSH1 0x0 DUP1 REVERT JUMPDEST DUP1 PUSH4 0x36568ABE GT PUSH2 0x2C1 JUMPI DUP1 PUSH4 0x4F1EF286 GT PUSH2 0x25F JUMPI DUP1 PUSH4 0x5A0F385A GT PUSH2 0x22E JUMPI DUP1 PUSH4 0x5A0F385A EQ PUSH2 0x774 JUMPI DUP1 PUSH4 0x5C975ABB EQ PUSH2 0x794 JUMPI DUP1 PUSH4 0x5ED61097 EQ PUSH2 0x7B9 JUMPI DUP1 PUSH4 0x62D3F814 EQ PUSH2 0x7F1 JUMPI PUSH1 0x0 DUP1 REVERT JUMPDEST DUP1 PUSH4 0x4F1EF286 EQ PUSH2 0x70C JUMPI DUP1 PUSH4 0x508C0634 EQ PUSH2 0x71F JUMPI DUP1 PUSH4 0x52D1902D EQ PUSH2 0x73F JUMPI DUP1 PUSH4 0x57FE51D2 EQ PUSH2 0x754 JUMPI PUSH1 0x0 DUP1 REVERT JUMPDEST DUP1 PUSH4 0x40C10F19 GT PUSH2 0x29B JUMPI DUP1 PUSH4 0x40C10F19 EQ PUSH2 0x696 JUMPI DUP1 PUSH4 0x42966C68 EQ PUSH2 0x6B6 JUMPI DUP1 PUSH4 0x4C915D18 EQ PUSH2 0x6D6 JUMPI DUP1 PUSH4 0x4D8183CC EQ PUSH2 0x6EC JUMPI PUSH1 0x0 DUP1 REVERT JUMPDEST DUP1 PUSH4 0x36568ABE EQ PUSH2 0x5FF JUMPI DUP1 PUSH4 0x3D8D1DCE EQ PUSH2 0x61F JUMPI DUP1 PUSH4 0x3F4BA83A EQ PUSH2 0x681 JUMPI PUSH1 0x0 DUP1 REVERT JUMPDEST DUP1 PUSH4 0x18160DDD GT PUSH2 0x32E JUMPI DUP1 PUSH4 0x282C51F3 GT PUSH2 0x308 JUMPI DUP1 PUSH4 0x282C51F3 EQ PUSH2 0x562 JUMPI DUP1 PUSH4 0x2F2FF15D EQ PUSH2 0x596 JUMPI DUP1 PUSH4 0x313CE567 EQ PUSH2 0x5B6 JUMPI DUP1 PUSH4 0x33DCDACB EQ PUSH2 0x5D2 JUMPI PUSH1 0x0 DUP1 REVERT JUMPDEST DUP1 PUSH4 0x18160DDD EQ PUSH2 0x4EE JUMPI DUP1 PUSH4 0x23B872DD EQ PUSH2 0x522 JUMPI DUP1 PUSH4 0x248A9CA3 EQ PUSH2 0x542 JUMPI PUSH1 0x0 DUP1 REVERT JUMPDEST DUP1 PUSH4 0x8D887D0 GT PUSH2 0x36A JUMPI DUP1 PUSH4 0x8D887D0 EQ PUSH2 0x40C JUMPI DUP1 PUSH4 0x95EA7B3 EQ PUSH2 0x463 JUMPI DUP1 PUSH4 0xC27AB5A EQ PUSH2 0x483 JUMPI DUP1 PUSH4 0xF3F0803 EQ PUSH2 0x4CC JUMPI PUSH1 0x0 DUP1 REVERT JUMPDEST DUP1 PUSH4 0x1FFC9A7 EQ PUSH2 0x391 JUMPI DUP1 PUSH4 0x3833501 EQ PUSH2 0x3C6 JUMPI DUP1 PUSH4 0x6FDDE03 EQ PUSH2 0x3EA JUMPI JUMPDEST PUSH1 0x0 DUP1 REVERT JUMPDEST CALLVALUE DUP1 ISZERO PUSH2 0x39D JUMPI PUSH1 0x0 DUP1 REVERT JUMPDEST POP PUSH2 0x3B1 PUSH2 0x3AC CALLDATASIZE PUSH1 0x4 PUSH2 0x4647 JUMP JUMPDEST PUSH2 0xD87 JUMP JUMPDEST PUSH1 0x40 MLOAD SWAP1 ISZERO ISZERO DUP2 MSTORE PUSH1 0x20 ADD JUMPDEST PUSH1 0x40 MLOAD DUP1 SWAP2 SUB SWAP1 RETURN JUMPDEST CALLVALUE DUP1 ISZERO PUSH2 0x3D2 JUMPI PUSH1 0x0 DUP1 REVERT JUMPDEST POP PUSH2 0x3DC PUSH1 0x3 SLOAD DUP2 JUMP JUMPDEST PUSH1 0x40 MLOAD SWAP1 DUP2 MSTORE PUSH1 0x20 ADD PUSH2 0x3BD JUMP JUMPDEST CALLVALUE DUP1 ISZERO PUSH2 0x3F6 JUMPI PUSH1 0x0 DUP1 REVERT JUMPDEST POP PUSH2 0x3FF PUSH2 0xD98 JUMP JUMPDEST PUSH1 0x40 MLOAD PUSH2 0x3BD SWAP2 SWAP1 PUSH2 0x4695 JUMP JUMPDEST CALLVALUE DUP1 ISZERO PUSH2 0x418 JUMPI PUSH1 0x0 DUP1 REVERT JUMPDEST POP PUSH2 0x448 PUSH2 0x427 CALLDATASIZE PUSH1 0x4 PUSH2 0x46E4 JUMP JUMPDEST PUSH1 0x6 PUSH1 0x20 MSTORE PUSH1 0x0 SWAP1 DUP2 MSTORE PUSH1 0x40 SWAP1 KECCAK256 DUP1 SLOAD PUSH1 0x1 DUP3 ADD SLOAD PUSH1 0x2 SWAP1 SWAP3 ADD SLOAD SWAP1 SWAP2 SWAP1 DUP4 JUMP JUMPDEST PUSH1 0x40 DUP1 MLOAD SWAP4 DUP5 MSTORE PUSH1 0x20 DUP5 ADD SWAP3 SWAP1 SWAP3 MSTORE SWAP1 DUP3 ADD MSTORE PUSH1 0x60 ADD PUSH2 0x3BD JUMP JUMPDEST CALLVALUE DUP1 ISZERO PUSH2 0x46F JUMPI PUSH1 0x0 DUP1 REVERT JUMPDEST POP PUSH2 0x3B1 PUSH2 0x47E CALLDATASIZE PUSH1 0x4 PUSH2 0x46FF JUMP JUMPDEST PUSH2 0xE5B JUMP JUMPDEST CALLVALUE DUP1 ISZERO PUSH2 0x48F JUMPI PUSH1 0x0 DUP1 REVERT JUMPDEST POP PUSH2 0x4B7 PUSH2 0x49E CALLDATASIZE PUSH1 0x4 PUSH2 0x46E4 JUMP JUMPDEST PUSH1 0x9 PUSH1 0x20 MSTORE PUSH1 0x0 SWAP1 DUP2 MSTORE PUSH1 0x40 SWAP1 KECCAK256 DUP1 SLOAD PUSH1 0x1 SWAP1 SWAP2 ADD SLOAD DUP3 JUMP JUMPDEST PUSH1 0x40 DUP1 MLOAD SWAP3 DUP4 MSTORE PUSH1 0x20 DUP4 ADD SWAP2 SWAP1 SWAP2 MSTORE ADD PUSH2 0x3BD JUMP JUMPDEST CALLVALUE DUP1 ISZERO PUSH2 0x4D8 JUMPI PUSH1 0x0 DUP1 REVERT JUMPDEST POP PUSH2 0x4EC PUSH2 0x4E7 CALLDATASIZE PUSH1 0x4 PUSH2 0x4729 JUMP JUMPDEST PUSH2 0xE73 JUMP JUMPDEST STOP JUMPDEST CALLVALUE DUP1 ISZERO PUSH2 0x4FA JUMPI PUSH1 0x0 DUP1 REVERT JUMPDEST POP PUSH32 0x52C63247E1F47DB19D5CE0460030C497F067CA4CEBF71BA98EEADABE20BACE02 SLOAD PUSH2 0x3DC JUMP JUMPDEST CALLVALUE DUP1 ISZERO PUSH2 0x52E JUMPI PUSH1 0x0 DUP1 REVERT JUMPDEST POP PUSH2 0x3B1 PUSH2 0x53D CALLDATASIZE PUSH1 0x4 PUSH2 0x4742 JUMP JUMPDEST PUSH2 0xF1A JUMP JUMPDEST CALLVALUE DUP1 ISZERO PUSH2 0x54E JUMPI PUSH1 0x0 DUP1 REVERT JUMPDEST POP PUSH2 0x3DC PUSH2 0x55D CALLDATASIZE PUSH1 0x4 PUSH2 0x4729 JUMP JUMPDEST PUSH2 0xF48 JUMP JUMPDEST CALLVALUE DUP1 ISZERO PUSH2 0x56E JUMPI PUSH1 0x0 DUP1 REVERT JUMPDEST POP PUSH2 0x3DC PUSH32 0x3C11D16CBAFFD01DF69CE1C404F6340EE057498F5F00246190EA54220576A848 DUP2 JUMP JUMPDEST CALLVALUE DUP1 ISZERO PUSH2 0x5A2 JUMPI PUSH1 0x0 DUP1 REVERT JUMPDEST POP PUSH2 0x4EC PUSH2 0x5B1 CALLDATASIZE PUSH1 0x4 PUSH2 0x477E JUMP JUMPDEST PUSH2 0xF6A JUMP JUMPDEST CALLVALUE DUP1 ISZERO PUSH2 0x5C2 JUMPI PUSH1 0x0 DUP1 REVERT JUMPDEST POP PUSH1 0x40 MLOAD PUSH1 0x12 DUP2 MSTORE PUSH1 0x20 ADD PUSH2 0x3BD JUMP JUMPDEST CALLVALUE DUP1 ISZERO PUSH2 0x5DE JUMPI PUSH1 0x0 DUP1 REVERT JUMPDEST POP PUSH2 0x3DC PUSH2 0x5ED CALLDATASIZE PUSH1 0x4 PUSH2 0x46E4 JUMP JUMPDEST PUSH1 0xC PUSH1 0x20 MSTORE PUSH1 0x0 SWAP1 DUP2 MSTORE PUSH1 0x40 SWAP1 KECCAK256 SLOAD DUP2 JUMP JUMPDEST CALLVALUE DUP1 ISZERO PUSH2 0x60B JUMPI PUSH1 0x0 DUP1 REVERT JUMPDEST POP PUSH2 0x4EC PUSH2 0x61A CALLDATASIZE PUSH1 0x4 PUSH2 0x477E JUMP JUMPDEST PUSH2 0xF8C JUMP JUMPDEST CALLVALUE DUP1 ISZERO PUSH2 0x62B JUMPI PUSH1 0x0 DUP1 REVERT JUMPDEST POP PUSH2 0x661 PUSH2 0x63A CALLDATASIZE PUSH1 0x4 PUSH2 0x46E4 JUMP JUMPDEST PUSH1 0x8 PUSH1 0x20 MSTORE PUSH1 0x0 SWAP1 DUP2 MSTORE PUSH1 0x40 SWAP1 KECCAK256 DUP1 SLOAD PUSH1 0x1 DUP3 ADD SLOAD PUSH1 0x2 DUP4 ADD SLOAD PUSH1 0x3 SWAP1 SWAP4 ADD SLOAD SWAP2 SWAP3 SWAP1 SWAP2 DUP5 JUMP JUMPDEST PUSH1 0x40 DUP1 MLOAD SWAP5 DUP6 MSTORE PUSH1 0x20 DUP6 ADD SWAP4 SWAP1 SWAP4 MSTORE SWAP2 DUP4 ADD MSTORE PUSH1 0x60 DUP3 ADD MSTORE PUSH1 0x80 ADD PUSH2 0x3BD JUMP JUMPDEST CALLVALUE DUP1 ISZERO PUSH2 0x68D JUMPI PUSH1 0x0 DUP1 REVERT JUMPDEST POP PUSH2 0x4EC PUSH2 0xFC4 JUMP JUMPDEST CALLVALUE DUP1 ISZERO PUSH2 0x6A2 JUMPI PUSH1 0x0 DUP1 REVERT JUMPDEST POP PUSH2 0x4EC PUSH2 0x6B1 CALLDATASIZE PUSH1 0x4 PUSH2 0x46FF JUMP JUMPDEST PUSH2 0xFE7 JUMP JUMPDEST CALLVALUE DUP1 ISZERO PUSH2 0x6C2 JUMPI PUSH1 0x0 DUP1 REVERT JUMPDEST POP PUSH2 0x4EC PUSH2 0x6D1 CALLDATASIZE PUSH1 0x4 PUSH2 0x4729 JUMP JUMPDEST PUSH2 0x1154 JUMP JUMPDEST CALLVALUE DUP1 ISZERO PUSH2 0x6E2 JUMPI PUSH1 0x0 DUP1 REVERT JUMPDEST POP PUSH2 0x3DC PUSH1 0x0 SLOAD DUP2 JUMP JUMPDEST CALLVALUE DUP1 ISZERO PUSH2 0x6F8 JUMPI PUSH1 0x0 DUP1 REVERT JUMPDEST POP PUSH2 0x4EC PUSH2 0x707 CALLDATASIZE PUSH1 0x4 PUSH2 0x4742 JUMP JUMPDEST PUSH2 0x11B6 JUMP JUMPDEST PUSH2 0x4EC PUSH2 0x71A CALLDATASIZE PUSH1 0x4 PUSH2 0x4836 JUMP JUMPDEST PUSH2 0x1425 JUMP JUMPDEST CALLVALUE DUP1 ISZERO PUSH2 0x72B JUMPI PUSH1 0x0 DUP1 REVERT JUMPDEST POP PUSH2 0x4EC PUSH2 0x73A CALLDATASIZE PUSH1 0x4 PUSH2 0x46E4 JUMP JUMPDEST PUSH2 0x1444 JUMP JUMPDEST CALLVALUE DUP1 ISZERO PUSH2 0x74B JUMPI PUSH1 0x0 DUP1 REVERT JUMPDEST POP PUSH2 0x3DC PUSH2 0x173C JUMP JUMPDEST CALLVALUE DUP1 ISZERO PUSH2 0x760 JUMPI PUSH1 0x0 DUP1 REVERT JUMPDEST POP PUSH2 0x4EC PUSH2 0x76F CALLDATASIZE PUSH1 0x4 PUSH2 0x4729 JUMP JUMPDEST PUSH2 0x1759 JUMP JUMPDEST CALLVALUE DUP1 ISZERO PUSH2 0x780 JUMPI PUSH1 0x0 DUP1 REVERT JUMPDEST POP PUSH2 0x4EC PUSH2 0x78F CALLDATASIZE PUSH1 0x4 PUSH2 0x46FF JUMP JUMPDEST PUSH2 0x1817 JUMP JUMPDEST CALLVALUE DUP1 ISZERO PUSH2 0x7A0 JUMPI PUSH1 0x0 DUP1 REVERT JUMPDEST POP PUSH1 0x0 DUP1 MLOAD PUSH1 0x20 PUSH2 0x4D21 DUP4 CODECOPY DUP2 MLOAD SWAP2 MSTORE SLOAD PUSH1 0xFF AND PUSH2 0x3B1 JUMP JUMPDEST CALLVALUE DUP1 ISZERO PUSH2 0x7C5 JUMPI PUSH1 0x0 DUP1 REVERT JUMPDEST POP PUSH2 0x3DC PUSH2 0x7D4 CALLDATASIZE PUSH1 0x4 PUSH2 0x4898 JUMP JUMPDEST PUSH1 0xB PUSH1 0x20 SWAP1 DUP2 MSTORE PUSH1 0x0 SWAP3 DUP4 MSTORE PUSH1 0x40 DUP1 DUP5 KECCAK256 SWAP1 SWAP2 MSTORE SWAP1 DUP3 MSTORE SWAP1 KECCAK256 SLOAD DUP2 JUMP JUMPDEST CALLVALUE DUP1 ISZERO PUSH2 0x7FD JUMPI PUSH1 0x0 DUP1 REVERT JUMPDEST POP PUSH2 0x857 PUSH2 0x80C CALLDATASIZE PUSH1 0x4 PUSH2 0x46E4 JUMP JUMPDEST PUSH1 0x5 PUSH1 0x20 DUP2 SWAP1 MSTORE PUSH1 0x0 SWAP2 DUP3 MSTORE PUSH1 0x40 SWAP1 SWAP2 KECCAK256 DUP1 SLOAD PUSH1 0x1 DUP3 ADD SLOAD PUSH1 0x2 DUP4 ADD SLOAD PUSH1 0x3 DUP5 ADD SLOAD PUSH1 0x4 DUP6 ADD SLOAD SWAP6 DUP6 ADD SLOAD PUSH1 0x6 SWAP1 SWAP6 ADD SLOAD SWAP4 SWAP6 SWAP3 SWAP5 PUSH1 0x1 PUSH1 0x1 PUSH1 0xA0 SHL SUB SWAP1 SWAP3 AND SWAP4 SWAP1 SWAP3 SWAP2 SWAP1 PUSH1 0xFF AND DUP8 JUMP JUMPDEST PUSH1 0x40 DUP1 MLOAD SWAP8 DUP9 MSTORE PUSH1 0x20 DUP9 ADD SWAP7 SWAP1 SWAP7 MSTORE PUSH1 0x1 PUSH1 0x1 PUSH1 0xA0 SHL SUB SWAP1 SWAP5 AND SWAP5 DUP7 ADD SWAP5 SWAP1 SWAP5 MSTORE PUSH1 0x60 DUP6 ADD SWAP2 SWAP1 SWAP2 MSTORE PUSH1 0x80 DUP5 ADD MSTORE PUSH1 0xA0 DUP4 ADD SWAP2 SWAP1 SWAP2 MSTORE ISZERO ISZERO PUSH1 0xC0 DUP3 ADD MSTORE PUSH1 0xE0 ADD PUSH2 0x3BD JUMP JUMPDEST CALLVALUE DUP1 ISZERO PUSH2 0x8A8 JUMPI PUSH1 0x0 DUP1 REVERT JUMPDEST POP PUSH2 0x4EC PUSH2 0x8B7 CALLDATASIZE PUSH1 0x4 PUSH2 0x46E4 JUMP JUMPDEST PUSH2 0x1A7C JUMP JUMPDEST CALLVALUE DUP1 ISZERO PUSH2 0x8C8 JUMPI PUSH1 0x0 DUP1 REVERT JUMPDEST POP PUSH2 0x3DC PUSH2 0x8D7 CALLDATASIZE PUSH1 0x4 PUSH2 0x46E4 JUMP JUMPDEST PUSH2 0x1B0D JUMP JUMPDEST CALLVALUE DUP1 ISZERO PUSH2 0x8E8 JUMPI PUSH1 0x0 DUP1 REVERT JUMPDEST POP PUSH2 0x4EC PUSH2 0x8F7 CALLDATASIZE PUSH1 0x4 PUSH2 0x4729 JUMP JUMPDEST PUSH2 0x1C0C JUMP JUMPDEST CALLVALUE DUP1 ISZERO PUSH2 0x908 JUMPI PUSH1 0x0 DUP1 REVERT JUMPDEST POP PUSH2 0x4EC PUSH2 0x917 CALLDATASIZE PUSH1 0x4 PUSH2 0x46E4 JUMP JUMPDEST PUSH2 0x1C7A JUMP JUMPDEST CALLVALUE DUP1 ISZERO PUSH2 0x928 JUMPI PUSH1 0x0 DUP1 REVERT JUMPDEST POP PUSH2 0x3DC PUSH2 0x937 CALLDATASIZE PUSH1 0x4 PUSH2 0x46E4 JUMP JUMPDEST PUSH2 0x1CCB JUMP JUMPDEST CALLVALUE DUP1 ISZERO PUSH2 0x948 JUMPI PUSH1 0x0 DUP1 REVERT JUMPDEST POP PUSH2 0x3DC PUSH1 0x0 DUP1 MLOAD PUSH1 0x20 PUSH2 0x4D41 DUP4 CODECOPY DUP2 MLOAD SWAP2 MSTORE DUP2 JUMP JUMPDEST CALLVALUE DUP1 ISZERO PUSH2 0x96A JUMPI PUSH1 0x0 DUP1 REVERT JUMPDEST POP PUSH2 0x4EC PUSH2 0x979 CALLDATASIZE PUSH1 0x4 PUSH2 0x4729 JUMP JUMPDEST PUSH2 0x1CF3 JUMP JUMPDEST CALLVALUE DUP1 ISZERO PUSH2 0x98A JUMPI PUSH1 0x0 DUP1 REVERT JUMPDEST POP PUSH2 0x3DC PUSH2 0x999 CALLDATASIZE PUSH1 0x4 PUSH2 0x46E4 JUMP JUMPDEST PUSH1 0x1 PUSH1 0x1 PUSH1 0xA0 SHL SUB AND PUSH1 0x0 SWAP1 DUP2 MSTORE PUSH1 0xC PUSH1 0x20 MSTORE PUSH1 0x40 SWAP1 KECCAK256 SLOAD SWAP1 JUMP JUMPDEST CALLVALUE DUP1 ISZERO PUSH2 0x9C0 JUMPI PUSH1 0x0 DUP1 REVERT JUMPDEST POP PUSH2 0x4EC PUSH2 0x9CF CALLDATASIZE PUSH1 0x4 PUSH2 0x46FF JUMP JUMPDEST PUSH2 0x1DAF JUMP JUMPDEST CALLVALUE DUP1 ISZERO PUSH2 0x9E0 JUMPI PUSH1 0x0 DUP1 REVERT JUMPDEST POP PUSH2 0x3DC PUSH1 0x1 SLOAD DUP2 JUMP JUMPDEST CALLVALUE DUP1 ISZERO PUSH2 0x9F6 JUMPI PUSH1 0x0 DUP1 REVERT JUMPDEST POP PUSH2 0x4EC PUSH2 0x1E1D JUMP JUMPDEST CALLVALUE DUP1 ISZERO PUSH2 0xA0B JUMPI PUSH1 0x0 DUP1 REVERT JUMPDEST POP PUSH2 0x3DC PUSH2 0xA1A CALLDATASIZE PUSH1 0x4 PUSH2 0x4898 JUMP JUMPDEST PUSH1 0x7 PUSH1 0x20 SWAP1 DUP2 MSTORE PUSH1 0x0 SWAP3 DUP4 MSTORE PUSH1 0x40 DUP1 DUP5 KECCAK256 SWAP1 SWAP2 MSTORE SWAP1 DUP3 MSTORE SWAP1 KECCAK256 SLOAD DUP2 JUMP JUMPDEST CALLVALUE DUP1 ISZERO PUSH2 0xA43 JUMPI PUSH1 0x0 DUP1 REVERT JUMPDEST POP PUSH2 0x3DC PUSH2 0xA52 CALLDATASIZE PUSH1 0x4 PUSH2 0x46E4 JUMP JUMPDEST PUSH1 0xA PUSH1 0x20 MSTORE PUSH1 0x0 SWAP1 DUP2 MSTORE PUSH1 0x40 SWAP1 KECCAK256 SLOAD DUP2 JUMP JUMPDEST CALLVALUE DUP1 ISZERO PUSH2 0xA70 JUMPI PUSH1 0x0 DUP1 REVERT JUMPDEST POP PUSH2 0x3B1 PUSH2 0xA7F CALLDATASIZE PUSH1 0x4 PUSH2 0x477E JUMP JUMPDEST PUSH2 0x1E3D JUMP JUMPDEST CALLVALUE DUP1 ISZERO PUSH2 0xA90 JUMPI PUSH1 0x0 DUP1 REVERT JUMPDEST POP PUSH2 0x3FF PUSH2 0x1E75 JUMP JUMPDEST CALLVALUE DUP1 ISZERO PUSH2 0xAA5 JUMPI PUSH1 0x0 DUP1 REVERT JUMPDEST POP PUSH2 0x3DC PUSH1 0x0 DUP2 JUMP JUMPDEST CALLVALUE DUP1 ISZERO PUSH2 0xABA JUMPI PUSH1 0x0 DUP1 REVERT JUMPDEST POP PUSH2 0x3B1 PUSH2 0xAC9 CALLDATASIZE PUSH1 0x4 PUSH2 0x46FF JUMP JUMPDEST PUSH2 0x1EB4 JUMP JUMPDEST CALLVALUE DUP1 ISZERO PUSH2 0xADA JUMPI PUSH1 0x0 DUP1 REVERT JUMPDEST POP PUSH2 0x3FF PUSH1 0x40 MLOAD DUP1 PUSH1 0x40 ADD PUSH1 0x40 MSTORE DUP1 PUSH1 0x5 DUP2 MSTORE PUSH1 0x20 ADD PUSH5 0x352E302E3 PUSH1 0xDC SHL DUP2 MSTORE POP DUP2 JUMP JUMPDEST CALLVALUE DUP1 ISZERO PUSH2 0xB0B JUMPI PUSH1 0x0 DUP1 REVERT JUMPDEST POP PUSH2 0x4EC PUSH2 0xB1A CALLDATASIZE PUSH1 0x4 PUSH2 0x4729 JUMP JUMPDEST PUSH2 0x1ECA JUMP JUMPDEST CALLVALUE DUP1 ISZERO PUSH2 0xB2B JUMPI PUSH1 0x0 DUP1 REVERT JUMPDEST POP PUSH2 0x3DC PUSH2 0xB3A CALLDATASIZE PUSH1 0x4 PUSH2 0x46E4 JUMP JUMPDEST PUSH1 0x1 PUSH1 0x1 PUSH1 0xA0 SHL SUB AND PUSH1 0x0 SWAP1 DUP2 MSTORE PUSH1 0x9 PUSH1 0x20 MSTORE PUSH1 0x40 SWAP1 KECCAK256 SLOAD SWAP1 JUMP JUMPDEST CALLVALUE DUP1 ISZERO PUSH2 0xB61 JUMPI PUSH1 0x0 DUP1 REVERT JUMPDEST POP PUSH1 0x4 SLOAD PUSH2 0xB75 SWAP1 PUSH1 0x1 PUSH1 0x1 PUSH1 0xA0 SHL SUB AND DUP2 JUMP JUMPDEST PUSH1 0x40 MLOAD PUSH1 0x1 PUSH1 0x1 PUSH1 0xA0 SHL SUB SWAP1 SWAP2 AND DUP2 MSTORE PUSH1 0x20 ADD PUSH2 0x3BD JUMP JUMPDEST CALLVALUE DUP1 ISZERO PUSH2 0xB99 JUMPI PUSH1 0x0 DUP1 REVERT JUMPDEST POP PUSH2 0x3DC PUSH1 0x2 SLOAD DUP2 JUMP JUMPDEST CALLVALUE DUP1 ISZERO PUSH2 0xBAF JUMPI PUSH1 0x0 DUP1 REVERT JUMPDEST POP PUSH2 0x3DC PUSH32 0x9F2DF0FED2C77648DE5860A4CC508CD0818C85B8B8A1AB4CEEEF8D981C8956A6 DUP2 JUMP JUMPDEST CALLVALUE DUP1 ISZERO PUSH2 0xBE3 JUMPI PUSH1 0x0 DUP1 REVERT JUMPDEST POP PUSH2 0x4EC PUSH2 0xBF2 CALLDATASIZE PUSH1 0x4 PUSH2 0x477E JUMP JUMPDEST PUSH2 0x1FDA JUMP JUMPDEST CALLVALUE DUP1 ISZERO PUSH2 0xC03 JUMPI PUSH1 0x0 DUP1 REVERT JUMPDEST POP PUSH2 0x3DC PUSH2 0xC12 CALLDATASIZE PUSH1 0x4 PUSH2 0x4898 JUMP JUMPDEST PUSH2 0x1FF6 JUMP JUMPDEST CALLVALUE DUP1 ISZERO PUSH2 0xC23 JUMPI PUSH1 0x0 DUP1 REVERT JUMPDEST POP PUSH2 0x4EC PUSH2 0xC32 CALLDATASIZE PUSH1 0x4 PUSH2 0x4742 JUMP JUMPDEST PUSH2 0x2040 JUMP JUMPDEST CALLVALUE DUP1 ISZERO PUSH2 0xC43 JUMPI PUSH1 0x0 DUP1 REVERT JUMPDEST POP PUSH2 0x3DC PUSH1 0x0 DUP1 MLOAD PUSH1 0x20 PUSH2 0x4CE1 DUP4 CODECOPY DUP2 MLOAD SWAP2 MSTORE DUP2 JUMP JUMPDEST CALLVALUE DUP1 ISZERO PUSH2 0xC65 JUMPI PUSH1 0x0 DUP1 REVERT JUMPDEST POP PUSH2 0xC79 PUSH2 0xC74 CALLDATASIZE PUSH1 0x4 PUSH2 0x4742 JUMP JUMPDEST PUSH2 0x2234 JUMP JUMPDEST PUSH1 0x40 MLOAD PUSH2 0x3BD SWAP2 SWAP1 DUP2 MLOAD DUP2 MSTORE PUSH1 0x20 DUP1 DUP4 ADD MLOAD SWAP1 DUP3 ADD MSTORE PUSH1 0x40 DUP1 DUP4 ADD MLOAD SWAP1 DUP3 ADD MSTORE PUSH1 0x60 DUP1 DUP4 ADD MLOAD SWAP1 DUP3 ADD MSTORE PUSH1 0x80 DUP1 DUP4 ADD MLOAD SWAP1 DUP3 ADD MSTORE PUSH1 0xA0 DUP1 DUP4 ADD MLOAD SWAP1 DUP3 ADD MSTORE PUSH1 0xC0 DUP1 DUP4 ADD MLOAD SWAP1 DUP3 ADD MSTORE PUSH1 0xE0 DUP1 DUP4 ADD MLOAD SWAP1 DUP3 ADD MSTORE PUSH2 0x100 DUP1 DUP4 ADD MLOAD SWAP1 DUP3 ADD MSTORE PUSH2 0x120 DUP1 DUP4 ADD MLOAD SWAP1 DUP3 ADD MSTORE PUSH2 0x140 DUP1 DUP4 ADD MLOAD SWAP1 DUP3 ADD MSTORE PUSH2 0x160 DUP1 DUP4 ADD MLOAD SWAP1 DUP3 ADD MSTORE PUSH2 0x180 DUP1 DUP4 ADD MLOAD SWAP1 DUP3 ADD MSTORE PUSH2 0x1A0 DUP1 DUP4 ADD MLOAD SWAP1 DUP3 ADD MSTORE PUSH2 0x1C0 DUP1 DUP4 ADD MLOAD ISZERO ISZERO SWAP1 DUP3 ADD MSTORE PUSH2 0x1E0 DUP1 DUP4 ADD MLOAD ISZERO ISZERO SWAP1 DUP3 ADD MSTORE PUSH2 0x200 DUP1 DUP4 ADD MLOAD SWAP1 DUP3 ADD MSTORE PUSH2 0x220 SWAP2 DUP3 ADD MLOAD SWAP2 DUP2 ADD SWAP2 SWAP1 SWAP2 MSTORE PUSH2 0x240 ADD SWAP1 JUMP JUMPDEST CALLVALUE DUP1 ISZERO PUSH2 0xD53 JUMPI PUSH1 0x0 DUP1 REVERT JUMPDEST POP PUSH2 0x4EC PUSH2 0xD62 CALLDATASIZE PUSH1 0x4 PUSH2 0x48E2 JUMP JUMPDEST PUSH2 0x2572 JUMP JUMPDEST CALLVALUE DUP1 ISZERO PUSH2 0xD73 JUMPI PUSH1 0x0 DUP1 REVERT JUMPDEST POP PUSH2 0x4EC PUSH2 0xD82 CALLDATASIZE PUSH1 0x4 PUSH2 0x4729 JUMP JUMPDEST PUSH2 0x28FB JUMP JUMPDEST PUSH1 0x0 PUSH2 0xD92 DUP3 PUSH2 0x2A39 JUMP JUMPDEST SWAP3 SWAP2 POP POP JUMP JUMPDEST PUSH32 0x52C63247E1F47DB19D5CE0460030C497F067CA4CEBF71BA98EEADABE20BACE03 DUP1 SLOAD PUSH1 0x60 SWAP2 PUSH1 0x0 DUP1 MLOAD PUSH1 0x20 PUSH2 0x4CA1 DUP4 CODECOPY DUP2 MLOAD SWAP2 MSTORE SWAP2 PUSH2 0xDD7 SWAP1 PUSH2 0x4995 JUMP JUMPDEST DUP1 PUSH1 0x1F ADD PUSH1 0x20 DUP1 SWAP2 DIV MUL PUSH1 0x20 ADD PUSH1 0x40 MLOAD SWAP1 DUP2 ADD PUSH1 0x40 MSTORE DUP1 SWAP3 SWAP2 SWAP1 DUP2 DUP2 MSTORE PUSH1 0x20 ADD DUP3 DUP1 SLOAD PUSH2 0xE03 SWAP1 PUSH2 0x4995 JUMP JUMPDEST DUP1 ISZERO PUSH2 0xE50 JUMPI DUP1 PUSH1 0x1F LT PUSH2 0xE25 JUMPI PUSH2 0x100 DUP1 DUP4 SLOAD DIV MUL DUP4 MSTORE SWAP2 PUSH1 0x20 ADD SWAP2 PUSH2 0xE50 JUMP JUMPDEST DUP3 ADD SWAP2 SWAP1 PUSH1 0x0 MSTORE PUSH1 0x20 PUSH1 0x0 KECCAK256 SWAP1 JUMPDEST DUP2 SLOAD DUP2 MSTORE SWAP1 PUSH1 0x1 ADD SWAP1 PUSH1 0x20 ADD DUP1 DUP4 GT PUSH2 0xE33 JUMPI DUP3 SWAP1 SUB PUSH1 0x1F AND DUP3 ADD SWAP2 JUMPDEST POP POP POP POP POP SWAP2 POP POP SWAP1 JUMP JUMPDEST PUSH1 0x0 CALLER PUSH2 0xE69 DUP2 DUP6 DUP6 PUSH2 0x2A6E JUMP JUMPDEST POP PUSH1 0x1 SWAP4 SWAP3 POP POP POP JUMP JUMPDEST PUSH1 0x0 DUP1 MLOAD PUSH1 0x20 PUSH2 0x4D41 DUP4 CODECOPY DUP2 MLOAD SWAP2 MSTORE PUSH2 0xE8B DUP2 PUSH2 0x2A7B JUMP JUMPDEST PUSH1 0x1 SLOAD DUP3 LT ISZERO PUSH2 0xED2 JUMPI PUSH1 0x40 MLOAD PUSH3 0x461BCD PUSH1 0xE5 SHL DUP2 MSTORE PUSH1 0x20 PUSH1 0x4 DUP3 ADD MSTORE PUSH1 0xD PUSH1 0x24 DUP3 ADD MSTORE PUSH13 0x42656C6F77206D696E696D756D PUSH1 0x98 SHL PUSH1 0x44 DUP3 ADD MSTORE PUSH1 0x64 ADD JUMPDEST PUSH1 0x40 MLOAD DUP1 SWAP2 SUB SWAP1 REVERT JUMPDEST PUSH1 0x2 SLOAD DUP3 GT ISZERO PUSH2 0xF14 JUMPI PUSH1 0x40 MLOAD PUSH3 0x461BCD PUSH1 0xE5 SHL DUP2 MSTORE PUSH1 0x20 PUSH1 0x4 DUP3 ADD MSTORE PUSH1 0xD PUSH1 0x24 DUP3 ADD MSTORE PUSH13 0x41626F7665206D6178696D756D PUSH1 0x98 SHL PUSH1 0x44 DUP3 ADD MSTORE PUSH1 0x64 ADD PUSH2 0xEC9 JUMP JUMPDEST POP PUSH1 0x0 SSTORE JUMP JUMPDEST PUSH1 0x0 PUSH2 0xF24 PUSH2 0x2A85 JUMP JUMPDEST CALLER PUSH2 0xF30 DUP6 DUP3 DUP6 PUSH2 0x2AB8 JUMP JUMPDEST PUSH2 0xF3B DUP6 DUP6 DUP6 PUSH2 0x2B19 JUMP JUMPDEST PUSH1 0x1 SWAP2 POP POP JUMPDEST SWAP4 SWAP3 POP POP POP JUMP JUMPDEST PUSH1 0x0 SWAP1 DUP2 MSTORE PUSH1 0x0 DUP1 MLOAD PUSH1 0x20 PUSH2 0x4D01 DUP4 CODECOPY DUP2 MLOAD SWAP2 MSTORE PUSH1 0x20 MSTORE PUSH1 0x40 SWAP1 KECCAK256 PUSH1 0x1 ADD SLOAD SWAP1 JUMP JUMPDEST PUSH2 0xF73 DUP3 PUSH2 0xF48 JUMP JUMPDEST PUSH2 0xF7C DUP2 PUSH2 0x2A7B JUMP JUMPDEST PUSH2 0xF86 DUP4 DUP4 PUSH2 0x2D39 JUMP JUMPDEST POP POP POP POP JUMP JUMPDEST PUSH1 0x1 PUSH1 0x1 PUSH1 0xA0 SHL SUB DUP2 AND CALLER EQ PUSH2 0xFB5 JUMPI PUSH1 0x40 MLOAD PUSH4 0x334BD919 PUSH1 0xE1 SHL DUP2 MSTORE PUSH1 0x4 ADD PUSH1 0x40 MLOAD DUP1 SWAP2 SUB SWAP1 REVERT JUMPDEST PUSH2 0xFBF DUP3 DUP3 PUSH2 0x2DDE JUMP JUMPDEST POP POP POP JUMP JUMPDEST PUSH1 0x0 DUP1 MLOAD PUSH1 0x20 PUSH2 0x4CE1 DUP4 CODECOPY DUP2 MLOAD SWAP2 MSTORE PUSH2 0xFDC DUP2 PUSH2 0x2A7B JUMP JUMPDEST PUSH2 0xFE4 PUSH2 0x2E5A JUMP JUMPDEST POP JUMP JUMPDEST PUSH2 0xFEF PUSH2 0x2A85 JUMP JUMPDEST PUSH32 0x9F2DF0FED2C77648DE5860A4CC508CD0818C85B8B8A1AB4CEEEF8D981C8956A6 PUSH2 0x1019 DUP2 PUSH2 0x2A7B JUMP JUMPDEST PUSH1 0x1 PUSH1 0x1 PUSH1 0xA0 SHL SUB DUP4 AND PUSH2 0x106F JUMPI PUSH1 0x40 MLOAD PUSH3 0x461BCD PUSH1 0xE5 SHL DUP2 MSTORE PUSH1 0x20 PUSH1 0x4 DUP3 ADD MSTORE PUSH1 0x18 PUSH1 0x24 DUP3 ADD MSTORE PUSH32 0x4D696E7420746F20746865207A65726F20616464726573730000000000000000 PUSH1 0x44 DUP3 ADD MSTORE PUSH1 0x64 ADD PUSH2 0xEC9 JUMP JUMPDEST PUSH1 0x0 DUP3 GT PUSH2 0x10BF JUMPI PUSH1 0x40 MLOAD PUSH3 0x461BCD PUSH1 0xE5 SHL DUP2 MSTORE PUSH1 0x20 PUSH1 0x4 DUP3 ADD MSTORE PUSH1 0x1C PUSH1 0x24 DUP3 ADD MSTORE PUSH32 0x4D696E7420616D6F756E74206D75737420626520706F73697469766500000000 PUSH1 0x44 DUP3 ADD MSTORE PUSH1 0x64 ADD PUSH2 0xEC9 JUMP JUMPDEST CALLER PUSH2 0x10CA DUP5 DUP5 PUSH2 0x2EBA JUMP JUMPDEST PUSH1 0x1 PUSH1 0x1 PUSH1 0xA0 SHL SUB DUP2 AND PUSH1 0x0 SWAP1 DUP2 MSTORE PUSH1 0xA PUSH1 0x20 MSTORE PUSH1 0x40 DUP2 KECCAK256 DUP1 SLOAD DUP6 SWAP3 SWAP1 PUSH2 0x10F2 SWAP1 DUP5 SWAP1 PUSH2 0x49E5 JUMP JUMPDEST SWAP1 SWAP2 SSTORE POP PUSH2 0x1101 SWAP1 POP DUP5 PUSH2 0x2EF0 JUMP JUMPDEST DUP4 PUSH1 0x1 PUSH1 0x1 PUSH1 0xA0 SHL SUB AND DUP2 PUSH1 0x1 PUSH1 0x1 PUSH1 0xA0 SHL SUB AND PUSH32 0xBF67EC129007BE07F346D9D2933215293A6612CE7FF17D6B479A5A5CAE72890C DUP6 PUSH1 0x40 MLOAD PUSH2 0x1146 SWAP2 DUP2 MSTORE PUSH1 0x20 ADD SWAP1 JUMP JUMPDEST PUSH1 0x40 MLOAD DUP1 SWAP2 SUB SWAP1 LOG3 POP POP POP POP JUMP JUMPDEST PUSH2 0x115C PUSH2 0x2A85 JUMP JUMPDEST PUSH1 0x0 DUP2 GT PUSH2 0x11AC JUMPI PUSH1 0x40 MLOAD PUSH3 0x461BCD PUSH1 0xE5 SHL DUP2 MSTORE PUSH1 0x20 PUSH1 0x4 DUP3 ADD MSTORE PUSH1 0x1C PUSH1 0x24 DUP3 ADD MSTORE PUSH32 0x4275726E20616D6F756E74206D75737420626520706F73697469766500000000 PUSH1 0x44 DUP3 ADD MSTORE PUSH1 0x64 ADD PUSH2 0xEC9 JUMP JUMPDEST PUSH2 0xFE4 CALLER DUP3 PUSH2 0x2F46 JUMP JUMPDEST PUSH1 0x0 DUP1 MLOAD PUSH1 0x20 PUSH2 0x4D41 DUP4 CODECOPY DUP2 MLOAD SWAP2 MSTORE PUSH2 0x11CE DUP2 PUSH2 0x2A7B JUMP JUMPDEST PUSH1 0x1 PUSH1 0x1 PUSH1 0xA0 SHL SUB DUP5 AND PUSH2 0x1224 JUMPI PUSH1 0x40 MLOAD PUSH3 0x461BCD PUSH1 0xE5 SHL DUP2 MSTORE PUSH1 0x20 PUSH1 0x4 DUP3 ADD MSTORE PUSH1 0x1D PUSH1 0x24 DUP3 ADD MSTORE PUSH32 0x446562746F722063616E6E6F74206265207A65726F2061646472657373000000 PUSH1 0x44 DUP3 ADD MSTORE PUSH1 0x64 ADD PUSH2 0xEC9 JUMP JUMPDEST PUSH1 0x1 PUSH1 0x1 PUSH1 0xA0 SHL SUB DUP4 AND PUSH2 0x127A JUMPI PUSH1 0x40 MLOAD PUSH3 0x461BCD PUSH1 0xE5 SHL DUP2 MSTORE PUSH1 0x20 PUSH1 0x4 DUP3 ADD MSTORE PUSH1 0x1F PUSH1 0x24 DUP3 ADD MSTORE PUSH32 0x4372656469746F722063616E6E6F74206265207A65726F206164647265737300 PUSH1 0x44 DUP3 ADD MSTORE PUSH1 0x64 ADD PUSH2 0xEC9 JUMP JUMPDEST DUP3 PUSH1 0x1 PUSH1 0x1 PUSH1 0xA0 SHL SUB AND DUP5 PUSH1 0x1 PUSH1 0x1 PUSH1 0xA0 SHL SUB AND SUB PUSH2 0x12D7 JUMPI PUSH1 0x40 MLOAD PUSH3 0x461BCD PUSH1 0xE5 SHL DUP2 MSTORE PUSH1 0x20 PUSH1 0x4 DUP3 ADD MSTORE PUSH1 0x19 PUSH1 0x24 DUP3 ADD MSTORE PUSH25 0x2232B13A37B91031B0B73737BA1031329031B932B234BA37B9 PUSH1 0x39 SHL PUSH1 0x44 DUP3 ADD MSTORE PUSH1 0x64 ADD PUSH2 0xEC9 JUMP JUMPDEST PUSH1 0x0 DUP3 GT PUSH2 0x1327 JUMPI PUSH1 0x40 MLOAD PUSH3 0x461BCD PUSH1 0xE5 SHL DUP2 MSTORE PUSH1 0x20 PUSH1 0x4 DUP3 ADD DUP2 SWAP1 MSTORE PUSH1 0x24 DUP3 ADD MSTORE PUSH32 0x416D6F756E7420746F20636C656172206D75737420626520706F736974697665 PUSH1 0x44 DUP3 ADD MSTORE PUSH1 0x64 ADD PUSH2 0xEC9 JUMP JUMPDEST PUSH1 0x1 PUSH1 0x1 PUSH1 0xA0 SHL SUB DUP1 DUP6 AND PUSH1 0x0 SWAP1 DUP2 MSTORE PUSH1 0xB PUSH1 0x20 SWAP1 DUP2 MSTORE PUSH1 0x40 DUP1 DUP4 KECCAK256 SWAP4 DUP8 AND DUP4 MSTORE SWAP3 SWAP1 MSTORE KECCAK256 SLOAD DUP1 DUP4 GT ISZERO PUSH2 0x13B3 JUMPI PUSH1 0x40 MLOAD PUSH3 0x461BCD PUSH1 0xE5 SHL DUP2 MSTORE PUSH1 0x20 PUSH1 0x4 DUP3 ADD MSTORE PUSH1 0x2D PUSH1 0x24 DUP3 ADD MSTORE PUSH32 0x416D6F756E7420746F20636C6561722065786365656473206F75747374616E64 PUSH1 0x44 DUP3 ADD MSTORE PUSH13 0x696E67206C696162696C697479 PUSH1 0x98 SHL PUSH1 0x64 DUP3 ADD MSTORE PUSH1 0x84 ADD PUSH2 0xEC9 JUMP JUMPDEST PUSH2 0x13BD DUP4 DUP3 PUSH2 0x49F8 JUMP JUMPDEST PUSH1 0x1 PUSH1 0x1 PUSH1 0xA0 SHL SUB DUP7 DUP2 AND PUSH1 0x0 DUP2 DUP2 MSTORE PUSH1 0xB PUSH1 0x20 SWAP1 DUP2 MSTORE PUSH1 0x40 DUP1 DUP4 KECCAK256 SWAP5 DUP11 AND DUP1 DUP5 MSTORE SWAP5 DUP3 MSTORE SWAP2 DUP3 SWAP1 KECCAK256 SWAP5 SWAP1 SWAP5 SSTORE MLOAD DUP7 DUP2 MSTORE SWAP2 SWAP3 SWAP1 SWAP2 PUSH32 0x59EE8F52C52E61B33B5C6A4F2311C6855F389B6D4667BC980AAA3EB4FA8D7B7F SWAP2 ADD JUMPDEST PUSH1 0x40 MLOAD DUP1 SWAP2 SUB SWAP1 LOG3 POP POP POP POP POP JUMP JUMPDEST PUSH2 0x142D PUSH2 0x2F7C JUMP JUMPDEST PUSH2 0x1436 DUP3 PUSH2 0x3021 JUMP JUMPDEST PUSH2 0x1440 DUP3 DUP3 PUSH2 0x3039 JUMP JUMPDEST POP POP JUMP JUMPDEST PUSH2 0x144C PUSH2 0x2A85 JUMP JUMPDEST PUSH1 0x1 PUSH1 0x1 PUSH1 0xA0 SHL SUB DUP2 AND PUSH1 0x0 SWAP1 DUP2 MSTORE PUSH1 0x5 PUSH1 0x20 MSTORE PUSH1 0x40 SWAP1 KECCAK256 DUP1 SLOAD PUSH2 0x14B2 JUMPI PUSH1 0x40 MLOAD PUSH3 0x461BCD PUSH1 0xE5 SHL DUP2 MSTORE PUSH1 0x20 PUSH1 0x4 DUP3 ADD MSTORE PUSH1 0x1F PUSH1 0x24 DUP3 ADD MSTORE PUSH32 0x4578706972793A204E6F20616374697665207472616E73666572206461746100 PUSH1 0x44 DUP3 ADD MSTORE PUSH1 0x64 ADD PUSH2 0xEC9 JUMP JUMPDEST PUSH1 0x6 DUP2 ADD SLOAD PUSH1 0xFF AND ISZERO PUSH2 0x1507 JUMPI PUSH1 0x40 MLOAD PUSH3 0x461BCD PUSH1 0xE5 SHL DUP2 MSTORE PUSH1 0x20 PUSH1 0x4 DUP3 ADD MSTORE PUSH1 0x1D PUSH1 0x24 DUP3 ADD MSTORE PUSH32 0x4578706972793A205472616E7366657220776173207265766572736564000000 PUSH1 0x44 DUP3 ADD MSTORE PUSH1 0x64 ADD PUSH2 0xEC9 JUMP JUMPDEST DUP1 SLOAD TIMESTAMP LT ISZERO PUSH2 0x1558 JUMPI PUSH1 0x40 MLOAD PUSH3 0x461BCD PUSH1 0xE5 SHL DUP2 MSTORE PUSH1 0x20 PUSH1 0x4 DUP3 ADD DUP2 SWAP1 MSTORE PUSH1 0x24 DUP3 ADD MSTORE PUSH32 0x4578706972793A2048616C664C696665206E6F74206578706972656420796574 PUSH1 0x44 DUP3 ADD MSTORE PUSH1 0x64 ADD PUSH2 0xEC9 JUMP JUMPDEST PUSH1 0x5 DUP2 ADD SLOAD DUP1 ISZERO PUSH2 0x16A8 JUMPI PUSH1 0x0 PUSH2 0x1570 PUSH1 0x8 DUP4 PUSH2 0x4A0B JUMP JUMPDEST SWAP1 POP DUP1 ISZERO PUSH2 0x16A6 JUMPI PUSH1 0x0 PUSH2 0x1585 PUSH1 0x2 DUP4 PUSH2 0x4A0B JUMP JUMPDEST SWAP1 POP DUP1 ISZERO PUSH2 0x16A4 JUMPI PUSH1 0x2 DUP5 ADD SLOAD PUSH1 0x1 PUSH1 0x1 PUSH1 0xA0 SHL SUB AND PUSH1 0x0 SWAP1 DUP2 MSTORE PUSH1 0x9 PUSH1 0x20 MSTORE PUSH1 0x40 DUP2 KECCAK256 DUP1 SLOAD DUP4 SWAP3 SWAP1 PUSH2 0x15B9 SWAP1 DUP5 SWAP1 PUSH2 0x49E5 JUMP JUMPDEST SWAP1 SWAP2 SSTORE POP POP PUSH1 0x2 DUP5 ADD DUP1 SLOAD PUSH1 0x1 PUSH1 0x1 PUSH1 0xA0 SHL SUB SWAP1 DUP2 AND PUSH1 0x0 SWAP1 DUP2 MSTORE PUSH1 0x9 PUSH1 0x20 SWAP1 DUP2 MSTORE PUSH1 0x40 SWAP2 DUP3 SWAP1 KECCAK256 TIMESTAMP PUSH1 0x1 SWAP1 SWAP2 ADD SSTORE SWAP3 SLOAD SWAP1 MLOAD DUP5 DUP2 MSTORE SWAP2 AND SWAP2 PUSH32 0xFDFA38DC30C58B0662200654EF296C1527ABBF34B03B2F908AF130D2A35DB878 SWAP2 ADD PUSH1 0x40 MLOAD DUP1 SWAP2 SUB SWAP1 LOG2 PUSH1 0x1 PUSH1 0x1 PUSH1 0xA0 SHL SUB DUP6 AND PUSH1 0x0 SWAP1 DUP2 MSTORE PUSH1 0x9 PUSH1 0x20 MSTORE PUSH1 0x40 DUP2 KECCAK256 DUP1 SLOAD DUP4 SWAP3 SWAP1 PUSH2 0x1645 SWAP1 DUP5 SWAP1 PUSH2 0x49E5 JUMP JUMPDEST SWAP1 SWAP2 SSTORE POP POP PUSH1 0x1 PUSH1 0x1 PUSH1 0xA0 SHL SUB DUP6 AND PUSH1 0x0 DUP2 DUP2 MSTORE PUSH1 0x9 PUSH1 0x20 MSTORE PUSH1 0x40 SWAP1 DUP2 SWAP1 KECCAK256 TIMESTAMP PUSH1 0x1 SWAP1 SWAP2 ADD SSTORE MLOAD PUSH32 0xFDFA38DC30C58B0662200654EF296C1527ABBF34B03B2F908AF130D2A35DB878 SWAP1 PUSH2 0x169B SWAP1 DUP5 DUP2 MSTORE PUSH1 0x20 ADD SWAP1 JUMP JUMPDEST PUSH1 0x40 MLOAD DUP1 SWAP2 SUB SWAP1 LOG2 JUMPDEST POP JUMPDEST POP JUMPDEST PUSH1 0x1 PUSH1 0x1 PUSH1 0xA0 SHL SUB DUP4 AND PUSH1 0x0 DUP2 DUP2 MSTORE PUSH1 0x5 PUSH1 0x20 DUP2 SWAP1 MSTORE PUSH1 0x40 DUP1 DUP4 KECCAK256 DUP4 DUP2 SSTORE PUSH1 0x1 DUP2 ADD DUP5 SWAP1 SSTORE PUSH1 0x2 DUP2 ADD DUP1 SLOAD PUSH1 0x1 PUSH1 0x1 PUSH1 0xA0 SHL SUB NOT AND SWAP1 SSTORE PUSH1 0x3 DUP2 ADD DUP5 SWAP1 SSTORE PUSH1 0x4 DUP2 ADD DUP5 SWAP1 SSTORE SWAP2 DUP3 ADD SWAP3 SWAP1 SWAP3 SSTORE PUSH1 0x6 ADD DUP1 SLOAD PUSH1 0xFF NOT AND SWAP1 SSTORE MLOAD PUSH32 0x23BD7F8191A147E373DEF338D5A76DCE96B4D2F7D15A43ECA83E3EE6E7506143 SWAP1 PUSH2 0x172F SWAP1 TIMESTAMP DUP2 MSTORE PUSH1 0x20 ADD SWAP1 JUMP JUMPDEST PUSH1 0x40 MLOAD DUP1 SWAP2 SUB SWAP1 LOG2 POP POP POP JUMP JUMPDEST PUSH1 0x0 PUSH2 0x1746 PUSH2 0x30F6 JUMP JUMPDEST POP PUSH1 0x0 DUP1 MLOAD PUSH1 0x20 PUSH2 0x4CC1 DUP4 CODECOPY DUP2 MLOAD SWAP2 MSTORE SWAP1 JUMP JUMPDEST PUSH1 0x0 DUP1 MLOAD PUSH1 0x20 PUSH2 0x4D41 DUP4 CODECOPY DUP2 MLOAD SWAP2 MSTORE PUSH2 0x1771 DUP2 PUSH2 0x2A7B JUMP JUMPDEST PUSH1 0x0 DUP3 GT PUSH2 0x17B8 JUMPI PUSH1 0x40 MLOAD PUSH3 0x461BCD PUSH1 0xE5 SHL DUP2 MSTORE PUSH1 0x20 PUSH1 0x4 DUP3 ADD MSTORE PUSH1 0x14 PUSH1 0x24 DUP3 ADD MSTORE PUSH20 0x4D6178206D75737420626520706F736974697665 PUSH1 0x60 SHL PUSH1 0x44 DUP3 ADD MSTORE PUSH1 0x64 ADD PUSH2 0xEC9 JUMP JUMPDEST PUSH1 0x1 SLOAD DUP3 LT ISZERO PUSH2 0x17FE JUMPI PUSH1 0x40 MLOAD PUSH3 0x461BCD PUSH1 0xE5 SHL DUP2 MSTORE PUSH1 0x20 PUSH1 0x4 DUP3 ADD MSTORE PUSH1 0x11 PUSH1 0x24 DUP3 ADD MSTORE PUSH17 0x4D61782062656C6F77206D696E696D756D PUSH1 0x78 SHL PUSH1 0x44 DUP3 ADD MSTORE PUSH1 0x64 ADD PUSH2 0xEC9 JUMP JUMPDEST PUSH1 0x2 DUP3 SWAP1 SSTORE PUSH1 0x0 SLOAD DUP3 LT ISZERO PUSH2 0x1440 JUMPI PUSH1 0x2 SLOAD PUSH1 0x0 SSTORE POP POP JUMP JUMPDEST PUSH2 0x181F PUSH2 0x2A85 JUMP JUMPDEST PUSH1 0x1 PUSH1 0x1 PUSH1 0xA0 SHL SUB DUP3 DUP2 AND PUSH1 0x0 SWAP1 DUP2 MSTORE PUSH1 0x5 PUSH1 0x20 MSTORE PUSH1 0x40 SWAP1 KECCAK256 PUSH1 0x2 DUP2 ADD SLOAD CALLER SWAP3 AND DUP3 EQ PUSH2 0x188E JUMPI PUSH1 0x40 MLOAD PUSH3 0x461BCD PUSH1 0xE5 SHL DUP2 MSTORE PUSH1 0x20 PUSH1 0x4 DUP3 ADD MSTORE PUSH1 0x19 PUSH1 0x24 DUP3 ADD MSTORE PUSH32 0x526576657273616C3A2053656E646572206D69736D6174636800000000000000 PUSH1 0x44 DUP3 ADD MSTORE PUSH1 0x64 ADD PUSH2 0xEC9 JUMP JUMPDEST DUP1 SLOAD PUSH2 0x18DC JUMPI PUSH1 0x40 MLOAD PUSH3 0x461BCD PUSH1 0xE5 SHL DUP2 MSTORE PUSH1 0x20 PUSH1 0x4 DUP3 ADD MSTORE PUSH1 0x1C PUSH1 0x24 DUP3 ADD MSTORE PUSH32 0x526576657273616C3A204E6F20616374697665207472616E7366657200000000 PUSH1 0x44 DUP3 ADD MSTORE PUSH1 0x64 ADD PUSH2 0xEC9 JUMP JUMPDEST DUP1 SLOAD TIMESTAMP LT PUSH2 0x192C JUMPI PUSH1 0x40 MLOAD PUSH3 0x461BCD PUSH1 0xE5 SHL DUP2 MSTORE PUSH1 0x20 PUSH1 0x4 DUP3 ADD MSTORE PUSH1 0x1A PUSH1 0x24 DUP3 ADD MSTORE PUSH32 0x526576657273616C3A2048616C664C6966652065787069726564000000000000 PUSH1 0x44 DUP3 ADD MSTORE PUSH1 0x64 ADD PUSH2 0xEC9 JUMP JUMPDEST PUSH1 0x6 DUP2 ADD SLOAD PUSH1 0xFF AND ISZERO PUSH2 0x198D JUMPI PUSH1 0x40 MLOAD PUSH3 0x461BCD PUSH1 0xE5 SHL DUP2 MSTORE PUSH1 0x20 PUSH1 0x4 DUP3 ADD MSTORE PUSH1 0x23 PUSH1 0x24 DUP3 ADD MSTORE PUSH32 0x526576657273616C3A205472616E7366657220616C7265616479207265766572 PUSH1 0x44 DUP3 ADD MSTORE PUSH3 0x1CD959 PUSH1 0xEA SHL PUSH1 0x64 DUP3 ADD MSTORE PUSH1 0x84 ADD PUSH2 0xEC9 JUMP JUMPDEST DUP3 PUSH2 0x1997 DUP6 PUSH2 0x1CCB JUMP JUMPDEST LT ISZERO PUSH2 0x1A0B JUMPI PUSH1 0x40 MLOAD PUSH3 0x461BCD PUSH1 0xE5 SHL DUP2 MSTORE PUSH1 0x20 PUSH1 0x4 DUP3 ADD MSTORE PUSH1 0x3C PUSH1 0x24 DUP3 ADD MSTORE PUSH32 0x526576657273616C3A20496E73756666696369656E7420726563697069656E74 PUSH1 0x44 DUP3 ADD MSTORE PUSH32 0x2062616C616E636520666F7220726576657273616C20616D6F756E7400000000 PUSH1 0x64 DUP3 ADD MSTORE PUSH1 0x84 ADD PUSH2 0xEC9 JUMP JUMPDEST PUSH1 0x6 DUP2 ADD DUP1 SLOAD PUSH1 0xFF NOT AND PUSH1 0x1 OR SWAP1 SSTORE PUSH2 0x1A23 DUP3 PUSH2 0x313F JUMP JUMPDEST PUSH2 0x1A2C DUP5 PUSH2 0x313F JUMP JUMPDEST PUSH2 0x1A37 DUP5 DUP4 DUP6 PUSH2 0x317E JUMP JUMPDEST DUP4 PUSH1 0x1 PUSH1 0x1 PUSH1 0xA0 SHL SUB AND DUP3 PUSH1 0x1 PUSH1 0x1 PUSH1 0xA0 SHL SUB AND PUSH32 0x55608E3380952B490F6DC0B1B0BCF7A16177FE10590CF1599B7A84F430B70E37 DUP6 PUSH1 0x40 MLOAD PUSH2 0x1146 SWAP2 DUP2 MSTORE PUSH1 0x20 ADD SWAP1 JUMP JUMPDEST PUSH1 0x0 DUP1 MLOAD PUSH1 0x20 PUSH2 0x4D41 DUP4 CODECOPY DUP2 MLOAD SWAP2 MSTORE PUSH2 0x1A94 DUP2 PUSH2 0x2A7B JUMP JUMPDEST PUSH1 0x1 PUSH1 0x1 PUSH1 0xA0 SHL SUB DUP3 AND PUSH2 0x1AEA JUMPI PUSH1 0x40 MLOAD PUSH3 0x461BCD PUSH1 0xE5 SHL DUP2 MSTORE PUSH1 0x20 PUSH1 0x4 DUP3 ADD MSTORE PUSH1 0x1F PUSH1 0x24 DUP3 ADD MSTORE PUSH32 0x547265617375727920616464726573732063616E6E6F74206265207A65726F00 PUSH1 0x44 DUP3 ADD MSTORE PUSH1 0x64 ADD PUSH2 0xEC9 JUMP JUMPDEST POP PUSH1 0x4 DUP1 SLOAD PUSH1 0x1 PUSH1 0x1 PUSH1 0xA0 SHL SUB NOT AND PUSH1 0x1 PUSH1 0x1 PUSH1 0xA0 SHL SUB SWAP3 SWAP1 SWAP3 AND SWAP2 SWAP1 SWAP2 OR SWAP1 SSTORE JUMP JUMPDEST PUSH1 0x1 PUSH1 0x1 PUSH1 0xA0 SHL SUB DUP2 AND PUSH1 0x0 SWAP1 DUP2 MSTORE PUSH1 0x8 PUSH1 0x20 MSTORE PUSH1 0x40 DUP2 KECCAK256 PUSH1 0x2 DUP2 ADD SLOAD PUSH2 0x2710 SWAP1 ISZERO DUP1 ISZERO SWAP1 PUSH2 0x1B4D JUMPI POP PUSH3 0x93A80 DUP3 PUSH1 0x2 ADD SLOAD TIMESTAMP PUSH2 0x1B4B SWAP2 SWAP1 PUSH2 0x49F8 JUMP JUMPDEST LT JUMPDEST ISZERO PUSH2 0x1B61 JUMPI PUSH2 0x1B5E PUSH2 0x1388 DUP3 PUSH2 0x49E5 JUMP JUMPDEST SWAP1 POP JUMPDEST PUSH1 0x0 DUP3 PUSH1 0x1 ADD SLOAD GT DUP1 ISZERO PUSH2 0x1B86 JUMPI POP PUSH3 0x278D00 DUP3 PUSH1 0x1 ADD SLOAD TIMESTAMP PUSH2 0x1B84 SWAP2 SWAP1 PUSH2 0x49F8 JUMP JUMPDEST LT JUMPDEST ISZERO PUSH2 0x1B9A JUMPI PUSH2 0x1B97 PUSH2 0x2710 DUP3 PUSH2 0x49E5 JUMP JUMPDEST SWAP1 POP JUMPDEST DUP2 SLOAD PUSH2 0xC350 SWAP1 PUSH1 0x0 SWAP1 PUSH2 0x1BAF SWAP1 PUSH2 0x3E8 PUSH2 0x4A2D JUMP JUMPDEST SWAP1 POP DUP2 DUP2 GT PUSH2 0x1BBE JUMPI DUP1 PUSH2 0x1BC0 JUMP JUMPDEST DUP2 JUMPDEST PUSH2 0x1BCA SWAP1 DUP5 PUSH2 0x49E5 JUMP JUMPDEST PUSH1 0x3 DUP6 ADD SLOAD SWAP1 SWAP4 POP PUSH2 0x61A8 SWAP1 PUSH1 0x0 SWAP1 PUSH2 0x1BE5 SWAP1 PUSH2 0x1F4 PUSH2 0x4A2D JUMP JUMPDEST SWAP1 POP DUP2 DUP2 GT PUSH2 0x1BF4 JUMPI DUP1 PUSH2 0x1BF6 JUMP JUMPDEST DUP2 JUMPDEST PUSH2 0x1C00 SWAP1 DUP7 PUSH2 0x49E5 JUMP JUMPDEST SWAP9 SWAP8 POP POP POP POP POP POP POP POP JUMP JUMPDEST PUSH1 0x0 DUP1 MLOAD PUSH1 0x20 PUSH2 0x4D41 DUP4 CODECOPY DUP2 MLOAD SWAP2 MSTORE PUSH2 0x1C24 DUP2 PUSH2 0x2A7B JUMP JUMPDEST PUSH1 0x0 DUP3 GT PUSH2 0x1C74 JUMPI PUSH1 0x40 MLOAD PUSH3 0x461BCD PUSH1 0xE5 SHL DUP2 MSTORE PUSH1 0x20 PUSH1 0x4 DUP3 ADD MSTORE PUSH1 0x17 PUSH1 0x24 DUP3 ADD MSTORE PUSH32 0x506572696F64206D75737420626520706F736974697665000000000000000000 PUSH1 0x44 DUP3 ADD MSTORE PUSH1 0x64 ADD PUSH2 0xEC9 JUMP JUMPDEST POP PUSH1 0x3 SSTORE JUMP JUMPDEST PUSH1 0x0 DUP1 MLOAD PUSH1 0x20 PUSH2 0x4D41 DUP4 CODECOPY DUP2 MLOAD SWAP2 MSTORE PUSH2 0x1C92 DUP2 PUSH2 0x2A7B JUMP JUMPDEST PUSH2 0x1C9B DUP3 PUSH2 0x2EF0 JUMP JUMPDEST PUSH1 0x1 PUSH1 0x1 PUSH1 0xA0 SHL SUB DUP3 AND PUSH1 0x0 SWAP1 DUP2 MSTORE PUSH1 0x8 PUSH1 0x20 MSTORE PUSH1 0x40 DUP2 KECCAK256 PUSH1 0x3 ADD DUP1 SLOAD SWAP2 PUSH2 0x1CC2 DUP4 PUSH2 0x4A44 JUMP JUMPDEST SWAP2 SWAP1 POP SSTORE POP POP POP JUMP JUMPDEST PUSH1 0x1 PUSH1 0x1 PUSH1 0xA0 SHL SUB AND PUSH1 0x0 SWAP1 DUP2 MSTORE PUSH1 0x0 DUP1 MLOAD PUSH1 0x20 PUSH2 0x4CA1 DUP4 CODECOPY DUP2 MLOAD SWAP2 MSTORE PUSH1 0x20 MSTORE PUSH1 0x40 SWAP1 KECCAK256 SLOAD SWAP1 JUMP JUMPDEST PUSH1 0x0 DUP1 MLOAD PUSH1 0x20 PUSH2 0x4D41 DUP4 CODECOPY DUP2 MLOAD SWAP2 MSTORE PUSH2 0x1D0B DUP2 PUSH2 0x2A7B JUMP JUMPDEST PUSH1 0x0 DUP3 GT PUSH2 0x1D52 JUMPI PUSH1 0x40 MLOAD PUSH3 0x461BCD PUSH1 0xE5 SHL DUP2 MSTORE PUSH1 0x20 PUSH1 0x4 DUP3 ADD MSTORE PUSH1 0x14 PUSH1 0x24 DUP3 ADD MSTORE PUSH20 0x4D696E206D75737420626520706F736974697665 PUSH1 0x60 SHL PUSH1 0x44 DUP3 ADD MSTORE PUSH1 0x64 ADD PUSH2 0xEC9 JUMP JUMPDEST PUSH1 0x2 SLOAD DUP3 GT ISZERO PUSH2 0x1D96 JUMPI PUSH1 0x40 MLOAD PUSH3 0x461BCD PUSH1 0xE5 SHL DUP2 MSTORE PUSH1 0x20 PUSH1 0x4 DUP3 ADD MSTORE PUSH1 0xF PUSH1 0x24 DUP3 ADD MSTORE PUSH15 0x9AD2DC40CAF0C6CACAC8E640DAC2F PUSH1 0x8B SHL PUSH1 0x44 DUP3 ADD MSTORE PUSH1 0x64 ADD PUSH2 0xEC9 JUMP JUMPDEST PUSH1 0x1 DUP3 SWAP1 SSTORE PUSH1 0x0 SLOAD DUP3 GT ISZERO PUSH2 0x1440 JUMPI PUSH1 0x1 SLOAD PUSH1 0x0 SSTORE POP POP JUMP JUMPDEST PUSH2 0x1DB7 PUSH2 0x2A85 JUMP JUMPDEST PUSH1 0x0 DUP2 GT PUSH2 0x1E07 JUMPI PUSH1 0x40 MLOAD PUSH3 0x461BCD PUSH1 0xE5 SHL DUP2 MSTORE PUSH1 0x20 PUSH1 0x4 DUP3 ADD MSTORE PUSH1 0x1C PUSH1 0x24 DUP3 ADD MSTORE PUSH32 0x4275726E20616D6F756E74206D75737420626520706F73697469766500000000 PUSH1 0x44 DUP3 ADD MSTORE PUSH1 0x64 ADD PUSH2 0xEC9 JUMP JUMPDEST CALLER PUSH2 0x1E13 DUP4 DUP3 DUP5 PUSH2 0x2AB8 JUMP JUMPDEST PUSH2 0xFBF DUP4 DUP4 PUSH2 0x2F46 JUMP JUMPDEST PUSH1 0x0 DUP1 MLOAD PUSH1 0x20 PUSH2 0x4CE1 DUP4 CODECOPY DUP2 MLOAD SWAP2 MSTORE PUSH2 0x1E35 DUP2 PUSH2 0x2A7B JUMP JUMPDEST PUSH2 0xFE4 PUSH2 0x31DD JUMP JUMPDEST PUSH1 0x0 SWAP2 DUP3 MSTORE PUSH1 0x0 DUP1 MLOAD PUSH1 0x20 PUSH2 0x4D01 DUP4 CODECOPY DUP2 MLOAD SWAP2 MSTORE PUSH1 0x20 SWAP1 DUP2 MSTORE PUSH1 0x40 DUP1 DUP5 KECCAK256 PUSH1 0x1 PUSH1 0x1 PUSH1 0xA0 SHL SUB SWAP4 SWAP1 SWAP4 AND DUP5 MSTORE SWAP2 SWAP1 MSTORE SWAP1 KECCAK256 SLOAD PUSH1 0xFF AND SWAP1 JUMP JUMPDEST PUSH32 0x52C63247E1F47DB19D5CE0460030C497F067CA4CEBF71BA98EEADABE20BACE04 DUP1 SLOAD PUSH1 0x60 SWAP2 PUSH1 0x0 DUP1 MLOAD PUSH1 0x20 PUSH2 0x4CA1 DUP4 CODECOPY DUP2 MLOAD SWAP2 MSTORE SWAP2 PUSH2 0xDD7 SWAP1 PUSH2 0x4995 JUMP JUMPDEST PUSH1 0x0 PUSH2 0x1EBE PUSH2 0x2A85 JUMP JUMPDEST CALLER PUSH2 0xE69 DUP2 DUP6 DUP6 PUSH2 0x2B19 JUMP JUMPDEST PUSH2 0x1ED2 PUSH2 0x2A85 JUMP JUMPDEST PUSH2 0x1EDA PUSH2 0x3226 JUMP JUMPDEST PUSH1 0x0 DUP2 GT PUSH2 0x1F2A JUMPI PUSH1 0x40 MLOAD PUSH3 0x461BCD PUSH1 0xE5 SHL DUP2 MSTORE PUSH1 0x20 PUSH1 0x4 DUP3 ADD MSTORE PUSH1 0x1F PUSH1 0x24 DUP3 ADD MSTORE PUSH32 0x50726566756E6420616D6F756E74206D75737420626520706F73697469766500 PUSH1 0x44 DUP3 ADD MSTORE PUSH1 0x64 ADD PUSH2 0xEC9 JUMP JUMPDEST PUSH1 0x4 SLOAD CALLER SWAP1 PUSH2 0x1F44 SWAP1 DUP3 SWAP1 PUSH1 0x1 PUSH1 0x1 PUSH1 0xA0 SHL SUB AND DUP5 PUSH2 0x317E JUMP JUMPDEST PUSH1 0x1 PUSH1 0x1 PUSH1 0xA0 SHL SUB DUP2 AND PUSH1 0x0 SWAP1 DUP2 MSTORE PUSH1 0xC PUSH1 0x20 MSTORE PUSH1 0x40 DUP2 KECCAK256 DUP1 SLOAD DUP5 SWAP3 SWAP1 PUSH2 0x1F6C SWAP1 DUP5 SWAP1 PUSH2 0x49E5 JUMP JUMPDEST SWAP1 SWAP2 SSTORE POP POP PUSH1 0x40 MLOAD DUP3 DUP2 MSTORE PUSH1 0x1 PUSH1 0x1 PUSH1 0xA0 SHL SUB DUP3 AND SWAP1 PUSH32 0x8E7BDECF6A0DC0BC4AEB18783CB10538303214D73BDBBB056D532848500EDC0E SWAP1 PUSH1 0x20 ADD JUMPDEST PUSH1 0x40 MLOAD DUP1 SWAP2 SUB SWAP1 LOG2 POP PUSH2 0xFE4 PUSH1 0x1 PUSH32 0x9B779B17422D0DF92223018B32B4D1FA46E071723D6817E2486D003BECC55F00 SSTORE JUMP JUMPDEST PUSH2 0x1FE3 DUP3 PUSH2 0xF48 JUMP JUMPDEST PUSH2 0x1FEC DUP2 PUSH2 0x2A7B JUMP JUMPDEST PUSH2 0xF86 DUP4 DUP4 PUSH2 0x2DDE JUMP JUMPDEST PUSH1 0x1 PUSH1 0x1 PUSH1 0xA0 SHL SUB SWAP2 DUP3 AND PUSH1 0x0 SWAP1 DUP2 MSTORE PUSH32 0x52C63247E1F47DB19D5CE0460030C497F067CA4CEBF71BA98EEADABE20BACE01 PUSH1 0x20 SWAP1 DUP2 MSTORE PUSH1 0x40 DUP1 DUP4 KECCAK256 SWAP4 SWAP1 SWAP5 AND DUP3 MSTORE SWAP2 SWAP1 SWAP2 MSTORE KECCAK256 SLOAD SWAP1 JUMP JUMPDEST PUSH1 0x0 DUP1 MLOAD PUSH1 0x20 PUSH2 0x4D41 DUP4 CODECOPY DUP2 MLOAD SWAP2 MSTORE PUSH2 0x2058 DUP2 PUSH2 0x2A7B JUMP JUMPDEST PUSH1 0x1 PUSH1 0x1 PUSH1 0xA0 SHL SUB DUP5 AND PUSH2 0x20AE JUMPI PUSH1 0x40 MLOAD PUSH3 0x461BCD PUSH1 0xE5 SHL DUP2 MSTORE PUSH1 0x20 PUSH1 0x4 DUP3 ADD MSTORE PUSH1 0x1D PUSH1 0x24 DUP3 ADD MSTORE PUSH32 0x446562746F722063616E6E6F74206265207A65726F2061646472657373000000 PUSH1 0x44 DUP3 ADD MSTORE PUSH1 0x64 ADD PUSH2 0xEC9 JUMP JUMPDEST PUSH1 0x1 PUSH1 0x1 PUSH1 0xA0 SHL SUB DUP4 AND PUSH2 0x2104 JUMPI PUSH1 0x40 MLOAD PUSH3 0x461BCD PUSH1 0xE5 SHL DUP2 MSTORE PUSH1 0x20 PUSH1 0x4 DUP3 ADD MSTORE PUSH1 0x1F PUSH1 0x24 DUP3 ADD MSTORE PUSH32 0x4372656469746F722063616E6E6F74206265207A65726F206164647265737300 PUSH1 0x44 DUP3 ADD MSTORE PUSH1 0x64 ADD PUSH2 0xEC9 JUMP JUMPDEST DUP3 PUSH1 0x1 PUSH1 0x1 PUSH1 0xA0 SHL SUB AND DUP5 PUSH1 0x1 PUSH1 0x1 PUSH1 0xA0 SHL SUB AND SUB PUSH2 0x2161 JUMPI PUSH1 0x40 MLOAD PUSH3 0x461BCD PUSH1 0xE5 SHL DUP2 MSTORE PUSH1 0x20 PUSH1 0x4 DUP3 ADD MSTORE PUSH1 0x19 PUSH1 0x24 DUP3 ADD MSTORE PUSH25 0x2232B13A37B91031B0B73737BA1031329031B932B234BA37B9 PUSH1 0x39 SHL PUSH1 0x44 DUP3 ADD MSTORE PUSH1 0x64 ADD PUSH2 0xEC9 JUMP JUMPDEST PUSH1 0x0 DUP3 GT PUSH2 0x21B1 JUMPI PUSH1 0x40 MLOAD PUSH3 0x461BCD PUSH1 0xE5 SHL DUP2 MSTORE PUSH1 0x20 PUSH1 0x4 DUP3 ADD MSTORE PUSH1 0x17 PUSH1 0x24 DUP3 ADD MSTORE PUSH32 0x416D6F756E74206D75737420626520706F736974697665000000000000000000 PUSH1 0x44 DUP3 ADD MSTORE PUSH1 0x64 ADD PUSH2 0xEC9 JUMP JUMPDEST PUSH1 0x1 PUSH1 0x1 PUSH1 0xA0 SHL SUB DUP1 DUP6 AND PUSH1 0x0 SWAP1 DUP2 MSTORE PUSH1 0xB PUSH1 0x20 SWAP1 DUP2 MSTORE PUSH1 0x40 DUP1 DUP4 KECCAK256 SWAP4 DUP8 AND DUP4 MSTORE SWAP3 SWAP1 MSTORE SWAP1 DUP2 KECCAK256 DUP1 SLOAD DUP5 SWAP3 SWAP1 PUSH2 0x21E8 SWAP1 DUP5 SWAP1 PUSH2 0x49E5 JUMP JUMPDEST SWAP3 POP POP DUP2 SWAP1 SSTORE POP DUP3 PUSH1 0x1 PUSH1 0x1 PUSH1 0xA0 SHL SUB AND DUP5 PUSH1 0x1 PUSH1 0x1 PUSH1 0xA0 SHL SUB AND PUSH32 0xBD91B9538487013E1F78426333A3445BDFCDECE5D02E402F33F9E598122919F5 DUP5 PUSH1 0x40 MLOAD PUSH2 0x1146 SWAP2 DUP2 MSTORE PUSH1 0x20 ADD SWAP1 JUMP JUMPDEST PUSH2 0x22C6 PUSH1 0x40 MLOAD DUP1 PUSH2 0x240 ADD PUSH1 0x40 MSTORE DUP1 PUSH1 0x0 DUP2 MSTORE PUSH1 0x20 ADD PUSH1 0x0 DUP2 MSTORE PUSH1 0x20 ADD PUSH1 0x0 DUP2 MSTORE PUSH1 0x20 ADD PUSH1 0x0 DUP2 MSTORE PUSH1 0x20 ADD PUSH1 0x0 DUP2 MSTORE PUSH1 0x20 ADD PUSH1 0x0 DUP2 MSTORE PUSH1 0x20 ADD PUSH1 0x0 DUP2 MSTORE PUSH1 0x20 ADD PUSH1 0x0 DUP2 MSTORE PUSH1 0x20 ADD PUSH1 0x0 DUP2 MSTORE PUSH1 0x20 ADD PUSH1 0x0 DUP2 MSTORE PUSH1 0x20 ADD PUSH1 0x0 DUP2 MSTORE PUSH1 0x20 ADD PUSH1 0x0 DUP2 MSTORE PUSH1 0x20 ADD PUSH1 0x0 DUP2 MSTORE PUSH1 0x20 ADD PUSH1 0x0 DUP2 MSTORE PUSH1 0x20 ADD PUSH1 0x0 ISZERO ISZERO DUP2 MSTORE PUSH1 0x20 ADD PUSH1 0x0 ISZERO ISZERO DUP2 MSTORE PUSH1 0x20 ADD PUSH1 0x0 DUP2 MSTORE PUSH1 0x20 ADD PUSH1 0x0 DUP2 MSTORE POP SWAP1 JUMP JUMPDEST PUSH1 0x1 PUSH1 0x1 PUSH1 0xA0 SHL SUB DUP4 AND PUSH2 0x2327 JUMPI PUSH1 0x40 MLOAD PUSH3 0x461BCD PUSH1 0xE5 SHL DUP2 MSTORE PUSH1 0x20 PUSH1 0x4 DUP3 ADD MSTORE PUSH1 0x22 PUSH1 0x24 DUP3 ADD MSTORE PUSH32 0x457374696D6174653A205472616E7366657220746F207A65726F206164647265 PUSH1 0x44 DUP3 ADD MSTORE PUSH2 0x7373 PUSH1 0xF0 SHL PUSH1 0x64 DUP3 ADD MSTORE PUSH1 0x84 ADD PUSH2 0xEC9 JUMP JUMPDEST PUSH1 0x0 DUP3 GT PUSH2 0x2393 JUMPI PUSH1 0x40 MLOAD PUSH3 0x461BCD PUSH1 0xE5 SHL DUP2 MSTORE PUSH1 0x20 PUSH1 0x4 DUP3 ADD MSTORE PUSH1 0x33 PUSH1 0x24 DUP3 ADD MSTORE PUSH32 0x457374696D6174653A205472616E7366657220616D6F756E74206D7573742062 PUSH1 0x44 DUP3 ADD MSTORE PUSH19 0x652067726561746572207468616E207A65726F PUSH1 0x68 SHL PUSH1 0x64 DUP3 ADD MSTORE PUSH1 0x84 ADD PUSH2 0xEC9 JUMP JUMPDEST DUP2 DUP2 MSTORE PUSH1 0x0 PUSH2 0x23A1 DUP4 PUSH2 0x3296 JUMP JUMPDEST SWAP1 POP PUSH1 0x0 PUSH2 0x23B1 DUP3 DUP8 DUP8 DUP8 PUSH2 0x3806 JUMP JUMPDEST PUSH2 0x200 DUP5 ADD DUP2 SWAP1 MSTORE SWAP1 POP PUSH2 0x2710 PUSH2 0x23CA PUSH2 0x3E8 DUP7 PUSH2 0x4A2D JUMP JUMPDEST PUSH2 0x23D4 SWAP2 SWAP1 PUSH2 0x4A0B JUMP JUMPDEST PUSH2 0x180 DUP5 ADD DUP2 SWAP1 MSTORE PUSH2 0x200 DUP5 ADD MLOAD GT ISZERO PUSH2 0x2401 JUMPI PUSH2 0x180 DUP4 ADD MLOAD PUSH2 0x200 DUP5 ADD MSTORE PUSH1 0x1 PUSH2 0x1C0 DUP5 ADD MSTORE PUSH2 0x240A JUMP JUMPDEST PUSH1 0x0 PUSH2 0x1C0 DUP5 ADD MSTORE JUMPDEST PUSH6 0x9184E72A000 PUSH2 0x1A0 DUP5 ADD MSTORE PUSH2 0x200 DUP4 ADD MLOAD ISZERO DUP1 ISZERO SWAP1 PUSH2 0x2434 JUMPI POP DUP3 PUSH2 0x1A0 ADD MLOAD DUP4 PUSH2 0x200 ADD MLOAD LT JUMPDEST DUP1 ISZERO PUSH2 0x2445 JUMPI POP DUP3 PUSH2 0x1A0 ADD MLOAD DUP5 LT ISZERO JUMPDEST ISZERO PUSH2 0x24B6 JUMPI DUP3 PUSH2 0x180 ADD MLOAD DUP4 PUSH2 0x1A0 ADD MLOAD GT ISZERO DUP1 ISZERO PUSH2 0x2469 JUMPI POP DUP4 DUP4 PUSH2 0x1A0 ADD MLOAD GT ISZERO JUMPDEST ISZERO PUSH2 0x24A9 JUMPI PUSH2 0x1A0 DUP4 ADD MLOAD PUSH2 0x200 DUP5 ADD DUP2 SWAP1 MSTORE PUSH1 0x1 PUSH2 0x1E0 DUP6 ADD MSTORE PUSH2 0x180 DUP5 ADD MLOAD GT PUSH2 0x249C JUMPI PUSH1 0x1 PUSH2 0x1C0 DUP5 ADD MSTORE PUSH2 0x24BF JUMP JUMPDEST PUSH1 0x0 PUSH2 0x1C0 DUP5 ADD MSTORE PUSH2 0x24BF JUMP JUMPDEST PUSH1 0x0 PUSH2 0x1E0 DUP5 ADD MSTORE PUSH2 0x24BF JUMP JUMPDEST PUSH1 0x0 PUSH2 0x1E0 DUP5 ADD MSTORE JUMPDEST PUSH2 0x100 DUP4 ADD DUP2 SWAP1 MSTORE PUSH1 0x1 PUSH1 0x1 PUSH1 0xA0 SHL SUB DUP7 AND PUSH1 0x0 SWAP1 DUP2 MSTORE PUSH1 0x9 PUSH1 0x20 MSTORE PUSH1 0x40 DUP2 KECCAK256 DUP1 SLOAD PUSH2 0x120 DUP7 ADD DUP2 SWAP1 MSTORE SWAP1 SWAP2 SWAP1 ISZERO DUP1 PUSH2 0x24FB JUMPI POP PUSH2 0x200 DUP6 ADD MLOAD ISZERO JUMPDEST ISZERO PUSH2 0x2514 JUMPI POP PUSH1 0x0 PUSH2 0x140 DUP6 ADD MSTORE PUSH2 0x200 DUP5 ADD MLOAD PUSH2 0x255A JUMP JUMPDEST DUP5 PUSH2 0x200 ADD MLOAD DUP6 PUSH2 0x120 ADD MLOAD LT PUSH2 0x2539 JUMPI POP PUSH2 0x200 DUP5 ADD MLOAD PUSH2 0x140 DUP6 ADD MSTORE PUSH1 0x0 PUSH2 0x255A JUMP JUMPDEST PUSH2 0x120 DUP6 ADD MLOAD PUSH2 0x140 DUP7 ADD DUP2 SWAP1 MSTORE PUSH2 0x200 DUP7 ADD MLOAD PUSH2 0x2557 SWAP2 SWAP1 PUSH2 0x49F8 JUMP JUMPDEST SWAP1 POP JUMPDEST PUSH2 0x160 DUP6 ADD MSTORE POP POP POP PUSH2 0x220 DUP2 ADD DUP3 SWAP1 MSTORE SWAP4 SWAP3 POP POP POP JUMP JUMPDEST PUSH1 0x0 PUSH2 0x257C PUSH2 0x38DA JUMP JUMPDEST DUP1 SLOAD SWAP1 SWAP2 POP PUSH1 0xFF PUSH1 0x1 PUSH1 0x40 SHL DUP3 DIV AND ISZERO SWAP1 PUSH8 0xFFFFFFFFFFFFFFFF AND PUSH1 0x0 DUP2 ISZERO DUP1 ISZERO PUSH2 0x25A4 JUMPI POP DUP3 JUMPDEST SWAP1 POP PUSH1 0x0 DUP3 PUSH8 0xFFFFFFFFFFFFFFFF AND PUSH1 0x1 EQ DUP1 ISZERO PUSH2 0x25C1 JUMPI POP ADDRESS EXTCODESIZE ISZERO JUMPDEST SWAP1 POP DUP2 ISZERO DUP1 ISZERO PUSH2 0x25CF JUMPI POP DUP1 ISZERO JUMPDEST ISZERO PUSH2 0x25ED JUMPI PUSH1 0x40 MLOAD PUSH4 0xF92EE8A9 PUSH1 0xE0 SHL DUP2 MSTORE PUSH1 0x4 ADD PUSH1 0x40 MLOAD DUP1 SWAP2 SUB SWAP1 REVERT JUMPDEST DUP5 SLOAD PUSH8 0xFFFFFFFFFFFFFFFF NOT AND PUSH1 0x1 OR DUP6 SSTORE DUP4 ISZERO PUSH2 0x2617 JUMPI DUP5 SLOAD PUSH1 0xFF PUSH1 0x40 SHL NOT AND PUSH1 0x1 PUSH1 0x40 SHL OR DUP6 SSTORE JUMPDEST PUSH2 0x2621 DUP15 DUP15 PUSH2 0x3903 JUMP JUMPDEST PUSH2 0x2629 PUSH2 0x3915 JUMP JUMPDEST PUSH2 0x2631 PUSH2 0x3915 JUMP JUMPDEST PUSH2 0x2639 PUSH2 0x3915 JUMP JUMPDEST PUSH2 0x2641 PUSH2 0x391D JUMP JUMPDEST PUSH1 0x1 PUSH1 0x1 PUSH1 0xA0 SHL SUB DUP12 AND PUSH2 0x2697 JUMPI PUSH1 0x40 MLOAD PUSH3 0x461BCD PUSH1 0xE5 SHL DUP2 MSTORE PUSH1 0x20 PUSH1 0x4 DUP3 ADD MSTORE PUSH1 0x1F PUSH1 0x24 DUP3 ADD MSTORE PUSH32 0x547265617375727920616464726573732063616E6E6F74206265207A65726F00 PUSH1 0x44 DUP3 ADD MSTORE PUSH1 0x64 ADD PUSH2 0xEC9 JUMP JUMPDEST PUSH1 0x4 DUP1 SLOAD PUSH1 0x1 PUSH1 0x1 PUSH1 0xA0 SHL SUB NOT AND PUSH1 0x1 PUSH1 0x1 PUSH1 0xA0 SHL SUB DUP14 AND OR SWAP1 SSTORE PUSH2 0x26BD PUSH1 0x0 DUP14 PUSH2 0x2D39 JUMP JUMPDEST POP PUSH2 0x26D6 PUSH1 0x0 DUP1 MLOAD PUSH1 0x20 PUSH2 0x4D41 DUP4 CODECOPY DUP2 MLOAD SWAP2 MSTORE DUP14 PUSH2 0x2D39 JUMP JUMPDEST POP PUSH2 0x26EF PUSH1 0x0 DUP1 MLOAD PUSH1 0x20 PUSH2 0x4CE1 DUP4 CODECOPY DUP2 MLOAD SWAP2 MSTORE DUP14 PUSH2 0x2D39 JUMP JUMPDEST POP DUP10 ISZERO PUSH2 0x2700 JUMPI PUSH2 0x2700 DUP13 DUP12 PUSH2 0x2EBA JUMP JUMPDEST PUSH1 0x0 DUP10 SWAP1 SSTORE PUSH1 0x1 DUP9 SWAP1 SSTORE PUSH1 0x2 DUP8 SWAP1 SSTORE PUSH1 0x3 DUP7 SWAP1 SSTORE DUP8 PUSH2 0x2761 JUMPI PUSH1 0x40 MLOAD PUSH3 0x461BCD PUSH1 0xE5 SHL DUP2 MSTORE PUSH1 0x20 PUSH1 0x4 DUP3 ADD MSTORE PUSH1 0x1D PUSH1 0x24 DUP3 ADD MSTORE PUSH32 0x4D696E2048616C664C696665206D75737420626520706F736974697665000000 PUSH1 0x44 DUP3 ADD MSTORE PUSH1 0x64 ADD PUSH2 0xEC9 JUMP JUMPDEST PUSH1 0x2 SLOAD PUSH1 0x1 SLOAD GT ISZERO PUSH2 0x27B5 JUMPI PUSH1 0x40 MLOAD PUSH3 0x461BCD PUSH1 0xE5 SHL DUP2 MSTORE PUSH1 0x20 PUSH1 0x4 DUP3 ADD MSTORE PUSH1 0x18 PUSH1 0x24 DUP3 ADD MSTORE PUSH32 0x4D696E2048616C664C6966652065786365656473206D61780000000000000000 PUSH1 0x44 DUP3 ADD MSTORE PUSH1 0x64 ADD PUSH2 0xEC9 JUMP JUMPDEST PUSH1 0x1 SLOAD PUSH1 0x0 SLOAD LT ISZERO DUP1 ISZERO PUSH2 0x27CD JUMPI POP PUSH1 0x2 SLOAD PUSH1 0x0 SLOAD GT ISZERO JUMPDEST PUSH2 0x2819 JUMPI PUSH1 0x40 MLOAD PUSH3 0x461BCD PUSH1 0xE5 SHL DUP2 MSTORE PUSH1 0x20 PUSH1 0x4 DUP3 ADD MSTORE PUSH1 0x1E PUSH1 0x24 DUP3 ADD MSTORE PUSH32 0x496E697469616C2048616C664C696665206F7574206F6620626F756E64730000 PUSH1 0x44 DUP3 ADD MSTORE PUSH1 0x64 ADD PUSH2 0xEC9 JUMP JUMPDEST PUSH1 0x0 PUSH1 0x3 SLOAD GT PUSH2 0x2876 JUMPI PUSH1 0x40 MLOAD PUSH3 0x461BCD PUSH1 0xE5 SHL DUP2 MSTORE PUSH1 0x20 PUSH1 0x4 DUP3 ADD MSTORE PUSH1 0x22 PUSH1 0x24 DUP3 ADD MSTORE PUSH32 0x496E616374697669747920706572696F64206D75737420626520706F73697469 PUSH1 0x44 DUP3 ADD MSTORE PUSH2 0x7665 PUSH1 0xF0 SHL PUSH1 0x64 DUP3 ADD MSTORE PUSH1 0x84 ADD PUSH2 0xEC9 JUMP JUMPDEST PUSH1 0x1 PUSH1 0x1 PUSH1 0xA0 SHL SUB DUP13 AND ISZERO PUSH2 0x28A5 JUMPI PUSH1 0x1 PUSH1 0x1 PUSH1 0xA0 SHL SUB DUP13 AND PUSH1 0x0 SWAP1 DUP2 MSTORE PUSH1 0x8 PUSH1 0x20 MSTORE PUSH1 0x40 SWAP1 KECCAK256 TIMESTAMP PUSH1 0x2 SWAP1 SWAP2 ADD SSTORE JUMPDEST DUP4 ISZERO PUSH2 0x28EB JUMPI DUP5 SLOAD PUSH1 0xFF PUSH1 0x40 SHL NOT AND DUP6 SSTORE PUSH1 0x40 MLOAD PUSH1 0x1 DUP2 MSTORE PUSH32 0xC7F505B2F371AE2175EE4913F4499E1F2633A7B5936321EED1CDAEB6115181D2 SWAP1 PUSH1 0x20 ADD PUSH1 0x40 MLOAD DUP1 SWAP2 SUB SWAP1 LOG1 JUMPDEST POP POP POP POP POP POP POP POP POP POP POP POP POP POP JUMP JUMPDEST PUSH2 0x2903 PUSH2 0x2A85 JUMP JUMPDEST PUSH2 0x290B PUSH2 0x3226 JUMP JUMPDEST PUSH1 0x0 DUP2 GT PUSH2 0x295B JUMPI PUSH1 0x40 MLOAD PUSH3 0x461BCD PUSH1 0xE5 SHL DUP2 MSTORE PUSH1 0x20 PUSH1 0x4 DUP3 ADD DUP2 SWAP1 MSTORE PUSH1 0x24 DUP3 ADD MSTORE PUSH32 0x576974686472617720616D6F756E74206D75737420626520706F736974697665 PUSH1 0x44 DUP3 ADD MSTORE PUSH1 0x64 ADD PUSH2 0xEC9 JUMP JUMPDEST CALLER PUSH1 0x0 DUP2 DUP2 MSTORE PUSH1 0xC PUSH1 0x20 MSTORE PUSH1 0x40 SWAP1 KECCAK256 SLOAD DUP3 GT ISZERO PUSH2 0x29BA JUMPI PUSH1 0x40 MLOAD PUSH3 0x461BCD PUSH1 0xE5 SHL DUP2 MSTORE PUSH1 0x20 PUSH1 0x4 DUP3 ADD MSTORE PUSH1 0x1F PUSH1 0x24 DUP3 ADD MSTORE PUSH32 0x496E73756666696369656E74207072652D66756E6465642062616C616E636500 PUSH1 0x44 DUP3 ADD MSTORE PUSH1 0x64 ADD PUSH2 0xEC9 JUMP JUMPDEST PUSH1 0x1 PUSH1 0x1 PUSH1 0xA0 SHL SUB DUP2 AND PUSH1 0x0 SWAP1 DUP2 MSTORE PUSH1 0xC PUSH1 0x20 MSTORE PUSH1 0x40 DUP2 KECCAK256 DUP1 SLOAD DUP5 SWAP3 SWAP1 PUSH2 0x29E2 SWAP1 DUP5 SWAP1 PUSH2 0x49F8 JUMP JUMPDEST SWAP1 SWAP2 SSTORE POP POP PUSH1 0x4 SLOAD PUSH2 0x29FE SWAP1 PUSH1 0x1 PUSH1 0x1 PUSH1 0xA0 SHL SUB AND DUP3 DUP5 PUSH2 0x317E JUMP JUMPDEST DUP1 PUSH1 0x1 PUSH1 0x1 PUSH1 0xA0 SHL SUB AND PUSH32 0xBD55D9F44220C89BC817DC6343B4106E55550456ADE2A5ED215BBD2C24A46D4E DUP4 PUSH1 0x40 MLOAD PUSH2 0x1FA8 SWAP2 DUP2 MSTORE PUSH1 0x20 ADD SWAP1 JUMP JUMPDEST PUSH1 0x0 PUSH1 0x1 PUSH1 0x1 PUSH1 0xE0 SHL SUB NOT DUP3 AND PUSH4 0x7965DB0B PUSH1 0xE0 SHL EQ DUP1 PUSH2 0xD92 JUMPI POP PUSH4 0x1FFC9A7 PUSH1 0xE0 SHL PUSH1 0x1 PUSH1 0x1 PUSH1 0xE0 SHL SUB NOT DUP4 AND EQ PUSH2 0xD92 JUMP JUMPDEST PUSH2 0xFBF DUP4 DUP4 DUP4 PUSH1 0x1 PUSH2 0x392D JUMP JUMPDEST PUSH2 0xFE4 DUP2 CALLER PUSH2 0x3A0C JUMP JUMPDEST PUSH1 0x0 DUP1 MLOAD PUSH1 0x20 PUSH2 0x4D21 DUP4 CODECOPY DUP2 MLOAD SWAP2 MSTORE SLOAD PUSH1 0xFF AND ISZERO PUSH2 0x2AB6 JUMPI PUSH1 0x40 MLOAD PUSH4 0xD93C0665 PUSH1 0xE0 SHL DUP2 MSTORE PUSH1 0x4 ADD PUSH1 0x40 MLOAD DUP1 SWAP2 SUB SWAP1 REVERT JUMPDEST JUMP JUMPDEST PUSH1 0x0 PUSH2 0x2AC4 DUP5 DUP5 PUSH2 0x1FF6 JUMP JUMPDEST SWAP1 POP PUSH1 0x0 NOT DUP2 LT ISZERO PUSH2 0xF86 JUMPI DUP2 DUP2 LT ISZERO PUSH2 0x2B0A JUMPI PUSH1 0x40 MLOAD PUSH4 0x7DC7A0D9 PUSH1 0xE1 SHL DUP2 MSTORE PUSH1 0x1 PUSH1 0x1 PUSH1 0xA0 SHL SUB DUP5 AND PUSH1 0x4 DUP3 ADD MSTORE PUSH1 0x24 DUP2 ADD DUP3 SWAP1 MSTORE PUSH1 0x44 DUP2 ADD DUP4 SWAP1 MSTORE PUSH1 0x64 ADD PUSH2 0xEC9 JUMP JUMPDEST PUSH2 0xF86 DUP5 DUP5 DUP5 DUP5 SUB PUSH1 0x0 PUSH2 0x392D JUMP JUMPDEST PUSH1 0x1 PUSH1 0x1 PUSH1 0xA0 SHL SUB DUP3 AND PUSH2 0x2B6F JUMPI PUSH1 0x40 MLOAD PUSH3 0x461BCD PUSH1 0xE5 SHL DUP2 MSTORE PUSH1 0x20 PUSH1 0x4 DUP3 ADD MSTORE PUSH1 0x18 PUSH1 0x24 DUP3 ADD MSTORE PUSH32 0x5472616E7366657220746F207A65726F20616464726573730000000000000000 PUSH1 0x44 DUP3 ADD MSTORE PUSH1 0x64 ADD PUSH2 0xEC9 JUMP JUMPDEST PUSH1 0x0 DUP2 GT PUSH2 0x2BD1 JUMPI PUSH1 0x40 MLOAD PUSH3 0x461BCD PUSH1 0xE5 SHL DUP2 MSTORE PUSH1 0x20 PUSH1 0x4 DUP3 ADD MSTORE PUSH1 0x29 PUSH1 0x24 DUP3 ADD MSTORE PUSH32 0x5472616E7366657220616D6F756E74206D757374206265206772656174657220 PUSH1 0x44 DUP3 ADD MSTORE PUSH9 0x7468616E207A65726F PUSH1 0xB8 SHL PUSH1 0x64 DUP3 ADD MSTORE PUSH1 0x84 ADD PUSH2 0xEC9 JUMP JUMPDEST PUSH1 0x1 PUSH1 0x1 PUSH1 0xA0 SHL SUB DUP4 AND PUSH1 0x0 SWAP1 DUP2 MSTORE PUSH1 0x5 PUSH1 0x20 MSTORE PUSH1 0x40 SWAP1 KECCAK256 SLOAD TIMESTAMP LT DUP1 ISZERO PUSH2 0x2C18 JUMPI POP PUSH1 0x1 PUSH1 0x1 PUSH1 0xA0 SHL SUB DUP4 DUP2 AND PUSH1 0x0 SWAP1 DUP2 MSTORE PUSH1 0x5 PUSH1 0x20 MSTORE PUSH1 0x40 SWAP1 KECCAK256 PUSH1 0x2 ADD SLOAD DUP2 AND SWAP1 DUP4 AND EQ ISZERO JUMPDEST ISZERO PUSH2 0x2C8D JUMPI PUSH1 0x40 DUP1 MLOAD PUSH3 0x461BCD PUSH1 0xE5 SHL DUP2 MSTORE PUSH1 0x20 PUSH1 0x4 DUP3 ADD MSTORE PUSH1 0x24 DUP2 ADD SWAP2 SWAP1 SWAP2 MSTORE PUSH32 0x43616E6E6F74207472616E7366657220647572696E672048616C664C69666520 PUSH1 0x44 DUP3 ADD MSTORE PUSH32 0x706572696F6420657863657074206261636B20746F206F726967696E61746F72 PUSH1 0x64 DUP3 ADD MSTORE PUSH1 0x84 ADD PUSH2 0xEC9 JUMP JUMPDEST PUSH1 0x0 PUSH2 0x2C9A DUP5 DUP5 DUP5 PUSH2 0x3A45 JUMP JUMPDEST SWAP1 POP PUSH1 0x0 DUP1 PUSH1 0x0 PUSH2 0x2CAD DUP8 DUP8 DUP8 DUP8 PUSH2 0x3AD9 JUMP JUMPDEST SWAP2 SWAP5 POP SWAP3 POP SWAP1 POP DUP4 ISZERO PUSH2 0x2CC5 JUMPI PUSH2 0x2CC5 DUP8 DUP8 DUP7 PUSH2 0x3CD2 JUMP JUMPDEST PUSH2 0x2CD1 DUP8 DUP8 DUP8 DUP8 PUSH2 0x3DA9 JUMP JUMPDEST PUSH1 0x40 DUP1 MLOAD DUP7 DUP2 MSTORE PUSH1 0x20 DUP2 ADD DUP7 SWAP1 MSTORE SWAP1 DUP2 ADD DUP3 SWAP1 MSTORE PUSH1 0x60 DUP2 ADD DUP5 SWAP1 MSTORE PUSH1 0x80 DUP2 ADD DUP4 SWAP1 MSTORE PUSH1 0x1 PUSH1 0x1 PUSH1 0xA0 SHL SUB DUP1 DUP9 AND SWAP2 SWAP1 DUP10 AND SWAP1 PUSH32 0x8657FD10F23E08D990DFB64EDE272BEC69B6400F33C93F96A1C0030A1CC6A380 SWAP1 PUSH1 0xA0 ADD PUSH1 0x40 MLOAD DUP1 SWAP2 SUB SWAP1 LOG3 POP POP POP POP POP POP POP JUMP JUMPDEST PUSH1 0x0 PUSH1 0x0 DUP1 MLOAD PUSH1 0x20 PUSH2 0x4D01 DUP4 CODECOPY DUP2 MLOAD SWAP2 MSTORE PUSH2 0x2D54 DUP5 DUP5 PUSH2 0x1E3D JUMP JUMPDEST PUSH2 0x2DD4 JUMPI PUSH1 0x0 DUP5 DUP2 MSTORE PUSH1 0x20 DUP3 DUP2 MSTORE PUSH1 0x40 DUP1 DUP4 KECCAK256 PUSH1 0x1 PUSH1 0x1 PUSH1 0xA0 SHL SUB DUP8 AND DUP5 MSTORE SWAP1 SWAP2 MSTORE SWAP1 KECCAK256 DUP1 SLOAD PUSH1 0xFF NOT AND PUSH1 0x1 OR SWAP1 SSTORE PUSH2 0x2D8A CALLER SWAP1 JUMP JUMPDEST PUSH1 0x1 PUSH1 0x1 PUSH1 0xA0 SHL SUB AND DUP4 PUSH1 0x1 PUSH1 0x1 PUSH1 0xA0 SHL SUB AND DUP6 PUSH32 0x2F8788117E7EFF1D82E926EC794901D17C78024A50270940304540A733656F0D PUSH1 0x40 MLOAD PUSH1 0x40 MLOAD DUP1 SWAP2 SUB SWAP1 LOG4 PUSH1 0x1 SWAP2 POP POP PUSH2 0xD92 JUMP JUMPDEST PUSH1 0x0 SWAP2 POP POP PUSH2 0xD92 JUMP JUMPDEST PUSH1 0x0 PUSH1 0x0 DUP1 MLOAD PUSH1 0x20 PUSH2 0x4D01 DUP4 CODECOPY DUP2 MLOAD SWAP2 MSTORE PUSH2 0x2DF9 DUP5 DUP5 PUSH2 0x1E3D JUMP JUMPDEST ISZERO PUSH2 0x2DD4 JUMPI PUSH1 0x0 DUP5 DUP2 MSTORE PUSH1 0x20 DUP3 DUP2 MSTORE PUSH1 0x40 DUP1 DUP4 KECCAK256 PUSH1 0x1 PUSH1 0x1 PUSH1 0xA0 SHL SUB DUP8 AND DUP1 DUP6 MSTORE SWAP3 MSTORE DUP1 DUP4 KECCAK256 DUP1 SLOAD PUSH1 0xFF NOT AND SWAP1 SSTORE MLOAD CALLER SWAP3 DUP8 SWAP2 PUSH32 0xF6391F5C32D9C69D2A47EA670B442974B53935D1EDC7FD64EB21E047A839171B SWAP2 SWAP1 LOG4 PUSH1 0x1 SWAP2 POP POP PUSH2 0xD92 JUMP JUMPDEST PUSH2 0x2E62 PUSH2 0x3F3C JUMP JUMPDEST PUSH1 0x0 DUP1 MLOAD PUSH1 0x20 PUSH2 0x4D21 DUP4 CODECOPY DUP2 MLOAD SWAP2 MSTORE DUP1 SLOAD PUSH1 0xFF NOT AND DUP2 SSTORE PUSH32 0x5DB9EE0A495BF2E6FF9C91A7834C1BA4FDD244A5E8AA4E537BD38AEAE4B073AA CALLER JUMPDEST PUSH1 0x40 MLOAD PUSH1 0x1 PUSH1 0x1 PUSH1 0xA0 SHL SUB SWAP1 SWAP2 AND DUP2 MSTORE PUSH1 0x20 ADD PUSH1 0x40 MLOAD DUP1 SWAP2 SUB SWAP1 LOG1 POP JUMP JUMPDEST PUSH1 0x1 PUSH1 0x1 PUSH1 0xA0 SHL SUB DUP3 AND PUSH2 0x2EE4 JUMPI PUSH1 0x40 MLOAD PUSH4 0xEC442F05 PUSH1 0xE0 SHL DUP2 MSTORE PUSH1 0x0 PUSH1 0x4 DUP3 ADD MSTORE PUSH1 0x24 ADD PUSH2 0xEC9 JUMP JUMPDEST PUSH2 0x1440 PUSH1 0x0 DUP4 DUP4 PUSH2 0x3F6C JUMP JUMPDEST PUSH1 0x1 PUSH1 0x1 PUSH1 0xA0 SHL SUB DUP2 AND ISZERO DUP1 ISZERO SWAP1 PUSH2 0x2F21 JUMPI POP PUSH1 0x1 PUSH1 0x1 PUSH1 0xA0 SHL SUB DUP2 AND PUSH1 0x0 SWAP1 DUP2 MSTORE PUSH1 0x8 PUSH1 0x20 MSTORE PUSH1 0x40 SWAP1 KECCAK256 PUSH1 0x2 ADD SLOAD ISZERO JUMPDEST ISZERO PUSH2 0xFE4 JUMPI PUSH1 0x1 PUSH1 0x1 PUSH1 0xA0 SHL SUB AND PUSH1 0x0 SWAP1 DUP2 MSTORE PUSH1 0x8 PUSH1 0x20 MSTORE PUSH1 0x40 SWAP1 KECCAK256 TIMESTAMP PUSH1 0x2 SWAP1 SWAP2 ADD SSTORE JUMP JUMPDEST PUSH1 0x1 PUSH1 0x1 PUSH1 0xA0 SHL SUB DUP3 AND PUSH2 0x2F70 JUMPI PUSH1 0x40 MLOAD PUSH4 0x4B637E8F PUSH1 0xE1 SHL DUP2 MSTORE PUSH1 0x0 PUSH1 0x4 DUP3 ADD MSTORE PUSH1 0x24 ADD PUSH2 0xEC9 JUMP JUMPDEST PUSH2 0x1440 DUP3 PUSH1 0x0 DUP4 PUSH2 0x3F6C JUMP JUMPDEST ADDRESS PUSH1 0x1 PUSH1 0x1 PUSH1 0xA0 SHL SUB PUSH32 0x0 AND EQ DUP1 PUSH2 0x3003 JUMPI POP PUSH32 0x0 PUSH1 0x1 PUSH1 0x1 PUSH1 0xA0 SHL SUB AND PUSH2 0x2FF7 PUSH1 0x0 DUP1 MLOAD PUSH1 0x20 PUSH2 0x4CC1 DUP4 CODECOPY DUP2 MLOAD SWAP2 MSTORE SLOAD PUSH1 0x1 PUSH1 0x1 PUSH1 0xA0 SHL SUB AND SWAP1 JUMP JUMPDEST PUSH1 0x1 PUSH1 0x1 PUSH1 0xA0 SHL SUB AND EQ ISZERO JUMPDEST ISZERO PUSH2 0x2AB6 JUMPI PUSH1 0x40 MLOAD PUSH4 0x703E46DD PUSH1 0xE1 SHL DUP2 MSTORE PUSH1 0x4 ADD PUSH1 0x40 MLOAD DUP1 SWAP2 SUB SWAP1 REVERT JUMPDEST PUSH1 0x0 DUP1 MLOAD PUSH1 0x20 PUSH2 0x4D41 DUP4 CODECOPY DUP2 MLOAD SWAP2 MSTORE PUSH2 0x1440 DUP2 PUSH2 0x2A7B JUMP JUMPDEST DUP2 PUSH1 0x1 PUSH1 0x1 PUSH1 0xA0 SHL SUB AND PUSH4 0x52D1902D PUSH1 0x40 MLOAD DUP2 PUSH4 0xFFFFFFFF AND PUSH1 0xE0 SHL DUP2 MSTORE PUSH1 0x4 ADD PUSH1 0x20 PUSH1 0x40 MLOAD DUP1 DUP4 SUB DUP2 DUP7 GAS STATICCALL SWAP3 POP POP POP DUP1 ISZERO PUSH2 0x3093 JUMPI POP PUSH1 0x40 DUP1 MLOAD PUSH1 0x1F RETURNDATASIZE SWAP1 DUP2 ADD PUSH1 0x1F NOT AND DUP3 ADD SWAP1 SWAP3 MSTORE PUSH2 0x3090 SWAP2 DUP2 ADD SWAP1 PUSH2 0x4A5D JUMP JUMPDEST PUSH1 0x1 JUMPDEST PUSH2 0x30BB JUMPI PUSH1 0x40 MLOAD PUSH4 0x4C9C8CE3 PUSH1 0xE0 SHL DUP2 MSTORE PUSH1 0x1 PUSH1 0x1 PUSH1 0xA0 SHL SUB DUP4 AND PUSH1 0x4 DUP3 ADD MSTORE PUSH1 0x24 ADD PUSH2 0xEC9 JUMP JUMPDEST PUSH1 0x0 DUP1 MLOAD PUSH1 0x20 PUSH2 0x4CC1 DUP4 CODECOPY DUP2 MLOAD SWAP2 MSTORE DUP2 EQ PUSH2 0x30EC JUMPI PUSH1 0x40 MLOAD PUSH4 0x2A875269 PUSH1 0xE2 SHL DUP2 MSTORE PUSH1 0x4 DUP2 ADD DUP3 SWAP1 MSTORE PUSH1 0x24 ADD PUSH2 0xEC9 JUMP JUMPDEST PUSH2 0xFBF DUP4 DUP4 PUSH2 0x3F7F JUMP JUMPDEST ADDRESS PUSH1 0x1 PUSH1 0x1 PUSH1 0xA0 SHL SUB PUSH32 0x0 AND EQ PUSH2 0x2AB6 JUMPI PUSH1 0x40 MLOAD PUSH4 0x703E46DD PUSH1 0xE1 SHL DUP2 MSTORE PUSH1 0x4 ADD PUSH1 0x40 MLOAD DUP1 SWAP2 SUB SWAP1 REVERT JUMPDEST PUSH2 0x3148 DUP2 PUSH2 0x2EF0 JUMP JUMPDEST PUSH1 0x1 PUSH1 0x1 PUSH1 0xA0 SHL SUB DUP2 AND PUSH1 0x0 SWAP1 DUP2 MSTORE PUSH1 0x8 PUSH1 0x20 MSTORE PUSH1 0x40 DUP2 KECCAK256 DUP1 SLOAD SWAP1 SWAP2 DUP3 SWAP1 PUSH2 0x316F DUP4 PUSH2 0x4A44 JUMP JUMPDEST SWAP1 SWAP2 SSTORE POP POP TIMESTAMP PUSH1 0x1 SWAP1 SWAP2 ADD SSTORE POP JUMP JUMPDEST PUSH1 0x1 PUSH1 0x1 PUSH1 0xA0 SHL SUB DUP4 AND PUSH2 0x31A8 JUMPI PUSH1 0x40 MLOAD PUSH4 0x4B637E8F PUSH1 0xE1 SHL DUP2 MSTORE PUSH1 0x0 PUSH1 0x4 DUP3 ADD MSTORE PUSH1 0x24 ADD PUSH2 0xEC9 JUMP JUMPDEST PUSH1 0x1 PUSH1 0x1 PUSH1 0xA0 SHL SUB DUP3 AND PUSH2 0x31D2 JUMPI PUSH1 0x40 MLOAD PUSH4 0xEC442F05 PUSH1 0xE0 SHL DUP2 MSTORE PUSH1 0x0 PUSH1 0x4 DUP3 ADD MSTORE PUSH1 0x24 ADD PUSH2 0xEC9 JUMP JUMPDEST PUSH2 0xFBF DUP4 DUP4 DUP4 PUSH2 0x3F6C JUMP JUMPDEST PUSH2 0x31E5 PUSH2 0x2A85 JUMP JUMPDEST PUSH1 0x0 DUP1 MLOAD PUSH1 0x20 PUSH2 0x4D21 DUP4 CODECOPY DUP2 MLOAD SWAP2 MSTORE DUP1 SLOAD PUSH1 0xFF NOT AND PUSH1 0x1 OR DUP2 SSTORE PUSH32 0x62E78CEA01BEE320CD4E420270B5EA74000D11B0C9F74754EBDBFC544B05A258 CALLER PUSH2 0x2E9C JUMP JUMPDEST PUSH32 0x9B779B17422D0DF92223018B32B4D1FA46E071723D6817E2486D003BECC55F00 DUP1 SLOAD PUSH1 0x1 NOT ADD PUSH2 0x326A JUMPI PUSH1 0x40 MLOAD PUSH4 0x3EE5AEB5 PUSH1 0xE0 SHL DUP2 MSTORE PUSH1 0x4 ADD PUSH1 0x40 MLOAD DUP1 SWAP2 SUB SWAP1 REVERT JUMPDEST PUSH1 0x2 SWAP1 SSTORE JUMP JUMPDEST PUSH1 0x1 PUSH32 0x9B779B17422D0DF92223018B32B4D1FA46E071723D6817E2486D003BECC55F00 SSTORE JUMP JUMPDEST PUSH1 0x0 DUP2 PUSH1 0x0 SUB PUSH2 0x32A8 JUMPI POP PUSH1 0x0 SWAP2 SWAP1 POP JUMP JUMPDEST PUSH1 0x40 DUP1 MLOAD PUSH1 0xB DUP1 DUP3 MSTORE PUSH2 0x180 DUP3 ADD SWAP1 SWAP3 MSTORE PUSH1 0x0 SWAP2 DUP3 SWAP2 SWAP1 DUP2 PUSH1 0x20 ADD JUMPDEST PUSH2 0x32CC PUSH2 0x4629 JUMP JUMPDEST DUP2 MSTORE PUSH1 0x20 ADD SWAP1 PUSH1 0x1 SWAP1 SUB SWAP1 DUP2 PUSH2 0x32C4 JUMPI POP POP PUSH1 0x40 DUP1 MLOAD DUP1 DUP3 ADD SWAP1 SWAP2 MSTORE PUSH7 0x2386F26FC10000 DUP2 MSTORE SWAP1 SWAP2 POP PUSH2 0x3E8 SWAP1 PUSH1 0x20 DUP2 ADD PUSH2 0x330A DUP4 PUSH3 0x186A0 PUSH2 0x4A2D JUMP JUMPDEST DUP2 MSTORE POP DUP3 PUSH1 0x0 DUP2 MLOAD DUP2 LT PUSH2 0x3320 JUMPI PUSH2 0x3320 PUSH2 0x4A76 JUMP JUMPDEST PUSH1 0x20 MUL PUSH1 0x20 ADD ADD DUP2 SWAP1 MSTORE POP PUSH1 0x40 MLOAD DUP1 PUSH1 0x40 ADD PUSH1 0x40 MSTORE DUP1 PUSH8 0x16345785D8A0000 DUP2 MSTORE PUSH1 0x20 ADD DUP3 PUSH2 0x2710 PUSH2 0x3352 SWAP2 SWAP1 PUSH2 0x4A2D JUMP JUMPDEST DUP2 MSTORE POP DUP3 PUSH1 0x1 DUP2 MLOAD DUP2 LT PUSH2 0x3368 JUMPI PUSH2 0x3368 PUSH2 0x4A76 JUMP JUMPDEST PUSH1 0x20 MUL PUSH1 0x20 ADD ADD DUP2 SWAP1 MSTORE POP PUSH1 0x40 MLOAD DUP1 PUSH1 0x40 ADD PUSH1 0x40 MSTORE DUP1 PUSH8 0xDE0B6B3A7640000 DUP2 MSTORE PUSH1 0x20 ADD DUP3 PUSH2 0x3E8 PUSH2 0x339A SWAP2 SWAP1 PUSH2 0x4A2D JUMP JUMPDEST DUP2 MSTORE POP DUP3 PUSH1 0x2 DUP2 MLOAD DUP2 LT PUSH2 0x33B0 JUMPI PUSH2 0x33B0 PUSH2 0x4A76 JUMP JUMPDEST PUSH1 0x20 MUL PUSH1 0x20 ADD ADD DUP2 SWAP1 MSTORE POP PUSH1 0x40 MLOAD DUP1 PUSH1 0x40 ADD PUSH1 0x40 MSTORE DUP1 PUSH8 0x8AC7230489E80000 DUP2 MSTORE PUSH1 0x20 ADD DUP3 PUSH1 0x64 PUSH2 0x33E1 SWAP2 SWAP1 PUSH2 0x4A2D JUMP JUMPDEST DUP2 MSTORE POP DUP3 PUSH1 0x3 DUP2 MLOAD DUP2 LT PUSH2 0x33F7 JUMPI PUSH2 0x33F7 PUSH2 0x4A76 JUMP JUMPDEST PUSH1 0x20 MUL PUSH1 0x20 ADD ADD DUP2 SWAP1 MSTORE POP PUSH1 0x40 MLOAD DUP1 PUSH1 0x40 ADD PUSH1 0x40 MSTORE DUP1 PUSH9 0x56BC75E2D63100000 DUP2 MSTORE PUSH1 0x20 ADD DUP3 PUSH1 0xA PUSH2 0x3429 SWAP2 SWAP1 PUSH2 0x4A2D JUMP JUMPDEST DUP2 MSTORE POP DUP3 PUSH1 0x4 DUP2 MLOAD DUP2 LT PUSH2 0x343F JUMPI PUSH2 0x343F PUSH2 0x4A76 JUMP JUMPDEST PUSH1 0x20 MUL PUSH1 0x20 ADD ADD DUP2 SWAP1 MSTORE POP PUSH1 0x40 MLOAD DUP1 PUSH1 0x40 ADD PUSH1 0x40 MSTORE DUP1 PUSH9 0x3635C9ADC5DEA00000 DUP2 MSTORE PUSH1 0x20 ADD DUP3 PUSH1 0x1 PUSH2 0x3471 SWAP2 SWAP1 PUSH2 0x4A2D JUMP JUMPDEST DUP2 MSTORE POP DUP3 PUSH1 0x5 DUP2 MLOAD DUP2 LT PUSH2 0x3487 JUMPI PUSH2 0x3487 PUSH2 0x4A76 JUMP JUMPDEST PUSH1 0x20 MUL PUSH1 0x20 ADD ADD DUP2 SWAP1 MSTORE POP PUSH1 0x40 MLOAD DUP1 PUSH1 0x40 ADD PUSH1 0x40 MSTORE DUP1 PUSH10 0x21E19E0C9BAB2400000 DUP2 MSTORE PUSH1 0x20 ADD PUSH1 0xA DUP4 PUSH1 0x1 PUSH2 0x34BC SWAP2 SWAP1 PUSH2 0x4A2D JUMP JUMPDEST PUSH2 0x34C6 SWAP2 SWAP1 PUSH2 0x4A0B JUMP JUMPDEST DUP2 MSTORE POP DUP3 PUSH1 0x6 DUP2 MLOAD DUP2 LT PUSH2 0x34DC JUMPI PUSH2 0x34DC PUSH2 0x4A76 JUMP JUMPDEST PUSH1 0x20 MUL PUSH1 0x20 ADD ADD DUP2 SWAP1 MSTORE POP PUSH1 0x40 MLOAD DUP1 PUSH1 0x40 ADD PUSH1 0x40 MSTORE DUP1 PUSH10 0x152D02C7E14AF6800000 DUP2 MSTORE PUSH1 0x20 ADD PUSH1 0x64 DUP4 PUSH1 0x1 PUSH2 0x3511 SWAP2 SWAP1 PUSH2 0x4A2D JUMP JUMPDEST PUSH2 0x351B SWAP2 SWAP1 PUSH2 0x4A0B JUMP JUMPDEST DUP2 MSTORE POP DUP3 PUSH1 0x7 DUP2 MLOAD DUP2 LT PUSH2 0x3531 JUMPI PUSH2 0x3531 PUSH2 0x4A76 JUMP JUMPDEST PUSH1 0x20 MUL PUSH1 0x20 ADD ADD DUP2 SWAP1 MSTORE POP PUSH1 0x40 MLOAD DUP1 PUSH1 0x40 ADD PUSH1 0x40 MSTORE DUP1 PUSH10 0xD3C21BCECCEDA1000000 DUP2 MSTORE PUSH1 0x20 ADD PUSH2 0x3E8 DUP4 PUSH1 0x1 PUSH2 0x3567 SWAP2 SWAP1 PUSH2 0x4A2D JUMP JUMPDEST PUSH2 0x3571 SWAP2 SWAP1 PUSH2 0x4A0B JUMP JUMPDEST DUP2 MSTORE POP DUP3 PUSH1 0x8 DUP2 MLOAD DUP2 LT PUSH2 0x3587 JUMPI PUSH2 0x3587 PUSH2 0x4A76 JUMP JUMPDEST PUSH1 0x20 MUL PUSH1 0x20 ADD ADD DUP2 SWAP1 MSTORE POP PUSH1 0x40 MLOAD DUP1 PUSH1 0x40 ADD PUSH1 0x40 MSTORE DUP1 PUSH1 0x0 NOT DUP2 MSTORE PUSH1 0x20 ADD PUSH2 0x2710 DUP4 PUSH1 0x1 PUSH2 0x35B5 SWAP2 SWAP1 PUSH2 0x4A2D JUMP JUMPDEST PUSH2 0x35BF SWAP2 SWAP1 PUSH2 0x4A0B JUMP JUMPDEST DUP2 MSTORE POP DUP3 PUSH1 0x9 DUP2 MLOAD DUP2 LT PUSH2 0x35D5 JUMPI PUSH2 0x35D5 PUSH2 0x4A76 JUMP JUMPDEST PUSH1 0x20 MUL PUSH1 0x20 ADD ADD DUP2 SWAP1 MSTORE POP PUSH1 0x40 MLOAD DUP1 PUSH1 0x40 ADD PUSH1 0x40 MSTORE DUP1 PUSH1 0x0 NOT DUP2 MSTORE PUSH1 0x20 ADD PUSH3 0x186A0 DUP4 PUSH1 0x1 PUSH2 0x3604 SWAP2 SWAP1 PUSH2 0x4A2D JUMP JUMPDEST PUSH2 0x360E SWAP2 SWAP1 PUSH2 0x4A0B JUMP JUMPDEST DUP2 MSTORE POP DUP3 PUSH1 0xA DUP2 MLOAD DUP2 LT PUSH2 0x3624 JUMPI PUSH2 0x3624 PUSH2 0x4A76 JUMP JUMPDEST PUSH1 0x20 MUL PUSH1 0x20 ADD ADD DUP2 SWAP1 MSTORE POP PUSH1 0x0 JUMPDEST DUP3 MLOAD DUP2 LT ISZERO PUSH2 0x37FC JUMPI PUSH1 0x0 DUP4 DUP3 DUP2 MLOAD DUP2 LT PUSH2 0x364F JUMPI PUSH2 0x364F PUSH2 0x4A76 JUMP JUMPDEST PUSH1 0x20 MUL PUSH1 0x20 ADD ADD MLOAD PUSH1 0x0 PUSH1 0x2 DUP2 LT PUSH2 0x3669 JUMPI PUSH2 0x3669 PUSH2 0x4A76 JUMP JUMPDEST PUSH1 0x20 MUL ADD MLOAD SWAP1 POP PUSH1 0x0 DUP5 DUP4 DUP2 MLOAD DUP2 LT PUSH2 0x3684 JUMPI PUSH2 0x3684 PUSH2 0x4A76 JUMP JUMPDEST PUSH1 0x20 MUL PUSH1 0x20 ADD ADD MLOAD PUSH1 0x1 PUSH1 0x2 DUP2 LT PUSH2 0x369E JUMPI PUSH2 0x369E PUSH2 0x4A76 JUMP JUMPDEST PUSH1 0x20 MUL ADD MLOAD SWAP1 POP PUSH1 0x0 DUP4 ISZERO PUSH2 0x36ED JUMPI DUP6 PUSH2 0x36B9 PUSH1 0x1 DUP7 PUSH2 0x49F8 JUMP JUMPDEST DUP2 MLOAD DUP2 LT PUSH2 0x36C9 JUMPI PUSH2 0x36C9 PUSH2 0x4A76 JUMP JUMPDEST PUSH1 0x20 MUL PUSH1 0x20 ADD ADD MLOAD PUSH1 0x0 PUSH1 0x2 DUP2 LT PUSH2 0x36E3 JUMPI PUSH2 0x36E3 PUSH2 0x4A76 JUMP JUMPDEST PUSH1 0x20 MUL ADD MLOAD PUSH2 0x36F0 JUMP JUMPDEST PUSH1 0x0 JUMPDEST SWAP1 POP PUSH1 0x0 DUP2 DUP11 GT ISZERO PUSH2 0x3797 JUMPI DUP4 DUP11 LT PUSH2 0x378A JUMPI DUP2 DUP5 GT ISZERO PUSH2 0x371C JUMPI PUSH2 0x3715 DUP3 DUP6 PUSH2 0x49F8 JUMP JUMPDEST SWAP1 POP PUSH2 0x3797 JUMP JUMPDEST POP PUSH1 0x0 PUSH1 0x0 NOT DUP5 EQ DUP1 ISZERO PUSH2 0x3730 JUMPI POP PUSH1 0x0 DUP6 GT JUMPDEST DUP1 ISZERO PUSH2 0x3777 JUMPI POP PUSH1 0x0 NOT DUP8 PUSH2 0x3746 PUSH1 0x1 DUP9 PUSH2 0x49F8 JUMP JUMPDEST DUP2 MLOAD DUP2 LT PUSH2 0x3756 JUMPI PUSH2 0x3756 PUSH2 0x4A76 JUMP JUMPDEST PUSH1 0x20 MUL PUSH1 0x20 ADD ADD MLOAD PUSH1 0x0 PUSH1 0x2 DUP2 LT PUSH2 0x3770 JUMPI PUSH2 0x3770 PUSH2 0x4A76 JUMP JUMPDEST PUSH1 0x20 MUL ADD MLOAD EQ JUMPDEST ISZERO PUSH2 0x3785 JUMPI POP POP POP POP PUSH2 0x37FC JUMP JUMPDEST PUSH2 0x3797 JUMP JUMPDEST PUSH2 0x3794 DUP3 DUP12 PUSH2 0x49F8 JUMP JUMPDEST SWAP1 POP JUMPDEST PUSH1 0x0 DUP2 GT DUP1 ISZERO PUSH2 0x37A7 JUMPI POP PUSH1 0x0 DUP4 GT JUMPDEST ISZERO PUSH2 0x37DB JUMPI PUSH2 0x37BA PUSH2 0x3E8 PUSH2 0x2710 PUSH2 0x4A2D JUMP JUMPDEST PUSH2 0x37C4 DUP5 DUP4 PUSH2 0x4A2D JUMP JUMPDEST PUSH2 0x37CE SWAP2 SWAP1 PUSH2 0x4A0B JUMP JUMPDEST PUSH2 0x37D8 SWAP1 DUP10 PUSH2 0x49E5 JUMP JUMPDEST SWAP8 POP JUMPDEST DUP4 DUP11 LT ISZERO PUSH2 0x37EC JUMPI POP POP POP POP PUSH2 0x37FC JUMP JUMPDEST POP POP PUSH1 0x1 SWAP1 SWAP3 ADD SWAP2 POP PUSH2 0x3632 SWAP1 POP JUMP JUMPDEST POP SWAP2 SWAP5 SWAP4 POP POP POP POP JUMP JUMPDEST PUSH1 0x0 DUP5 PUSH1 0x0 SUB PUSH2 0x3818 JUMPI POP PUSH1 0x0 PUSH2 0x38D2 JUMP JUMPDEST PUSH1 0x0 PUSH2 0x3823 DUP6 PUSH2 0x1B0D JUMP JUMPDEST SWAP1 POP PUSH1 0x0 PUSH2 0x3830 DUP6 PUSH2 0x1B0D JUMP JUMPDEST SWAP1 POP PUSH1 0x0 DUP2 DUP4 GT PUSH2 0x3841 JUMPI DUP2 PUSH2 0x3843 JUMP JUMPDEST DUP3 JUMPDEST SWAP1 POP PUSH1 0x0 PUSH2 0x2710 DUP3 GT PUSH2 0x3857 JUMPI PUSH1 0x0 PUSH2 0x3863 JUMP JUMPDEST PUSH2 0x3863 PUSH2 0x2710 DUP4 PUSH2 0x49F8 JUMP JUMPDEST SWAP1 POP DUP1 PUSH1 0x0 SUB PUSH2 0x3879 JUMPI DUP9 SWAP5 POP POP POP POP POP PUSH2 0x38D2 JUMP JUMPDEST PUSH1 0x0 PUSH2 0x3884 DUP8 PUSH2 0x3FD5 JUMP JUMPDEST SWAP1 POP PUSH1 0x0 PUSH2 0x2710 PUSH2 0x3895 DUP4 DUP6 PUSH2 0x4A2D JUMP JUMPDEST PUSH2 0x389F SWAP2 SWAP1 PUSH2 0x4A0B JUMP JUMPDEST SWAP1 POP PUSH1 0x0 PUSH2 0x38AF DUP3 PUSH2 0x2710 PUSH2 0x49E5 JUMP JUMPDEST SWAP1 POP PUSH2 0x2710 PUSH2 0x38BE DUP3 DUP15 PUSH2 0x4A2D JUMP JUMPDEST PUSH2 0x38C8 SWAP2 SWAP1 PUSH2 0x4A0B JUMP JUMPDEST SWAP8 POP POP POP POP POP POP POP POP JUMPDEST SWAP5 SWAP4 POP POP POP POP JUMP JUMPDEST PUSH1 0x0 DUP1 PUSH32 0xF0C57E16840DF040F15088DC2F81FE391C3923BEC73E23A9662EFC9C229C6A00 PUSH2 0xD92 JUMP JUMPDEST PUSH2 0x390B PUSH2 0x408F JUMP JUMPDEST PUSH2 0x1440 DUP3 DUP3 PUSH2 0x40B4 JUMP JUMPDEST PUSH2 0x2AB6 PUSH2 0x408F JUMP JUMPDEST PUSH2 0x3925 PUSH2 0x408F JUMP JUMPDEST PUSH2 0x2AB6 PUSH2 0x4105 JUMP JUMPDEST PUSH1 0x0 DUP1 MLOAD PUSH1 0x20 PUSH2 0x4CA1 DUP4 CODECOPY DUP2 MLOAD SWAP2 MSTORE PUSH1 0x1 PUSH1 0x1 PUSH1 0xA0 SHL SUB DUP6 AND PUSH2 0x3966 JUMPI PUSH1 0x40 MLOAD PUSH4 0xE602DF05 PUSH1 0xE0 SHL DUP2 MSTORE PUSH1 0x0 PUSH1 0x4 DUP3 ADD MSTORE PUSH1 0x24 ADD PUSH2 0xEC9 JUMP JUMPDEST PUSH1 0x1 PUSH1 0x1 PUSH1 0xA0 SHL SUB DUP5 AND PUSH2 0x3990 JUMPI PUSH1 0x40 MLOAD PUSH4 0x4A1406B1 PUSH1 0xE1 SHL DUP2 MSTORE PUSH1 0x0 PUSH1 0x4 DUP3 ADD MSTORE PUSH1 0x24 ADD PUSH2 0xEC9 JUMP JUMPDEST PUSH1 0x1 PUSH1 0x1 PUSH1 0xA0 SHL SUB DUP1 DUP7 AND PUSH1 0x0 SWAP1 DUP2 MSTORE PUSH1 0x1 DUP4 ADD PUSH1 0x20 SWAP1 DUP2 MSTORE PUSH1 0x40 DUP1 DUP4 KECCAK256 SWAP4 DUP9 AND DUP4 MSTORE SWAP3 SWAP1 MSTORE KECCAK256 DUP4 SWAP1 SSTORE DUP2 ISZERO PUSH2 0x3A05 JUMPI DUP4 PUSH1 0x1 PUSH1 0x1 PUSH1 0xA0 SHL SUB AND DUP6 PUSH1 0x1 PUSH1 0x1 PUSH1 0xA0 SHL SUB AND PUSH32 0x8C5BE1E5EBEC7D5BD14F71427D1E84F3DD0314C0F7B2291E5B200AC8C7C3B925 DUP6 PUSH1 0x40 MLOAD PUSH2 0x1416 SWAP2 DUP2 MSTORE PUSH1 0x20 ADD SWAP1 JUMP JUMPDEST POP POP POP POP POP JUMP JUMPDEST PUSH2 0x3A16 DUP3 DUP3 PUSH2 0x1E3D JUMP JUMPDEST PUSH2 0x1440 JUMPI PUSH1 0x40 MLOAD PUSH4 0xE2517D3F PUSH1 0xE0 SHL DUP2 MSTORE PUSH1 0x1 PUSH1 0x1 PUSH1 0xA0 SHL SUB DUP3 AND PUSH1 0x4 DUP3 ADD MSTORE PUSH1 0x24 DUP2 ADD DUP4 SWAP1 MSTORE PUSH1 0x44 ADD PUSH2 0xEC9 JUMP JUMPDEST PUSH1 0x0 DUP1 PUSH2 0x3A51 DUP4 PUSH2 0x3296 JUMP JUMPDEST SWAP1 POP PUSH1 0x0 PUSH2 0x3A61 DUP3 DUP8 DUP8 DUP8 PUSH2 0x3806 JUMP JUMPDEST SWAP1 POP DUP1 PUSH1 0x0 PUSH2 0x2710 PUSH2 0x3A75 PUSH2 0x3E8 DUP9 PUSH2 0x4A2D JUMP JUMPDEST PUSH2 0x3A7F SWAP2 SWAP1 PUSH2 0x4A0B JUMP JUMPDEST SWAP1 POP DUP1 DUP3 GT ISZERO PUSH2 0x3A8D JUMPI DUP1 SWAP2 POP JUMPDEST PUSH6 0x9184E72A000 DUP3 ISZERO DUP1 ISZERO SWAP1 PUSH2 0x3AA2 JUMPI POP DUP1 DUP4 LT JUMPDEST DUP1 ISZERO PUSH2 0x3AAE JUMPI POP DUP1 DUP8 LT ISZERO JUMPDEST ISZERO PUSH2 0x3ACC JUMPI DUP2 DUP2 GT ISZERO DUP1 ISZERO PUSH2 0x3AC3 JUMPI POP DUP7 DUP2 GT ISZERO JUMPDEST ISZERO PUSH2 0x3ACC JUMPI DUP1 SWAP3 POP JUMPDEST POP SWAP1 SWAP8 SWAP7 POP POP POP POP POP POP POP JUMP JUMPDEST PUSH1 0x0 DUP1 DUP1 DUP4 DUP1 ISZERO DUP1 ISZERO SWAP1 PUSH2 0x3B04 JUMPI POP PUSH1 0x1 PUSH1 0x1 PUSH1 0xA0 SHL SUB DUP9 AND PUSH1 0x0 SWAP1 DUP2 MSTORE PUSH1 0xC PUSH1 0x20 MSTORE PUSH1 0x40 SWAP1 KECCAK256 SLOAD ISZERO ISZERO JUMPDEST ISZERO PUSH2 0x3BD7 JUMPI PUSH1 0x1 PUSH1 0x1 PUSH1 0xA0 SHL SUB DUP9 AND PUSH1 0x0 SWAP1 DUP2 MSTORE PUSH1 0xC PUSH1 0x20 MSTORE PUSH1 0x40 DUP2 KECCAK256 SLOAD DUP3 LT PUSH2 0x3B46 JUMPI PUSH1 0x1 PUSH1 0x1 PUSH1 0xA0 SHL SUB DUP10 AND PUSH1 0x0 SWAP1 DUP2 MSTORE PUSH1 0xC PUSH1 0x20 MSTORE PUSH1 0x40 SWAP1 KECCAK256 SLOAD PUSH2 0x3B48 JUMP JUMPDEST DUP2 JUMPDEST PUSH1 0x1 PUSH1 0x1 PUSH1 0xA0 SHL SUB DUP11 AND PUSH1 0x0 SWAP1 DUP2 MSTORE PUSH1 0xC PUSH1 0x20 MSTORE PUSH1 0x40 DUP2 KECCAK256 DUP1 SLOAD SWAP3 SWAP4 POP DUP4 SWAP3 SWAP1 SWAP2 SWAP1 PUSH2 0x3B75 SWAP1 DUP5 SWAP1 PUSH2 0x49F8 JUMP JUMPDEST SWAP1 SWAP2 SSTORE POP SWAP1 SWAP5 POP DUP5 SWAP1 POP PUSH2 0x3B89 DUP2 DUP4 PUSH2 0x49F8 JUMP JUMPDEST SWAP2 POP DUP1 ISZERO PUSH2 0x3BD5 JUMPI DUP9 PUSH1 0x1 PUSH1 0x1 PUSH1 0xA0 SHL SUB AND PUSH32 0x61B2F2053FC2ED5F431A02115CC5585518B9E5118FC14DB10FA1FA57310FEEC1 DUP3 PUSH1 0x40 MLOAD PUSH2 0x3BCC SWAP2 DUP2 MSTORE PUSH1 0x20 ADD SWAP1 JUMP JUMPDEST PUSH1 0x40 MLOAD DUP1 SWAP2 SUB SWAP1 LOG2 JUMPDEST POP JUMPDEST DUP1 ISZERO PUSH2 0x3C41 JUMPI PUSH1 0x0 DUP1 PUSH2 0x3BEA DUP11 DUP5 PUSH2 0x410D JUMP JUMPDEST SWAP6 POP SWAP4 POP DUP4 SWAP2 POP DUP5 SWAP1 POP DUP1 ISZERO PUSH2 0x3C3E JUMPI DUP10 PUSH1 0x1 PUSH1 0x1 PUSH1 0xA0 SHL SUB AND PUSH32 0xC7228B105191BCF0EA43E3534E8B2B750C8E8371115D300EF38189BFCD4BC26E DUP3 PUSH1 0x40 MLOAD PUSH2 0x3C35 SWAP2 DUP2 MSTORE PUSH1 0x20 ADD SWAP1 JUMP JUMPDEST PUSH1 0x40 MLOAD DUP1 SWAP2 SUB SWAP1 LOG2 JUMPDEST POP POP JUMPDEST PUSH1 0x0 PUSH2 0x3C4D DUP4 DUP9 PUSH2 0x49E5 JUMP JUMPDEST SWAP1 POP PUSH1 0x0 PUSH2 0x3C5A DUP11 PUSH2 0x1CCB JUMP JUMPDEST SWAP1 POP DUP2 DUP2 LT ISZERO PUSH2 0x3C96 JUMPI PUSH1 0x40 MLOAD PUSH4 0x391434E3 PUSH1 0xE2 SHL DUP2 MSTORE PUSH1 0x1 PUSH1 0x1 PUSH1 0xA0 SHL SUB DUP12 AND PUSH1 0x4 DUP3 ADD MSTORE PUSH1 0x24 DUP2 ADD DUP3 SWAP1 MSTORE PUSH1 0x44 DUP2 ADD DUP4 SWAP1 MSTORE PUSH1 0x64 ADD PUSH2 0xEC9 JUMP JUMPDEST DUP4 ISZERO PUSH2 0x3CB4 JUMPI PUSH1 0x4 SLOAD PUSH2 0x3CB4 SWAP1 DUP12 SWAP1 PUSH1 0x1 PUSH1 0x1 PUSH1 0xA0 SHL SUB AND DUP7 PUSH2 0x317E JUMP JUMPDEST DUP8 ISZERO PUSH2 0x3CC5 JUMPI PUSH2 0x3CC5 DUP11 DUP11 DUP11 PUSH2 0x317E JUMP JUMPDEST POP POP POP SWAP5 POP SWAP5 POP SWAP5 SWAP2 POP POP JUMP JUMPDEST DUP1 PUSH1 0x0 SUB PUSH2 0x3CDF JUMPI POP POP POP JUMP JUMPDEST PUSH1 0x0 PUSH2 0x3CEC PUSH1 0x4 DUP4 PUSH2 0x4A0B JUMP JUMPDEST SWAP1 POP PUSH1 0x0 PUSH2 0x3CFB PUSH1 0x4 DUP5 PUSH2 0x4A0B JUMP JUMPDEST SWAP1 POP DUP2 ISZERO PUSH2 0x3D50 JUMPI PUSH1 0x1 PUSH1 0x1 PUSH1 0xA0 SHL SUB DUP6 AND PUSH1 0x0 SWAP1 DUP2 MSTORE PUSH1 0x9 PUSH1 0x20 MSTORE PUSH1 0x40 DUP2 KECCAK256 DUP1 SLOAD DUP5 SWAP3 SWAP1 PUSH2 0x3D2B SWAP1 DUP5 SWAP1 PUSH2 0x49E5 JUMP JUMPDEST SWAP1 SWAP2 SSTORE POP POP PUSH1 0x1 PUSH1 0x1 PUSH1 0xA0 SHL SUB DUP6 AND PUSH1 0x0 SWAP1 DUP2 MSTORE PUSH1 0x9 PUSH1 0x20 MSTORE PUSH1 0x40 SWAP1 KECCAK256 TIMESTAMP PUSH1 0x1 SWAP1 SWAP2 ADD SSTORE JUMPDEST DUP1 ISZERO PUSH2 0x3A05 JUMPI PUSH1 0x1 PUSH1 0x1 PUSH1 0xA0 SHL SUB DUP5 AND PUSH1 0x0 SWAP1 DUP2 MSTORE PUSH1 0x9 PUSH1 0x20 MSTORE PUSH1 0x40 DUP2 KECCAK256 DUP1 SLOAD DUP4 SWAP3 SWAP1 PUSH2 0x3D7E SWAP1 DUP5 SWAP1 PUSH2 0x49E5 JUMP JUMPDEST SWAP1 SWAP2 SSTORE POP POP PUSH1 0x1 PUSH1 0x1 PUSH1 0xA0 SHL SUB DUP5 AND PUSH1 0x0 SWAP1 DUP2 MSTORE PUSH1 0x9 PUSH1 0x20 MSTORE PUSH1 0x40 SWAP1 KECCAK256 TIMESTAMP PUSH1 0x1 SWAP1 SWAP2 ADD SSTORE POP POP POP POP POP JUMP JUMPDEST PUSH1 0x1 PUSH1 0x1 PUSH1 0xA0 SHL SUB DUP1 DUP6 AND PUSH1 0x0 SWAP1 DUP2 MSTORE PUSH1 0x7 PUSH1 0x20 SWAP1 DUP2 MSTORE PUSH1 0x40 DUP1 DUP4 KECCAK256 SWAP4 DUP8 AND DUP4 MSTORE SWAP3 SWAP1 MSTORE SWAP1 DUP2 KECCAK256 DUP1 SLOAD SWAP2 PUSH2 0x3DDC DUP4 PUSH2 0x4A44 JUMP JUMPDEST SWAP2 SWAP1 POP SSTORE POP PUSH1 0x0 PUSH2 0x3DEE DUP6 DUP6 DUP6 PUSH2 0x41A6 JUMP JUMPDEST SWAP1 POP PUSH1 0x40 MLOAD DUP1 PUSH1 0xE0 ADD PUSH1 0x40 MSTORE DUP1 DUP3 TIMESTAMP PUSH2 0x3E07 SWAP2 SWAP1 PUSH2 0x49E5 JUMP JUMPDEST DUP2 MSTORE PUSH1 0x20 ADD DUP3 DUP2 MSTORE PUSH1 0x20 ADD DUP7 PUSH1 0x1 PUSH1 0x1 PUSH1 0xA0 SHL SUB AND DUP2 MSTORE PUSH1 0x20 ADD PUSH1 0x5 PUSH1 0x0 DUP8 PUSH1 0x1 PUSH1 0x1 PUSH1 0xA0 SHL SUB AND PUSH1 0x1 PUSH1 0x1 PUSH1 0xA0 SHL SUB AND DUP2 MSTORE PUSH1 0x20 ADD SWAP1 DUP2 MSTORE PUSH1 0x20 ADD PUSH1 0x0 KECCAK256 PUSH1 0x3 ADD SLOAD PUSH1 0x1 PUSH2 0x3E56 SWAP2 SWAP1 PUSH2 0x49E5 JUMP JUMPDEST DUP2 MSTORE PUSH1 0x40 MLOAD PUSH1 0x60 DUP9 DUP2 SHL PUSH12 0xFFFFFFFFFFFFFFFFFFFFFFFF NOT SWAP1 DUP2 AND PUSH1 0x20 DUP1 DUP6 ADD SWAP2 SWAP1 SWAP2 MSTORE SWAP2 DUP10 SWAP1 SHL AND PUSH1 0x34 DUP4 ADD MSTORE PUSH1 0x48 DUP3 ADD DUP8 SWAP1 MSTORE SWAP1 SWAP2 ADD SWAP1 PUSH1 0x68 ADD PUSH1 0x40 DUP1 MLOAD DUP1 DUP4 SUB PUSH1 0x1F NOT ADD DUP2 MSTORE SWAP2 DUP2 MSTORE DUP2 MLOAD PUSH1 0x20 SWAP3 DUP4 ADD KECCAK256 DUP4 MSTORE DUP3 DUP3 ADD DUP7 SWAP1 MSTORE PUSH1 0x0 SWAP3 DUP2 ADD DUP4 SWAP1 MSTORE PUSH1 0x1 PUSH1 0x1 PUSH1 0xA0 SHL SUB DUP9 DUP2 AND DUP5 MSTORE PUSH1 0x5 DUP1 DUP5 MSTORE SWAP4 DUP3 SWAP1 KECCAK256 DUP6 MLOAD DUP2 SSTORE SWAP3 DUP6 ADD MLOAD PUSH1 0x1 DUP5 ADD SSTORE SWAP1 DUP5 ADD MLOAD PUSH1 0x2 DUP4 ADD DUP1 SLOAD PUSH1 0x1 PUSH1 0x1 PUSH1 0xA0 SHL SUB NOT AND SWAP2 SWAP1 SWAP3 AND OR SWAP1 SSTORE PUSH1 0x60 DUP4 ADD MLOAD PUSH1 0x3 DUP3 ADD SSTORE PUSH1 0x80 DUP4 ADD MLOAD PUSH1 0x4 DUP3 ADD SSTORE PUSH1 0xA0 DUP4 ADD MLOAD SWAP2 DUP2 ADD SWAP2 SWAP1 SWAP2 SSTORE PUSH1 0xC0 SWAP1 SWAP2 ADD MLOAD PUSH1 0x6 SWAP1 SWAP2 ADD DUP1 SLOAD PUSH1 0xFF NOT AND SWAP2 ISZERO ISZERO SWAP2 SWAP1 SWAP2 OR SWAP1 SSTORE PUSH2 0x3A05 DUP5 DUP5 PUSH2 0x42DB JUMP JUMPDEST PUSH1 0x0 DUP1 MLOAD PUSH1 0x20 PUSH2 0x4D21 DUP4 CODECOPY DUP2 MLOAD SWAP2 MSTORE SLOAD PUSH1 0xFF AND PUSH2 0x2AB6 JUMPI PUSH1 0x40 MLOAD PUSH4 0x8DFC202B PUSH1 0xE0 SHL DUP2 MSTORE PUSH1 0x4 ADD PUSH1 0x40 MLOAD DUP1 SWAP2 SUB SWAP1 REVERT JUMPDEST PUSH2 0x3F74 PUSH2 0x2A85 JUMP JUMPDEST PUSH2 0xFBF DUP4 DUP4 DUP4 PUSH2 0x4360 JUMP JUMPDEST PUSH2 0x3F88 DUP3 PUSH2 0x4490 JUMP JUMPDEST PUSH1 0x40 MLOAD PUSH1 0x1 PUSH1 0x1 PUSH1 0xA0 SHL SUB DUP4 AND SWAP1 PUSH32 0xBC7CD75A20EE27FD9ADEBAB32041F755214DBC6BFFA90CC0225B39DA2E5C2D3B SWAP1 PUSH1 0x0 SWAP1 LOG2 DUP1 MLOAD ISZERO PUSH2 0x3FCD JUMPI PUSH2 0xFBF DUP3 DUP3 PUSH2 0x44F5 JUMP JUMPDEST PUSH2 0x1440 PUSH2 0x456B JUMP JUMPDEST PUSH1 0x0 DUP2 PUSH1 0x0 SUB PUSH2 0x3FE7 JUMPI POP PUSH1 0x0 SWAP2 SWAP1 POP JUMP JUMPDEST PUSH1 0x12 PUSH1 0x0 PUSH2 0x3FF6 DUP3 PUSH1 0xA PUSH2 0x4B68 JUMP JUMPDEST PUSH2 0x4001 SWAP1 PUSH1 0x1 PUSH2 0x4A2D JUMP JUMPDEST SWAP1 POP PUSH1 0x1 JUMPDEST DUP2 DUP6 GT DUP1 ISZERO PUSH2 0x4016 JUMPI POP PUSH2 0x2710 DUP2 LT JUMPDEST ISZERO PUSH2 0x4079 JUMPI PUSH1 0x0 PUSH2 0x4028 PUSH1 0xA DUP5 PUSH2 0x4A2D JUMP JUMPDEST SWAP1 POP PUSH2 0x4037 PUSH1 0xA PUSH1 0x0 NOT PUSH2 0x4A0B JUMP JUMPDEST DUP4 GT ISZERO PUSH2 0x4044 JUMPI POP PUSH2 0x4079 JUMP JUMPDEST SWAP2 POP DUP2 PUSH2 0x4054 PUSH1 0xA PUSH1 0x0 NOT PUSH2 0x4A0B JUMP JUMPDEST DUP3 GT ISZERO PUSH2 0x4066 JUMPI PUSH2 0x2710 SWAP2 POP POP PUSH2 0x4079 JUMP JUMPDEST PUSH2 0x4071 PUSH1 0xA DUP4 PUSH2 0x4A2D JUMP JUMPDEST SWAP2 POP POP PUSH2 0x4006 JUMP JUMPDEST PUSH2 0x2710 DUP2 GT ISZERO PUSH2 0x38D2 JUMPI POP PUSH2 0x2710 SWAP5 SWAP4 POP POP POP POP JUMP JUMPDEST PUSH2 0x4097 PUSH2 0x458A JUMP JUMPDEST PUSH2 0x2AB6 JUMPI PUSH1 0x40 MLOAD PUSH4 0x1AFCD79F PUSH1 0xE3 SHL DUP2 MSTORE PUSH1 0x4 ADD PUSH1 0x40 MLOAD DUP1 SWAP2 SUB SWAP1 REVERT JUMPDEST PUSH2 0x40BC PUSH2 0x408F JUMP JUMPDEST PUSH1 0x0 DUP1 MLOAD PUSH1 0x20 PUSH2 0x4CA1 DUP4 CODECOPY DUP2 MLOAD SWAP2 MSTORE PUSH32 0x52C63247E1F47DB19D5CE0460030C497F067CA4CEBF71BA98EEADABE20BACE03 PUSH2 0x40F6 DUP5 DUP3 PUSH2 0x4BC4 JUMP JUMPDEST POP PUSH1 0x4 DUP2 ADD PUSH2 0xF86 DUP4 DUP3 PUSH2 0x4BC4 JUMP JUMPDEST PUSH2 0x3270 PUSH2 0x408F JUMP JUMPDEST PUSH1 0x1 PUSH1 0x1 PUSH1 0xA0 SHL SUB DUP3 AND PUSH1 0x0 SWAP1 DUP2 MSTORE PUSH1 0x9 PUSH1 0x20 MSTORE PUSH1 0x40 DUP2 KECCAK256 DUP1 SLOAD DUP3 SWAP2 SWAP1 ISZERO DUP1 PUSH2 0x4134 JUMPI POP DUP4 ISZERO JUMPDEST ISZERO PUSH2 0x4146 JUMPI DUP4 PUSH1 0x0 SWAP3 POP SWAP3 POP POP PUSH2 0x419F JUMP JUMPDEST DUP1 SLOAD DUP5 GT PUSH2 0x417A JUMPI DUP4 SWAP2 POP DUP4 DUP2 PUSH1 0x0 ADD PUSH1 0x0 DUP3 DUP3 SLOAD PUSH2 0x4165 SWAP2 SWAP1 PUSH2 0x49F8 JUMP JUMPDEST SWAP1 SWAP2 SSTORE POP POP TIMESTAMP PUSH1 0x1 SWAP1 SWAP2 ADD SSTORE PUSH1 0x0 SWAP2 POP PUSH2 0x419F JUMP JUMPDEST DUP1 SLOAD SWAP2 POP PUSH2 0x4188 DUP3 DUP6 PUSH2 0x49F8 JUMP JUMPDEST PUSH1 0x0 DUP3 SSTORE TIMESTAMP PUSH1 0x1 SWAP1 SWAP3 ADD SWAP2 SWAP1 SWAP2 SSTORE SWAP2 POP PUSH2 0x419F JUMP JUMPDEST POP JUMPDEST SWAP3 POP SWAP3 SWAP1 POP JUMP JUMPDEST PUSH1 0x0 DUP1 SLOAD PUSH1 0x1 PUSH1 0x1 PUSH1 0xA0 SHL SUB DUP1 DUP7 AND DUP4 MSTORE PUSH1 0x7 PUSH1 0x20 SWAP1 DUP2 MSTORE PUSH1 0x40 DUP1 DUP6 KECCAK256 SWAP3 DUP8 AND DUP6 MSTORE SWAP2 SWAP1 MSTORE DUP3 KECCAK256 SLOAD DUP1 ISZERO PUSH2 0x4221 JUMPI PUSH1 0x0 PUSH1 0x5A PUSH2 0x41E3 DUP4 PUSH1 0xA PUSH2 0x4A2D JUMP JUMPDEST GT PUSH2 0x41F8 JUMPI PUSH2 0x41F3 DUP3 PUSH1 0xA PUSH2 0x4A2D JUMP JUMPDEST PUSH2 0x41FB JUMP JUMPDEST PUSH1 0x5A JUMPDEST SWAP1 POP PUSH1 0x64 PUSH2 0x4209 DUP3 DUP3 PUSH2 0x49F8 JUMP JUMPDEST PUSH2 0x4213 SWAP1 DUP6 PUSH2 0x4A2D JUMP JUMPDEST PUSH2 0x421D SWAP2 SWAP1 PUSH2 0x4A0B JUMP JUMPDEST SWAP3 POP POP JUMPDEST PUSH1 0x1 PUSH1 0x1 PUSH1 0xA0 SHL SUB DUP7 AND PUSH1 0x0 SWAP1 DUP2 MSTORE PUSH1 0x6 PUSH1 0x20 MSTORE PUSH1 0x40 SWAP1 KECCAK256 PUSH1 0x1 DUP2 ADD SLOAD ISZERO DUP1 ISZERO SWAP1 PUSH2 0x424C JUMPI POP DUP1 SLOAD ISZERO ISZERO JUMPDEST ISZERO PUSH2 0x42AC JUMPI PUSH1 0x1 DUP2 ADD SLOAD DUP2 SLOAD PUSH1 0x0 SWAP2 PUSH2 0x4264 SWAP2 PUSH2 0x4A0B JUMP JUMPDEST SWAP1 POP PUSH2 0x4271 DUP2 PUSH1 0xA PUSH2 0x4A2D JUMP JUMPDEST DUP7 GT ISZERO PUSH2 0x42AA JUMPI PUSH1 0x0 PUSH2 0x4285 DUP6 PUSH1 0x2 PUSH2 0x4A2D JUMP JUMPDEST SWAP1 POP PUSH2 0x4294 PUSH1 0x2 PUSH1 0x0 NOT PUSH2 0x4A0B JUMP JUMPDEST DUP6 GT PUSH2 0x42A2 JUMPI DUP1 SWAP5 POP PUSH2 0x42A8 JUMP JUMPDEST PUSH1 0x0 NOT SWAP5 POP JUMPDEST POP JUMPDEST POP JUMPDEST PUSH1 0x1 SLOAD DUP4 LT ISZERO PUSH2 0x42C0 JUMPI PUSH1 0x1 SLOAD SWAP3 POP PUSH2 0x42D0 JUMP JUMPDEST PUSH1 0x2 SLOAD DUP4 GT ISZERO PUSH2 0x42D0 JUMPI PUSH1 0x2 SLOAD SWAP3 POP JUMPDEST POP SWAP1 SWAP6 SWAP5 POP POP POP POP POP JUMP JUMPDEST PUSH1 0x1 PUSH1 0x1 PUSH1 0xA0 SHL SUB DUP3 AND PUSH1 0x0 SWAP1 DUP2 MSTORE PUSH1 0x6 PUSH1 0x20 MSTORE PUSH1 0x40 SWAP1 KECCAK256 PUSH1 0x2 DUP2 ADD SLOAD ISZERO DUP1 ISZERO SWAP1 PUSH2 0x4315 JUMPI POP PUSH1 0x3 SLOAD PUSH1 0x2 DUP3 ADD SLOAD PUSH2 0x4313 SWAP1 TIMESTAMP PUSH2 0x49F8 JUMP JUMPDEST GT JUMPDEST ISZERO PUSH2 0x4325 JUMPI PUSH1 0x0 DUP1 DUP3 SSTORE PUSH1 0x1 DUP3 ADD SSTORE JUMPDEST DUP2 DUP2 PUSH1 0x0 ADD PUSH1 0x0 DUP3 DUP3 SLOAD PUSH2 0x4339 SWAP2 SWAP1 PUSH2 0x49E5 JUMP JUMPDEST SWAP1 SWAP2 SSTORE POP POP PUSH1 0x1 DUP2 ADD DUP1 SLOAD SWAP1 PUSH1 0x0 PUSH2 0x4350 DUP4 PUSH2 0x4A44 JUMP JUMPDEST SWAP1 SWAP2 SSTORE POP POP TIMESTAMP PUSH1 0x2 SWAP1 SWAP2 ADD SSTORE POP POP JUMP JUMPDEST PUSH1 0x0 DUP1 MLOAD PUSH1 0x20 PUSH2 0x4CA1 DUP4 CODECOPY DUP2 MLOAD SWAP2 MSTORE PUSH1 0x1 PUSH1 0x1 PUSH1 0xA0 SHL SUB DUP5 AND PUSH2 0x439C JUMPI DUP2 DUP2 PUSH1 0x2 ADD PUSH1 0x0 DUP3 DUP3 SLOAD PUSH2 0x4391 SWAP2 SWAP1 PUSH2 0x49E5 JUMP JUMPDEST SWAP1 SWAP2 SSTORE POP PUSH2 0x440E SWAP1 POP JUMP JUMPDEST PUSH1 0x1 PUSH1 0x1 PUSH1 0xA0 SHL SUB DUP5 AND PUSH1 0x0 SWAP1 DUP2 MSTORE PUSH1 0x20 DUP3 SWAP1 MSTORE PUSH1 0x40 SWAP1 KECCAK256 SLOAD DUP3 DUP2 LT ISZERO PUSH2 0x43EF JUMPI PUSH1 0x40 MLOAD PUSH4 0x391434E3 PUSH1 0xE2 SHL DUP2 MSTORE PUSH1 0x1 PUSH1 0x1 PUSH1 0xA0 SHL SUB DUP7 AND PUSH1 0x4 DUP3 ADD MSTORE PUSH1 0x24 DUP2 ADD DUP3 SWAP1 MSTORE PUSH1 0x44 DUP2 ADD DUP5 SWAP1 MSTORE PUSH1 0x64 ADD PUSH2 0xEC9 JUMP JUMPDEST PUSH1 0x1 PUSH1 0x1 PUSH1 0xA0 SHL SUB DUP6 AND PUSH1 0x0 SWAP1 DUP2 MSTORE PUSH1 0x20 DUP4 SWAP1 MSTORE PUSH1 0x40 SWAP1 KECCAK256 SWAP1 DUP4 SWAP1 SUB SWAP1 SSTORE JUMPDEST PUSH1 0x1 PUSH1 0x1 PUSH1 0xA0 SHL SUB DUP4 AND PUSH2 0x442C JUMPI PUSH1 0x2 DUP2 ADD DUP1 SLOAD DUP4 SWAP1 SUB SWAP1 SSTORE PUSH2 0x444B JUMP JUMPDEST PUSH1 0x1 PUSH1 0x1 PUSH1 0xA0 SHL SUB DUP4 AND PUSH1 0x0 SWAP1 DUP2 MSTORE PUSH1 0x20 DUP3 SWAP1 MSTORE PUSH1 0x40 SWAP1 KECCAK256 DUP1 SLOAD DUP4 ADD SWAP1 SSTORE JUMPDEST DUP3 PUSH1 0x1 PUSH1 0x1 PUSH1 0xA0 SHL SUB AND DUP5 PUSH1 0x1 PUSH1 0x1 PUSH1 0xA0 SHL SUB AND PUSH32 0xDDF252AD1BE2C89B69C2B068FC378DAA952BA7F163C4A11628F55A4DF523B3EF DUP5 PUSH1 0x40 MLOAD PUSH2 0x1146 SWAP2 DUP2 MSTORE PUSH1 0x20 ADD SWAP1 JUMP JUMPDEST DUP1 PUSH1 0x1 PUSH1 0x1 PUSH1 0xA0 SHL SUB AND EXTCODESIZE PUSH1 0x0 SUB PUSH2 0x44C6 JUMPI PUSH1 0x40 MLOAD PUSH4 0x4C9C8CE3 PUSH1 0xE0 SHL DUP2 MSTORE PUSH1 0x1 PUSH1 0x1 PUSH1 0xA0 SHL SUB DUP3 AND PUSH1 0x4 DUP3 ADD MSTORE PUSH1 0x24 ADD PUSH2 0xEC9 JUMP JUMPDEST PUSH1 0x0 DUP1 MLOAD PUSH1 0x20 PUSH2 0x4CC1 DUP4 CODECOPY DUP2 MLOAD SWAP2 MSTORE DUP1 SLOAD PUSH1 0x1 PUSH1 0x1 PUSH1 0xA0 SHL SUB NOT AND PUSH1 0x1 PUSH1 0x1 PUSH1 0xA0 SHL SUB SWAP3 SWAP1 SWAP3 AND SWAP2 SWAP1 SWAP2 OR SWAP1 SSTORE JUMP JUMPDEST PUSH1 0x60 PUSH1 0x0 DUP1 DUP5 PUSH1 0x1 PUSH1 0x1 PUSH1 0xA0 SHL SUB AND DUP5 PUSH1 0x40 MLOAD PUSH2 0x4512 SWAP2 SWAP1 PUSH2 0x4C84 JUMP JUMPDEST PUSH1 0x0 PUSH1 0x40 MLOAD DUP1 DUP4 SUB DUP2 DUP6 GAS DELEGATECALL SWAP2 POP POP RETURNDATASIZE DUP1 PUSH1 0x0 DUP2 EQ PUSH2 0x454D JUMPI PUSH1 0x40 MLOAD SWAP2 POP PUSH1 0x1F NOT PUSH1 0x3F RETURNDATASIZE ADD AND DUP3 ADD PUSH1 0x40 MSTORE RETURNDATASIZE DUP3 MSTORE RETURNDATASIZE PUSH1 0x0 PUSH1 0x20 DUP5 ADD RETURNDATACOPY PUSH2 0x4552 JUMP JUMPDEST PUSH1 0x60 SWAP2 POP JUMPDEST POP SWAP2 POP SWAP2 POP PUSH2 0x4562 DUP6 DUP4 DUP4 PUSH2 0x45A4 JUMP JUMPDEST SWAP6 SWAP5 POP POP POP POP POP JUMP JUMPDEST CALLVALUE ISZERO PUSH2 0x2AB6 JUMPI PUSH1 0x40 MLOAD PUSH4 0xB398979F PUSH1 0xE0 SHL DUP2 MSTORE PUSH1 0x4 ADD PUSH1 0x40 MLOAD DUP1 SWAP2 SUB SWAP1 REVERT JUMPDEST PUSH1 0x0 PUSH2 0x4594 PUSH2 0x38DA JUMP JUMPDEST SLOAD PUSH1 0x1 PUSH1 0x40 SHL SWAP1 DIV PUSH1 0xFF AND SWAP2 SWAP1 POP JUMP JUMPDEST PUSH1 0x60 DUP3 PUSH2 0x45B9 JUMPI PUSH2 0x45B4 DUP3 PUSH2 0x4600 JUMP JUMPDEST PUSH2 0xF41 JUMP JUMPDEST DUP2 MLOAD ISZERO DUP1 ISZERO PUSH2 0x45D0 JUMPI POP PUSH1 0x1 PUSH1 0x1 PUSH1 0xA0 SHL SUB DUP5 AND EXTCODESIZE ISZERO JUMPDEST ISZERO PUSH2 0x45F9 JUMPI PUSH1 0x40 MLOAD PUSH4 0x9996B315 PUSH1 0xE0 SHL DUP2 MSTORE PUSH1 0x1 PUSH1 0x1 PUSH1 0xA0 SHL SUB DUP6 AND PUSH1 0x4 DUP3 ADD MSTORE PUSH1 0x24 ADD PUSH2 0xEC9 JUMP JUMPDEST POP DUP1 PUSH2 0xF41 JUMP JUMPDEST DUP1 MLOAD ISZERO PUSH2 0x4610 JUMPI DUP1 MLOAD DUP1 DUP3 PUSH1 0x20 ADD REVERT JUMPDEST PUSH1 0x40 MLOAD PUSH4 0xD6BDA275 PUSH1 0xE0 SHL DUP2 MSTORE PUSH1 0x4 ADD PUSH1 0x40 MLOAD DUP1 SWAP2 SUB SWAP1 REVERT JUMPDEST PUSH1 0x40 MLOAD DUP1 PUSH1 0x40 ADD PUSH1 0x40 MSTORE DUP1 PUSH1 0x2 SWAP1 PUSH1 0x20 DUP3 MUL DUP1 CALLDATASIZE DUP4 CALLDATACOPY POP SWAP2 SWAP3 SWAP2 POP POP JUMP JUMPDEST PUSH1 0x0 PUSH1 0x20 DUP3 DUP5 SUB SLT ISZERO PUSH2 0x4659 JUMPI PUSH1 0x0 DUP1 REVERT JUMPDEST DUP2 CALLDATALOAD PUSH1 0x1 PUSH1 0x1 PUSH1 0xE0 SHL SUB NOT DUP2 AND DUP2 EQ PUSH2 0xF41 JUMPI PUSH1 0x0 DUP1 REVERT JUMPDEST PUSH1 0x0 JUMPDEST DUP4 DUP2 LT ISZERO PUSH2 0x468C JUMPI DUP2 DUP2 ADD MLOAD DUP4 DUP3 ADD MSTORE PUSH1 0x20 ADD PUSH2 0x4674 JUMP JUMPDEST POP POP PUSH1 0x0 SWAP2 ADD MSTORE JUMP JUMPDEST PUSH1 0x20 DUP2 MSTORE PUSH1 0x0 DUP3 MLOAD DUP1 PUSH1 0x20 DUP5 ADD MSTORE PUSH2 0x46B4 DUP2 PUSH1 0x40 DUP6 ADD PUSH1 0x20 DUP8 ADD PUSH2 0x4671 JUMP JUMPDEST PUSH1 0x1F ADD PUSH1 0x1F NOT AND SWAP2 SWAP1 SWAP2 ADD PUSH1 0x40 ADD SWAP3 SWAP2 POP POP JUMP JUMPDEST DUP1 CALLDATALOAD PUSH1 0x1 PUSH1 0x1 PUSH1 0xA0 SHL SUB DUP2 AND DUP2 EQ PUSH2 0x46DF JUMPI PUSH1 0x0 DUP1 REVERT JUMPDEST SWAP2 SWAP1 POP JUMP JUMPDEST PUSH1 0x0 PUSH1 0x20 DUP3 DUP5 SUB SLT ISZERO PUSH2 0x46F6 JUMPI PUSH1 0x0 DUP1 REVERT JUMPDEST PUSH2 0xF41 DUP3 PUSH2 0x46C8 JUMP JUMPDEST PUSH1 0x0 DUP1 PUSH1 0x40 DUP4 DUP6 SUB SLT ISZERO PUSH2 0x4712 JUMPI PUSH1 0x0 DUP1 REVERT JUMPDEST PUSH2 0x471B DUP4 PUSH2 0x46C8 JUMP JUMPDEST SWAP5 PUSH1 0x20 SWAP4 SWAP1 SWAP4 ADD CALLDATALOAD SWAP4 POP POP POP JUMP JUMPDEST PUSH1 0x0 PUSH1 0x20 DUP3 DUP5 SUB SLT ISZERO PUSH2 0x473B JUMPI PUSH1 0x0 DUP1 REVERT JUMPDEST POP CALLDATALOAD SWAP2 SWAP1 POP JUMP JUMPDEST PUSH1 0x0 DUP1 PUSH1 0x0 PUSH1 0x60 DUP5 DUP7 SUB SLT ISZERO PUSH2 0x4757 JUMPI PUSH1 0x0 DUP1 REVERT JUMPDEST PUSH2 0x4760 DUP5 PUSH2 0x46C8 JUMP JUMPDEST SWAP3 POP PUSH2 0x476E PUSH1 0x20 DUP6 ADD PUSH2 0x46C8 JUMP JUMPDEST SWAP2 POP PUSH1 0x40 DUP5 ADD CALLDATALOAD SWAP1 POP SWAP3 POP SWAP3 POP SWAP3 JUMP JUMPDEST PUSH1 0x0 DUP1 PUSH1 0x40 DUP4 DUP6 SUB SLT ISZERO PUSH2 0x4791 JUMPI PUSH1 0x0 DUP1 REVERT JUMPDEST DUP3 CALLDATALOAD SWAP2 POP PUSH2 0x47A1 PUSH1 0x20 DUP5 ADD PUSH2 0x46C8 JUMP JUMPDEST SWAP1 POP SWAP3 POP SWAP3 SWAP1 POP JUMP JUMPDEST PUSH4 0x4E487B71 PUSH1 0xE0 SHL PUSH1 0x0 MSTORE PUSH1 0x41 PUSH1 0x4 MSTORE PUSH1 0x24 PUSH1 0x0 REVERT JUMPDEST PUSH1 0x0 PUSH8 0xFFFFFFFFFFFFFFFF DUP1 DUP5 GT ISZERO PUSH2 0x47DB JUMPI PUSH2 0x47DB PUSH2 0x47AA JUMP JUMPDEST PUSH1 0x40 MLOAD PUSH1 0x1F DUP6 ADD PUSH1 0x1F NOT SWAP1 DUP2 AND PUSH1 0x3F ADD AND DUP2 ADD SWAP1 DUP3 DUP3 GT DUP2 DUP4 LT OR ISZERO PUSH2 0x4803 JUMPI PUSH2 0x4803 PUSH2 0x47AA JUMP JUMPDEST DUP2 PUSH1 0x40 MSTORE DUP1 SWAP4 POP DUP6 DUP2 MSTORE DUP7 DUP7 DUP7 ADD GT ISZERO PUSH2 0x481C JUMPI PUSH1 0x0 DUP1 REVERT JUMPDEST DUP6 DUP6 PUSH1 0x20 DUP4 ADD CALLDATACOPY PUSH1 0x0 PUSH1 0x20 DUP8 DUP4 ADD ADD MSTORE POP POP POP SWAP4 SWAP3 POP POP POP JUMP JUMPDEST PUSH1 0x0 DUP1 PUSH1 0x40 DUP4 DUP6 SUB SLT ISZERO PUSH2 0x4849 JUMPI PUSH1 0x0 DUP1 REVERT JUMPDEST PUSH2 0x4852 DUP4 PUSH2 0x46C8 JUMP JUMPDEST SWAP2 POP PUSH1 0x20 DUP4 ADD CALLDATALOAD PUSH8 0xFFFFFFFFFFFFFFFF DUP2 GT ISZERO PUSH2 0x486E JUMPI PUSH1 0x0 DUP1 REVERT JUMPDEST DUP4 ADD PUSH1 0x1F DUP2 ADD DUP6 SGT PUSH2 0x487F JUMPI PUSH1 0x0 DUP1 REVERT JUMPDEST PUSH2 0x488E DUP6 DUP3 CALLDATALOAD PUSH1 0x20 DUP5 ADD PUSH2 0x47C0 JUMP JUMPDEST SWAP2 POP POP SWAP3 POP SWAP3 SWAP1 POP JUMP JUMPDEST PUSH1 0x0 DUP1 PUSH1 0x40 DUP4 DUP6 SUB SLT ISZERO PUSH2 0x48AB JUMPI PUSH1 0x0 DUP1 REVERT JUMPDEST PUSH2 0x48B4 DUP4 PUSH2 0x46C8 JUMP JUMPDEST SWAP2 POP PUSH2 0x47A1 PUSH1 0x20 DUP5 ADD PUSH2 0x46C8 JUMP JUMPDEST PUSH1 0x0 DUP3 PUSH1 0x1F DUP4 ADD SLT PUSH2 0x48D3 JUMPI PUSH1 0x0 DUP1 REVERT JUMPDEST PUSH2 0xF41 DUP4 DUP4 CALLDATALOAD PUSH1 0x20 DUP6 ADD PUSH2 0x47C0 JUMP JUMPDEST PUSH1 0x0 DUP1 PUSH1 0x0 DUP1 PUSH1 0x0 DUP1 PUSH1 0x0 DUP1 PUSH1 0x0 PUSH2 0x120 DUP11 DUP13 SUB SLT ISZERO PUSH2 0x4901 JUMPI PUSH1 0x0 DUP1 REVERT JUMPDEST DUP10 CALLDATALOAD PUSH8 0xFFFFFFFFFFFFFFFF DUP1 DUP3 GT ISZERO PUSH2 0x4919 JUMPI PUSH1 0x0 DUP1 REVERT JUMPDEST PUSH2 0x4925 DUP14 DUP4 DUP15 ADD PUSH2 0x48C2 JUMP JUMPDEST SWAP11 POP PUSH1 0x20 DUP13 ADD CALLDATALOAD SWAP2 POP DUP1 DUP3 GT ISZERO PUSH2 0x493B JUMPI PUSH1 0x0 DUP1 REVERT JUMPDEST POP PUSH2 0x4948 DUP13 DUP3 DUP14 ADD PUSH2 0x48C2 JUMP JUMPDEST SWAP9 POP POP PUSH2 0x4957 PUSH1 0x40 DUP12 ADD PUSH2 0x46C8 JUMP JUMPDEST SWAP7 POP PUSH2 0x4965 PUSH1 0x60 DUP12 ADD PUSH2 0x46C8 JUMP JUMPDEST SWAP9 SWAP12 SWAP8 SWAP11 POP SWAP6 SWAP9 PUSH1 0x80 DUP2 ADD CALLDATALOAD SWAP8 PUSH1 0xA0 DUP3 ADD CALLDATALOAD SWAP8 POP PUSH1 0xC0 DUP3 ADD CALLDATALOAD SWAP7 POP PUSH1 0xE0 DUP3 ADD CALLDATALOAD SWAP6 POP PUSH2 0x100 SWAP1 SWAP2 ADD CALLDATALOAD SWAP4 POP SWAP2 POP POP JUMP JUMPDEST PUSH1 0x1 DUP2 DUP2 SHR SWAP1 DUP3 AND DUP1 PUSH2 0x49A9 JUMPI PUSH1 0x7F DUP3 AND SWAP2 POP JUMPDEST PUSH1 0x20 DUP3 LT DUP2 SUB PUSH2 0x49C9 JUMPI PUSH4 0x4E487B71 PUSH1 0xE0 SHL PUSH1 0x0 MSTORE PUSH1 0x22 PUSH1 0x4 MSTORE PUSH1 0x24 PUSH1 0x0 REVERT JUMPDEST POP SWAP2 SWAP1 POP JUMP JUMPDEST PUSH4 0x4E487B71 PUSH1 0xE0 SHL PUSH1 0x0 MSTORE PUSH1 0x11 PUSH1 0x4 MSTORE PUSH1 0x24 PUSH1 0x0 REVERT JUMPDEST DUP1 DUP3 ADD DUP1 DUP3 GT ISZERO PUSH2 0xD92 JUMPI PUSH2 0xD92 PUSH2 0x49CF JUMP JUMPDEST DUP2 DUP2 SUB DUP2 DUP2 GT ISZERO PUSH2 0xD92 JUMPI PUSH2 0xD92 PUSH2 0x49CF JUMP JUMPDEST PUSH1 0x0 DUP3 PUSH2 0x4A28 JUMPI PUSH4 0x4E487B71 PUSH1 0xE0 SHL PUSH1 0x0 MSTORE PUSH1 0x12 PUSH1 0x4 MSTORE PUSH1 0x24 PUSH1 0x0 REVERT JUMPDEST POP DIV SWAP1 JUMP JUMPDEST DUP1 DUP3 MUL DUP2 ISZERO DUP3 DUP3 DIV DUP5 EQ OR PUSH2 0xD92 JUMPI PUSH2 0xD92 PUSH2 0x49CF JUMP JUMPDEST PUSH1 0x0 PUSH1 0x1 DUP3 ADD PUSH2 0x4A56 JUMPI PUSH2 0x4A56 PUSH2 0x49CF JUMP JUMPDEST POP PUSH1 0x1 ADD SWAP1 JUMP JUMPDEST PUSH1 0x0 PUSH1 0x20 DUP3 DUP5 SUB SLT ISZERO PUSH2 0x4A6F JUMPI PUSH1 0x0 DUP1 REVERT JUMPDEST POP MLOAD SWAP2 SWAP1 POP JUMP JUMPDEST PUSH4 0x4E487B71 PUSH1 0xE0 SHL PUSH1 0x0 MSTORE PUSH1 0x32 PUSH1 0x4 MSTORE PUSH1 0x24 PUSH1 0x0 REVERT JUMPDEST PUSH1 0x1 DUP2 DUP2 JUMPDEST DUP1 DUP6 GT ISZERO PUSH2 0x419D JUMPI DUP2 PUSH1 0x0 NOT DIV DUP3 GT ISZERO PUSH2 0x4AAD JUMPI PUSH2 0x4AAD PUSH2 0x49CF JUMP JUMPDEST DUP1 DUP6 AND ISZERO PUSH2 0x4ABA JUMPI SWAP2 DUP2 MUL SWAP2 JUMPDEST SWAP4 DUP5 SHR SWAP4 SWAP1 DUP1 MUL SWAP1 PUSH2 0x4A91 JUMP JUMPDEST PUSH1 0x0 DUP3 PUSH2 0x4AD6 JUMPI POP PUSH1 0x1 PUSH2 0xD92 JUMP JUMPDEST DUP2 PUSH2 0x4AE3 JUMPI POP PUSH1 0x0 PUSH2 0xD92 JUMP JUMPDEST DUP2 PUSH1 0x1 DUP2 EQ PUSH2 0x4AF9 JUMPI PUSH1 0x2 DUP2 EQ PUSH2 0x4B03 JUMPI PUSH2 0x4B1F JUMP JUMPDEST PUSH1 0x1 SWAP2 POP POP PUSH2 0xD92 JUMP JUMPDEST PUSH1 0xFF DUP5 GT ISZERO PUSH2 0x4B14 JUMPI PUSH2 0x4B14 PUSH2 0x49CF JUMP JUMPDEST POP POP PUSH1 0x1 DUP3 SHL PUSH2 0xD92 JUMP JUMPDEST POP PUSH1 0x20 DUP4 LT PUSH2 0x133 DUP4 LT AND PUSH1 0x4E DUP5 LT PUSH1 0xB DUP5 LT AND OR ISZERO PUSH2 0x4B42 JUMPI POP DUP2 DUP2 EXP PUSH2 0xD92 JUMP JUMPDEST PUSH2 0x4B4C DUP4 DUP4 PUSH2 0x4A8C JUMP JUMPDEST DUP1 PUSH1 0x0 NOT DIV DUP3 GT ISZERO PUSH2 0x4B60 JUMPI PUSH2 0x4B60 PUSH2 0x49CF JUMP JUMPDEST MUL SWAP4 SWAP3 POP POP POP JUMP JUMPDEST PUSH1 0x0 PUSH2 0xF41 DUP4 DUP4 PUSH2 0x4AC7 JUMP JUMPDEST PUSH1 0x1F DUP3 GT ISZERO PUSH2 0xFBF JUMPI PUSH1 0x0 DUP2 PUSH1 0x0 MSTORE PUSH1 0x20 PUSH1 0x0 KECCAK256 PUSH1 0x1F DUP6 ADD PUSH1 0x5 SHR DUP2 ADD PUSH1 0x20 DUP7 LT ISZERO PUSH2 0x4B9D JUMPI POP DUP1 JUMPDEST PUSH1 0x1F DUP6 ADD PUSH1 0x5 SHR DUP3 ADD SWAP2 POP JUMPDEST DUP2 DUP2 LT ISZERO PUSH2 0x4BBC JUMPI DUP3 DUP2 SSTORE PUSH1 0x1 ADD PUSH2 0x4BA9 JUMP JUMPDEST POP POP POP POP POP POP JUMP JUMPDEST DUP2 MLOAD PUSH8 0xFFFFFFFFFFFFFFFF DUP2 GT ISZERO PUSH2 0x4BDE JUMPI PUSH2 0x4BDE PUSH2 0x47AA JUMP JUMPDEST PUSH2 0x4BF2 DUP2 PUSH2 0x4BEC DUP5 SLOAD PUSH2 0x4995 JUMP JUMPDEST DUP5 PUSH2 0x4B74 JUMP JUMPDEST PUSH1 0x20 DUP1 PUSH1 0x1F DUP4 GT PUSH1 0x1 DUP2 EQ PUSH2 0x4C27 JUMPI PUSH1 0x0 DUP5 ISZERO PUSH2 0x4C0F JUMPI POP DUP6 DUP4 ADD MLOAD JUMPDEST PUSH1 0x0 NOT PUSH1 0x3 DUP7 SWAP1 SHL SHR NOT AND PUSH1 0x1 DUP6 SWAP1 SHL OR DUP6 SSTORE PUSH2 0x4BBC JUMP JUMPDEST PUSH1 0x0 DUP6 DUP2 MSTORE PUSH1 0x20 DUP2 KECCAK256 PUSH1 0x1F NOT DUP7 AND SWAP2 JUMPDEST DUP3 DUP2 LT ISZERO PUSH2 0x4C56 JUMPI DUP9 DUP7 ADD MLOAD DUP3 SSTORE SWAP5 DUP5 ADD SWAP5 PUSH1 0x1 SWAP1 SWAP2 ADD SWAP1 DUP5 ADD PUSH2 0x4C37 JUMP JUMPDEST POP DUP6 DUP3 LT ISZERO PUSH2 0x4C74 JUMPI DUP8 DUP6 ADD MLOAD PUSH1 0x0 NOT PUSH1 0x3 DUP9 SWAP1 SHL PUSH1 0xF8 AND SHR NOT AND DUP2 SSTORE JUMPDEST POP POP POP POP POP PUSH1 0x1 SWAP1 DUP2 SHL ADD SWAP1 SSTORE POP JUMP JUMPDEST PUSH1 0x0 DUP3 MLOAD PUSH2 0x4C96 DUP2 DUP5 PUSH1 0x20 DUP8 ADD PUSH2 0x4671 JUMP JUMPDEST SWAP2 SWAP1 SWAP2 ADD SWAP3 SWAP2 POP POP JUMP INVALID MSTORE 0xC6 ORIGIN SELFBALANCE 0xE1 DELEGATECALL PUSH30 0xB19D5CE0460030C497F067CA4CEBF71BA98EEADABE20BACE00360894A13B LOG1 LOG3 0x21 MOD PUSH8 0xC828492DB98DCA3E KECCAK256 PUSH23 0xCC3735A920A3CA505D382BBC65D7A28E3265B37A647492 SWAP16 CALLER PUSH6 0x21B332C1681B SWAP4 EXTCODEHASH PUSH13 0xB9F3376673440D862A02DD7BC7 0xDE 0xC4 0xDC 0xEE 0xDD 0xA7 PUSH22 0xE58DD541E08A116C6C53815C0BD028192F7B626800CD MCOPY 0xD1 TLOAD PUSH15 0x187E77E9AEE88184C21F4F2182AB58 0x27 0xCB EXTCODESIZE PUSH31 0x7FBEDCD63F03300A49807205CE4D355092EF5A8A18F56E8913CF4A201FBE2 DUP8 DUP3 JUMPDEST MULMOD JUMP SWAP4 0xC2 OR PUSH22 0xA2646970667358221220CBF7913BE7F34F7121723FB5 SHR DUP12 SWAP15 SWAP11 0xA7 GT MSTORE8 SWAP3 SDIV 0xB5 DUP4 DUP16 0x25 XOR CALLDATALOAD PUSH31 0xA64A10A064736F6C6343000818003300000000000000000000000000000000 "},"methodIdentifiers":{"ADMIN_ROLE()":"75b238fc","BURNER_ROLE()":"282c51f3","DEFAULT_ADMIN_ROLE()":"a217fddf","MINTER_ROLE()":"d5391393","PAUSER_ROLE()":"e63ab1e9","UPGRADE_INTERFACE_VERSION()":"ad3cb1cc","allowance(address,address)":"dd62ed3e","approve(address,uint256)":"095ea7b3","balanceOf(address)":"70a08231","burn(uint256)":"42966c68","burnFrom(address,uint256)":"79cc6790","calculateRiskFactor(address)":"6b6ef953","checkHalfLifeExpiry(address)":"508c0634","clearInterbankLiability(address,address,uint256)":"4d8183cc","decimals()":"313ce567","estimateTransferFeeDetails(address,address,uint256)":"e697da68","flagAbnormalTransaction(address)":"6e2fae47","getAvailableCredits(address)":"b065a8e5","getPrefundedFeeBalance(address)":"77647f27","getRoleAdmin(bytes32)":"248a9ca3","grantRole(bytes32,address)":"2f2ff15d","halfLifeDuration()":"4c915d18","hasRole(bytes32,address)":"91d14854","inactivityResetPeriod()":"03833501","incentiveCredits(address)":"0c27ab5a","initialize(string,string,address,address,uint256,uint256,uint256,uint256,uint256)":"f58978cc","interbankLiability(address,address)":"5ed61097","maxHalfLifeDuration()":"c750f203","minHalfLifeDuration()":"800753cf","mint(address,uint256)":"40c10f19","mintedByMinter(address)":"905b7fcb","name()":"06fdde03","pause()":"8456cb59","paused()":"5c975abb","prefundFees(uint256)":"af20d942","prefundedFeeBalances(address)":"33dcdacb","proxiableUUID()":"52d1902d","recordInterbankLiability(address,address,uint256)":"dd7faab1","renounceRole(bytes32,address)":"36568abe","reverseTransfer(address,uint256)":"5a0f385a","revokeRole(bytes32,address)":"d547741f","rollingAverages(address)":"08d887d0","setHalfLifeDuration(uint256)":"0f3f0803","setInactivityResetPeriod(uint256)":"6cd9ca14","setMaxHalfLifeDuration(uint256)":"57fe51d2","setMinHalfLifeDuration(uint256)":"76223a27","setTreasuryAddress(address)":"6605bfda","supportsInterface(bytes4)":"01ffc9a7","symbol()":"95d89b41","totalSupply()":"18160ddd","transactionCountBetween(address,address)":"8ffa15d4","transfer(address,uint256)":"a9059cbb","transferData(address)":"62d3f814","transferFrom(address,address,uint256)":"23b872dd","treasuryAddress()":"c5f956af","unpause()":"3f4ba83a","upgradeToAndCall(address,bytes)":"4f1ef286","walletRiskProfiles(address)":"3d8d1dce","withdrawPrefundedFees(uint256)":"f7ad9ca5"}},"storageLayout":{"storage":[{"astId":8633,"contract":"contracts/T3Token.sol:T3Token","label":"halfLifeDuration","offset":0,"slot":"0","type":"t_uint256"},{"astId":8635,"contract":"contracts/T3Token.sol:T3Token","label":"minHalfLifeDuration","offset":0,"slot":"1","type":"t_uint256"},{"astId":8637,"contract":"contracts/T3Token.sol:T3Token","label":"maxHalfLifeDuration","offset":0,"slot":"2","type":"t_uint256"},{"astId":8639,"contract":"contracts/T3Token.sol:T3Token","label":"inactivityResetPeriod","offset":0,"slot":"3","type":"t_uint256"},{"astId":8641,"contract":"contracts/T3Token.sol:T3Token","label":"treasuryAddress","offset":0,"slot":"4","type":"t_address"},{"astId":8719,"contract":"contracts/T3Token.sol:T3Token","label":"transferData","offset":0,"slot":"5","type":"t_mapping(t_address,t_struct(TransferMetadata)8656_storage)"},{"astId":8724,"contract":"contracts/T3Token.sol:T3Token","label":"rollingAverages","offset":0,"slot":"6","type":"t_mapping(t_address,t_struct(RollingAverage)8663_storage)"},{"astId":8730,"contract":"contracts/T3Token.sol:T3Token","label":"transactionCountBetween","offset":0,"slot":"7","type":"t_mapping(t_address,t_mapping(t_address,t_uint256))"},{"astId":8735,"contract":"contracts/T3Token.sol:T3Token","label":"walletRiskProfiles","offset":0,"slot":"8","type":"t_mapping(t_address,t_struct(WalletRiskProfile)8672_storage)"},{"astId":8740,"contract":"contracts/T3Token.sol:T3Token","label":"incentiveCredits","offset":0,"slot":"9","type":"t_mapping(t_address,t_struct(IncentiveCredits)8677_storage)"},{"astId":8744,"contract":"contracts/T3Token.sol:T3Token","label":"mintedByMinter","offset":0,"slot":"10","type":"t_mapping(t_address,t_uint256)"},{"astId":8750,"contract":"contracts/T3Token.sol:T3Token","label":"interbankLiability","offset":0,"slot":"11","type":"t_mapping(t_address,t_mapping(t_address,t_uint256))"},{"astId":8754,"contract":"contracts/T3Token.sol:T3Token","label":"prefundedFeeBalances","offset":0,"slot":"12","type":"t_mapping(t_address,t_uint256)"}],"types":{"t_address":{"encoding":"inplace","label":"address","numberOfBytes":"20"},"t_bool":{"encoding":"inplace","label":"bool","numberOfBytes":"1"},"t_bytes32":{"encoding":"inplace","label":"bytes32","numberOfBytes":"32"},"t_mapping(t_address,t_mapping(t_address,t_uint256))":{"encoding":"mapping","key":"t_address","label":"mapping(address => mapping(address => uint256))","numberOfBytes":"32","value":"t_mapping(t_address,t_uint256)"},"t_mapping(t_address,t_struct(IncentiveCredits)8677_storage)":{"encoding":"mapping","key":"t_address","label":"mapping(address => struct T3Token.IncentiveCredits)","numberOfBytes":"32","value":"t_struct(IncentiveCredits)8677_storage"},"t_mapping(t_address,t_struct(RollingAverage)8663_storage)":{"encoding":"mapping","key":"t_address","label":"mapping(address => struct T3Token.RollingAverage)","numberOfBytes":"32","value":"t_struct(RollingAverage)8663_storage"},"t_mapping(t_address,t_struct(TransferMetadata)8656_storage)":{"encoding":"mapping","key":"t_address","label":"mapping(address => struct T3Token.TransferMetadata)","numberOfBytes":"32","value":"t_struct(TransferMetadata)8656_storage"},"t_mapping(t_address,t_struct(WalletRiskProfile)8672_storage)":{"encoding":"mapping","key":"t_address","label":"mapping(address => struct T3Token.WalletRiskProfile)","numberOfBytes":"32","value":"t_struct(WalletRiskProfile)8672_storage"},"t_mapping(t_address,t_uint256)":{"encoding":"mapping","key":"t_address","label":"mapping(address => uint256)","numberOfBytes":"32","value":"t_uint256"},"t_struct(IncentiveCredits)8677_storage":{"encoding":"inplace","label":"struct T3Token.IncentiveCredits","members":[{"astId":8674,"contract":"contracts/T3Token.sol:T3Token","label":"amount","offset":0,"slot":"0","type":"t_uint256"},{"astId":8676,"contract":"contracts/T3Token.sol:T3Token","label":"lastUpdated","offset":0,"slot":"1","type":"t_uint256"}],"numberOfBytes":"64"},"t_struct(RollingAverage)8663_storage":{"encoding":"inplace","label":"struct T3Token.RollingAverage","members":[{"astId":8658,"contract":"contracts/T3Token.sol:T3Token","label":"totalAmount","offset":0,"slot":"0","type":"t_uint256"},{"astId":8660,"contract":"contracts/T3Token.sol:T3Token","label":"count","offset":0,"slot":"1","type":"t_uint256"},{"astId":8662,"contract":"contracts/T3Token.sol:T3Token","label":"lastUpdated","offset":0,"slot":"2","type":"t_uint256"}],"numberOfBytes":"96"},"t_struct(TransferMetadata)8656_storage":{"encoding":"inplace","label":"struct T3Token.TransferMetadata","members":[{"astId":8643,"contract":"contracts/T3Token.sol:T3Token","label":"commitWindowEnd","offset":0,"slot":"0","type":"t_uint256"},{"astId":8645,"contract":"contracts/T3Token.sol:T3Token","label":"halfLifeDuration","offset":0,"slot":"1","type":"t_uint256"},{"astId":8647,"contract":"contracts/T3Token.sol:T3Token","label":"originator","offset":0,"slot":"2","type":"t_address"},{"astId":8649,"contract":"contracts/T3Token.sol:T3Token","label":"transferCount","offset":0,"slot":"3","type":"t_uint256"},{"astId":8651,"contract":"contracts/T3Token.sol:T3Token","label":"reversalHash","offset":0,"slot":"4","type":"t_bytes32"},{"astId":8653,"contract":"contracts/T3Token.sol:T3Token","label":"totalFeeAssessed","offset":0,"slot":"5","type":"t_uint256"},{"astId":8655,"contract":"contracts/T3Token.sol:T3Token","label":"isReversed","offset":0,"slot":"6","type":"t_bool"}],"numberOfBytes":"224"},"t_struct(WalletRiskProfile)8672_storage":{"encoding":"inplace","label":"struct T3Token.WalletRiskProfile","members":[{"astId":8665,"contract":"contracts/T3Token.sol:T3Token","label":"reversalCount","offset":0,"slot":"0","type":"t_uint256"},{"astId":8667,"contract":"contracts/T3Token.sol:T3Token","label":"lastReversal","offset":0,"slot":"1","type":"t_uint256"},{"astId":8669,"contract":"contracts/T3Token.sol:T3Token","label":"creationTime","offset":0,"slot":"2","type":"t_uint256"},{"astId":8671,"contract":"contracts/T3Token.sol:T3Token","label":"abnormalTxCount","offset":0,"slot":"3","type":"t_uint256"}],"numberOfBytes":"128"},"t_uint256":{"encoding":"inplace","label":"uint256","numberOfBytes":"32"}}}}}}