{"contracts/custodian-registry.sol":{"CustodianRegistry":{"abi":[{"inputs":[{"internalType":"address","name":"initialAdmin","type":"address"}],"stateMutability":"nonpayable","type":"constructor"},{"inputs":[],"name":"AccessControlBadConfirmation","type":"error"},{"inputs":[{"internalType":"address","name":"account","type":"address"},{"internalType":"bytes32","name":"neededRole","type":"bytes32"}],"name":"AccessControlUnauthorizedAccount","type":"error"},{"anonymous":false,"inputs":[{"indexed":true,"internalType":"address","name":"userAddress","type":"address"},{"indexed":true,"internalType":"address","name":"custodian","type":"address"},{"indexed":false,"internalType":"uint256","name":"kycValidatedTimestamp","type":"uint256"},{"indexed":false,"internalType":"uint256","name":"kycExpiresTimestamp","type":"uint256"}],"name":"KYCStatusUpdated","type":"event"},{"anonymous":false,"inputs":[{"indexed":true,"internalType":"bytes32","name":"role","type":"bytes32"},{"indexed":true,"internalType":"bytes32","name":"previousAdminRole","type":"bytes32"},{"indexed":true,"internalType":"bytes32","name":"newAdminRole","type":"bytes32"}],"name":"RoleAdminChanged","type":"event"},{"anonymous":false,"inputs":[{"indexed":true,"internalType":"bytes32","name":"role","type":"bytes32"},{"indexed":true,"internalType":"address","name":"account","type":"address"},{"indexed":true,"internalType":"address","name":"sender","type":"address"}],"name":"RoleGranted","type":"event"},{"anonymous":false,"inputs":[{"indexed":true,"internalType":"bytes32","name":"role","type":"bytes32"},{"indexed":true,"internalType":"address","name":"account","type":"address"},{"indexed":true,"internalType":"address","name":"sender","type":"address"}],"name":"RoleRevoked","type":"event"},{"anonymous":false,"inputs":[{"indexed":true,"internalType":"address","name":"userAddress","type":"address"},{"indexed":true,"internalType":"address","name":"custodian","type":"address"},{"indexed":false,"internalType":"uint256","name":"kycValidatedTimestamp","type":"uint256"},{"indexed":false,"internalType":"uint256","name":"kycExpiresTimestamp","type":"uint256"}],"name":"WalletRegistered","type":"event"},{"anonymous":false,"inputs":[{"indexed":true,"internalType":"address","name":"userAddress","type":"address"},{"indexed":true,"internalType":"address","name":"custodian","type":"address"}],"name":"WalletUnregistered","type":"event"},{"inputs":[],"name":"ADMIN_ROLE","outputs":[{"internalType":"bytes32","name":"","type":"bytes32"}],"stateMutability":"view","type":"function"},{"inputs":[],"name":"CUSTODIAN_ROLE","outputs":[{"internalType":"bytes32","name":"","type":"bytes32"}],"stateMutability":"view","type":"function"},{"inputs":[],"name":"DEFAULT_ADMIN_ROLE","outputs":[{"internalType":"bytes32","name":"","type":"bytes32"}],"stateMutability":"view","type":"function"},{"inputs":[{"internalType":"uint256","name":"index","type":"uint256"}],"name":"custodianAtIndex","outputs":[{"internalType":"address","name":"","type":"address"}],"stateMutability":"view","type":"function"},{"inputs":[],"name":"custodianCount","outputs":[{"internalType":"uint256","name":"","type":"uint256"}],"stateMutability":"view","type":"function"},{"inputs":[{"internalType":"address","name":"userAddress","type":"address"}],"name":"getCustodian","outputs":[{"internalType":"address","name":"","type":"address"}],"stateMutability":"view","type":"function"},{"inputs":[{"internalType":"address","name":"userAddress","type":"address"}],"name":"getKYCTimestamps","outputs":[{"internalType":"uint256","name":"validatedTimestamp","type":"uint256"},{"internalType":"uint256","name":"expiresTimestamp","type":"uint256"}],"stateMutability":"view","type":"function"},{"inputs":[{"internalType":"bytes32","name":"role","type":"bytes32"}],"name":"getRoleAdmin","outputs":[{"internalType":"bytes32","name":"","type":"bytes32"}],"stateMutability":"view","type":"function"},{"inputs":[{"internalType":"address","name":"fiAddress","type":"address"}],"name":"grantCustodianRole","outputs":[],"stateMutability":"nonpayable","type":"function"},{"inputs":[{"internalType":"bytes32","name":"role","type":"bytes32"},{"internalType":"address","name":"account","type":"address"}],"name":"grantRole","outputs":[],"stateMutability":"nonpayable","type":"function"},{"inputs":[{"internalType":"bytes32","name":"role","type":"bytes32"},{"internalType":"address","name":"account","type":"address"}],"name":"hasRole","outputs":[{"internalType":"bool","name":"","type":"bool"}],"stateMutability":"view","type":"function"},{"inputs":[{"internalType":"address","name":"userAddress","type":"address"}],"name":"isKYCValid","outputs":[{"internalType":"bool","name":"","type":"bool"}],"stateMutability":"view","type":"function"},{"inputs":[{"internalType":"address","name":"userAddress","type":"address"},{"internalType":"uint256","name":"kycValidatedTimestamp","type":"uint256"},{"internalType":"uint256","name":"kycExpiresTimestamp","type":"uint256"}],"name":"registerCustodiedWallet","outputs":[],"stateMutability":"nonpayable","type":"function"},{"inputs":[{"internalType":"bytes32","name":"role","type":"bytes32"},{"internalType":"address","name":"callerConfirmation","type":"address"}],"name":"renounceRole","outputs":[],"stateMutability":"nonpayable","type":"function"},{"inputs":[{"internalType":"address","name":"fiAddress","type":"address"}],"name":"revokeCustodianRole","outputs":[],"stateMutability":"nonpayable","type":"function"},{"inputs":[{"internalType":"bytes32","name":"role","type":"bytes32"},{"internalType":"address","name":"account","type":"address"}],"name":"revokeRole","outputs":[],"stateMutability":"nonpayable","type":"function"},{"inputs":[{"internalType":"bytes4","name":"interfaceId","type":"bytes4"}],"name":"supportsInterface","outputs":[{"internalType":"bool","name":"","type":"bool"}],"stateMutability":"view","type":"function"},{"inputs":[{"internalType":"address","name":"userAddress","type":"address"}],"name":"unregisterCustodiedWallet","outputs":[],"stateMutability":"nonpayable","type":"function"},{"inputs":[{"internalType":"address","name":"userAddress","type":"address"},{"internalType":"uint256","name":"kycValidatedTimestamp","type":"uint256"},{"internalType":"uint256","name":"kycExpiresTimestamp","type":"uint256"}],"name":"updateKYCStatus","outputs":[],"stateMutability":"nonpayable","type":"function"}],"evm":{"bytecode":{"linkReferences":{},"object":"60803461007257601f610fac38819003918201601f19168301916001600160401b038311848410176100775780849260209460405283398101031261007257516001600160a01b0381168103610072578061005c6100629261008d565b5061010b565b50604051610de090816101ac8239f35b600080fd5b634e487b7160e01b600052604160045260246000fd5b6001600160a01b031660008181527fad3228b676f7d3cd4284a5443f17f1962b36e491b30a40b2405849e597ba5fb5602052604081205490919060ff1661010757818052816020526040822081835260205260408220600160ff198254161790553391600080516020610f8c8339815191528180a4600190565b5090565b6001600160a01b031660008181527f7d7ffb7a348e1c6a02869081a26547b49160dd3df72d1d75a570eb9b698292ec60205260408120549091907fa49807205ce4d355092ef5a8a18f56e8913cf4a201fbe287825b095693c217759060ff166101a657808352826020526040832082845260205260408320600160ff19825416179055600080516020610f8c833981519152339380a4600190565b50509056fe608060408181526004918236101561001657600080fd5b600092833560e01c91826301ffc9a7146106d95750816310f69a3e146106455781631e5e7d5a146105fb578163248a9ca3146105d15781632f2ff15d146105a757816336568abe146105615781636f7949f71461054257816375b238fc146105075781638289836e1461041357816385c40f49146103a657816391d1485414610360578163a217fddf14610345578163c79445d01461031c578163ca8a5e12146102cf578163cb5aa7e914610294578163cf0e0f9d14610228578163d547741f146101e557508063e1e75188146101a15763ef0c98d6146100f657600080fd5b3461019d577fee79ff8223fea588b4d71e08a1628aaf55f92de31cee63f4b6ab01bfd3de8c60906101263661075d565b6101339492939194610787565b6001600160a01b0393841693819060029061014f871515610c97565b8689526001602052610169858a2091339083541614610d2f565b82158015610193575b61017b90610ce3565b8760018201550155815194855260208501523393a380f35b5087831015610172565b5080fd5b503461019d57602036600319011261019d579081906001600160a01b036101c661072c565b1681526001602052206002600182015491015482519182526020820152f35b91905034610224578060031936011261022457610220913561021b600161020a610747565b93838752866020528620015461084b565b610a23565b5080f35b8280fd5b50503461019d57602036600319011261019d5760209181906001600160a01b0361025061072c565b168152600184522090600182015415159182610270575b50519015158152f35b600291925001548015908115610289575b509038610267565b905042111538610281565b50503461019d57602036600319011261019d576020916001600160a01b03908290826102be61072c565b168152600185522054169051908152f35b8334610319576020366003190112610319576102206102ec61072c565b6102f46107ef565b6001600160a01b038116906103139061030e831515610a98565b610871565b50610b30565b80fd5b50503461019d578160031936011261019d5760209051600080516020610d8b8339815191528152f35b50503461019d578160031936011261019d5751908152602090f35b9050346102245781600319360112610224578160209360ff92610381610747565b903582528186528282206001600160a01b039091168252855220549151911615158152f35b90503461022457602036600319011261022457803590600254821015610400575060026020935260018060a01b03907f405787fa12a823e0f2b7631cc41b3ba8828b3321ca811111fa75cd3aa3bb5ace0154169051908152f35b634e487b7160e01b845260329052602483fd5b83833461019d576104233661075d565b61042e939193610787565b6001600160a01b0392831692610445841515610c97565b811580156104fd575b61045790610ce3565b8251906060820182811067ffffffffffffffff8211176104ea57849392916002917f634c47f05bf8adf94f3da009bf2ac07a991711e8d8197c80d8bfa8734376358596523383526020830188815285840191858352888b526001602052868b209451166bffffffffffffffffffffffff60a01b85541617845551600184015551910155815194855260208501523393a380f35b634e487b7160e01b885260418952602488fd5b508482101561044e565b50503461019d578160031936011261019d57602090517fa49807205ce4d355092ef5a8a18f56e8913cf4a201fbe287825b095693c217758152f35b50503461019d578160031936011261019d576020906002549051908152f35b83833461019d578060031936011261019d5761057b610747565b90336001600160a01b038316036105985750610220919235610a23565b5163334bd91960e11b81528390fd5b9190503461022457806003193601126102245761022091356105cc600161020a610747565b610911565b90503461022457602036600319011261022457816020936001923581528085522001549051908152f35b83346103195760203660031901126103195761022061061861072c565b6106206107ef565b6001600160a01b0381169061063f9061063a831515610a98565b61098a565b50610bb2565b50503461019d57602036600319011261019d5781600261066361072c565b9261066c610787565b6001600160a01b039384169361069b90610687861515610c97565b858552600160205282852054163314610d2f565b83835260016020528220828155826001820155015533907feda8a21ceab321f39831c4a21c8a60cc97bb4d844303e693e8fc7c8ab4526a728380a380f35b849134610224576020366003190112610224573563ffffffff60e01b81168091036102245760209250637965db0b60e01b811490811561071b575b5015158152f35b6301ffc9a760e01b14905083610714565b600435906001600160a01b038216820361074257565b600080fd5b602435906001600160a01b038216820361074257565b6060906003190112610742576004356001600160a01b038116810361074257906024359060443590565b3360009081527f743ba43598e4e97429683c7739c35500cae7b09b5afdf7135b85b54a773e67d26020526040902054600080516020610d8b8339815191529060ff16156107d15750565b6044906040519063e2517d3f60e01b82523360048301526024820152fd5b3360009081527f7d7ffb7a348e1c6a02869081a26547b49160dd3df72d1d75a570eb9b698292ec60205260409020547fa49807205ce4d355092ef5a8a18f56e8913cf4a201fbe287825b095693c217759060ff16156107d15750565b80600052600060205260406000203360005260205260ff60406000205416156107d15750565b6001600160a01b031660008181527f743ba43598e4e97429683c7739c35500cae7b09b5afdf7135b85b54a773e67d26020526040812054909190600080516020610d8b8339815191529060ff1661090c57808352826020526040832082845260205260408320600160ff198254161790557f2f8788117e7eff1d82e926ec794901d17c78024a50270940304540a733656f0d339380a4600190565b505090565b9060009180835282602052604083209160018060a01b03169182845260205260ff6040842054161560001461090c57808352826020526040832082845260205260408320600160ff198254161790557f2f8788117e7eff1d82e926ec794901d17c78024a50270940304540a733656f0d339380a4600190565b6001600160a01b031660008181527f743ba43598e4e97429683c7739c35500cae7b09b5afdf7135b85b54a773e67d26020526040812054909190600080516020610d8b8339815191529060ff161561090c5780835282602052604083208284526020526040832060ff1981541690557ff6391f5c32d9c69d2a47ea670b442974b53935d1edc7fd64eb21e047a839171b339380a4600190565b9060009180835282602052604083209160018060a01b03169182845260205260ff60408420541660001461090c5780835282602052604083208284526020526040832060ff1981541690557ff6391f5c32d9c69d2a47ea670b442974b53935d1edc7fd64eb21e047a839171b339380a4600190565b15610a9f57565b606460405162461bcd60e51b815260206004820152602060248201527f437573746f6469616e2063616e6e6f74206265207a65726f20616464726573736044820152fd5b600254811015610b1a5760026000527f405787fa12a823e0f2b7631cc41b3ba8828b3321ca811111fa75cd3aa3bb5ace0190600090565b634e487b7160e01b600052603260045260246000fd5b600081815260036020526040812054610bad5760025468010000000000000000811015610b99579082610b85610b6e84600160409601600255610ae3565b819391549060031b91821b91600019901b19161790565b905560025492815260036020522055600190565b634e487b7160e01b82526041600452602482fd5b905090565b600081815260036020526040812054909190801561090c5760001990808201818111610c835760025490838201918211610c6f57818103610c3b575b5050506002548015610c2757810190610c0682610ae3565b909182549160031b1b19169055600255815260036020526040812055600190565b634e487b7160e01b84526031600452602484fd5b610c59610c4a610b6e93610ae3565b90549060031b1c928392610ae3565b9055845260036020526040842055388080610bee565b634e487b7160e01b86526011600452602486fd5b634e487b7160e01b85526011600452602485fd5b15610c9e57565b60405162461bcd60e51b815260206004820152601b60248201527f5573657220616464726573732063616e6e6f74206265207a65726f00000000006044820152606490fd5b15610cea57565b60405162461bcd60e51b815260206004820152601c60248201527f4b594320657870697279206265666f72652076616c69646174696f6e000000006044820152606490fd5b15610d3657565b60405162461bcd60e51b815260206004820152602660248201527f43616c6c6572206973206e6f74207468652072656769737465726564206375736044820152653a37b234b0b760d11b6064820152608490fdfee28434228950b641dbbc0178de89daa359a87c6ee0d8399aeace52a98fe902b9a264697066735822122063217869b25387a4a4e264d03530fda020273ef092be6caecb295138323644af64736f6c634300081400332f8788117e7eff1d82e926ec794901d17c78024a50270940304540a733656f0d","opcodes":"PUSH1 0x80 CALLVALUE PUSH2 0x72 JUMPI PUSH1 0x1F PUSH2 0xFAC CODESIZE DUP2 SWAP1 SUB SWAP2 DUP3 ADD PUSH1 0x1F NOT AND DUP4 ADD SWAP2 PUSH1 0x1 PUSH1 0x1 PUSH1 0x40 SHL SUB DUP4 GT DUP5 DUP5 LT OR PUSH2 0x77 JUMPI DUP1 DUP5 SWAP3 PUSH1 0x20 SWAP5 PUSH1 0x40 MSTORE DUP4 CODECOPY DUP2 ADD SUB SLT PUSH2 0x72 JUMPI MLOAD PUSH1 0x1 PUSH1 0x1 PUSH1 0xA0 SHL SUB DUP2 AND DUP2 SUB PUSH2 0x72 JUMPI DUP1 PUSH2 0x5C PUSH2 0x62 SWAP3 PUSH2 0x8D JUMP JUMPDEST POP PUSH2 0x10B JUMP JUMPDEST POP PUSH1 0x40 MLOAD PUSH2 0xDE0 SWAP1 DUP2 PUSH2 0x1AC DUP3 CODECOPY RETURN JUMPDEST PUSH1 0x0 DUP1 REVERT JUMPDEST PUSH4 0x4E487B71 PUSH1 0xE0 SHL PUSH1 0x0 MSTORE PUSH1 0x41 PUSH1 0x4 MSTORE PUSH1 0x24 PUSH1 0x0 REVERT JUMPDEST PUSH1 0x1 PUSH1 0x1 PUSH1 0xA0 SHL SUB AND PUSH1 0x0 DUP2 DUP2 MSTORE PUSH32 0xAD3228B676F7D3CD4284A5443F17F1962B36E491B30A40B2405849E597BA5FB5 PUSH1 0x20 MSTORE PUSH1 0x40 DUP2 KECCAK256 SLOAD SWAP1 SWAP2 SWAP1 PUSH1 0xFF AND PUSH2 0x107 JUMPI DUP2 DUP1 MSTORE DUP2 PUSH1 0x20 MSTORE PUSH1 0x40 DUP3 KECCAK256 DUP2 DUP4 MSTORE PUSH1 0x20 MSTORE PUSH1 0x40 DUP3 KECCAK256 PUSH1 0x1 PUSH1 0xFF NOT DUP3 SLOAD AND OR SWAP1 SSTORE CALLER SWAP2 PUSH1 0x0 DUP1 MLOAD PUSH1 0x20 PUSH2 0xF8C DUP4 CODECOPY DUP2 MLOAD SWAP2 MSTORE DUP2 DUP1 LOG4 PUSH1 0x1 SWAP1 JUMP JUMPDEST POP SWAP1 JUMP JUMPDEST PUSH1 0x1 PUSH1 0x1 PUSH1 0xA0 SHL SUB AND PUSH1 0x0 DUP2 DUP2 MSTORE PUSH32 0x7D7FFB7A348E1C6A02869081A26547B49160DD3DF72D1D75A570EB9B698292EC PUSH1 0x20 MSTORE PUSH1 0x40 DUP2 KECCAK256 SLOAD SWAP1 SWAP2 SWAP1 PUSH32 0xA49807205CE4D355092EF5A8A18F56E8913CF4A201FBE287825B095693C21775 SWAP1 PUSH1 0xFF AND PUSH2 0x1A6 JUMPI DUP1 DUP4 MSTORE DUP3 PUSH1 0x20 MSTORE PUSH1 0x40 DUP4 KECCAK256 DUP3 DUP5 MSTORE PUSH1 0x20 MSTORE PUSH1 0x40 DUP4 KECCAK256 PUSH1 0x1 PUSH1 0xFF NOT DUP3 SLOAD AND OR SWAP1 SSTORE PUSH1 0x0 DUP1 MLOAD PUSH1 0x20 PUSH2 0xF8C DUP4 CODECOPY DUP2 MLOAD SWAP2 MSTORE CALLER SWAP4 DUP1 LOG4 PUSH1 0x1 SWAP1 JUMP JUMPDEST POP POP SWAP1 JUMP INVALID PUSH1 0x80 PUSH1 0x40 DUP2 DUP2 MSTORE PUSH1 0x4 SWAP2 DUP3 CALLDATASIZE LT ISZERO PUSH2 0x16 JUMPI PUSH1 0x0 DUP1 REVERT JUMPDEST PUSH1 0x0 SWAP3 DUP4 CALLDATALOAD PUSH1 0xE0 SHR SWAP2 DUP3 PUSH4 0x1FFC9A7 EQ PUSH2 0x6D9 JUMPI POP DUP2 PUSH4 0x10F69A3E EQ PUSH2 0x645 JUMPI DUP2 PUSH4 0x1E5E7D5A EQ PUSH2 0x5FB JUMPI DUP2 PUSH4 0x248A9CA3 EQ PUSH2 0x5D1 JUMPI DUP2 PUSH4 0x2F2FF15D EQ PUSH2 0x5A7 JUMPI DUP2 PUSH4 0x36568ABE EQ PUSH2 0x561 JUMPI DUP2 PUSH4 0x6F7949F7 EQ PUSH2 0x542 JUMPI DUP2 PUSH4 0x75B238FC EQ PUSH2 0x507 JUMPI DUP2 PUSH4 0x8289836E EQ PUSH2 0x413 JUMPI DUP2 PUSH4 0x85C40F49 EQ PUSH2 0x3A6 JUMPI DUP2 PUSH4 0x91D14854 EQ PUSH2 0x360 JUMPI DUP2 PUSH4 0xA217FDDF EQ PUSH2 0x345 JUMPI DUP2 PUSH4 0xC79445D0 EQ PUSH2 0x31C JUMPI DUP2 PUSH4 0xCA8A5E12 EQ PUSH2 0x2CF JUMPI DUP2 PUSH4 0xCB5AA7E9 EQ PUSH2 0x294 JUMPI DUP2 PUSH4 0xCF0E0F9D EQ PUSH2 0x228 JUMPI DUP2 PUSH4 0xD547741F EQ PUSH2 0x1E5 JUMPI POP DUP1 PUSH4 0xE1E75188 EQ PUSH2 0x1A1 JUMPI PUSH4 0xEF0C98D6 EQ PUSH2 0xF6 JUMPI PUSH1 0x0 DUP1 REVERT JUMPDEST CALLVALUE PUSH2 0x19D JUMPI PUSH32 0xEE79FF8223FEA588B4D71E08A1628AAF55F92DE31CEE63F4B6AB01BFD3DE8C60 SWAP1 PUSH2 0x126 CALLDATASIZE PUSH2 0x75D JUMP JUMPDEST PUSH2 0x133 SWAP5 SWAP3 SWAP4 SWAP2 SWAP5 PUSH2 0x787 JUMP JUMPDEST PUSH1 0x1 PUSH1 0x1 PUSH1 0xA0 SHL SUB SWAP4 DUP5 AND SWAP4 DUP2 SWAP1 PUSH1 0x2 SWAP1 PUSH2 0x14F DUP8 ISZERO ISZERO PUSH2 0xC97 JUMP JUMPDEST DUP7 DUP10 MSTORE PUSH1 0x1 PUSH1 0x20 MSTORE PUSH2 0x169 DUP6 DUP11 KECCAK256 SWAP2 CALLER SWAP1 DUP4 SLOAD AND EQ PUSH2 0xD2F JUMP JUMPDEST DUP3 ISZERO DUP1 ISZERO PUSH2 0x193 JUMPI JUMPDEST PUSH2 0x17B SWAP1 PUSH2 0xCE3 JUMP JUMPDEST DUP8 PUSH1 0x1 DUP3 ADD SSTORE ADD SSTORE DUP2 MLOAD SWAP5 DUP6 MSTORE PUSH1 0x20 DUP6 ADD MSTORE CALLER SWAP4 LOG3 DUP1 RETURN JUMPDEST POP DUP8 DUP4 LT ISZERO PUSH2 0x172 JUMP JUMPDEST POP DUP1 REVERT JUMPDEST POP CALLVALUE PUSH2 0x19D JUMPI PUSH1 0x20 CALLDATASIZE PUSH1 0x3 NOT ADD SLT PUSH2 0x19D JUMPI SWAP1 DUP2 SWAP1 PUSH1 0x1 PUSH1 0x1 PUSH1 0xA0 SHL SUB PUSH2 0x1C6 PUSH2 0x72C JUMP JUMPDEST AND DUP2 MSTORE PUSH1 0x1 PUSH1 0x20 MSTORE KECCAK256 PUSH1 0x2 PUSH1 0x1 DUP3 ADD SLOAD SWAP2 ADD SLOAD DUP3 MLOAD SWAP2 DUP3 MSTORE PUSH1 0x20 DUP3 ADD MSTORE RETURN JUMPDEST SWAP2 SWAP1 POP CALLVALUE PUSH2 0x224 JUMPI DUP1 PUSH1 0x3 NOT CALLDATASIZE ADD SLT PUSH2 0x224 JUMPI PUSH2 0x220 SWAP2 CALLDATALOAD PUSH2 0x21B PUSH1 0x1 PUSH2 0x20A PUSH2 0x747 JUMP JUMPDEST SWAP4 DUP4 DUP8 MSTORE DUP7 PUSH1 0x20 MSTORE DUP7 KECCAK256 ADD SLOAD PUSH2 0x84B JUMP JUMPDEST PUSH2 0xA23 JUMP JUMPDEST POP DUP1 RETURN JUMPDEST DUP3 DUP1 REVERT JUMPDEST POP POP CALLVALUE PUSH2 0x19D JUMPI PUSH1 0x20 CALLDATASIZE PUSH1 0x3 NOT ADD SLT PUSH2 0x19D JUMPI PUSH1 0x20 SWAP2 DUP2 SWAP1 PUSH1 0x1 PUSH1 0x1 PUSH1 0xA0 SHL SUB PUSH2 0x250 PUSH2 0x72C JUMP JUMPDEST AND DUP2 MSTORE PUSH1 0x1 DUP5 MSTORE KECCAK256 SWAP1 PUSH1 0x1 DUP3 ADD SLOAD ISZERO ISZERO SWAP2 DUP3 PUSH2 0x270 JUMPI JUMPDEST POP MLOAD SWAP1 ISZERO ISZERO DUP2 MSTORE RETURN JUMPDEST PUSH1 0x2 SWAP2 SWAP3 POP ADD SLOAD DUP1 ISZERO SWAP1 DUP2 ISZERO PUSH2 0x289 JUMPI JUMPDEST POP SWAP1 CODESIZE PUSH2 0x267 JUMP JUMPDEST SWAP1 POP TIMESTAMP GT ISZERO CODESIZE PUSH2 0x281 JUMP JUMPDEST POP POP CALLVALUE PUSH2 0x19D JUMPI PUSH1 0x20 CALLDATASIZE PUSH1 0x3 NOT ADD SLT PUSH2 0x19D JUMPI PUSH1 0x20 SWAP2 PUSH1 0x1 PUSH1 0x1 PUSH1 0xA0 SHL SUB SWAP1 DUP3 SWAP1 DUP3 PUSH2 0x2BE PUSH2 0x72C JUMP JUMPDEST AND DUP2 MSTORE PUSH1 0x1 DUP6 MSTORE KECCAK256 SLOAD AND SWAP1 MLOAD SWAP1 DUP2 MSTORE RETURN JUMPDEST DUP4 CALLVALUE PUSH2 0x319 JUMPI PUSH1 0x20 CALLDATASIZE PUSH1 0x3 NOT ADD SLT PUSH2 0x319 JUMPI PUSH2 0x220 PUSH2 0x2EC PUSH2 0x72C JUMP JUMPDEST PUSH2 0x2F4 PUSH2 0x7EF JUMP JUMPDEST PUSH1 0x1 PUSH1 0x1 PUSH1 0xA0 SHL SUB DUP2 AND SWAP1 PUSH2 0x313 SWAP1 PUSH2 0x30E DUP4 ISZERO ISZERO PUSH2 0xA98 JUMP JUMPDEST PUSH2 0x871 JUMP JUMPDEST POP PUSH2 0xB30 JUMP JUMPDEST DUP1 REVERT JUMPDEST POP POP CALLVALUE PUSH2 0x19D JUMPI DUP2 PUSH1 0x3 NOT CALLDATASIZE ADD SLT PUSH2 0x19D JUMPI PUSH1 0x20 SWAP1 MLOAD PUSH1 0x0 DUP1 MLOAD PUSH1 0x20 PUSH2 0xD8B DUP4 CODECOPY DUP2 MLOAD SWAP2 MSTORE DUP2 MSTORE RETURN JUMPDEST POP POP CALLVALUE PUSH2 0x19D JUMPI DUP2 PUSH1 0x3 NOT CALLDATASIZE ADD SLT PUSH2 0x19D JUMPI MLOAD SWAP1 DUP2 MSTORE PUSH1 0x20 SWAP1 RETURN JUMPDEST SWAP1 POP CALLVALUE PUSH2 0x224 JUMPI DUP2 PUSH1 0x3 NOT CALLDATASIZE ADD SLT PUSH2 0x224 JUMPI DUP2 PUSH1 0x20 SWAP4 PUSH1 0xFF SWAP3 PUSH2 0x381 PUSH2 0x747 JUMP JUMPDEST SWAP1 CALLDATALOAD DUP3 MSTORE DUP2 DUP7 MSTORE DUP3 DUP3 KECCAK256 PUSH1 0x1 PUSH1 0x1 PUSH1 0xA0 SHL SUB SWAP1 SWAP2 AND DUP3 MSTORE DUP6 MSTORE KECCAK256 SLOAD SWAP2 MLOAD SWAP2 AND ISZERO ISZERO DUP2 MSTORE RETURN JUMPDEST SWAP1 POP CALLVALUE PUSH2 0x224 JUMPI PUSH1 0x20 CALLDATASIZE PUSH1 0x3 NOT ADD SLT PUSH2 0x224 JUMPI DUP1 CALLDATALOAD SWAP1 PUSH1 0x2 SLOAD DUP3 LT ISZERO PUSH2 0x400 JUMPI POP PUSH1 0x2 PUSH1 0x20 SWAP4 MSTORE PUSH1 0x1 DUP1 PUSH1 0xA0 SHL SUB SWAP1 PUSH32 0x405787FA12A823E0F2B7631CC41B3BA8828B3321CA811111FA75CD3AA3BB5ACE ADD SLOAD AND SWAP1 MLOAD SWAP1 DUP2 MSTORE RETURN JUMPDEST PUSH4 0x4E487B71 PUSH1 0xE0 SHL DUP5 MSTORE PUSH1 0x32 SWAP1 MSTORE PUSH1 0x24 DUP4 REVERT JUMPDEST DUP4 DUP4 CALLVALUE PUSH2 0x19D JUMPI PUSH2 0x423 CALLDATASIZE PUSH2 0x75D JUMP JUMPDEST PUSH2 0x42E SWAP4 SWAP2 SWAP4 PUSH2 0x787 JUMP JUMPDEST PUSH1 0x1 PUSH1 0x1 PUSH1 0xA0 SHL SUB SWAP3 DUP4 AND SWAP3 PUSH2 0x445 DUP5 ISZERO ISZERO PUSH2 0xC97 JUMP JUMPDEST DUP2 ISZERO DUP1 ISZERO PUSH2 0x4FD JUMPI JUMPDEST PUSH2 0x457 SWAP1 PUSH2 0xCE3 JUMP JUMPDEST DUP3 MLOAD SWAP1 PUSH1 0x60 DUP3 ADD DUP3 DUP2 LT PUSH8 0xFFFFFFFFFFFFFFFF DUP3 GT OR PUSH2 0x4EA JUMPI DUP5 SWAP4 SWAP3 SWAP2 PUSH1 0x2 SWAP2 PUSH32 0x634C47F05BF8ADF94F3DA009BF2AC07A991711E8D8197C80D8BFA87343763585 SWAP7 MSTORE CALLER DUP4 MSTORE PUSH1 0x20 DUP4 ADD DUP9 DUP2 MSTORE DUP6 DUP5 ADD SWAP2 DUP6 DUP4 MSTORE DUP9 DUP12 MSTORE PUSH1 0x1 PUSH1 0x20 MSTORE DUP7 DUP12 KECCAK256 SWAP5 MLOAD AND PUSH12 0xFFFFFFFFFFFFFFFFFFFFFFFF PUSH1 0xA0 SHL DUP6 SLOAD AND OR DUP5 SSTORE MLOAD PUSH1 0x1 DUP5 ADD SSTORE MLOAD SWAP2 ADD SSTORE DUP2 MLOAD SWAP5 DUP6 MSTORE PUSH1 0x20 DUP6 ADD MSTORE CALLER SWAP4 LOG3 DUP1 RETURN JUMPDEST PUSH4 0x4E487B71 PUSH1 0xE0 SHL DUP9 MSTORE PUSH1 0x41 DUP10 MSTORE PUSH1 0x24 DUP9 REVERT JUMPDEST POP DUP5 DUP3 LT ISZERO PUSH2 0x44E JUMP JUMPDEST POP POP CALLVALUE PUSH2 0x19D JUMPI DUP2 PUSH1 0x3 NOT CALLDATASIZE ADD SLT PUSH2 0x19D JUMPI PUSH1 0x20 SWAP1 MLOAD PUSH32 0xA49807205CE4D355092EF5A8A18F56E8913CF4A201FBE287825B095693C21775 DUP2 MSTORE RETURN JUMPDEST POP POP CALLVALUE PUSH2 0x19D JUMPI DUP2 PUSH1 0x3 NOT CALLDATASIZE ADD SLT PUSH2 0x19D JUMPI PUSH1 0x20 SWAP1 PUSH1 0x2 SLOAD SWAP1 MLOAD SWAP1 DUP2 MSTORE RETURN JUMPDEST DUP4 DUP4 CALLVALUE PUSH2 0x19D JUMPI DUP1 PUSH1 0x3 NOT CALLDATASIZE ADD SLT PUSH2 0x19D JUMPI PUSH2 0x57B PUSH2 0x747 JUMP JUMPDEST SWAP1 CALLER PUSH1 0x1 PUSH1 0x1 PUSH1 0xA0 SHL SUB DUP4 AND SUB PUSH2 0x598 JUMPI POP PUSH2 0x220 SWAP2 SWAP3 CALLDATALOAD PUSH2 0xA23 JUMP JUMPDEST MLOAD PUSH4 0x334BD919 PUSH1 0xE1 SHL DUP2 MSTORE DUP4 SWAP1 REVERT JUMPDEST SWAP2 SWAP1 POP CALLVALUE PUSH2 0x224 JUMPI DUP1 PUSH1 0x3 NOT CALLDATASIZE ADD SLT PUSH2 0x224 JUMPI PUSH2 0x220 SWAP2 CALLDATALOAD PUSH2 0x5CC PUSH1 0x1 PUSH2 0x20A PUSH2 0x747 JUMP JUMPDEST PUSH2 0x911 JUMP JUMPDEST SWAP1 POP CALLVALUE PUSH2 0x224 JUMPI PUSH1 0x20 CALLDATASIZE PUSH1 0x3 NOT ADD SLT PUSH2 0x224 JUMPI DUP2 PUSH1 0x20 SWAP4 PUSH1 0x1 SWAP3 CALLDATALOAD DUP2 MSTORE DUP1 DUP6 MSTORE KECCAK256 ADD SLOAD SWAP1 MLOAD SWAP1 DUP2 MSTORE RETURN JUMPDEST DUP4 CALLVALUE PUSH2 0x319 JUMPI PUSH1 0x20 CALLDATASIZE PUSH1 0x3 NOT ADD SLT PUSH2 0x319 JUMPI PUSH2 0x220 PUSH2 0x618 PUSH2 0x72C JUMP JUMPDEST PUSH2 0x620 PUSH2 0x7EF JUMP JUMPDEST PUSH1 0x1 PUSH1 0x1 PUSH1 0xA0 SHL SUB DUP2 AND SWAP1 PUSH2 0x63F SWAP1 PUSH2 0x63A DUP4 ISZERO ISZERO PUSH2 0xA98 JUMP JUMPDEST PUSH2 0x98A JUMP JUMPDEST POP PUSH2 0xBB2 JUMP JUMPDEST POP POP CALLVALUE PUSH2 0x19D JUMPI PUSH1 0x20 CALLDATASIZE PUSH1 0x3 NOT ADD SLT PUSH2 0x19D JUMPI DUP2 PUSH1 0x2 PUSH2 0x663 PUSH2 0x72C JUMP JUMPDEST SWAP3 PUSH2 0x66C PUSH2 0x787 JUMP JUMPDEST PUSH1 0x1 PUSH1 0x1 PUSH1 0xA0 SHL SUB SWAP4 DUP5 AND SWAP4 PUSH2 0x69B SWAP1 PUSH2 0x687 DUP7 ISZERO ISZERO PUSH2 0xC97 JUMP JUMPDEST DUP6 DUP6 MSTORE PUSH1 0x1 PUSH1 0x20 MSTORE DUP3 DUP6 KECCAK256 SLOAD AND CALLER EQ PUSH2 0xD2F JUMP JUMPDEST DUP4 DUP4 MSTORE PUSH1 0x1 PUSH1 0x20 MSTORE DUP3 KECCAK256 DUP3 DUP2 SSTORE DUP3 PUSH1 0x1 DUP3 ADD SSTORE ADD SSTORE CALLER SWAP1 PUSH32 0xEDA8A21CEAB321F39831C4A21C8A60CC97BB4D844303E693E8FC7C8AB4526A72 DUP4 DUP1 LOG3 DUP1 RETURN JUMPDEST DUP5 SWAP2 CALLVALUE PUSH2 0x224 JUMPI PUSH1 0x20 CALLDATASIZE PUSH1 0x3 NOT ADD SLT PUSH2 0x224 JUMPI CALLDATALOAD PUSH4 0xFFFFFFFF PUSH1 0xE0 SHL DUP2 AND DUP1 SWAP2 SUB PUSH2 0x224 JUMPI PUSH1 0x20 SWAP3 POP PUSH4 0x7965DB0B PUSH1 0xE0 SHL DUP2 EQ SWAP1 DUP2 ISZERO PUSH2 0x71B JUMPI JUMPDEST POP ISZERO ISZERO DUP2 MSTORE RETURN JUMPDEST PUSH4 0x1FFC9A7 PUSH1 0xE0 SHL EQ SWAP1 POP DUP4 PUSH2 0x714 JUMP JUMPDEST PUSH1 0x4 CALLDATALOAD SWAP1 PUSH1 0x1 PUSH1 0x1 PUSH1 0xA0 SHL SUB DUP3 AND DUP3 SUB PUSH2 0x742 JUMPI JUMP JUMPDEST PUSH1 0x0 DUP1 REVERT JUMPDEST PUSH1 0x24 CALLDATALOAD SWAP1 PUSH1 0x1 PUSH1 0x1 PUSH1 0xA0 SHL SUB DUP3 AND DUP3 SUB PUSH2 0x742 JUMPI JUMP JUMPDEST PUSH1 0x60 SWAP1 PUSH1 0x3 NOT ADD SLT PUSH2 0x742 JUMPI PUSH1 0x4 CALLDATALOAD PUSH1 0x1 PUSH1 0x1 PUSH1 0xA0 SHL SUB DUP2 AND DUP2 SUB PUSH2 0x742 JUMPI SWAP1 PUSH1 0x24 CALLDATALOAD SWAP1 PUSH1 0x44 CALLDATALOAD SWAP1 JUMP JUMPDEST CALLER PUSH1 0x0 SWAP1 DUP2 MSTORE PUSH32 0x743BA43598E4E97429683C7739C35500CAE7B09B5AFDF7135B85B54A773E67D2 PUSH1 0x20 MSTORE PUSH1 0x40 SWAP1 KECCAK256 SLOAD PUSH1 0x0 DUP1 MLOAD PUSH1 0x20 PUSH2 0xD8B DUP4 CODECOPY DUP2 MLOAD SWAP2 MSTORE SWAP1 PUSH1 0xFF AND ISZERO PUSH2 0x7D1 JUMPI POP JUMP JUMPDEST PUSH1 0x44 SWAP1 PUSH1 0x40 MLOAD SWAP1 PUSH4 0xE2517D3F PUSH1 0xE0 SHL DUP3 MSTORE CALLER PUSH1 0x4 DUP4 ADD MSTORE PUSH1 0x24 DUP3 ADD MSTORE REVERT JUMPDEST CALLER PUSH1 0x0 SWAP1 DUP2 MSTORE PUSH32 0x7D7FFB7A348E1C6A02869081A26547B49160DD3DF72D1D75A570EB9B698292EC PUSH1 0x20 MSTORE PUSH1 0x40 SWAP1 KECCAK256 SLOAD PUSH32 0xA49807205CE4D355092EF5A8A18F56E8913CF4A201FBE287825B095693C21775 SWAP1 PUSH1 0xFF AND ISZERO PUSH2 0x7D1 JUMPI POP JUMP JUMPDEST DUP1 PUSH1 0x0 MSTORE PUSH1 0x0 PUSH1 0x20 MSTORE PUSH1 0x40 PUSH1 0x0 KECCAK256 CALLER PUSH1 0x0 MSTORE PUSH1 0x20 MSTORE PUSH1 0xFF PUSH1 0x40 PUSH1 0x0 KECCAK256 SLOAD AND ISZERO PUSH2 0x7D1 JUMPI POP JUMP JUMPDEST PUSH1 0x1 PUSH1 0x1 PUSH1 0xA0 SHL SUB AND PUSH1 0x0 DUP2 DUP2 MSTORE PUSH32 0x743BA43598E4E97429683C7739C35500CAE7B09B5AFDF7135B85B54A773E67D2 PUSH1 0x20 MSTORE PUSH1 0x40 DUP2 KECCAK256 SLOAD SWAP1 SWAP2 SWAP1 PUSH1 0x0 DUP1 MLOAD PUSH1 0x20 PUSH2 0xD8B DUP4 CODECOPY DUP2 MLOAD SWAP2 MSTORE SWAP1 PUSH1 0xFF AND PUSH2 0x90C JUMPI DUP1 DUP4 MSTORE DUP3 PUSH1 0x20 MSTORE PUSH1 0x40 DUP4 KECCAK256 DUP3 DUP5 MSTORE PUSH1 0x20 MSTORE PUSH1 0x40 DUP4 KECCAK256 PUSH1 0x1 PUSH1 0xFF NOT DUP3 SLOAD AND OR SWAP1 SSTORE PUSH32 0x2F8788117E7EFF1D82E926EC794901D17C78024A50270940304540A733656F0D CALLER SWAP4 DUP1 LOG4 PUSH1 0x1 SWAP1 JUMP JUMPDEST POP POP SWAP1 JUMP JUMPDEST SWAP1 PUSH1 0x0 SWAP2 DUP1 DUP4 MSTORE DUP3 PUSH1 0x20 MSTORE PUSH1 0x40 DUP4 KECCAK256 SWAP2 PUSH1 0x1 DUP1 PUSH1 0xA0 SHL SUB AND SWAP2 DUP3 DUP5 MSTORE PUSH1 0x20 MSTORE PUSH1 0xFF PUSH1 0x40 DUP5 KECCAK256 SLOAD AND ISZERO PUSH1 0x0 EQ PUSH2 0x90C JUMPI DUP1 DUP4 MSTORE DUP3 PUSH1 0x20 MSTORE PUSH1 0x40 DUP4 KECCAK256 DUP3 DUP5 MSTORE PUSH1 0x20 MSTORE PUSH1 0x40 DUP4 KECCAK256 PUSH1 0x1 PUSH1 0xFF NOT DUP3 SLOAD AND OR SWAP1 SSTORE PUSH32 0x2F8788117E7EFF1D82E926EC794901D17C78024A50270940304540A733656F0D CALLER SWAP4 DUP1 LOG4 PUSH1 0x1 SWAP1 JUMP JUMPDEST PUSH1 0x1 PUSH1 0x1 PUSH1 0xA0 SHL SUB AND PUSH1 0x0 DUP2 DUP2 MSTORE PUSH32 0x743BA43598E4E97429683C7739C35500CAE7B09B5AFDF7135B85B54A773E67D2 PUSH1 0x20 MSTORE PUSH1 0x40 DUP2 KECCAK256 SLOAD SWAP1 SWAP2 SWAP1 PUSH1 0x0 DUP1 MLOAD PUSH1 0x20 PUSH2 0xD8B DUP4 CODECOPY DUP2 MLOAD SWAP2 MSTORE SWAP1 PUSH1 0xFF AND ISZERO PUSH2 0x90C JUMPI DUP1 DUP4 MSTORE DUP3 PUSH1 0x20 MSTORE PUSH1 0x40 DUP4 KECCAK256 DUP3 DUP5 MSTORE PUSH1 0x20 MSTORE PUSH1 0x40 DUP4 KECCAK256 PUSH1 0xFF NOT DUP2 SLOAD AND SWAP1 SSTORE PUSH32 0xF6391F5C32D9C69D2A47EA670B442974B53935D1EDC7FD64EB21E047A839171B CALLER SWAP4 DUP1 LOG4 PUSH1 0x1 SWAP1 JUMP JUMPDEST SWAP1 PUSH1 0x0 SWAP2 DUP1 DUP4 MSTORE DUP3 PUSH1 0x20 MSTORE PUSH1 0x40 DUP4 KECCAK256 SWAP2 PUSH1 0x1 DUP1 PUSH1 0xA0 SHL SUB AND SWAP2 DUP3 DUP5 MSTORE PUSH1 0x20 MSTORE PUSH1 0xFF PUSH1 0x40 DUP5 KECCAK256 SLOAD AND PUSH1 0x0 EQ PUSH2 0x90C JUMPI DUP1 DUP4 MSTORE DUP3 PUSH1 0x20 MSTORE PUSH1 0x40 DUP4 KECCAK256 DUP3 DUP5 MSTORE PUSH1 0x20 MSTORE PUSH1 0x40 DUP4 KECCAK256 PUSH1 0xFF NOT DUP2 SLOAD AND SWAP1 SSTORE PUSH32 0xF6391F5C32D9C69D2A47EA670B442974B53935D1EDC7FD64EB21E047A839171B CALLER SWAP4 DUP1 LOG4 PUSH1 0x1 SWAP1 JUMP JUMPDEST ISZERO PUSH2 0xA9F JUMPI JUMP JUMPDEST PUSH1 0x64 PUSH1 0x40 MLOAD PUSH3 0x461BCD PUSH1 0xE5 SHL DUP2 MSTORE PUSH1 0x20 PUSH1 0x4 DUP3 ADD MSTORE PUSH1 0x20 PUSH1 0x24 DUP3 ADD MSTORE PUSH32 0x437573746F6469616E2063616E6E6F74206265207A65726F2061646472657373 PUSH1 0x44 DUP3 ADD MSTORE REVERT JUMPDEST PUSH1 0x2 SLOAD DUP2 LT ISZERO PUSH2 0xB1A JUMPI PUSH1 0x2 PUSH1 0x0 MSTORE PUSH32 0x405787FA12A823E0F2B7631CC41B3BA8828B3321CA811111FA75CD3AA3BB5ACE ADD SWAP1 PUSH1 0x0 SWAP1 JUMP JUMPDEST PUSH4 0x4E487B71 PUSH1 0xE0 SHL PUSH1 0x0 MSTORE PUSH1 0x32 PUSH1 0x4 MSTORE PUSH1 0x24 PUSH1 0x0 REVERT JUMPDEST PUSH1 0x0 DUP2 DUP2 MSTORE PUSH1 0x3 PUSH1 0x20 MSTORE PUSH1 0x40 DUP2 KECCAK256 SLOAD PUSH2 0xBAD JUMPI PUSH1 0x2 SLOAD PUSH9 0x10000000000000000 DUP2 LT ISZERO PUSH2 0xB99 JUMPI SWAP1 DUP3 PUSH2 0xB85 PUSH2 0xB6E DUP5 PUSH1 0x1 PUSH1 0x40 SWAP7 ADD PUSH1 0x2 SSTORE PUSH2 0xAE3 JUMP JUMPDEST DUP2 SWAP4 SWAP2 SLOAD SWAP1 PUSH1 0x3 SHL SWAP2 DUP3 SHL SWAP2 PUSH1 0x0 NOT SWAP1 SHL NOT AND OR SWAP1 JUMP JUMPDEST SWAP1 SSTORE PUSH1 0x2 SLOAD SWAP3 DUP2 MSTORE PUSH1 0x3 PUSH1 0x20 MSTORE KECCAK256 SSTORE PUSH1 0x1 SWAP1 JUMP JUMPDEST PUSH4 0x4E487B71 PUSH1 0xE0 SHL DUP3 MSTORE PUSH1 0x41 PUSH1 0x4 MSTORE PUSH1 0x24 DUP3 REVERT JUMPDEST SWAP1 POP SWAP1 JUMP JUMPDEST PUSH1 0x0 DUP2 DUP2 MSTORE PUSH1 0x3 PUSH1 0x20 MSTORE PUSH1 0x40 DUP2 KECCAK256 SLOAD SWAP1 SWAP2 SWAP1 DUP1 ISZERO PUSH2 0x90C JUMPI PUSH1 0x0 NOT SWAP1 DUP1 DUP3 ADD DUP2 DUP2 GT PUSH2 0xC83 JUMPI PUSH1 0x2 SLOAD SWAP1 DUP4 DUP3 ADD SWAP2 DUP3 GT PUSH2 0xC6F JUMPI DUP2 DUP2 SUB PUSH2 0xC3B JUMPI JUMPDEST POP POP POP PUSH1 0x2 SLOAD DUP1 ISZERO PUSH2 0xC27 JUMPI DUP2 ADD SWAP1 PUSH2 0xC06 DUP3 PUSH2 0xAE3 JUMP JUMPDEST SWAP1 SWAP2 DUP3 SLOAD SWAP2 PUSH1 0x3 SHL SHL NOT AND SWAP1 SSTORE PUSH1 0x2 SSTORE DUP2 MSTORE PUSH1 0x3 PUSH1 0x20 MSTORE PUSH1 0x40 DUP2 KECCAK256 SSTORE PUSH1 0x1 SWAP1 JUMP JUMPDEST PUSH4 0x4E487B71 PUSH1 0xE0 SHL DUP5 MSTORE PUSH1 0x31 PUSH1 0x4 MSTORE PUSH1 0x24 DUP5 REVERT JUMPDEST PUSH2 0xC59 PUSH2 0xC4A PUSH2 0xB6E SWAP4 PUSH2 0xAE3 JUMP JUMPDEST SWAP1 SLOAD SWAP1 PUSH1 0x3 SHL SHR SWAP3 DUP4 SWAP3 PUSH2 0xAE3 JUMP JUMPDEST SWAP1 SSTORE DUP5 MSTORE PUSH1 0x3 PUSH1 0x20 MSTORE PUSH1 0x40 DUP5 KECCAK256 SSTORE CODESIZE DUP1 DUP1 PUSH2 0xBEE JUMP JUMPDEST PUSH4 0x4E487B71 PUSH1 0xE0 SHL DUP7 MSTORE PUSH1 0x11 PUSH1 0x4 MSTORE PUSH1 0x24 DUP7 REVERT JUMPDEST PUSH4 0x4E487B71 PUSH1 0xE0 SHL DUP6 MSTORE PUSH1 0x11 PUSH1 0x4 MSTORE PUSH1 0x24 DUP6 REVERT JUMPDEST ISZERO PUSH2 0xC9E JUMPI JUMP JUMPDEST PUSH1 0x40 MLOAD PUSH3 0x461BCD PUSH1 0xE5 SHL DUP2 MSTORE PUSH1 0x20 PUSH1 0x4 DUP3 ADD MSTORE PUSH1 0x1B PUSH1 0x24 DUP3 ADD MSTORE PUSH32 0x5573657220616464726573732063616E6E6F74206265207A65726F0000000000 PUSH1 0x44 DUP3 ADD MSTORE PUSH1 0x64 SWAP1 REVERT JUMPDEST ISZERO PUSH2 0xCEA JUMPI JUMP JUMPDEST PUSH1 0x40 MLOAD PUSH3 0x461BCD PUSH1 0xE5 SHL DUP2 MSTORE PUSH1 0x20 PUSH1 0x4 DUP3 ADD MSTORE PUSH1 0x1C PUSH1 0x24 DUP3 ADD MSTORE PUSH32 0x4B594320657870697279206265666F72652076616C69646174696F6E00000000 PUSH1 0x44 DUP3 ADD MSTORE PUSH1 0x64 SWAP1 REVERT JUMPDEST ISZERO PUSH2 0xD36 JUMPI JUMP JUMPDEST PUSH1 0x40 MLOAD PUSH3 0x461BCD PUSH1 0xE5 SHL DUP2 MSTORE PUSH1 0x20 PUSH1 0x4 DUP3 ADD MSTORE PUSH1 0x26 PUSH1 0x24 DUP3 ADD MSTORE PUSH32 0x43616C6C6572206973206E6F7420746865207265676973746572656420637573 PUSH1 0x44 DUP3 ADD MSTORE PUSH6 0x3A37B234B0B7 PUSH1 0xD1 SHL PUSH1 0x64 DUP3 ADD MSTORE PUSH1 0x84 SWAP1 REVERT INVALID 0xE2 DUP5 CALLVALUE 0x22 DUP10 POP 0xB6 COINBASE 0xDB 0xBC ADD PUSH25 0xDE89DAA359A87C6EE0D8399AEACE52A98FE902B9A264697066 PUSH20 0x5822122063217869B25387A4A4E264D03530FDA0 KECCAK256 0x27 RETURNDATACOPY CREATE SWAP3 0xBE PUSH13 0xAECB295138323644AF64736F6C PUSH4 0x43000814 STOP CALLER 0x2F DUP8 DUP9 GT PUSH31 0x7EFF1D82E926EC794901D17C78024A50270940304540A733656F0D00000000 "},"methodIdentifiers":{"ADMIN_ROLE()":"75b238fc","CUSTODIAN_ROLE()":"c79445d0","DEFAULT_ADMIN_ROLE()":"a217fddf","custodianAtIndex(uint256)":"85c40f49","custodianCount()":"6f7949f7","getCustodian(address)":"cb5aa7e9","getKYCTimestamps(address)":"e1e75188","getRoleAdmin(bytes32)":"248a9ca3","grantCustodianRole(address)":"ca8a5e12","grantRole(bytes32,address)":"2f2ff15d","hasRole(bytes32,address)":"91d14854","isKYCValid(address)":"cf0e0f9d","registerCustodiedWallet(address,uint256,uint256)":"8289836e","renounceRole(bytes32,address)":"36568abe","revokeCustodianRole(address)":"1e5e7d5a","revokeRole(bytes32,address)":"d547741f","supportsInterface(bytes4)":"01ffc9a7","unregisterCustodiedWallet(address)":"10f69a3e","updateKYCStatus(address,uint256,uint256)":"ef0c98d6"}}}}}