{"contracts/T3Token.sol":{"T3Token":{"abi":[{"inputs":[{"internalType":"address","name":"initialAdmin","type":"address"},{"internalType":"address","name":"_treasuryAddress","type":"address"}],"stateMutability":"nonpayable","type":"constructor"},{"inputs":[],"name":"AccessControlBadConfirmation","type":"error"},{"inputs":[{"internalType":"address","name":"account","type":"address"},{"internalType":"bytes32","name":"neededRole","type":"bytes32"}],"name":"AccessControlUnauthorizedAccount","type":"error"},{"inputs":[{"internalType":"address","name":"spender","type":"address"},{"internalType":"uint256","name":"allowance","type":"uint256"},{"internalType":"uint256","name":"needed","type":"uint256"}],"name":"ERC20InsufficientAllowance","type":"error"},{"inputs":[{"internalType":"address","name":"sender","type":"address"},{"internalType":"uint256","name":"balance","type":"uint256"},{"internalType":"uint256","name":"needed","type":"uint256"}],"name":"ERC20InsufficientBalance","type":"error"},{"inputs":[{"internalType":"address","name":"approver","type":"address"}],"name":"ERC20InvalidApprover","type":"error"},{"inputs":[{"internalType":"address","name":"receiver","type":"address"}],"name":"ERC20InvalidReceiver","type":"error"},{"inputs":[{"internalType":"address","name":"sender","type":"address"}],"name":"ERC20InvalidSender","type":"error"},{"inputs":[{"internalType":"address","name":"spender","type":"address"}],"name":"ERC20InvalidSpender","type":"error"},{"inputs":[],"name":"EnforcedPause","type":"error"},{"inputs":[],"name":"ExpectedPause","type":"error"},{"anonymous":false,"inputs":[{"indexed":true,"internalType":"address","name":"owner","type":"address"},{"indexed":true,"internalType":"address","name":"spender","type":"address"},{"indexed":false,"internalType":"uint256","name":"value","type":"uint256"}],"name":"Approval","type":"event"},{"anonymous":false,"inputs":[{"indexed":true,"internalType":"address","name":"wallet","type":"address"},{"indexed":false,"internalType":"uint256","name":"timestamp","type":"uint256"}],"name":"HalfLifeExpired","type":"event"},{"anonymous":false,"inputs":[{"indexed":true,"internalType":"address","name":"debtor","type":"address"},{"indexed":true,"internalType":"address","name":"creditor","type":"address"},{"indexed":false,"internalType":"uint256","name":"amountCleared","type":"uint256"}],"name":"InterbankLiabilityCleared","type":"event"},{"anonymous":false,"inputs":[{"indexed":true,"internalType":"address","name":"debtor","type":"address"},{"indexed":true,"internalType":"address","name":"creditor","type":"address"},{"indexed":false,"internalType":"uint256","name":"amount","type":"uint256"}],"name":"InterbankLiabilityRecorded","type":"event"},{"anonymous":false,"inputs":[{"indexed":true,"internalType":"address","name":"wallet","type":"address"},{"indexed":false,"internalType":"uint256","name":"amount","type":"uint256"}],"name":"LoyaltyRefundProcessed","type":"event"},{"anonymous":false,"inputs":[{"indexed":false,"internalType":"address","name":"account","type":"address"}],"name":"Paused","type":"event"},{"anonymous":false,"inputs":[{"indexed":true,"internalType":"address","name":"wallet","type":"address"},{"indexed":false,"internalType":"uint256","name":"newRiskFactor","type":"uint256"}],"name":"RiskFactorUpdated","type":"event"},{"anonymous":false,"inputs":[{"indexed":true,"internalType":"bytes32","name":"role","type":"bytes32"},{"indexed":true,"internalType":"bytes32","name":"previousAdminRole","type":"bytes32"},{"indexed":true,"internalType":"bytes32","name":"newAdminRole","type":"bytes32"}],"name":"RoleAdminChanged","type":"event"},{"anonymous":false,"inputs":[{"indexed":true,"internalType":"bytes32","name":"role","type":"bytes32"},{"indexed":true,"internalType":"address","name":"account","type":"address"},{"indexed":true,"internalType":"address","name":"sender","type":"address"}],"name":"RoleGranted","type":"event"},{"anonymous":false,"inputs":[{"indexed":true,"internalType":"bytes32","name":"role","type":"bytes32"},{"indexed":true,"internalType":"address","name":"account","type":"address"},{"indexed":true,"internalType":"address","name":"sender","type":"address"}],"name":"RoleRevoked","type":"event"},{"anonymous":false,"inputs":[{"indexed":true,"internalType":"address","name":"minter","type":"address"},{"indexed":true,"internalType":"address","name":"recipient","type":"address"},{"indexed":false,"internalType":"uint256","name":"amount","type":"uint256"}],"name":"TokensMinted","type":"event"},{"anonymous":false,"inputs":[{"indexed":true,"internalType":"address","name":"from","type":"address"},{"indexed":true,"internalType":"address","name":"to","type":"address"},{"indexed":false,"internalType":"uint256","name":"value","type":"uint256"}],"name":"Transfer","type":"event"},{"anonymous":false,"inputs":[{"indexed":true,"internalType":"address","name":"from","type":"address"},{"indexed":true,"internalType":"address","name":"to","type":"address"},{"indexed":false,"internalType":"uint256","name":"amount","type":"uint256"}],"name":"TransferReversed","type":"event"},{"anonymous":false,"inputs":[{"indexed":true,"internalType":"address","name":"from","type":"address"},{"indexed":true,"internalType":"address","name":"to","type":"address"},{"indexed":false,"internalType":"uint256","name":"amount","type":"uint256"},{"indexed":false,"internalType":"uint256","name":"fee","type":"uint256"}],"name":"TransferWithFee","type":"event"},{"anonymous":false,"inputs":[{"indexed":false,"internalType":"address","name":"account","type":"address"}],"name":"Unpaused","type":"event"},{"inputs":[],"name":"ADMIN_ROLE","outputs":[{"internalType":"bytes32","name":"","type":"bytes32"}],"stateMutability":"view","type":"function"},{"inputs":[],"name":"BURNER_ROLE","outputs":[{"internalType":"bytes32","name":"","type":"bytes32"}],"stateMutability":"view","type":"function"},{"inputs":[],"name":"DEFAULT_ADMIN_ROLE","outputs":[{"internalType":"bytes32","name":"","type":"bytes32"}],"stateMutability":"view","type":"function"},{"inputs":[],"name":"MINTER_ROLE","outputs":[{"internalType":"bytes32","name":"","type":"bytes32"}],"stateMutability":"view","type":"function"},{"inputs":[],"name":"PAUSER_ROLE","outputs":[{"internalType":"bytes32","name":"","type":"bytes32"}],"stateMutability":"view","type":"function"},{"inputs":[{"internalType":"address","name":"owner","type":"address"},{"internalType":"address","name":"spender","type":"address"}],"name":"allowance","outputs":[{"internalType":"uint256","name":"","type":"uint256"}],"stateMutability":"view","type":"function"},{"inputs":[{"internalType":"address","name":"spender","type":"address"},{"internalType":"uint256","name":"value","type":"uint256"}],"name":"approve","outputs":[{"internalType":"bool","name":"","type":"bool"}],"stateMutability":"nonpayable","type":"function"},{"inputs":[{"internalType":"address","name":"account","type":"address"}],"name":"balanceOf","outputs":[{"internalType":"uint256","name":"","type":"uint256"}],"stateMutability":"view","type":"function"},{"inputs":[{"internalType":"uint256","name":"amount","type":"uint256"}],"name":"burn","outputs":[],"stateMutability":"nonpayable","type":"function"},{"inputs":[{"internalType":"address","name":"account","type":"address"},{"internalType":"uint256","name":"amount","type":"uint256"}],"name":"burnFrom","outputs":[],"stateMutability":"nonpayable","type":"function"},{"inputs":[{"internalType":"address","name":"wallet","type":"address"}],"name":"calculateRiskFactor","outputs":[{"internalType":"uint256","name":"","type":"uint256"}],"stateMutability":"view","type":"function"},{"inputs":[{"internalType":"address","name":"wallet","type":"address"}],"name":"checkHalfLifeExpiry","outputs":[],"stateMutability":"nonpayable","type":"function"},{"inputs":[{"internalType":"address","name":"debtor","type":"address"},{"internalType":"address","name":"creditor","type":"address"},{"internalType":"uint256","name":"amountToClear","type":"uint256"}],"name":"clearInterbankLiability","outputs":[],"stateMutability":"nonpayable","type":"function"},{"inputs":[],"name":"decimals","outputs":[{"internalType":"uint8","name":"","type":"uint8"}],"stateMutability":"view","type":"function"},{"inputs":[{"internalType":"address","name":"sender","type":"address"},{"internalType":"address","name":"recipient","type":"address"},{"internalType":"uint256","name":"amount","type":"uint256"}],"name":"estimateTransferFeeDetails","outputs":[{"components":[{"internalType":"uint256","name":"requestedAmount","type":"uint256"},{"internalType":"uint256","name":"baseFeeAmount","type":"uint256"},{"internalType":"uint256","name":"senderRiskScore","type":"uint256"},{"internalType":"uint256","name":"recipientRiskScore","type":"uint256"},{"internalType":"uint256","name":"applicableRiskScore","type":"uint256"},{"internalType":"uint256","name":"amountRiskScaler","type":"uint256"},{"internalType":"uint256","name":"scaledRiskImpactBps","type":"uint256"},{"internalType":"uint256","name":"finalRiskFactorBps","type":"uint256"},{"internalType":"uint256","name":"feeAfterRisk","type":"uint256"},{"internalType":"uint256","name":"availableCredits","type":"uint256"},{"internalType":"uint256","name":"creditsApplied","type":"uint256"},{"internalType":"uint256","name":"feeAfterCredits","type":"uint256"},{"internalType":"uint256","name":"maxFeeBound","type":"uint256"},{"internalType":"uint256","name":"minFeeBound","type":"uint256"},{"internalType":"bool","name":"maxFeeApplied","type":"bool"},{"internalType":"bool","name":"minFeeApplied","type":"bool"},{"internalType":"uint256","name":"finalFee","type":"uint256"},{"internalType":"uint256","name":"netAmountToSend","type":"uint256"}],"internalType":"struct T3Token.FeeDetails","name":"details","type":"tuple"}],"stateMutability":"view","type":"function"},{"inputs":[{"internalType":"address","name":"wallet","type":"address"}],"name":"flagAbnormalTransaction","outputs":[],"stateMutability":"nonpayable","type":"function"},{"inputs":[{"internalType":"address","name":"wallet","type":"address"}],"name":"getAvailableCredits","outputs":[{"internalType":"uint256","name":"","type":"uint256"}],"stateMutability":"view","type":"function"},{"inputs":[{"internalType":"bytes32","name":"role","type":"bytes32"}],"name":"getRoleAdmin","outputs":[{"internalType":"bytes32","name":"","type":"bytes32"}],"stateMutability":"view","type":"function"},{"inputs":[{"internalType":"bytes32","name":"role","type":"bytes32"},{"internalType":"address","name":"account","type":"address"}],"name":"grantRole","outputs":[],"stateMutability":"nonpayable","type":"function"},{"inputs":[],"name":"halfLifeDuration","outputs":[{"internalType":"uint256","name":"","type":"uint256"}],"stateMutability":"view","type":"function"},{"inputs":[{"internalType":"bytes32","name":"role","type":"bytes32"},{"internalType":"address","name":"account","type":"address"}],"name":"hasRole","outputs":[{"internalType":"bool","name":"","type":"bool"}],"stateMutability":"view","type":"function"},{"inputs":[],"name":"inactivityResetPeriod","outputs":[{"internalType":"uint256","name":"","type":"uint256"}],"stateMutability":"view","type":"function"},{"inputs":[{"internalType":"address","name":"","type":"address"}],"name":"incentiveCredits","outputs":[{"internalType":"uint256","name":"amount","type":"uint256"},{"internalType":"uint256","name":"lastUpdated","type":"uint256"}],"stateMutability":"view","type":"function"},{"inputs":[{"internalType":"address","name":"","type":"address"},{"internalType":"address","name":"","type":"address"}],"name":"interbankLiability","outputs":[{"internalType":"uint256","name":"","type":"uint256"}],"stateMutability":"view","type":"function"},{"inputs":[],"name":"maxHalfLifeDuration","outputs":[{"internalType":"uint256","name":"","type":"uint256"}],"stateMutability":"view","type":"function"},{"inputs":[],"name":"minHalfLifeDuration","outputs":[{"internalType":"uint256","name":"","type":"uint256"}],"stateMutability":"view","type":"function"},{"inputs":[{"internalType":"address","name":"recipient","type":"address"},{"internalType":"uint256","name":"amount","type":"uint256"}],"name":"mint","outputs":[],"stateMutability":"nonpayable","type":"function"},{"inputs":[{"internalType":"address","name":"","type":"address"}],"name":"mintedByMinter","outputs":[{"internalType":"uint256","name":"","type":"uint256"}],"stateMutability":"view","type":"function"},{"inputs":[],"name":"name","outputs":[{"internalType":"string","name":"","type":"string"}],"stateMutability":"view","type":"function"},{"inputs":[],"name":"pause","outputs":[],"stateMutability":"nonpayable","type":"function"},{"inputs":[],"name":"paused","outputs":[{"internalType":"bool","name":"","type":"bool"}],"stateMutability":"view","type":"function"},{"inputs":[{"internalType":"address","name":"debtor","type":"address"},{"internalType":"address","name":"creditor","type":"address"},{"internalType":"uint256","name":"amount","type":"uint256"}],"name":"recordInterbankLiability","outputs":[],"stateMutability":"nonpayable","type":"function"},{"inputs":[{"internalType":"bytes32","name":"role","type":"bytes32"},{"internalType":"address","name":"callerConfirmation","type":"address"}],"name":"renounceRole","outputs":[],"stateMutability":"nonpayable","type":"function"},{"inputs":[{"internalType":"address","name":"recipient","type":"address"},{"internalType":"uint256","name":"amount","type":"uint256"}],"name":"reverseTransfer","outputs":[],"stateMutability":"nonpayable","type":"function"},{"inputs":[{"internalType":"bytes32","name":"role","type":"bytes32"},{"internalType":"address","name":"account","type":"address"}],"name":"revokeRole","outputs":[],"stateMutability":"nonpayable","type":"function"},{"inputs":[{"internalType":"address","name":"","type":"address"}],"name":"rollingAverages","outputs":[{"internalType":"uint256","name":"totalAmount","type":"uint256"},{"internalType":"uint256","name":"count","type":"uint256"},{"internalType":"uint256","name":"lastUpdated","type":"uint256"}],"stateMutability":"view","type":"function"},{"inputs":[{"internalType":"uint256","name":"_halfLifeDuration","type":"uint256"}],"name":"setHalfLifeDuration","outputs":[],"stateMutability":"nonpayable","type":"function"},{"inputs":[{"internalType":"uint256","name":"_inactivityResetPeriod","type":"uint256"}],"name":"setInactivityResetPeriod","outputs":[],"stateMutability":"nonpayable","type":"function"},{"inputs":[{"internalType":"uint256","name":"_maxHalfLifeDuration","type":"uint256"}],"name":"setMaxHalfLifeDuration","outputs":[],"stateMutability":"nonpayable","type":"function"},{"inputs":[{"internalType":"uint256","name":"_minHalfLifeDuration","type":"uint256"}],"name":"setMinHalfLifeDuration","outputs":[],"stateMutability":"nonpayable","type":"function"},{"inputs":[{"internalType":"address","name":"_treasuryAddress","type":"address"}],"name":"setTreasuryAddress","outputs":[],"stateMutability":"nonpayable","type":"function"},{"inputs":[{"internalType":"bytes4","name":"interfaceId","type":"bytes4"}],"name":"supportsInterface","outputs":[{"internalType":"bool","name":"","type":"bool"}],"stateMutability":"view","type":"function"},{"inputs":[],"name":"symbol","outputs":[{"internalType":"string","name":"","type":"string"}],"stateMutability":"view","type":"function"},{"inputs":[],"name":"totalSupply","outputs":[{"internalType":"uint256","name":"","type":"uint256"}],"stateMutability":"view","type":"function"},{"inputs":[{"internalType":"address","name":"","type":"address"},{"internalType":"address","name":"","type":"address"}],"name":"transactionCountBetween","outputs":[{"internalType":"uint256","name":"","type":"uint256"}],"stateMutability":"view","type":"function"},{"inputs":[{"internalType":"address","name":"recipient","type":"address"},{"internalType":"uint256","name":"amount","type":"uint256"}],"name":"transfer","outputs":[{"internalType":"bool","name":"","type":"bool"}],"stateMutability":"nonpayable","type":"function"},{"inputs":[{"internalType":"address","name":"","type":"address"}],"name":"transferData","outputs":[{"internalType":"uint256","name":"commitWindowEnd","type":"uint256"},{"internalType":"uint256","name":"halfLifeDuration","type":"uint256"},{"internalType":"address","name":"originator","type":"address"},{"internalType":"uint256","name":"transferCount","type":"uint256"},{"internalType":"bytes32","name":"reversalHash","type":"bytes32"},{"internalType":"uint256","name":"feeAmount","type":"uint256"},{"internalType":"bool","name":"isReversed","type":"bool"}],"stateMutability":"view","type":"function"},{"inputs":[{"internalType":"address","name":"from","type":"address"},{"internalType":"address","name":"to","type":"address"},{"internalType":"uint256","name":"amount","type":"uint256"}],"name":"transferFrom","outputs":[{"internalType":"bool","name":"","type":"bool"}],"stateMutability":"nonpayable","type":"function"},{"inputs":[],"name":"treasuryAddress","outputs":[{"internalType":"address","name":"","type":"address"}],"stateMutability":"view","type":"function"},{"inputs":[],"name":"unpause","outputs":[],"stateMutability":"nonpayable","type":"function"},{"inputs":[{"internalType":"address","name":"","type":"address"}],"name":"walletRiskProfiles","outputs":[{"internalType":"uint256","name":"reversalCount","type":"uint256"},{"internalType":"uint256","name":"lastReversal","type":"uint256"},{"internalType":"uint256","name":"creationTime","type":"uint256"},{"internalType":"uint256","name":"abnormalTxCount","type":"uint256"}],"stateMutability":"view","type":"function"}],"evm":{"bytecode":{"linkReferences":{},"object":"608034620004a6576001600160401b039062003b9b90601f19601f38849003818101831684019086821185831017620003a85780859160409788948552833981010312620004a6576200005283620004cb565b90620000626020809501620004cb565b926200006d620004ab565b96600d88526c2a199029ba30b13632b1b7b4b760991b8689015262000091620004ab565b976002895261543360f01b878a0152805190828211620003a85760039182546001928382811c921680156200049b575b8b831014620004855781888493116200042f575b508a90888311600114620003ca57600092620003be575b505060001982851b1c191690821b1782555b8951928311620003a8576004998a548281811c911680156200039d575b8a82101462000388578681116200033d575b508890868511600114620002d45784955090849291600095620002c8575b50501b92600019911b1c19161786555b610e106007556102586008556201518060095562278d00600a556001600160a01b03928316908115620002875750600b80546001600160a01b031916919091179055620001a881620004e0565b50620001b48162000561565b50620001c08162000604565b50168015620002705760ff60055416620002615760025469d3c21bcecceda1000000948582018092116200024c575060007fddf252ad1be2c89b69c2b068fc378daa952ba7f163c4a11628f55a4df523b3ef84600f969785946002558484528382528884208181540190558851908152a360005252426002826000200155516134d89081620006a38239f35b601190634e487b7160e01b6000525260246000fd5b50505163d93c066560e01b8152fd5b825163ec442f0560e01b8152600081860152602490fd5b866064918688519262461bcd60e51b845283015260248201527f547265617375727920616464726573732063616e6e6f74206265207a65726f006044820152fd5b0151935038806200014b565b9291948416928b600052848a6000209460005b8c898383106200032557505050106200030a575b50505050811b0186556200015b565b01519060f884600019921b161c1916905538808080620002fb565b868601518955909701969485019488935001620002e7565b8b600052896000208780870160051c8201928c88106200037e575b0160051c019083905b828110620003715750506200012d565b6000815501839062000361565b9250819262000358565b60228c634e487b7160e01b6000525260246000fd5b90607f16906200011b565b634e487b7160e01b600052604160045260246000fd5b015190503880620000ec565b908785941691866000528c600020928d6000905b828210620004175750508411620003fe575b505050811b018255620000fe565b015160001983871b60f8161c19169055388080620003f0565b83850151865588979095019493840193018e620003de565b909150846000528a6000208880850160051c8201928d86106200047b575b918691869594930160051c01915b8281106200046b575050620000d5565b600081558594508691016200045b565b925081926200044d565b634e487b7160e01b600052602260045260246000fd5b91607f1691620000c1565b600080fd5b60408051919082016001600160401b03811183821017620003a857604052565b51906001600160a01b0382168203620004a657565b6001600160a01b031660008181527f54cdd369e4e8a8515e52ca72ec816c2101831ad1f18bf44102ed171459c9b4f8602052604081205490919060ff166200055d5781805260066020526040822081835260205260408220600160ff19825416179055339160008051602062003b7b8339815191528180a4600190565b5090565b6001600160a01b031660008181527f0c3bb05773fb95f6688e1e7d9c896674dccd66884026cf30a3d5e3a9bfecd81160205260408120549091907fa49807205ce4d355092ef5a8a18f56e8913cf4a201fbe287825b095693c217759060ff16620005ff5780835260066020526040832082845260205260408320600160ff1982541617905560008051602062003b7b833981519152339380a4600190565b505090565b6001600160a01b031660008181527fe09f975e15f8f53f24cbbc282b13c40b84df485fcdb8d3997fa103dc5a4ef84160205260408120549091907f65d7a28e3265b37a6474929f336521b332c1681b933f6cb9f3376673440d862a9060ff16620005ff5780835260066020526040832082845260205260408320600160ff1982541617905560008051602062003b7b833981519152339380a460019056fe608080604052600436101561001357600080fd5b60003560e01c90816301ffc9a714611efa575080630383350114611edc57806306fdde0314611e1e57806308d887d014611dcd578063095ea7b314611d155780630c27ab5a14611cd25780630f3f080314611c3557806318160ddd14611c1757806323b872dd14611be3578063248a9ca314611bb4578063282c51f314611b795780632f2ff15d14611b3a578063313ce56714611b1e57806336568abe14611ad75780633d8d1dce14611a7b5780633f4ba83a14611a1157806340c10f191461187757806342966c68146118475780634c915d18146118295780634d8183cc146116cb578063508c06341461148157806357fe51d2146113d25780635a0f385a146110d85780635c975abb146110b55780635ed610971461106457806362d3f81414610fe15780636605bfda14610f545780636b6ef95314610f295780636cd9ca1414610ebd5780636e2fae4714610e6a57806370a0823114610e3057806375b238fc14610df557806376223a2714610d4357806379cc679014610d00578063800753cf14610ce25780638456cb5914610c885780638ffa15d414610c37578063905b7fcb14610bfd57806391d1485414610bb057806395d89b4114610aab578063a217fddf14610a8f578063a9059cbb14610a4c578063b065a8e514610a12578063c5f956af146109e9578063c750f203146109cb578063d539139314610990578063d547741f1461094f578063dd62ed3e146108fe578063dd7faab11461081a578063e63ab1e9146107df5763e697da681461025057600080fd5b346107da5761025e36611fc2565b60405161024093909284840167ffffffffffffffff8111858210176107c4576040526000845260006020850152600060408501526000606085015260006080850152600060a0850152600060c0850152600060e08501526000610100850152600061012085015260006101408501526000610160850152600061018085015260006101a085015260006101c085015260006101e08501526000610200850152600061022085015260018060a01b03811615610774578215610713576103419083855261032984612a72565b602086015261033783612f32565b6040860152612f32565b80606085015260408401519080821160001461070c57505b8060808501526127108111600014610704578061270f1981011161063a5761270f19015b801580156106f8575b156106a15750600060a0840152600060c084015261271060e084015260208301516101008401525b6001600160a01b0316600090815260106020526040902054610120830181905280158015610694575b15610650575060006101408301526101008201516101608301525b6101608201516102008301526103e88181810204810361063a5761271090820204806101808401526102008301511160001461062d5761018082015161020083015260016101c08301525b6509184e72a000806101a0840152610200830151908115159182610622575b5081610617575b50156105ff576101a082015181610180840151821115918261060c575b5050156105ff576101a08201518061020084015260016101e084015261018083015111156101c08301525b80610200830151116105a9575b610200820151808211156105a0576104cf916122f0565b61022082015261022060405191805183526020810151602084015260408101516040840152606081015160608401526080810151608084015260a081015160a084015260c081015160c084015260e081015160e08401526101008101516101008401526101208101516101208401526101408101516101408401526101608101516101608401526101808101516101808401526101a08101516101a08401526101c081015115156101c08401526101e081015115156101e08401526102008101516102008401520151610220820152f35b505060006104cf565b806102008301526101808201518181811491826105f5575b505015156101c08301526101a08201518181811491826105eb575b505015156101e08301526104b8565b14905081386105dc565b14905081386105c1565b60006101e08301526104ab565b111590508138610480565b905081101538610463565b81925010903861045c565b60006101c083015261043d565b634e487b7160e01b600052601160045260246000fd5b6101008301519081811061067957505061010082015161014083015260006101608301526103f2565b61068991816101408601526122f0565b6101608301526103f2565b50610100830151156103d7565b6106bd612710916106b185612e76565b908160a08801526122dd565b048060c085015280612710016127101161063a576106ec8161271092830160e0870152820160208601516122dd565b046101008401526103ae565b50602084015115610386565b50600061037d565b9050610359565b60405162461bcd60e51b815260206004820152603360248201527f457374696d6174653a205472616e7366657220616d6f756e74206d7573742062604482015272652067726561746572207468616e207a65726f60681b6064820152608490fd5b60405162461bcd60e51b815260206004820152602260248201527f457374696d6174653a205472616e7366657220746f207a65726f206164647265604482015261737360f01b6064820152608490fd5b634e487b7160e01b600052604160045260246000fd5b600080fd5b346107da5760003660031901126107da5760206040517f65d7a28e3265b37a6474929f336521b332c1681b933f6cb9f3376673440d862a8152f35b346107da5761082836611fc2565b91610831611ff7565b6001600160a01b039081169161084883151561339e565b16916108558315156133ea565b61086183831415613436565b80156108b95760207fbd91b9538487013e1f78426333a3445bdfcdece5d02e402f33f9e598122919f5918360005260128252604060002085600052825260406000206108ae82825461230c565b9055604051908152a3005b60405162461bcd60e51b815260206004820152601760248201527f416d6f756e74206d75737420626520706f7369746976650000000000000000006044820152606490fd5b346107da5760403660031901126107da57610917611f96565b61091f611fac565b9060018060a01b038091166000526001602052604060002091166000526020526020604060002054604051908152f35b346107da5760403660031901126107da5761098e60043561096e611fac565b908060005260066020526109896001604060002001546120af565b612155565b005b346107da5760003660031901126107da5760206040517f9f2df0fed2c77648de5860a4cc508cd0818c85b8b8a1ab4ceeef8d981c8956a68152f35b346107da5760003660031901126107da576020600954604051908152f35b346107da5760003660031901126107da57600b546040516001600160a01b039091168152602090f35b346107da5760203660031901126107da576001600160a01b03610a33611f96565b1660005260106020526020604060002054604051908152f35b346107da5760403660031901126107da57610a84610a68611f96565b6001600160a01b038116600052600f6020526024359033612319565b602060405160018152f35b346107da5760003660031901126107da57602060405160008152f35b346107da5760003660031901126107da57604051600090600454600181811c90808316928315610ba6575b6020938484108114610b9057838652908115610b705750600114610b15575b610b1184610b05818803826121e8565b60405191829182611f4d565b0390f35b600460009081529294507f8a35acfbc15ff81a39ae7d344fd709f28e8600b4aa8c65c6b64bfe7fe36bd19b5b828410610b5d5750505081610b1193610b059282010193610af5565b8054858501870152928501928101610b41565b60ff1916858501525050151560051b8201019150610b0581610b11610af5565b634e487b7160e01b600052602260045260246000fd5b91607f1691610ad6565b346107da5760403660031901126107da57610bc9611fac565b600435600052600660205260406000209060018060a01b0316600052602052602060ff604060002054166040519015158152f35b346107da5760203660031901126107da576001600160a01b03610c1e611f96565b1660005260116020526020604060002054604051908152f35b346107da5760403660031901126107da57610c50611f96565b610c58611fac565b9060018060a01b03809116600052600e602052604060002091166000526020526020604060002054604051908152f35b346107da5760003660031901126107da57610ca1612053565b610ca961298a565b600160ff1960055416176005557f62e78cea01bee320cd4e420270b5ea74000d11b0c9f74754ebdbfc544b05a2586020604051338152a1005b346107da5760003660031901126107da576020600854604051908152f35b346107da5760403660031901126107da5761098e610d1c611f96565b60243590610d2861298a565b610d338215156132a4565b610d3e82338361220a565b6132f0565b346107da5760203660031901126107da57600435610d5f611ff7565b8015610db9576009548111610d8257806008558060075410610d7d57005b600755005b60405162461bcd60e51b815260206004820152600f60248201526e09ad2dc40caf0c6cacac8e640dac2f608b1b6044820152606490fd5b60405162461bcd60e51b81526020600482015260146024820152734d696e206d75737420626520706f73697469766560601b6044820152606490fd5b346107da5760003660031901126107da5760206040517fa49807205ce4d355092ef5a8a18f56e8913cf4a201fbe287825b095693c217758152f35b346107da5760203660031901126107da576001600160a01b03610e51611f96565b1660005260006020526020604060002054604051908152f35b346107da5760203660031901126107da57610e83611f96565b610e8b611ff7565b610e948161325e565b6001600160a01b03166000908152600f602052604090206003018054610eb9906122fd565b9055005b346107da5760203660031901126107da57600435610ed9611ff7565b8015610ee457600a55005b60405162461bcd60e51b815260206004820152601760248201527f506572696f64206d75737420626520706f7369746976650000000000000000006044820152606490fd5b346107da5760203660031901126107da576020610f4c610f47611f96565b612f32565b604051908152f35b346107da5760203660031901126107da57610f6d611f96565b610f75611ff7565b6001600160a01b03168015610f9c576001600160601b0360a01b600b541617600b55600080f35b60405162461bcd60e51b815260206004820152601f60248201527f547265617375727920616464726573732063616e6e6f74206265207a65726f006044820152606490fd5b346107da5760203660031901126107da5760e06001600160a01b0380611005611f96565b16600052600c602052604060002090815491600181015491600282015416600382015460048301549160ff600660058601549501541694604051968752602087015260408601526060850152608084015260a0830152151560c0820152f35b346107da5760403660031901126107da5761107d611f96565b611085611fac565b9060018060a01b038091166000526012602052604060002091166000526020526020604060002054604051908152f35b346107da5760003660031901126107da57602060ff600554166040519015158152f35b346107da5760403660031901126107da576110f1611f96565b602480356110fd61298a565b60018060a01b038084169283600052602091600c835260406000209033906002830154160361138e578054801561134a5742101561130657600601805460ff81166112b657856000526000845284604060002054106112615760ff1916600117905561116833613229565b61117185613229565b831561124b573315611235575061118661298a565b82600052600081526040600020549382851061120457507f55608e3380952b490f6dc0b1b0bcf7a16177fe10590cf1599b7a84f430b70e3790828585600052600083520360406000205533600052604060002083815401905560405183815284600080516020613483833981519152833393a36040519283523392a3005b60405163391434e360e21b81526001600160a01b039190911660048201526024810185905260448101839052606490fd5b60405163ec442f0560e01b815260006004820152fd5b604051634b637e8f60e11b815260006004820152fd5b60405162461bcd60e51b8152600481018590526028818501527f526576657273616c3a20496e73756666696369656e7420726563697069656e746044820152672062616c616e636560c01b6064820152608490fd5b60405162461bcd60e51b8152600481018590526023818501527f526576657273616c3a205472616e7366657220616c72656164792072657665726044820152621cd95960ea1b6064820152608490fd5b60405162461bcd60e51b815260048101849052601a818401527f526576657273616c3a2048616c664c69666520657870697265640000000000006044820152606490fd5b60405162461bcd60e51b815260048101859052601c818501527f526576657273616c3a204e6f20616374697665207472616e73666572000000006044820152606490fd5b60405162461bcd60e51b8152600481018490526019818401527f526576657273616c3a2053656e646572206d69736d61746368000000000000006044820152606490fd5b346107da5760203660031901126107da576004356113ee611ff7565b801561144557600854811061140c57806009558060075411610d7d57005b60405162461bcd60e51b81526020600482015260116024820152704d61782062656c6f77206d696e696d756d60781b6044820152606490fd5b60405162461bcd60e51b81526020600482015260146024820152734d6178206d75737420626520706f73697469766560601b6044820152606490fd5b346107da576020806003193601126107da5761149b611f96565b906114a461298a565b6001600160a01b039182166000818152600c83526040902080549193909180156116865760ff6006840154166116415742106115fe578282859260057f23bd7f8191a147e373def338d5a76dce96b4d2f7d15a43eca83e3ee6e7506143969501548061154a575b50505050600052600c815260006006604082208281558260018201558260028201558260038201558260048201558260058201550155604051428152a2005b8060031c1561150b5760041c90811561150b5760028493018181541660005260108452604060002061157d84825461230c565b905581815416600052601084524260016040600020015554166040518281527ffdfa38dc30c58b0662200654ef296c1527abbf34b03b2f908af130d2a35db878948591a2836000526010825260406000206115d982825461230c565b9055836000526010825242600160406000200155604051908152a2828185808061150b565b6064836040519062461bcd60e51b825280600483015260248201527f4578706972793a2048616c664c696665206e6f742065787069726564207965746044820152fd5b60405162461bcd60e51b815260048101859052601d60248201527f4578706972793a205472616e73666572207761732072657665727365640000006044820152606490fd5b60405162461bcd60e51b815260048101859052601f60248201527f4578706972793a204e6f20616374697665207472616e736665722064617461006044820152606490fd5b346107da576116d936611fc2565b916116e2611ff7565b6001600160a01b03908116916116f983151561339e565b16916117068315156133ea565b61171283831415613436565b80156117e5578160005260209060128252604060002084600052825260406000205480821161178a5790611768817f59ee8f52c52e61b33b5c6a4f2311c6855f389b6d4667bc980aaa3eb4fa8d7b7f94936122f0565b84600052601283526040600020866000528352604060002055604051908152a3005b60405162461bcd60e51b815260048101849052602d60248201527f416d6f756e7420746f20636c6561722065786365656473206f75747374616e6460448201526c696e67206c696162696c69747960981b6064820152608490fd5b606460405162461bcd60e51b815260206004820152602060248201527f416d6f756e7420746f20636c656172206d75737420626520706f7369746976656044820152fd5b346107da5760003660031901126107da576020600754604051908152f35b346107da5760203660031901126107da5761098e60043561186661298a565b6118718115156132a4565b336132f0565b346107da5760403660031901126107da57611890611f96565b60243561189b61298a565b3360009081527f3195c024b2ddd6d9b8f6c836aa52f67fe69376c8903d009b80229b3ce4425f5160209081526040909120547f9f2df0fed2c77648de5860a4cc508cd0818c85b8b8a1ab4ceeef8d981c8956a69060ff16156119f357506001600160a01b0383169283156119ae578215611969579061195e8261193f857fbf67ec129007be07f346d9d2933215293a6612ce7ff17d6b479a5a5cae72890c956131bc565b3360005260118352604060002061195786825461230c565b905561325e565b6040519283523392a3005b60405162461bcd60e51b815260048101839052601c60248201527f4d696e7420616d6f756e74206d75737420626520706f736974697665000000006044820152606490fd5b60405162461bcd60e51b815260048101839052601860248201527f4d696e7420746f20746865207a65726f206164647265737300000000000000006044820152606490fd5b6044906040519063e2517d3f60e01b82523360048301526024820152fd5b346107da5760003660031901126107da57611a2a612053565b60055460ff811615611a695760ff19166005557f5db9ee0a495bf2e6ff9c91a7834c1ba4fdd244a5e8aa4e537bd38aeae4b073aa6020604051338152a1005b604051638dfc202b60e01b8152600490fd5b346107da5760203660031901126107da576001600160a01b03611a9c611f96565b16600052600f602052608060406000208054906001810154906003600282015491015491604051938452602084015260408301526060820152f35b346107da5760403660031901126107da57611af0611fac565b336001600160a01b03821603611b0c5761098e90600435612155565b60405163334bd91960e11b8152600490fd5b346107da5760003660031901126107da57602060405160128152f35b346107da5760403660031901126107da5761098e600435611b59611fac565b90806000526006602052611b746001604060002001546120af565b6120d5565b346107da5760003660031901126107da5760206040517f3c11d16cbaffd01df69ce1c404f6340ee057498f5f00246190ea54220576a8488152f35b346107da5760203660031901126107da5760043560005260066020526020600160406000200154604051908152f35b346107da57610a84611bf436611fc2565b91611c0083338361220a565b6001600160a01b038216600052600f602052612319565b346107da5760003660031901126107da576020600254604051908152f35b346107da5760203660031901126107da57600435611c51611ff7565b6008548110611c9d576009548111611c6857600755005b60405162461bcd60e51b815260206004820152600d60248201526c41626f7665206d6178696d756d60981b6044820152606490fd5b60405162461bcd60e51b815260206004820152600d60248201526c42656c6f77206d696e696d756d60981b6044820152606490fd5b346107da5760203660031901126107da576001600160a01b03611cf3611f96565b1660005260106020526040806000206001815491015482519182526020820152f35b346107da5760403660031901126107da57611d2e611f96565b602435903315611db4576001600160a01b0316908115611d9b57336000526001602052604060002082600052602052806040600020556040519081527f8c5be1e5ebec7d5bd14f71427d1e84f3dd0314c0f7b2291e5b200ac8c7c3b92560203392a3602060405160018152f35b604051634a1406b160e11b815260006004820152602490fd5b60405163e602df0560e01b815260006004820152602490fd5b346107da5760203660031901126107da576001600160a01b03611dee611f96565b16600052600d60205260606040600020805490600260018201549101549060405192835260208301526040820152f35b346107da5760003660031901126107da57604051600090600354600181811c90808316928315611ed2575b6020938484108114610b9057838652908115610b705750600114611e7757610b1184610b05818803826121e8565b600360009081529294507fc2575a0e9e593c00f959f8c92f12db2869c3395a3b0502d05e2516446f71f85b5b828410611ebf5750505081610b1193610b059282010193610af5565b8054858501870152928501928101611ea3565b91607f1691611e49565b346107da5760003660031901126107da576020600a54604051908152f35b346107da5760203660031901126107da576004359063ffffffff60e01b82168092036107da57602091637965db0b60e01b8114908115611f3c575b5015158152f35b6301ffc9a760e01b14905083611f35565b6020808252825181830181905290939260005b828110611f8257505060409293506000838284010152601f8019910116010190565b818101860151848201604001528501611f60565b600435906001600160a01b03821682036107da57565b602435906001600160a01b03821682036107da57565b60609060031901126107da576001600160a01b039060043582811681036107da579160243590811681036107da579060443590565b3360009081527f0c3bb05773fb95f6688e1e7d9c896674dccd66884026cf30a3d5e3a9bfecd81160205260409020547fa49807205ce4d355092ef5a8a18f56e8913cf4a201fbe287825b095693c217759060ff16156119f35750565b3360009081527fe09f975e15f8f53f24cbbc282b13c40b84df485fcdb8d3997fa103dc5a4ef84160205260409020547f65d7a28e3265b37a6474929f336521b332c1681b933f6cb9f3376673440d862a9060ff16156119f35750565b80600052600660205260406000203360005260205260ff60406000205416156119f35750565b906000918083526006602052604083209160018060a01b03169182845260205260ff604084205416156000146121505780835260066020526040832082845260205260408320600160ff198254161790557f2f8788117e7eff1d82e926ec794901d17c78024a50270940304540a733656f0d339380a4600190565b505090565b906000918083526006602052604083209160018060a01b03169182845260205260ff604084205416600014612150578083526006602052604083208284526020526040832060ff1981541690557ff6391f5c32d9c69d2a47ea670b442974b53935d1edc7fd64eb21e047a839171b339380a4600190565b6040810190811067ffffffffffffffff8211176107c457604052565b90601f8019910116810190811067ffffffffffffffff8211176107c457604052565b9160018060a01b038093169160009383855260016020526040938486209183169182875260205284862054926000198410612249575b50505050505050565b8484106122ad5750801561229557811561227d57855260016020528385209085526020520391205538808080808080612240565b8451634a1406b160e11b815260048101879052602490fd5b845163e602df0560e01b815260048101879052602490fd5b8551637dc7a0d960e11b81526001600160a01b039190911660048201526024810184905260448101859052606490fd5b8181029291811591840414171561063a57565b9190820391821161063a57565b600019811461063a5760010190565b9190820180921161063a57565b916001600160a01b038216156129455780156128ee576001600160a01b0383166000908152600c602052604090208054421090816128d3575b506128695761237461236e82848661236983612a72565b612de2565b84613067565b5090816103e882026103e7198382040161063a576127109004809111612861575b82151580612852575b80612842575b61281a575b50808211612812575b6123bc82826122f0565b926123c561298a565b6001600160a01b0385166127a3576123df8460025461230c565b6002555b6001600160a01b0381811660008181526020818152604091829020805489019055905187815291928816916000805160206134838339815191529190a382612793575b6001600160a01b038581166000908152600e602090815260408083209385168352929052208054612456906122fd565b90556007546001600160a01b038681166000908152600e602090815260408083209386168352929052205480158015612751575b50506001600160a01b0386166000908152600d60205260409020600181015490811590811580612747575b6126d7575b505050600854908181106000146126bb5750925b6124d8844261230c565b9260018060a01b038316600052600c6020526003604060002001549460018601861161063a576040519460208601956001600160601b0319808b60601b1688528660601b1660348201528360488201526048815267ffffffffffffffff96816080810110886080840111176107c4576080820160405281519020966080820161016083011090610160830111176107c4577f98bc3fe7d138931a49691b623c256b8812f2a3d7f9b25ba7098c82538977a5d09760409760069361016084018a52608084015260a0830194855260c083019160018060a01b038d168352600160e085019101815261010084019182526101208401928884526101408501966000885260018060a01b038b16600052600c60205260808c6000209601518655516001860155600285019060018060a01b039051166001600160601b0360a01b825416179055516003840155516004830155516005820155019051151560ff80198354169116179055600d60205260018460002061266a6002820193845480151590816126a6575b50612697575b825461230c565b81550161267781546122fd565b9055429055825194855260208501526001600160a01b03908116941692a3565b60008355600084840155612663565b6126b19150426122f0565b600a54103861265d565b9390506009548085116126cf575b506124ce565b9350386126c9565b54906127315704600a810290808204600a149015171561063a578311612700575b3880806124ba565b8060011b8181046002148215171561063a576001600160ff1b0382168214612729575b506126f8565b905038612723565b634e487b7160e01b600052601260045260246000fd5b50805415156124b5565b600a8202918204600a14171561063a57605a81111561278e5750605a5b606403906064821161063a57606491612786916122dd565b04388061248a565b61276e565b61279e8382876130da565b612426565b6001600160a01b0385166000908152602081905260409020548481106127e257849060018060a01b0387166000526000602052036040600020556123e3565b60405163391434e360e21b81526001600160a01b0387166004820152602481019190915260448101859052606490fd5b9050806123b2565b6509184e72a0009081111580612838575b156123a9579150386123a9565b508181111561282b565b506509184e72a0008210156123a4565b506509184e72a000831061239e565b915081612395565b608460405162461bcd60e51b815260206004820152604060248201527f43616e6e6f74207472616e7366657220647572696e672048616c664c6966652060448201527f706572696f6420657863657074206261636b20746f206f726967696e61746f726064820152fd5b600201546001600160a01b0384811691161415905038612352565b60405162461bcd60e51b815260206004820152602960248201527f5472616e7366657220616d6f756e74206d7573742062652067726561746572206044820152687468616e207a65726f60b81b6064820152608490fd5b60405162461bcd60e51b815260206004820152601860248201527f5472616e7366657220746f207a65726f206164647265737300000000000000006044820152606490fd5b60ff6005541661299657565b60405163d93c066560e01b8152600490fd5b8051156129b55760200190565b634e487b7160e01b600052603260045260246000fd5b8051600110156129b55760400190565b8051600210156129b55760600190565b8051600310156129b55760800190565b8051600410156129b55760a00190565b8051600510156129b55760c00190565b8051600610156129b55760e00190565b8051600710156129b5576101000190565b8051600810156129b5576101200190565b8051600910156129b5576101400190565b80518210156129b55760209160051b010190565b8015612ddc5760006040805192610160840184811067ffffffffffffffff821117612dc8578252600a8452825b6101408110612daa5750815191612ab5836121cc565b662386f26fc100008352602092633b9aca0084820152612ad4866129a8565b52612ade856129a8565b508051612aea816121cc565b67016345785d8a000081526305f5e10084820152612b07866129cb565b52612b11856129cb565b50805190612b1e826121cc565b670de0b6b3a7640000825262989680918285820152612b3c876129db565b52612b46866129db565b508051612b52816121cc565b678ac7230489e800008152620f424085820152612b6e876129eb565b52612b78866129eb565b508051612b84816121cc565b68056bc75e2d631000008152620186a085820152612ba1876129fb565b52612bab866129fb565b508051612bb7816121cc565b683635c9adc5dea00000815261271085820152612bd387612a0b565b52612bdd86612a0b565b508051612be9816121cc565b69021e19e0c9bab240000081526103e885820152612c0687612a1b565b52612c1086612a1b565b508051612c1c816121cc565b69152d02c7e14af68000008152606485820152612c3887612a2b565b52612c4286612a2b565b508051612c4e816121cc565b69d3c21bcecceda10000008152600a85820152612c6a87612a3c565b52612c7486612a3c565b505194612c80866121cc565b6000198087526001968786820152612c9783612a4d565b52612ca182612a4d565b5085875b612cb5575b505050505050905090565b8251811015612d1457612cc88184612a5e565b515186612cd58386612a5e565b510151600083612d79575060005b600090808911612d41575b5080151580612d38575b612d19575b50508510612d1457612d0e906122fd565b87612ca5565b612caa565b612d29612d30939a9288926122dd565b049061230c565b963880612cfd565b50811515612cf8565b9050828810612d6a5780831115612d6257612d5c90836122f0565b38612cee565b506000612d5c565b612d7490886122f0565b612d5c565b84840190848211612d965750612d8f9086612a5e565b5151612ce3565b634e487b7160e01b81526011600452602490fd5b6020908351612db8816121cc565b8436823782828801015201612a9f565b634e487b7160e01b84526041600452602484fd5b50600090565b91908215612e6d57612df6612dfc91612f32565b91612f32565b80821115612e655750915b61271092600084821115612e5d575061270f19810190811161063a57905b8115612e56578391612e39612e3f92612e76565b906122dd565b04820180831161063a57612e52916122dd565b0490565b5050905090565b905090612e25565b905091612e07565b50505050600090565b8015612ddc57670de0b6b3a76400006001918291825b612ea8575b50509050612710808211612ea3575090565b905090565b80821180612f27575b15612f2257600a92838202918015908084048614821715612f045785840414159081612f19575b50612efd57838102938185041481151715612f04576127108411612efd575083612e8c565b9250612e91565b60246000634e487b7160e01b81526011600452fd5b90501538612ed8565b612e91565b506127108310612eb1565b6001600160a01b03166000908152600f602052604081206002810154919291612710908015159081613050575b50613047575b60018201548015159081613030575b5061300f575b81546103e890818102918183041490151715612ffb57600391612faa9161c3509081811115612fdf57509061230c565b9101546101f490818102918183041490151715612fe757612fdc9293506161a890818111600014612fdf57509061230c565b90565b90509061230c565b634e487b7160e01b84526011600452602484fd5b634e487b7160e01b85526011600452602485fd5b612710810180911115612f7a57634e487b7160e01b84526011600452602484fd5b62278d00915061304090426122f0565b1038612f74565b50613a98612f65565b62093a80915061306090426122f0565b1038612f5f565b6001600160a01b031660009081526010602052604090208054919291801580156130d2575b6130cb578381106130b157506130a38382546122f0565b815560014291015560009190565b92836130bc916122f0565b90600081556001429101559190565b5050600090565b50831561308c565b9180156131b757613100928160011c93826130fb869460021c9485926122f0565b6122f0565b938061318e575b5081613151575b505081613119575050565b60018060a01b03169081600052601060205261313b604060002091825461230c565b9055600052601060205242600160406000200155565b60018060a01b031690816000526010602052613173604060002091825461230c565b9055600052601060205242600160406000200155388061310e565b600b546001600160a01b031690816131a7575b50613107565b6131b0916131bc565b38806131a1565b505050565b6001600160a01b03169081156132105760008051602061348383398151915260206000926131e861298a565b6131f48160025461230c565b60025584845283825260408420818154019055604051908152a3565b60405163ec442f0560e01b815260006004820152602490fd5b6132328161325e565b6001600160a01b03166000908152600f602052604090208054613254906122fd565b8155600142910155565b6001600160a01b03168015158061328b575b6132775750565b600052600f60205242600260406000200155565b5080600052600f60205260026040600020015415613270565b156132ab57565b60405162461bcd60e51b815260206004820152601c60248201527f4275726e20616d6f756e74206d75737420626520706f736974697665000000006044820152606490fd5b906001600160a01b0382169081156133855761330a61298a565b60009282845283602052604084205490828210613353575081600080516020613483833981519152926020928587528684520360408620558060025403600255604051908152a3565b60405163391434e360e21b81526001600160a01b03919091166004820152602481019190915260448101829052606490fd5b604051634b637e8f60e11b815260006004820152602490fd5b156133a557565b60405162461bcd60e51b815260206004820152601d60248201527f446562746f722063616e6e6f74206265207a65726f20616464726573730000006044820152606490fd5b156133f157565b60405162461bcd60e51b815260206004820152601f60248201527f4372656469746f722063616e6e6f74206265207a65726f2061646472657373006044820152606490fd5b1561343d57565b60405162461bcd60e51b815260206004820152601960248201527f446562746f722063616e6e6f74206265206372656469746f72000000000000006044820152606490fdfeddf252ad1be2c89b69c2b068fc378daa952ba7f163c4a11628f55a4df523b3efa2646970667358221220c916a2819f375ab7dda029e09991aea5c75882b463208c3c34dce97d3912b63a64736f6c634300081400332f8788117e7eff1d82e926ec794901d17c78024a50270940304540a733656f0d","opcodes":"PUSH1 0x80 CALLVALUE PUSH3 0x4A6 JUMPI PUSH1 0x1 PUSH1 0x1 PUSH1 0x40 SHL SUB SWAP1 PUSH3 0x3B9B SWAP1 PUSH1 0x1F NOT PUSH1 0x1F CODESIZE DUP5 SWAP1 SUB DUP2 DUP2 ADD DUP4 AND DUP5 ADD SWAP1 DUP7 DUP3 GT DUP6 DUP4 LT OR PUSH3 0x3A8 JUMPI DUP1 DUP6 SWAP2 PUSH1 0x40 SWAP8 DUP9 SWAP5 DUP6 MSTORE DUP4 CODECOPY DUP2 ADD SUB SLT PUSH3 0x4A6 JUMPI PUSH3 0x52 DUP4 PUSH3 0x4CB JUMP JUMPDEST SWAP1 PUSH3 0x62 PUSH1 0x20 DUP1 SWAP6 ADD PUSH3 0x4CB JUMP JUMPDEST SWAP3 PUSH3 0x6D PUSH3 0x4AB JUMP JUMPDEST SWAP7 PUSH1 0xD DUP9 MSTORE PUSH13 0x2A199029BA30B13632B1B7B4B7 PUSH1 0x99 SHL DUP7 DUP10 ADD MSTORE PUSH3 0x91 PUSH3 0x4AB JUMP JUMPDEST SWAP8 PUSH1 0x2 DUP10 MSTORE PUSH2 0x5433 PUSH1 0xF0 SHL DUP8 DUP11 ADD MSTORE DUP1 MLOAD SWAP1 DUP3 DUP3 GT PUSH3 0x3A8 JUMPI PUSH1 0x3 SWAP2 DUP3 SLOAD PUSH1 0x1 SWAP3 DUP4 DUP3 DUP2 SHR SWAP3 AND DUP1 ISZERO PUSH3 0x49B JUMPI JUMPDEST DUP12 DUP4 LT EQ PUSH3 0x485 JUMPI DUP2 DUP9 DUP5 SWAP4 GT PUSH3 0x42F JUMPI JUMPDEST POP DUP11 SWAP1 DUP9 DUP4 GT PUSH1 0x1 EQ PUSH3 0x3CA JUMPI PUSH1 0x0 SWAP3 PUSH3 0x3BE JUMPI JUMPDEST POP POP PUSH1 0x0 NOT DUP3 DUP6 SHL SHR NOT AND SWAP1 DUP3 SHL OR DUP3 SSTORE JUMPDEST DUP10 MLOAD SWAP3 DUP4 GT PUSH3 0x3A8 JUMPI PUSH1 0x4 SWAP10 DUP11 SLOAD DUP3 DUP2 DUP2 SHR SWAP2 AND DUP1 ISZERO PUSH3 0x39D JUMPI JUMPDEST DUP11 DUP3 LT EQ PUSH3 0x388 JUMPI DUP7 DUP2 GT PUSH3 0x33D JUMPI JUMPDEST POP DUP9 SWAP1 DUP7 DUP6 GT PUSH1 0x1 EQ PUSH3 0x2D4 JUMPI DUP5 SWAP6 POP SWAP1 DUP5 SWAP3 SWAP2 PUSH1 0x0 SWAP6 PUSH3 0x2C8 JUMPI JUMPDEST POP POP SHL SWAP3 PUSH1 0x0 NOT SWAP2 SHL SHR NOT AND OR DUP7 SSTORE JUMPDEST PUSH2 0xE10 PUSH1 0x7 SSTORE PUSH2 0x258 PUSH1 0x8 SSTORE PUSH3 0x15180 PUSH1 0x9 SSTORE PUSH3 0x278D00 PUSH1 0xA SSTORE PUSH1 0x1 PUSH1 0x1 PUSH1 0xA0 SHL SUB SWAP3 DUP4 AND SWAP1 DUP2 ISZERO PUSH3 0x287 JUMPI POP PUSH1 0xB DUP1 SLOAD PUSH1 0x1 PUSH1 0x1 PUSH1 0xA0 SHL SUB NOT AND SWAP2 SWAP1 SWAP2 OR SWAP1 SSTORE PUSH3 0x1A8 DUP2 PUSH3 0x4E0 JUMP JUMPDEST POP PUSH3 0x1B4 DUP2 PUSH3 0x561 JUMP JUMPDEST POP PUSH3 0x1C0 DUP2 PUSH3 0x604 JUMP JUMPDEST POP AND DUP1 ISZERO PUSH3 0x270 JUMPI PUSH1 0xFF PUSH1 0x5 SLOAD AND PUSH3 0x261 JUMPI PUSH1 0x2 SLOAD PUSH10 0xD3C21BCECCEDA1000000 SWAP5 DUP6 DUP3 ADD DUP1 SWAP3 GT PUSH3 0x24C JUMPI POP PUSH1 0x0 PUSH32 0xDDF252AD1BE2C89B69C2B068FC378DAA952BA7F163C4A11628F55A4DF523B3EF DUP5 PUSH1 0xF SWAP7 SWAP8 DUP6 SWAP5 PUSH1 0x2 SSTORE DUP5 DUP5 MSTORE DUP4 DUP3 MSTORE DUP9 DUP5 KECCAK256 DUP2 DUP2 SLOAD ADD SWAP1 SSTORE DUP9 MLOAD SWAP1 DUP2 MSTORE LOG3 PUSH1 0x0 MSTORE MSTORE TIMESTAMP PUSH1 0x2 DUP3 PUSH1 0x0 KECCAK256 ADD SSTORE MLOAD PUSH2 0x34D8 SWAP1 DUP2 PUSH3 0x6A3 DUP3 CODECOPY RETURN JUMPDEST PUSH1 0x11 SWAP1 PUSH4 0x4E487B71 PUSH1 0xE0 SHL PUSH1 0x0 MSTORE MSTORE PUSH1 0x24 PUSH1 0x0 REVERT JUMPDEST POP POP MLOAD PUSH4 0xD93C0665 PUSH1 0xE0 SHL DUP2 MSTORE REVERT JUMPDEST DUP3 MLOAD PUSH4 0xEC442F05 PUSH1 0xE0 SHL DUP2 MSTORE PUSH1 0x0 DUP2 DUP7 ADD MSTORE PUSH1 0x24 SWAP1 REVERT JUMPDEST DUP7 PUSH1 0x64 SWAP2 DUP7 DUP9 MLOAD SWAP3 PUSH3 0x461BCD PUSH1 0xE5 SHL DUP5 MSTORE DUP4 ADD MSTORE PUSH1 0x24 DUP3 ADD MSTORE PUSH32 0x547265617375727920616464726573732063616E6E6F74206265207A65726F00 PUSH1 0x44 DUP3 ADD MSTORE REVERT JUMPDEST ADD MLOAD SWAP4 POP CODESIZE DUP1 PUSH3 0x14B JUMP JUMPDEST SWAP3 SWAP2 SWAP5 DUP5 AND SWAP3 DUP12 PUSH1 0x0 MSTORE DUP5 DUP11 PUSH1 0x0 KECCAK256 SWAP5 PUSH1 0x0 JUMPDEST DUP13 DUP10 DUP4 DUP4 LT PUSH3 0x325 JUMPI POP POP POP LT PUSH3 0x30A JUMPI JUMPDEST POP POP POP POP DUP2 SHL ADD DUP7 SSTORE PUSH3 0x15B JUMP JUMPDEST ADD MLOAD SWAP1 PUSH1 0xF8 DUP5 PUSH1 0x0 NOT SWAP3 SHL AND SHR NOT AND SWAP1 SSTORE CODESIZE DUP1 DUP1 DUP1 PUSH3 0x2FB JUMP JUMPDEST DUP7 DUP7 ADD MLOAD DUP10 SSTORE SWAP1 SWAP8 ADD SWAP7 SWAP5 DUP6 ADD SWAP5 DUP9 SWAP4 POP ADD PUSH3 0x2E7 JUMP JUMPDEST DUP12 PUSH1 0x0 MSTORE DUP10 PUSH1 0x0 KECCAK256 DUP8 DUP1 DUP8 ADD PUSH1 0x5 SHR DUP3 ADD SWAP3 DUP13 DUP9 LT PUSH3 0x37E JUMPI JUMPDEST ADD PUSH1 0x5 SHR ADD SWAP1 DUP4 SWAP1 JUMPDEST DUP3 DUP2 LT PUSH3 0x371 JUMPI POP POP PUSH3 0x12D JUMP JUMPDEST PUSH1 0x0 DUP2 SSTORE ADD DUP4 SWAP1 PUSH3 0x361 JUMP JUMPDEST SWAP3 POP DUP2 SWAP3 PUSH3 0x358 JUMP JUMPDEST PUSH1 0x22 DUP13 PUSH4 0x4E487B71 PUSH1 0xE0 SHL PUSH1 0x0 MSTORE MSTORE PUSH1 0x24 PUSH1 0x0 REVERT JUMPDEST SWAP1 PUSH1 0x7F AND SWAP1 PUSH3 0x11B JUMP JUMPDEST PUSH4 0x4E487B71 PUSH1 0xE0 SHL PUSH1 0x0 MSTORE PUSH1 0x41 PUSH1 0x4 MSTORE PUSH1 0x24 PUSH1 0x0 REVERT JUMPDEST ADD MLOAD SWAP1 POP CODESIZE DUP1 PUSH3 0xEC JUMP JUMPDEST SWAP1 DUP8 DUP6 SWAP5 AND SWAP2 DUP7 PUSH1 0x0 MSTORE DUP13 PUSH1 0x0 KECCAK256 SWAP3 DUP14 PUSH1 0x0 SWAP1 JUMPDEST DUP3 DUP3 LT PUSH3 0x417 JUMPI POP POP DUP5 GT PUSH3 0x3FE JUMPI JUMPDEST POP POP POP DUP2 SHL ADD DUP3 SSTORE PUSH3 0xFE JUMP JUMPDEST ADD MLOAD PUSH1 0x0 NOT DUP4 DUP8 SHL PUSH1 0xF8 AND SHR NOT AND SWAP1 SSTORE CODESIZE DUP1 DUP1 PUSH3 0x3F0 JUMP JUMPDEST DUP4 DUP6 ADD MLOAD DUP7 SSTORE DUP9 SWAP8 SWAP1 SWAP6 ADD SWAP5 SWAP4 DUP5 ADD SWAP4 ADD DUP15 PUSH3 0x3DE JUMP JUMPDEST SWAP1 SWAP2 POP DUP5 PUSH1 0x0 MSTORE DUP11 PUSH1 0x0 KECCAK256 DUP9 DUP1 DUP6 ADD PUSH1 0x5 SHR DUP3 ADD SWAP3 DUP14 DUP7 LT PUSH3 0x47B JUMPI JUMPDEST SWAP2 DUP7 SWAP2 DUP7 SWAP6 SWAP5 SWAP4 ADD PUSH1 0x5 SHR ADD SWAP2 JUMPDEST DUP3 DUP2 LT PUSH3 0x46B JUMPI POP POP PUSH3 0xD5 JUMP JUMPDEST PUSH1 0x0 DUP2 SSTORE DUP6 SWAP5 POP DUP7 SWAP2 ADD PUSH3 0x45B JUMP JUMPDEST SWAP3 POP DUP2 SWAP3 PUSH3 0x44D JUMP JUMPDEST PUSH4 0x4E487B71 PUSH1 0xE0 SHL PUSH1 0x0 MSTORE PUSH1 0x22 PUSH1 0x4 MSTORE PUSH1 0x24 PUSH1 0x0 REVERT JUMPDEST SWAP2 PUSH1 0x7F AND SWAP2 PUSH3 0xC1 JUMP JUMPDEST PUSH1 0x0 DUP1 REVERT JUMPDEST PUSH1 0x40 DUP1 MLOAD SWAP2 SWAP1 DUP3 ADD PUSH1 0x1 PUSH1 0x1 PUSH1 0x40 SHL SUB DUP2 GT DUP4 DUP3 LT OR PUSH3 0x3A8 JUMPI PUSH1 0x40 MSTORE JUMP JUMPDEST MLOAD SWAP1 PUSH1 0x1 PUSH1 0x1 PUSH1 0xA0 SHL SUB DUP3 AND DUP3 SUB PUSH3 0x4A6 JUMPI JUMP JUMPDEST PUSH1 0x1 PUSH1 0x1 PUSH1 0xA0 SHL SUB AND PUSH1 0x0 DUP2 DUP2 MSTORE PUSH32 0x54CDD369E4E8A8515E52CA72EC816C2101831AD1F18BF44102ED171459C9B4F8 PUSH1 0x20 MSTORE PUSH1 0x40 DUP2 KECCAK256 SLOAD SWAP1 SWAP2 SWAP1 PUSH1 0xFF AND PUSH3 0x55D JUMPI DUP2 DUP1 MSTORE PUSH1 0x6 PUSH1 0x20 MSTORE PUSH1 0x40 DUP3 KECCAK256 DUP2 DUP4 MSTORE PUSH1 0x20 MSTORE PUSH1 0x40 DUP3 KECCAK256 PUSH1 0x1 PUSH1 0xFF NOT DUP3 SLOAD AND OR SWAP1 SSTORE CALLER SWAP2 PUSH1 0x0 DUP1 MLOAD PUSH1 0x20 PUSH3 0x3B7B DUP4 CODECOPY DUP2 MLOAD SWAP2 MSTORE DUP2 DUP1 LOG4 PUSH1 0x1 SWAP1 JUMP JUMPDEST POP SWAP1 JUMP JUMPDEST PUSH1 0x1 PUSH1 0x1 PUSH1 0xA0 SHL SUB AND PUSH1 0x0 DUP2 DUP2 MSTORE PUSH32 0xC3BB05773FB95F6688E1E7D9C896674DCCD66884026CF30A3D5E3A9BFECD811 PUSH1 0x20 MSTORE PUSH1 0x40 DUP2 KECCAK256 SLOAD SWAP1 SWAP2 SWAP1 PUSH32 0xA49807205CE4D355092EF5A8A18F56E8913CF4A201FBE287825B095693C21775 SWAP1 PUSH1 0xFF AND PUSH3 0x5FF JUMPI DUP1 DUP4 MSTORE PUSH1 0x6 PUSH1 0x20 MSTORE PUSH1 0x40 DUP4 KECCAK256 DUP3 DUP5 MSTORE PUSH1 0x20 MSTORE PUSH1 0x40 DUP4 KECCAK256 PUSH1 0x1 PUSH1 0xFF NOT DUP3 SLOAD AND OR SWAP1 SSTORE PUSH1 0x0 DUP1 MLOAD PUSH1 0x20 PUSH3 0x3B7B DUP4 CODECOPY DUP2 MLOAD SWAP2 MSTORE CALLER SWAP4 DUP1 LOG4 PUSH1 0x1 SWAP1 JUMP JUMPDEST POP POP SWAP1 JUMP JUMPDEST PUSH1 0x1 PUSH1 0x1 PUSH1 0xA0 SHL SUB AND PUSH1 0x0 DUP2 DUP2 MSTORE PUSH32 0xE09F975E15F8F53F24CBBC282B13C40B84DF485FCDB8D3997FA103DC5A4EF841 PUSH1 0x20 MSTORE PUSH1 0x40 DUP2 KECCAK256 SLOAD SWAP1 SWAP2 SWAP1 PUSH32 0x65D7A28E3265B37A6474929F336521B332C1681B933F6CB9F3376673440D862A SWAP1 PUSH1 0xFF AND PUSH3 0x5FF JUMPI DUP1 DUP4 MSTORE PUSH1 0x6 PUSH1 0x20 MSTORE PUSH1 0x40 DUP4 KECCAK256 DUP3 DUP5 MSTORE PUSH1 0x20 MSTORE PUSH1 0x40 DUP4 KECCAK256 PUSH1 0x1 PUSH1 0xFF NOT DUP3 SLOAD AND OR SWAP1 SSTORE PUSH1 0x0 DUP1 MLOAD PUSH1 0x20 PUSH3 0x3B7B DUP4 CODECOPY DUP2 MLOAD SWAP2 MSTORE CALLER SWAP4 DUP1 LOG4 PUSH1 0x1 SWAP1 JUMP INVALID PUSH1 0x80 DUP1 PUSH1 0x40 MSTORE PUSH1 0x4 CALLDATASIZE LT ISZERO PUSH2 0x13 JUMPI PUSH1 0x0 DUP1 REVERT JUMPDEST PUSH1 0x0 CALLDATALOAD PUSH1 0xE0 SHR SWAP1 DUP2 PUSH4 0x1FFC9A7 EQ PUSH2 0x1EFA JUMPI POP DUP1 PUSH4 0x3833501 EQ PUSH2 0x1EDC JUMPI DUP1 PUSH4 0x6FDDE03 EQ PUSH2 0x1E1E JUMPI DUP1 PUSH4 0x8D887D0 EQ PUSH2 0x1DCD JUMPI DUP1 PUSH4 0x95EA7B3 EQ PUSH2 0x1D15 JUMPI DUP1 PUSH4 0xC27AB5A EQ PUSH2 0x1CD2 JUMPI DUP1 PUSH4 0xF3F0803 EQ PUSH2 0x1C35 JUMPI DUP1 PUSH4 0x18160DDD EQ PUSH2 0x1C17 JUMPI DUP1 PUSH4 0x23B872DD EQ PUSH2 0x1BE3 JUMPI DUP1 PUSH4 0x248A9CA3 EQ PUSH2 0x1BB4 JUMPI DUP1 PUSH4 0x282C51F3 EQ PUSH2 0x1B79 JUMPI DUP1 PUSH4 0x2F2FF15D EQ PUSH2 0x1B3A JUMPI DUP1 PUSH4 0x313CE567 EQ PUSH2 0x1B1E JUMPI DUP1 PUSH4 0x36568ABE EQ PUSH2 0x1AD7 JUMPI DUP1 PUSH4 0x3D8D1DCE EQ PUSH2 0x1A7B JUMPI DUP1 PUSH4 0x3F4BA83A EQ PUSH2 0x1A11 JUMPI DUP1 PUSH4 0x40C10F19 EQ PUSH2 0x1877 JUMPI DUP1 PUSH4 0x42966C68 EQ PUSH2 0x1847 JUMPI DUP1 PUSH4 0x4C915D18 EQ PUSH2 0x1829 JUMPI DUP1 PUSH4 0x4D8183CC EQ PUSH2 0x16CB JUMPI DUP1 PUSH4 0x508C0634 EQ PUSH2 0x1481 JUMPI DUP1 PUSH4 0x57FE51D2 EQ PUSH2 0x13D2 JUMPI DUP1 PUSH4 0x5A0F385A EQ PUSH2 0x10D8 JUMPI DUP1 PUSH4 0x5C975ABB EQ PUSH2 0x10B5 JUMPI DUP1 PUSH4 0x5ED61097 EQ PUSH2 0x1064 JUMPI DUP1 PUSH4 0x62D3F814 EQ PUSH2 0xFE1 JUMPI DUP1 PUSH4 0x6605BFDA EQ PUSH2 0xF54 JUMPI DUP1 PUSH4 0x6B6EF953 EQ PUSH2 0xF29 JUMPI DUP1 PUSH4 0x6CD9CA14 EQ PUSH2 0xEBD JUMPI DUP1 PUSH4 0x6E2FAE47 EQ PUSH2 0xE6A JUMPI DUP1 PUSH4 0x70A08231 EQ PUSH2 0xE30 JUMPI DUP1 PUSH4 0x75B238FC EQ PUSH2 0xDF5 JUMPI DUP1 PUSH4 0x76223A27 EQ PUSH2 0xD43 JUMPI DUP1 PUSH4 0x79CC6790 EQ PUSH2 0xD00 JUMPI DUP1 PUSH4 0x800753CF EQ PUSH2 0xCE2 JUMPI DUP1 PUSH4 0x8456CB59 EQ PUSH2 0xC88 JUMPI DUP1 PUSH4 0x8FFA15D4 EQ PUSH2 0xC37 JUMPI DUP1 PUSH4 0x905B7FCB EQ PUSH2 0xBFD JUMPI DUP1 PUSH4 0x91D14854 EQ PUSH2 0xBB0 JUMPI DUP1 PUSH4 0x95D89B41 EQ PUSH2 0xAAB JUMPI DUP1 PUSH4 0xA217FDDF EQ PUSH2 0xA8F JUMPI DUP1 PUSH4 0xA9059CBB EQ PUSH2 0xA4C JUMPI DUP1 PUSH4 0xB065A8E5 EQ PUSH2 0xA12 JUMPI DUP1 PUSH4 0xC5F956AF EQ PUSH2 0x9E9 JUMPI DUP1 PUSH4 0xC750F203 EQ PUSH2 0x9CB JUMPI DUP1 PUSH4 0xD5391393 EQ PUSH2 0x990 JUMPI DUP1 PUSH4 0xD547741F EQ PUSH2 0x94F JUMPI DUP1 PUSH4 0xDD62ED3E EQ PUSH2 0x8FE JUMPI DUP1 PUSH4 0xDD7FAAB1 EQ PUSH2 0x81A JUMPI DUP1 PUSH4 0xE63AB1E9 EQ PUSH2 0x7DF JUMPI PUSH4 0xE697DA68 EQ PUSH2 0x250 JUMPI PUSH1 0x0 DUP1 REVERT JUMPDEST CALLVALUE PUSH2 0x7DA JUMPI PUSH2 0x25E CALLDATASIZE PUSH2 0x1FC2 JUMP JUMPDEST PUSH1 0x40 MLOAD PUSH2 0x240 SWAP4 SWAP1 SWAP3 DUP5 DUP5 ADD PUSH8 0xFFFFFFFFFFFFFFFF DUP2 GT DUP6 DUP3 LT OR PUSH2 0x7C4 JUMPI PUSH1 0x40 MSTORE PUSH1 0x0 DUP5 MSTORE PUSH1 0x0 PUSH1 0x20 DUP6 ADD MSTORE PUSH1 0x0 PUSH1 0x40 DUP6 ADD MSTORE PUSH1 0x0 PUSH1 0x60 DUP6 ADD MSTORE PUSH1 0x0 PUSH1 0x80 DUP6 ADD MSTORE PUSH1 0x0 PUSH1 0xA0 DUP6 ADD MSTORE PUSH1 0x0 PUSH1 0xC0 DUP6 ADD MSTORE PUSH1 0x0 PUSH1 0xE0 DUP6 ADD MSTORE PUSH1 0x0 PUSH2 0x100 DUP6 ADD MSTORE PUSH1 0x0 PUSH2 0x120 DUP6 ADD MSTORE PUSH1 0x0 PUSH2 0x140 DUP6 ADD MSTORE PUSH1 0x0 PUSH2 0x160 DUP6 ADD MSTORE PUSH1 0x0 PUSH2 0x180 DUP6 ADD MSTORE PUSH1 0x0 PUSH2 0x1A0 DUP6 ADD MSTORE PUSH1 0x0 PUSH2 0x1C0 DUP6 ADD MSTORE PUSH1 0x0 PUSH2 0x1E0 DUP6 ADD MSTORE PUSH1 0x0 PUSH2 0x200 DUP6 ADD MSTORE PUSH1 0x0 PUSH2 0x220 DUP6 ADD MSTORE PUSH1 0x1 DUP1 PUSH1 0xA0 SHL SUB DUP2 AND ISZERO PUSH2 0x774 JUMPI DUP3 ISZERO PUSH2 0x713 JUMPI PUSH2 0x341 SWAP1 DUP4 DUP6 MSTORE PUSH2 0x329 DUP5 PUSH2 0x2A72 JUMP JUMPDEST PUSH1 0x20 DUP7 ADD MSTORE PUSH2 0x337 DUP4 PUSH2 0x2F32 JUMP JUMPDEST PUSH1 0x40 DUP7 ADD MSTORE PUSH2 0x2F32 JUMP JUMPDEST DUP1 PUSH1 0x60 DUP6 ADD MSTORE PUSH1 0x40 DUP5 ADD MLOAD SWAP1 DUP1 DUP3 GT PUSH1 0x0 EQ PUSH2 0x70C JUMPI POP JUMPDEST DUP1 PUSH1 0x80 DUP6 ADD MSTORE PUSH2 0x2710 DUP2 GT PUSH1 0x0 EQ PUSH2 0x704 JUMPI DUP1 PUSH2 0x270F NOT DUP2 ADD GT PUSH2 0x63A JUMPI PUSH2 0x270F NOT ADD JUMPDEST DUP1 ISZERO DUP1 ISZERO PUSH2 0x6F8 JUMPI JUMPDEST ISZERO PUSH2 0x6A1 JUMPI POP PUSH1 0x0 PUSH1 0xA0 DUP5 ADD MSTORE PUSH1 0x0 PUSH1 0xC0 DUP5 ADD MSTORE PUSH2 0x2710 PUSH1 0xE0 DUP5 ADD MSTORE PUSH1 0x20 DUP4 ADD MLOAD PUSH2 0x100 DUP5 ADD MSTORE JUMPDEST PUSH1 0x1 PUSH1 0x1 PUSH1 0xA0 SHL SUB AND PUSH1 0x0 SWAP1 DUP2 MSTORE PUSH1 0x10 PUSH1 0x20 MSTORE PUSH1 0x40 SWAP1 KECCAK256 SLOAD PUSH2 0x120 DUP4 ADD DUP2 SWAP1 MSTORE DUP1 ISZERO DUP1 ISZERO PUSH2 0x694 JUMPI JUMPDEST ISZERO PUSH2 0x650 JUMPI POP PUSH1 0x0 PUSH2 0x140 DUP4 ADD MSTORE PUSH2 0x100 DUP3 ADD MLOAD PUSH2 0x160 DUP4 ADD MSTORE JUMPDEST PUSH2 0x160 DUP3 ADD MLOAD PUSH2 0x200 DUP4 ADD MSTORE PUSH2 0x3E8 DUP2 DUP2 DUP2 MUL DIV DUP2 SUB PUSH2 0x63A JUMPI PUSH2 0x2710 SWAP1 DUP3 MUL DIV DUP1 PUSH2 0x180 DUP5 ADD MSTORE PUSH2 0x200 DUP4 ADD MLOAD GT PUSH1 0x0 EQ PUSH2 0x62D JUMPI PUSH2 0x180 DUP3 ADD MLOAD PUSH2 0x200 DUP4 ADD MSTORE PUSH1 0x1 PUSH2 0x1C0 DUP4 ADD MSTORE JUMPDEST PUSH6 0x9184E72A000 DUP1 PUSH2 0x1A0 DUP5 ADD MSTORE PUSH2 0x200 DUP4 ADD MLOAD SWAP1 DUP2 ISZERO ISZERO SWAP2 DUP3 PUSH2 0x622 JUMPI JUMPDEST POP DUP2 PUSH2 0x617 JUMPI JUMPDEST POP ISZERO PUSH2 0x5FF JUMPI PUSH2 0x1A0 DUP3 ADD MLOAD DUP2 PUSH2 0x180 DUP5 ADD MLOAD DUP3 GT ISZERO SWAP2 DUP3 PUSH2 0x60C JUMPI JUMPDEST POP POP ISZERO PUSH2 0x5FF JUMPI PUSH2 0x1A0 DUP3 ADD MLOAD DUP1 PUSH2 0x200 DUP5 ADD MSTORE PUSH1 0x1 PUSH2 0x1E0 DUP5 ADD MSTORE PUSH2 0x180 DUP4 ADD MLOAD GT ISZERO PUSH2 0x1C0 DUP4 ADD MSTORE JUMPDEST DUP1 PUSH2 0x200 DUP4 ADD MLOAD GT PUSH2 0x5A9 JUMPI JUMPDEST PUSH2 0x200 DUP3 ADD MLOAD DUP1 DUP3 GT ISZERO PUSH2 0x5A0 JUMPI PUSH2 0x4CF SWAP2 PUSH2 0x22F0 JUMP JUMPDEST PUSH2 0x220 DUP3 ADD MSTORE PUSH2 0x220 PUSH1 0x40 MLOAD SWAP2 DUP1 MLOAD DUP4 MSTORE PUSH1 0x20 DUP2 ADD MLOAD PUSH1 0x20 DUP5 ADD MSTORE PUSH1 0x40 DUP2 ADD MLOAD PUSH1 0x40 DUP5 ADD MSTORE PUSH1 0x60 DUP2 ADD MLOAD PUSH1 0x60 DUP5 ADD MSTORE PUSH1 0x80 DUP2 ADD MLOAD PUSH1 0x80 DUP5 ADD MSTORE PUSH1 0xA0 DUP2 ADD MLOAD PUSH1 0xA0 DUP5 ADD MSTORE PUSH1 0xC0 DUP2 ADD MLOAD PUSH1 0xC0 DUP5 ADD MSTORE PUSH1 0xE0 DUP2 ADD MLOAD PUSH1 0xE0 DUP5 ADD MSTORE PUSH2 0x100 DUP2 ADD MLOAD PUSH2 0x100 DUP5 ADD MSTORE PUSH2 0x120 DUP2 ADD MLOAD PUSH2 0x120 DUP5 ADD MSTORE PUSH2 0x140 DUP2 ADD MLOAD PUSH2 0x140 DUP5 ADD MSTORE PUSH2 0x160 DUP2 ADD MLOAD PUSH2 0x160 DUP5 ADD MSTORE PUSH2 0x180 DUP2 ADD MLOAD PUSH2 0x180 DUP5 ADD MSTORE PUSH2 0x1A0 DUP2 ADD MLOAD PUSH2 0x1A0 DUP5 ADD MSTORE PUSH2 0x1C0 DUP2 ADD MLOAD ISZERO ISZERO PUSH2 0x1C0 DUP5 ADD MSTORE PUSH2 0x1E0 DUP2 ADD MLOAD ISZERO ISZERO PUSH2 0x1E0 DUP5 ADD MSTORE PUSH2 0x200 DUP2 ADD MLOAD PUSH2 0x200 DUP5 ADD MSTORE ADD MLOAD PUSH2 0x220 DUP3 ADD MSTORE RETURN JUMPDEST POP POP PUSH1 0x0 PUSH2 0x4CF JUMP JUMPDEST DUP1 PUSH2 0x200 DUP4 ADD MSTORE PUSH2 0x180 DUP3 ADD MLOAD DUP2 DUP2 DUP2 EQ SWAP2 DUP3 PUSH2 0x5F5 JUMPI JUMPDEST POP POP ISZERO ISZERO PUSH2 0x1C0 DUP4 ADD MSTORE PUSH2 0x1A0 DUP3 ADD MLOAD DUP2 DUP2 DUP2 EQ SWAP2 DUP3 PUSH2 0x5EB JUMPI JUMPDEST POP POP ISZERO ISZERO PUSH2 0x1E0 DUP4 ADD MSTORE PUSH2 0x4B8 JUMP JUMPDEST EQ SWAP1 POP DUP2 CODESIZE PUSH2 0x5DC JUMP JUMPDEST EQ SWAP1 POP DUP2 CODESIZE PUSH2 0x5C1 JUMP JUMPDEST PUSH1 0x0 PUSH2 0x1E0 DUP4 ADD MSTORE PUSH2 0x4AB JUMP JUMPDEST GT ISZERO SWAP1 POP DUP2 CODESIZE PUSH2 0x480 JUMP JUMPDEST SWAP1 POP DUP2 LT ISZERO CODESIZE PUSH2 0x463 JUMP JUMPDEST DUP2 SWAP3 POP LT SWAP1 CODESIZE PUSH2 0x45C JUMP JUMPDEST PUSH1 0x0 PUSH2 0x1C0 DUP4 ADD MSTORE PUSH2 0x43D JUMP JUMPDEST PUSH4 0x4E487B71 PUSH1 0xE0 SHL PUSH1 0x0 MSTORE PUSH1 0x11 PUSH1 0x4 MSTORE PUSH1 0x24 PUSH1 0x0 REVERT JUMPDEST PUSH2 0x100 DUP4 ADD MLOAD SWAP1 DUP2 DUP2 LT PUSH2 0x679 JUMPI POP POP PUSH2 0x100 DUP3 ADD MLOAD PUSH2 0x140 DUP4 ADD MSTORE PUSH1 0x0 PUSH2 0x160 DUP4 ADD MSTORE PUSH2 0x3F2 JUMP JUMPDEST PUSH2 0x689 SWAP2 DUP2 PUSH2 0x140 DUP7 ADD MSTORE PUSH2 0x22F0 JUMP JUMPDEST PUSH2 0x160 DUP4 ADD MSTORE PUSH2 0x3F2 JUMP JUMPDEST POP PUSH2 0x100 DUP4 ADD MLOAD ISZERO PUSH2 0x3D7 JUMP JUMPDEST PUSH2 0x6BD PUSH2 0x2710 SWAP2 PUSH2 0x6B1 DUP6 PUSH2 0x2E76 JUMP JUMPDEST SWAP1 DUP2 PUSH1 0xA0 DUP9 ADD MSTORE PUSH2 0x22DD JUMP JUMPDEST DIV DUP1 PUSH1 0xC0 DUP6 ADD MSTORE DUP1 PUSH2 0x2710 ADD PUSH2 0x2710 GT PUSH2 0x63A JUMPI PUSH2 0x6EC DUP2 PUSH2 0x2710 SWAP3 DUP4 ADD PUSH1 0xE0 DUP8 ADD MSTORE DUP3 ADD PUSH1 0x20 DUP7 ADD MLOAD PUSH2 0x22DD JUMP JUMPDEST DIV PUSH2 0x100 DUP5 ADD MSTORE PUSH2 0x3AE JUMP JUMPDEST POP PUSH1 0x20 DUP5 ADD MLOAD ISZERO PUSH2 0x386 JUMP JUMPDEST POP PUSH1 0x0 PUSH2 0x37D JUMP JUMPDEST SWAP1 POP PUSH2 0x359 JUMP JUMPDEST PUSH1 0x40 MLOAD PUSH3 0x461BCD PUSH1 0xE5 SHL DUP2 MSTORE PUSH1 0x20 PUSH1 0x4 DUP3 ADD MSTORE PUSH1 0x33 PUSH1 0x24 DUP3 ADD MSTORE PUSH32 0x457374696D6174653A205472616E7366657220616D6F756E74206D7573742062 PUSH1 0x44 DUP3 ADD MSTORE PUSH19 0x652067726561746572207468616E207A65726F PUSH1 0x68 SHL PUSH1 0x64 DUP3 ADD MSTORE PUSH1 0x84 SWAP1 REVERT JUMPDEST PUSH1 0x40 MLOAD PUSH3 0x461BCD PUSH1 0xE5 SHL DUP2 MSTORE PUSH1 0x20 PUSH1 0x4 DUP3 ADD MSTORE PUSH1 0x22 PUSH1 0x24 DUP3 ADD MSTORE PUSH32 0x457374696D6174653A205472616E7366657220746F207A65726F206164647265 PUSH1 0x44 DUP3 ADD MSTORE PUSH2 0x7373 PUSH1 0xF0 SHL PUSH1 0x64 DUP3 ADD MSTORE PUSH1 0x84 SWAP1 REVERT JUMPDEST PUSH4 0x4E487B71 PUSH1 0xE0 SHL PUSH1 0x0 MSTORE PUSH1 0x41 PUSH1 0x4 MSTORE PUSH1 0x24 PUSH1 0x0 REVERT JUMPDEST PUSH1 0x0 DUP1 REVERT JUMPDEST CALLVALUE PUSH2 0x7DA JUMPI PUSH1 0x0 CALLDATASIZE PUSH1 0x3 NOT ADD SLT PUSH2 0x7DA JUMPI PUSH1 0x20 PUSH1 0x40 MLOAD PUSH32 0x65D7A28E3265B37A6474929F336521B332C1681B933F6CB9F3376673440D862A DUP2 MSTORE RETURN JUMPDEST CALLVALUE PUSH2 0x7DA JUMPI PUSH2 0x828 CALLDATASIZE PUSH2 0x1FC2 JUMP JUMPDEST SWAP2 PUSH2 0x831 PUSH2 0x1FF7 JUMP JUMPDEST PUSH1 0x1 PUSH1 0x1 PUSH1 0xA0 SHL SUB SWAP1 DUP2 AND SWAP2 PUSH2 0x848 DUP4 ISZERO ISZERO PUSH2 0x339E JUMP JUMPDEST AND SWAP2 PUSH2 0x855 DUP4 ISZERO ISZERO PUSH2 0x33EA JUMP JUMPDEST PUSH2 0x861 DUP4 DUP4 EQ ISZERO PUSH2 0x3436 JUMP JUMPDEST DUP1 ISZERO PUSH2 0x8B9 JUMPI PUSH1 0x20 PUSH32 0xBD91B9538487013E1F78426333A3445BDFCDECE5D02E402F33F9E598122919F5 SWAP2 DUP4 PUSH1 0x0 MSTORE PUSH1 0x12 DUP3 MSTORE PUSH1 0x40 PUSH1 0x0 KECCAK256 DUP6 PUSH1 0x0 MSTORE DUP3 MSTORE PUSH1 0x40 PUSH1 0x0 KECCAK256 PUSH2 0x8AE DUP3 DUP3 SLOAD PUSH2 0x230C JUMP JUMPDEST SWAP1 SSTORE PUSH1 0x40 MLOAD SWAP1 DUP2 MSTORE LOG3 STOP JUMPDEST PUSH1 0x40 MLOAD PUSH3 0x461BCD PUSH1 0xE5 SHL DUP2 MSTORE PUSH1 0x20 PUSH1 0x4 DUP3 ADD MSTORE PUSH1 0x17 PUSH1 0x24 DUP3 ADD MSTORE PUSH32 0x416D6F756E74206D75737420626520706F736974697665000000000000000000 PUSH1 0x44 DUP3 ADD MSTORE PUSH1 0x64 SWAP1 REVERT JUMPDEST CALLVALUE PUSH2 0x7DA JUMPI PUSH1 0x40 CALLDATASIZE PUSH1 0x3 NOT ADD SLT PUSH2 0x7DA JUMPI PUSH2 0x917 PUSH2 0x1F96 JUMP JUMPDEST PUSH2 0x91F PUSH2 0x1FAC JUMP JUMPDEST SWAP1 PUSH1 0x1 DUP1 PUSH1 0xA0 SHL SUB DUP1 SWAP2 AND PUSH1 0x0 MSTORE PUSH1 0x1 PUSH1 0x20 MSTORE PUSH1 0x40 PUSH1 0x0 KECCAK256 SWAP2 AND PUSH1 0x0 MSTORE PUSH1 0x20 MSTORE PUSH1 0x20 PUSH1 0x40 PUSH1 0x0 KECCAK256 SLOAD PUSH1 0x40 MLOAD SWAP1 DUP2 MSTORE RETURN JUMPDEST CALLVALUE PUSH2 0x7DA JUMPI PUSH1 0x40 CALLDATASIZE PUSH1 0x3 NOT ADD SLT PUSH2 0x7DA JUMPI PUSH2 0x98E PUSH1 0x4 CALLDATALOAD PUSH2 0x96E PUSH2 0x1FAC JUMP JUMPDEST SWAP1 DUP1 PUSH1 0x0 MSTORE PUSH1 0x6 PUSH1 0x20 MSTORE PUSH2 0x989 PUSH1 0x1 PUSH1 0x40 PUSH1 0x0 KECCAK256 ADD SLOAD PUSH2 0x20AF JUMP JUMPDEST PUSH2 0x2155 JUMP JUMPDEST STOP JUMPDEST CALLVALUE PUSH2 0x7DA JUMPI PUSH1 0x0 CALLDATASIZE PUSH1 0x3 NOT ADD SLT PUSH2 0x7DA JUMPI PUSH1 0x20 PUSH1 0x40 MLOAD PUSH32 0x9F2DF0FED2C77648DE5860A4CC508CD0818C85B8B8A1AB4CEEEF8D981C8956A6 DUP2 MSTORE RETURN JUMPDEST CALLVALUE PUSH2 0x7DA JUMPI PUSH1 0x0 CALLDATASIZE PUSH1 0x3 NOT ADD SLT PUSH2 0x7DA JUMPI PUSH1 0x20 PUSH1 0x9 SLOAD PUSH1 0x40 MLOAD SWAP1 DUP2 MSTORE RETURN JUMPDEST CALLVALUE PUSH2 0x7DA JUMPI PUSH1 0x0 CALLDATASIZE PUSH1 0x3 NOT ADD SLT PUSH2 0x7DA JUMPI PUSH1 0xB SLOAD PUSH1 0x40 MLOAD PUSH1 0x1 PUSH1 0x1 PUSH1 0xA0 SHL SUB SWAP1 SWAP2 AND DUP2 MSTORE PUSH1 0x20 SWAP1 RETURN JUMPDEST CALLVALUE PUSH2 0x7DA JUMPI PUSH1 0x20 CALLDATASIZE PUSH1 0x3 NOT ADD SLT PUSH2 0x7DA JUMPI PUSH1 0x1 PUSH1 0x1 PUSH1 0xA0 SHL SUB PUSH2 0xA33 PUSH2 0x1F96 JUMP JUMPDEST AND PUSH1 0x0 MSTORE PUSH1 0x10 PUSH1 0x20 MSTORE PUSH1 0x20 PUSH1 0x40 PUSH1 0x0 KECCAK256 SLOAD PUSH1 0x40 MLOAD SWAP1 DUP2 MSTORE RETURN JUMPDEST CALLVALUE PUSH2 0x7DA JUMPI PUSH1 0x40 CALLDATASIZE PUSH1 0x3 NOT ADD SLT PUSH2 0x7DA JUMPI PUSH2 0xA84 PUSH2 0xA68 PUSH2 0x1F96 JUMP JUMPDEST PUSH1 0x1 PUSH1 0x1 PUSH1 0xA0 SHL SUB DUP2 AND PUSH1 0x0 MSTORE PUSH1 0xF PUSH1 0x20 MSTORE PUSH1 0x24 CALLDATALOAD SWAP1 CALLER PUSH2 0x2319 JUMP JUMPDEST PUSH1 0x20 PUSH1 0x40 MLOAD PUSH1 0x1 DUP2 MSTORE RETURN JUMPDEST CALLVALUE PUSH2 0x7DA JUMPI PUSH1 0x0 CALLDATASIZE PUSH1 0x3 NOT ADD SLT PUSH2 0x7DA JUMPI PUSH1 0x20 PUSH1 0x40 MLOAD PUSH1 0x0 DUP2 MSTORE RETURN JUMPDEST CALLVALUE PUSH2 0x7DA JUMPI PUSH1 0x0 CALLDATASIZE PUSH1 0x3 NOT ADD SLT PUSH2 0x7DA JUMPI PUSH1 0x40 MLOAD PUSH1 0x0 SWAP1 PUSH1 0x4 SLOAD PUSH1 0x1 DUP2 DUP2 SHR SWAP1 DUP1 DUP4 AND SWAP3 DUP4 ISZERO PUSH2 0xBA6 JUMPI JUMPDEST PUSH1 0x20 SWAP4 DUP5 DUP5 LT DUP2 EQ PUSH2 0xB90 JUMPI DUP4 DUP7 MSTORE SWAP1 DUP2 ISZERO PUSH2 0xB70 JUMPI POP PUSH1 0x1 EQ PUSH2 0xB15 JUMPI JUMPDEST PUSH2 0xB11 DUP5 PUSH2 0xB05 DUP2 DUP9 SUB DUP3 PUSH2 0x21E8 JUMP JUMPDEST PUSH1 0x40 MLOAD SWAP2 DUP3 SWAP2 DUP3 PUSH2 0x1F4D JUMP JUMPDEST SUB SWAP1 RETURN JUMPDEST PUSH1 0x4 PUSH1 0x0 SWAP1 DUP2 MSTORE SWAP3 SWAP5 POP PUSH32 0x8A35ACFBC15FF81A39AE7D344FD709F28E8600B4AA8C65C6B64BFE7FE36BD19B JUMPDEST DUP3 DUP5 LT PUSH2 0xB5D JUMPI POP POP POP DUP2 PUSH2 0xB11 SWAP4 PUSH2 0xB05 SWAP3 DUP3 ADD ADD SWAP4 PUSH2 0xAF5 JUMP JUMPDEST DUP1 SLOAD DUP6 DUP6 ADD DUP8 ADD MSTORE SWAP3 DUP6 ADD SWAP3 DUP2 ADD PUSH2 0xB41 JUMP JUMPDEST PUSH1 0xFF NOT AND DUP6 DUP6 ADD MSTORE POP POP ISZERO ISZERO PUSH1 0x5 SHL DUP3 ADD ADD SWAP2 POP PUSH2 0xB05 DUP2 PUSH2 0xB11 PUSH2 0xAF5 JUMP JUMPDEST PUSH4 0x4E487B71 PUSH1 0xE0 SHL PUSH1 0x0 MSTORE PUSH1 0x22 PUSH1 0x4 MSTORE PUSH1 0x24 PUSH1 0x0 REVERT JUMPDEST SWAP2 PUSH1 0x7F AND SWAP2 PUSH2 0xAD6 JUMP JUMPDEST CALLVALUE PUSH2 0x7DA JUMPI PUSH1 0x40 CALLDATASIZE PUSH1 0x3 NOT ADD SLT PUSH2 0x7DA JUMPI PUSH2 0xBC9 PUSH2 0x1FAC JUMP JUMPDEST PUSH1 0x4 CALLDATALOAD PUSH1 0x0 MSTORE PUSH1 0x6 PUSH1 0x20 MSTORE PUSH1 0x40 PUSH1 0x0 KECCAK256 SWAP1 PUSH1 0x1 DUP1 PUSH1 0xA0 SHL SUB AND PUSH1 0x0 MSTORE PUSH1 0x20 MSTORE PUSH1 0x20 PUSH1 0xFF PUSH1 0x40 PUSH1 0x0 KECCAK256 SLOAD AND PUSH1 0x40 MLOAD SWAP1 ISZERO ISZERO DUP2 MSTORE RETURN JUMPDEST CALLVALUE PUSH2 0x7DA JUMPI PUSH1 0x20 CALLDATASIZE PUSH1 0x3 NOT ADD SLT PUSH2 0x7DA JUMPI PUSH1 0x1 PUSH1 0x1 PUSH1 0xA0 SHL SUB PUSH2 0xC1E PUSH2 0x1F96 JUMP JUMPDEST AND PUSH1 0x0 MSTORE PUSH1 0x11 PUSH1 0x20 MSTORE PUSH1 0x20 PUSH1 0x40 PUSH1 0x0 KECCAK256 SLOAD PUSH1 0x40 MLOAD SWAP1 DUP2 MSTORE RETURN JUMPDEST CALLVALUE PUSH2 0x7DA JUMPI PUSH1 0x40 CALLDATASIZE PUSH1 0x3 NOT ADD SLT PUSH2 0x7DA JUMPI PUSH2 0xC50 PUSH2 0x1F96 JUMP JUMPDEST PUSH2 0xC58 PUSH2 0x1FAC JUMP JUMPDEST SWAP1 PUSH1 0x1 DUP1 PUSH1 0xA0 SHL SUB DUP1 SWAP2 AND PUSH1 0x0 MSTORE PUSH1 0xE PUSH1 0x20 MSTORE PUSH1 0x40 PUSH1 0x0 KECCAK256 SWAP2 AND PUSH1 0x0 MSTORE PUSH1 0x20 MSTORE PUSH1 0x20 PUSH1 0x40 PUSH1 0x0 KECCAK256 SLOAD PUSH1 0x40 MLOAD SWAP1 DUP2 MSTORE RETURN JUMPDEST CALLVALUE PUSH2 0x7DA JUMPI PUSH1 0x0 CALLDATASIZE PUSH1 0x3 NOT ADD SLT PUSH2 0x7DA JUMPI PUSH2 0xCA1 PUSH2 0x2053 JUMP JUMPDEST PUSH2 0xCA9 PUSH2 0x298A JUMP JUMPDEST PUSH1 0x1 PUSH1 0xFF NOT PUSH1 0x5 SLOAD AND OR PUSH1 0x5 SSTORE PUSH32 0x62E78CEA01BEE320CD4E420270B5EA74000D11B0C9F74754EBDBFC544B05A258 PUSH1 0x20 PUSH1 0x40 MLOAD CALLER DUP2 MSTORE LOG1 STOP JUMPDEST CALLVALUE PUSH2 0x7DA JUMPI PUSH1 0x0 CALLDATASIZE PUSH1 0x3 NOT ADD SLT PUSH2 0x7DA JUMPI PUSH1 0x20 PUSH1 0x8 SLOAD PUSH1 0x40 MLOAD SWAP1 DUP2 MSTORE RETURN JUMPDEST CALLVALUE PUSH2 0x7DA JUMPI PUSH1 0x40 CALLDATASIZE PUSH1 0x3 NOT ADD SLT PUSH2 0x7DA JUMPI PUSH2 0x98E PUSH2 0xD1C PUSH2 0x1F96 JUMP JUMPDEST PUSH1 0x24 CALLDATALOAD SWAP1 PUSH2 0xD28 PUSH2 0x298A JUMP JUMPDEST PUSH2 0xD33 DUP3 ISZERO ISZERO PUSH2 0x32A4 JUMP JUMPDEST PUSH2 0xD3E DUP3 CALLER DUP4 PUSH2 0x220A JUMP JUMPDEST PUSH2 0x32F0 JUMP JUMPDEST CALLVALUE PUSH2 0x7DA JUMPI PUSH1 0x20 CALLDATASIZE PUSH1 0x3 NOT ADD SLT PUSH2 0x7DA JUMPI PUSH1 0x4 CALLDATALOAD PUSH2 0xD5F PUSH2 0x1FF7 JUMP JUMPDEST DUP1 ISZERO PUSH2 0xDB9 JUMPI PUSH1 0x9 SLOAD DUP2 GT PUSH2 0xD82 JUMPI DUP1 PUSH1 0x8 SSTORE DUP1 PUSH1 0x7 SLOAD LT PUSH2 0xD7D JUMPI STOP JUMPDEST PUSH1 0x7 SSTORE STOP JUMPDEST PUSH1 0x40 MLOAD PUSH3 0x461BCD PUSH1 0xE5 SHL DUP2 MSTORE PUSH1 0x20 PUSH1 0x4 DUP3 ADD MSTORE PUSH1 0xF PUSH1 0x24 DUP3 ADD MSTORE PUSH15 0x9AD2DC40CAF0C6CACAC8E640DAC2F PUSH1 0x8B SHL PUSH1 0x44 DUP3 ADD MSTORE PUSH1 0x64 SWAP1 REVERT JUMPDEST PUSH1 0x40 MLOAD PUSH3 0x461BCD PUSH1 0xE5 SHL DUP2 MSTORE PUSH1 0x20 PUSH1 0x4 DUP3 ADD MSTORE PUSH1 0x14 PUSH1 0x24 DUP3 ADD MSTORE PUSH20 0x4D696E206D75737420626520706F736974697665 PUSH1 0x60 SHL PUSH1 0x44 DUP3 ADD MSTORE PUSH1 0x64 SWAP1 REVERT JUMPDEST CALLVALUE PUSH2 0x7DA JUMPI PUSH1 0x0 CALLDATASIZE PUSH1 0x3 NOT ADD SLT PUSH2 0x7DA JUMPI PUSH1 0x20 PUSH1 0x40 MLOAD PUSH32 0xA49807205CE4D355092EF5A8A18F56E8913CF4A201FBE287825B095693C21775 DUP2 MSTORE RETURN JUMPDEST CALLVALUE PUSH2 0x7DA JUMPI PUSH1 0x20 CALLDATASIZE PUSH1 0x3 NOT ADD SLT PUSH2 0x7DA JUMPI PUSH1 0x1 PUSH1 0x1 PUSH1 0xA0 SHL SUB PUSH2 0xE51 PUSH2 0x1F96 JUMP JUMPDEST AND PUSH1 0x0 MSTORE PUSH1 0x0 PUSH1 0x20 MSTORE PUSH1 0x20 PUSH1 0x40 PUSH1 0x0 KECCAK256 SLOAD PUSH1 0x40 MLOAD SWAP1 DUP2 MSTORE RETURN JUMPDEST CALLVALUE PUSH2 0x7DA JUMPI PUSH1 0x20 CALLDATASIZE PUSH1 0x3 NOT ADD SLT PUSH2 0x7DA JUMPI PUSH2 0xE83 PUSH2 0x1F96 JUMP JUMPDEST PUSH2 0xE8B PUSH2 0x1FF7 JUMP JUMPDEST PUSH2 0xE94 DUP2 PUSH2 0x325E JUMP JUMPDEST PUSH1 0x1 PUSH1 0x1 PUSH1 0xA0 SHL SUB AND PUSH1 0x0 SWAP1 DUP2 MSTORE PUSH1 0xF PUSH1 0x20 MSTORE PUSH1 0x40 SWAP1 KECCAK256 PUSH1 0x3 ADD DUP1 SLOAD PUSH2 0xEB9 SWAP1 PUSH2 0x22FD JUMP JUMPDEST SWAP1 SSTORE STOP JUMPDEST CALLVALUE PUSH2 0x7DA JUMPI PUSH1 0x20 CALLDATASIZE PUSH1 0x3 NOT ADD SLT PUSH2 0x7DA JUMPI PUSH1 0x4 CALLDATALOAD PUSH2 0xED9 PUSH2 0x1FF7 JUMP JUMPDEST DUP1 ISZERO PUSH2 0xEE4 JUMPI PUSH1 0xA SSTORE STOP JUMPDEST PUSH1 0x40 MLOAD PUSH3 0x461BCD PUSH1 0xE5 SHL DUP2 MSTORE PUSH1 0x20 PUSH1 0x4 DUP3 ADD MSTORE PUSH1 0x17 PUSH1 0x24 DUP3 ADD MSTORE PUSH32 0x506572696F64206D75737420626520706F736974697665000000000000000000 PUSH1 0x44 DUP3 ADD MSTORE PUSH1 0x64 SWAP1 REVERT JUMPDEST CALLVALUE PUSH2 0x7DA JUMPI PUSH1 0x20 CALLDATASIZE PUSH1 0x3 NOT ADD SLT PUSH2 0x7DA JUMPI PUSH1 0x20 PUSH2 0xF4C PUSH2 0xF47 PUSH2 0x1F96 JUMP JUMPDEST PUSH2 0x2F32 JUMP JUMPDEST PUSH1 0x40 MLOAD SWAP1 DUP2 MSTORE RETURN JUMPDEST CALLVALUE PUSH2 0x7DA JUMPI PUSH1 0x20 CALLDATASIZE PUSH1 0x3 NOT ADD SLT PUSH2 0x7DA JUMPI PUSH2 0xF6D PUSH2 0x1F96 JUMP JUMPDEST PUSH2 0xF75 PUSH2 0x1FF7 JUMP JUMPDEST PUSH1 0x1 PUSH1 0x1 PUSH1 0xA0 SHL SUB AND DUP1 ISZERO PUSH2 0xF9C JUMPI PUSH1 0x1 PUSH1 0x1 PUSH1 0x60 SHL SUB PUSH1 0xA0 SHL PUSH1 0xB SLOAD AND OR PUSH1 0xB SSTORE PUSH1 0x0 DUP1 RETURN JUMPDEST PUSH1 0x40 MLOAD PUSH3 0x461BCD PUSH1 0xE5 SHL DUP2 MSTORE PUSH1 0x20 PUSH1 0x4 DUP3 ADD MSTORE PUSH1 0x1F PUSH1 0x24 DUP3 ADD MSTORE PUSH32 0x547265617375727920616464726573732063616E6E6F74206265207A65726F00 PUSH1 0x44 DUP3 ADD MSTORE PUSH1 0x64 SWAP1 REVERT JUMPDEST CALLVALUE PUSH2 0x7DA JUMPI PUSH1 0x20 CALLDATASIZE PUSH1 0x3 NOT ADD SLT PUSH2 0x7DA JUMPI PUSH1 0xE0 PUSH1 0x1 PUSH1 0x1 PUSH1 0xA0 SHL SUB DUP1 PUSH2 0x1005 PUSH2 0x1F96 JUMP JUMPDEST AND PUSH1 0x0 MSTORE PUSH1 0xC PUSH1 0x20 MSTORE PUSH1 0x40 PUSH1 0x0 KECCAK256 SWAP1 DUP2 SLOAD SWAP2 PUSH1 0x1 DUP2 ADD SLOAD SWAP2 PUSH1 0x2 DUP3 ADD SLOAD AND PUSH1 0x3 DUP3 ADD SLOAD PUSH1 0x4 DUP4 ADD SLOAD SWAP2 PUSH1 0xFF PUSH1 0x6 PUSH1 0x5 DUP7 ADD SLOAD SWAP6 ADD SLOAD AND SWAP5 PUSH1 0x40 MLOAD SWAP7 DUP8 MSTORE PUSH1 0x20 DUP8 ADD MSTORE PUSH1 0x40 DUP7 ADD MSTORE PUSH1 0x60 DUP6 ADD MSTORE PUSH1 0x80 DUP5 ADD MSTORE PUSH1 0xA0 DUP4 ADD MSTORE ISZERO ISZERO PUSH1 0xC0 DUP3 ADD MSTORE RETURN JUMPDEST CALLVALUE PUSH2 0x7DA JUMPI PUSH1 0x40 CALLDATASIZE PUSH1 0x3 NOT ADD SLT PUSH2 0x7DA JUMPI PUSH2 0x107D PUSH2 0x1F96 JUMP JUMPDEST PUSH2 0x1085 PUSH2 0x1FAC JUMP JUMPDEST SWAP1 PUSH1 0x1 DUP1 PUSH1 0xA0 SHL SUB DUP1 SWAP2 AND PUSH1 0x0 MSTORE PUSH1 0x12 PUSH1 0x20 MSTORE PUSH1 0x40 PUSH1 0x0 KECCAK256 SWAP2 AND PUSH1 0x0 MSTORE PUSH1 0x20 MSTORE PUSH1 0x20 PUSH1 0x40 PUSH1 0x0 KECCAK256 SLOAD PUSH1 0x40 MLOAD SWAP1 DUP2 MSTORE RETURN JUMPDEST CALLVALUE PUSH2 0x7DA JUMPI PUSH1 0x0 CALLDATASIZE PUSH1 0x3 NOT ADD SLT PUSH2 0x7DA JUMPI PUSH1 0x20 PUSH1 0xFF PUSH1 0x5 SLOAD AND PUSH1 0x40 MLOAD SWAP1 ISZERO ISZERO DUP2 MSTORE RETURN JUMPDEST CALLVALUE PUSH2 0x7DA JUMPI PUSH1 0x40 CALLDATASIZE PUSH1 0x3 NOT ADD SLT PUSH2 0x7DA JUMPI PUSH2 0x10F1 PUSH2 0x1F96 JUMP JUMPDEST PUSH1 0x24 DUP1 CALLDATALOAD PUSH2 0x10FD PUSH2 0x298A JUMP JUMPDEST PUSH1 0x1 DUP1 PUSH1 0xA0 SHL SUB DUP1 DUP5 AND SWAP3 DUP4 PUSH1 0x0 MSTORE PUSH1 0x20 SWAP2 PUSH1 0xC DUP4 MSTORE PUSH1 0x40 PUSH1 0x0 KECCAK256 SWAP1 CALLER SWAP1 PUSH1 0x2 DUP4 ADD SLOAD AND SUB PUSH2 0x138E JUMPI DUP1 SLOAD DUP1 ISZERO PUSH2 0x134A JUMPI TIMESTAMP LT ISZERO PUSH2 0x1306 JUMPI PUSH1 0x6 ADD DUP1 SLOAD PUSH1 0xFF DUP2 AND PUSH2 0x12B6 JUMPI DUP6 PUSH1 0x0 MSTORE PUSH1 0x0 DUP5 MSTORE DUP5 PUSH1 0x40 PUSH1 0x0 KECCAK256 SLOAD LT PUSH2 0x1261 JUMPI PUSH1 0xFF NOT AND PUSH1 0x1 OR SWAP1 SSTORE PUSH2 0x1168 CALLER PUSH2 0x3229 JUMP JUMPDEST PUSH2 0x1171 DUP6 PUSH2 0x3229 JUMP JUMPDEST DUP4 ISZERO PUSH2 0x124B JUMPI CALLER ISZERO PUSH2 0x1235 JUMPI POP PUSH2 0x1186 PUSH2 0x298A JUMP JUMPDEST DUP3 PUSH1 0x0 MSTORE PUSH1 0x0 DUP2 MSTORE PUSH1 0x40 PUSH1 0x0 KECCAK256 SLOAD SWAP4 DUP3 DUP6 LT PUSH2 0x1204 JUMPI POP PUSH32 0x55608E3380952B490F6DC0B1B0BCF7A16177FE10590CF1599B7A84F430B70E37 SWAP1 DUP3 DUP6 DUP6 PUSH1 0x0 MSTORE PUSH1 0x0 DUP4 MSTORE SUB PUSH1 0x40 PUSH1 0x0 KECCAK256 SSTORE CALLER PUSH1 0x0 MSTORE PUSH1 0x40 PUSH1 0x0 KECCAK256 DUP4 DUP2 SLOAD ADD SWAP1 SSTORE PUSH1 0x40 MLOAD DUP4 DUP2 MSTORE DUP5 PUSH1 0x0 DUP1 MLOAD PUSH1 0x20 PUSH2 0x3483 DUP4 CODECOPY DUP2 MLOAD SWAP2 MSTORE DUP4 CALLER SWAP4 LOG3 PUSH1 0x40 MLOAD SWAP3 DUP4 MSTORE CALLER SWAP3 LOG3 STOP JUMPDEST PUSH1 0x40 MLOAD PUSH4 0x391434E3 PUSH1 0xE2 SHL DUP2 MSTORE PUSH1 0x1 PUSH1 0x1 PUSH1 0xA0 SHL SUB SWAP2 SWAP1 SWAP2 AND PUSH1 0x4 DUP3 ADD MSTORE PUSH1 0x24 DUP2 ADD DUP6 SWAP1 MSTORE PUSH1 0x44 DUP2 ADD DUP4 SWAP1 MSTORE PUSH1 0x64 SWAP1 REVERT JUMPDEST PUSH1 0x40 MLOAD PUSH4 0xEC442F05 PUSH1 0xE0 SHL DUP2 MSTORE PUSH1 0x0 PUSH1 0x4 DUP3 ADD MSTORE REVERT JUMPDEST PUSH1 0x40 MLOAD PUSH4 0x4B637E8F PUSH1 0xE1 SHL DUP2 MSTORE PUSH1 0x0 PUSH1 0x4 DUP3 ADD MSTORE REVERT JUMPDEST PUSH1 0x40 MLOAD PUSH3 0x461BCD PUSH1 0xE5 SHL DUP2 MSTORE PUSH1 0x4 DUP2 ADD DUP6 SWAP1 MSTORE PUSH1 0x28 DUP2 DUP6 ADD MSTORE PUSH32 0x526576657273616C3A20496E73756666696369656E7420726563697069656E74 PUSH1 0x44 DUP3 ADD MSTORE PUSH8 0x2062616C616E6365 PUSH1 0xC0 SHL PUSH1 0x64 DUP3 ADD MSTORE PUSH1 0x84 SWAP1 REVERT JUMPDEST PUSH1 0x40 MLOAD PUSH3 0x461BCD PUSH1 0xE5 SHL DUP2 MSTORE PUSH1 0x4 DUP2 ADD DUP6 SWAP1 MSTORE PUSH1 0x23 DUP2 DUP6 ADD MSTORE PUSH32 0x526576657273616C3A205472616E7366657220616C7265616479207265766572 PUSH1 0x44 DUP3 ADD MSTORE PUSH3 0x1CD959 PUSH1 0xEA SHL PUSH1 0x64 DUP3 ADD MSTORE PUSH1 0x84 SWAP1 REVERT JUMPDEST PUSH1 0x40 MLOAD PUSH3 0x461BCD PUSH1 0xE5 SHL DUP2 MSTORE PUSH1 0x4 DUP2 ADD DUP5 SWAP1 MSTORE PUSH1 0x1A DUP2 DUP5 ADD MSTORE PUSH32 0x526576657273616C3A2048616C664C6966652065787069726564000000000000 PUSH1 0x44 DUP3 ADD MSTORE PUSH1 0x64 SWAP1 REVERT JUMPDEST PUSH1 0x40 MLOAD PUSH3 0x461BCD PUSH1 0xE5 SHL DUP2 MSTORE PUSH1 0x4 DUP2 ADD DUP6 SWAP1 MSTORE PUSH1 0x1C DUP2 DUP6 ADD MSTORE PUSH32 0x526576657273616C3A204E6F20616374697665207472616E7366657200000000 PUSH1 0x44 DUP3 ADD MSTORE PUSH1 0x64 SWAP1 REVERT JUMPDEST PUSH1 0x40 MLOAD PUSH3 0x461BCD PUSH1 0xE5 SHL DUP2 MSTORE PUSH1 0x4 DUP2 ADD DUP5 SWAP1 MSTORE PUSH1 0x19 DUP2 DUP5 ADD MSTORE PUSH32 0x526576657273616C3A2053656E646572206D69736D6174636800000000000000 PUSH1 0x44 DUP3 ADD MSTORE PUSH1 0x64 SWAP1 REVERT JUMPDEST CALLVALUE PUSH2 0x7DA JUMPI PUSH1 0x20 CALLDATASIZE PUSH1 0x3 NOT ADD SLT PUSH2 0x7DA JUMPI PUSH1 0x4 CALLDATALOAD PUSH2 0x13EE PUSH2 0x1FF7 JUMP JUMPDEST DUP1 ISZERO PUSH2 0x1445 JUMPI PUSH1 0x8 SLOAD DUP2 LT PUSH2 0x140C JUMPI DUP1 PUSH1 0x9 SSTORE DUP1 PUSH1 0x7 SLOAD GT PUSH2 0xD7D JUMPI STOP JUMPDEST PUSH1 0x40 MLOAD PUSH3 0x461BCD PUSH1 0xE5 SHL DUP2 MSTORE PUSH1 0x20 PUSH1 0x4 DUP3 ADD MSTORE PUSH1 0x11 PUSH1 0x24 DUP3 ADD MSTORE PUSH17 0x4D61782062656C6F77206D696E696D756D PUSH1 0x78 SHL PUSH1 0x44 DUP3 ADD MSTORE PUSH1 0x64 SWAP1 REVERT JUMPDEST PUSH1 0x40 MLOAD PUSH3 0x461BCD PUSH1 0xE5 SHL DUP2 MSTORE PUSH1 0x20 PUSH1 0x4 DUP3 ADD MSTORE PUSH1 0x14 PUSH1 0x24 DUP3 ADD MSTORE PUSH20 0x4D6178206D75737420626520706F736974697665 PUSH1 0x60 SHL PUSH1 0x44 DUP3 ADD MSTORE PUSH1 0x64 SWAP1 REVERT JUMPDEST CALLVALUE PUSH2 0x7DA JUMPI PUSH1 0x20 DUP1 PUSH1 0x3 NOT CALLDATASIZE ADD SLT PUSH2 0x7DA JUMPI PUSH2 0x149B PUSH2 0x1F96 JUMP JUMPDEST SWAP1 PUSH2 0x14A4 PUSH2 0x298A JUMP JUMPDEST PUSH1 0x1 PUSH1 0x1 PUSH1 0xA0 SHL SUB SWAP2 DUP3 AND PUSH1 0x0 DUP2 DUP2 MSTORE PUSH1 0xC DUP4 MSTORE PUSH1 0x40 SWAP1 KECCAK256 DUP1 SLOAD SWAP2 SWAP4 SWAP1 SWAP2 DUP1 ISZERO PUSH2 0x1686 JUMPI PUSH1 0xFF PUSH1 0x6 DUP5 ADD SLOAD AND PUSH2 0x1641 JUMPI TIMESTAMP LT PUSH2 0x15FE JUMPI DUP3 DUP3 DUP6 SWAP3 PUSH1 0x5 PUSH32 0x23BD7F8191A147E373DEF338D5A76DCE96B4D2F7D15A43ECA83E3EE6E7506143 SWAP7 SWAP6 ADD SLOAD DUP1 PUSH2 0x154A JUMPI JUMPDEST POP POP POP POP PUSH1 0x0 MSTORE PUSH1 0xC DUP2 MSTORE PUSH1 0x0 PUSH1 0x6 PUSH1 0x40 DUP3 KECCAK256 DUP3 DUP2 SSTORE DUP3 PUSH1 0x1 DUP3 ADD SSTORE DUP3 PUSH1 0x2 DUP3 ADD SSTORE DUP3 PUSH1 0x3 DUP3 ADD SSTORE DUP3 PUSH1 0x4 DUP3 ADD SSTORE DUP3 PUSH1 0x5 DUP3 ADD SSTORE ADD SSTORE PUSH1 0x40 MLOAD TIMESTAMP DUP2 MSTORE LOG2 STOP JUMPDEST DUP1 PUSH1 0x3 SHR ISZERO PUSH2 0x150B JUMPI PUSH1 0x4 SHR SWAP1 DUP2 ISZERO PUSH2 0x150B JUMPI PUSH1 0x2 DUP5 SWAP4 ADD DUP2 DUP2 SLOAD AND PUSH1 0x0 MSTORE PUSH1 0x10 DUP5 MSTORE PUSH1 0x40 PUSH1 0x0 KECCAK256 PUSH2 0x157D DUP5 DUP3 SLOAD PUSH2 0x230C JUMP JUMPDEST SWAP1 SSTORE DUP2 DUP2 SLOAD AND PUSH1 0x0 MSTORE PUSH1 0x10 DUP5 MSTORE TIMESTAMP PUSH1 0x1 PUSH1 0x40 PUSH1 0x0 KECCAK256 ADD SSTORE SLOAD AND PUSH1 0x40 MLOAD DUP3 DUP2 MSTORE PUSH32 0xFDFA38DC30C58B0662200654EF296C1527ABBF34B03B2F908AF130D2A35DB878 SWAP5 DUP6 SWAP2 LOG2 DUP4 PUSH1 0x0 MSTORE PUSH1 0x10 DUP3 MSTORE PUSH1 0x40 PUSH1 0x0 KECCAK256 PUSH2 0x15D9 DUP3 DUP3 SLOAD PUSH2 0x230C JUMP JUMPDEST SWAP1 SSTORE DUP4 PUSH1 0x0 MSTORE PUSH1 0x10 DUP3 MSTORE TIMESTAMP PUSH1 0x1 PUSH1 0x40 PUSH1 0x0 KECCAK256 ADD SSTORE PUSH1 0x40 MLOAD SWAP1 DUP2 MSTORE LOG2 DUP3 DUP2 DUP6 DUP1 DUP1 PUSH2 0x150B JUMP JUMPDEST PUSH1 0x64 DUP4 PUSH1 0x40 MLOAD SWAP1 PUSH3 0x461BCD PUSH1 0xE5 SHL DUP3 MSTORE DUP1 PUSH1 0x4 DUP4 ADD MSTORE PUSH1 0x24 DUP3 ADD MSTORE PUSH32 0x4578706972793A2048616C664C696665206E6F74206578706972656420796574 PUSH1 0x44 DUP3 ADD MSTORE REVERT JUMPDEST PUSH1 0x40 MLOAD PUSH3 0x461BCD PUSH1 0xE5 SHL DUP2 MSTORE PUSH1 0x4 DUP2 ADD DUP6 SWAP1 MSTORE PUSH1 0x1D PUSH1 0x24 DUP3 ADD MSTORE PUSH32 0x4578706972793A205472616E7366657220776173207265766572736564000000 PUSH1 0x44 DUP3 ADD MSTORE PUSH1 0x64 SWAP1 REVERT JUMPDEST PUSH1 0x40 MLOAD PUSH3 0x461BCD PUSH1 0xE5 SHL DUP2 MSTORE PUSH1 0x4 DUP2 ADD DUP6 SWAP1 MSTORE PUSH1 0x1F PUSH1 0x24 DUP3 ADD MSTORE PUSH32 0x4578706972793A204E6F20616374697665207472616E73666572206461746100 PUSH1 0x44 DUP3 ADD MSTORE PUSH1 0x64 SWAP1 REVERT JUMPDEST CALLVALUE PUSH2 0x7DA JUMPI PUSH2 0x16D9 CALLDATASIZE PUSH2 0x1FC2 JUMP JUMPDEST SWAP2 PUSH2 0x16E2 PUSH2 0x1FF7 JUMP JUMPDEST PUSH1 0x1 PUSH1 0x1 PUSH1 0xA0 SHL SUB SWAP1 DUP2 AND SWAP2 PUSH2 0x16F9 DUP4 ISZERO ISZERO PUSH2 0x339E JUMP JUMPDEST AND SWAP2 PUSH2 0x1706 DUP4 ISZERO ISZERO PUSH2 0x33EA JUMP JUMPDEST PUSH2 0x1712 DUP4 DUP4 EQ ISZERO PUSH2 0x3436 JUMP JUMPDEST DUP1 ISZERO PUSH2 0x17E5 JUMPI DUP2 PUSH1 0x0 MSTORE PUSH1 0x20 SWAP1 PUSH1 0x12 DUP3 MSTORE PUSH1 0x40 PUSH1 0x0 KECCAK256 DUP5 PUSH1 0x0 MSTORE DUP3 MSTORE PUSH1 0x40 PUSH1 0x0 KECCAK256 SLOAD DUP1 DUP3 GT PUSH2 0x178A JUMPI SWAP1 PUSH2 0x1768 DUP2 PUSH32 0x59EE8F52C52E61B33B5C6A4F2311C6855F389B6D4667BC980AAA3EB4FA8D7B7F SWAP5 SWAP4 PUSH2 0x22F0 JUMP JUMPDEST DUP5 PUSH1 0x0 MSTORE PUSH1 0x12 DUP4 MSTORE PUSH1 0x40 PUSH1 0x0 KECCAK256 DUP7 PUSH1 0x0 MSTORE DUP4 MSTORE PUSH1 0x40 PUSH1 0x0 KECCAK256 SSTORE PUSH1 0x40 MLOAD SWAP1 DUP2 MSTORE LOG3 STOP JUMPDEST PUSH1 0x40 MLOAD PUSH3 0x461BCD PUSH1 0xE5 SHL DUP2 MSTORE PUSH1 0x4 DUP2 ADD DUP5 SWAP1 MSTORE PUSH1 0x2D PUSH1 0x24 DUP3 ADD MSTORE PUSH32 0x416D6F756E7420746F20636C6561722065786365656473206F75747374616E64 PUSH1 0x44 DUP3 ADD MSTORE PUSH13 0x696E67206C696162696C697479 PUSH1 0x98 SHL PUSH1 0x64 DUP3 ADD MSTORE PUSH1 0x84 SWAP1 REVERT JUMPDEST PUSH1 0x64 PUSH1 0x40 MLOAD PUSH3 0x461BCD PUSH1 0xE5 SHL DUP2 MSTORE PUSH1 0x20 PUSH1 0x4 DUP3 ADD MSTORE PUSH1 0x20 PUSH1 0x24 DUP3 ADD MSTORE PUSH32 0x416D6F756E7420746F20636C656172206D75737420626520706F736974697665 PUSH1 0x44 DUP3 ADD MSTORE REVERT JUMPDEST CALLVALUE PUSH2 0x7DA JUMPI PUSH1 0x0 CALLDATASIZE PUSH1 0x3 NOT ADD SLT PUSH2 0x7DA JUMPI PUSH1 0x20 PUSH1 0x7 SLOAD PUSH1 0x40 MLOAD SWAP1 DUP2 MSTORE RETURN JUMPDEST CALLVALUE PUSH2 0x7DA JUMPI PUSH1 0x20 CALLDATASIZE PUSH1 0x3 NOT ADD SLT PUSH2 0x7DA JUMPI PUSH2 0x98E PUSH1 0x4 CALLDATALOAD PUSH2 0x1866 PUSH2 0x298A JUMP JUMPDEST PUSH2 0x1871 DUP2 ISZERO ISZERO PUSH2 0x32A4 JUMP JUMPDEST CALLER PUSH2 0x32F0 JUMP JUMPDEST CALLVALUE PUSH2 0x7DA JUMPI PUSH1 0x40 CALLDATASIZE PUSH1 0x3 NOT ADD SLT PUSH2 0x7DA JUMPI PUSH2 0x1890 PUSH2 0x1F96 JUMP JUMPDEST PUSH1 0x24 CALLDATALOAD PUSH2 0x189B PUSH2 0x298A JUMP JUMPDEST CALLER PUSH1 0x0 SWAP1 DUP2 MSTORE PUSH32 0x3195C024B2DDD6D9B8F6C836AA52F67FE69376C8903D009B80229B3CE4425F51 PUSH1 0x20 SWAP1 DUP2 MSTORE PUSH1 0x40 SWAP1 SWAP2 KECCAK256 SLOAD PUSH32 0x9F2DF0FED2C77648DE5860A4CC508CD0818C85B8B8A1AB4CEEEF8D981C8956A6 SWAP1 PUSH1 0xFF AND ISZERO PUSH2 0x19F3 JUMPI POP PUSH1 0x1 PUSH1 0x1 PUSH1 0xA0 SHL SUB DUP4 AND SWAP3 DUP4 ISZERO PUSH2 0x19AE JUMPI DUP3 ISZERO PUSH2 0x1969 JUMPI SWAP1 PUSH2 0x195E DUP3 PUSH2 0x193F DUP6 PUSH32 0xBF67EC129007BE07F346D9D2933215293A6612CE7FF17D6B479A5A5CAE72890C SWAP6 PUSH2 0x31BC JUMP JUMPDEST CALLER PUSH1 0x0 MSTORE PUSH1 0x11 DUP4 MSTORE PUSH1 0x40 PUSH1 0x0 KECCAK256 PUSH2 0x1957 DUP7 DUP3 SLOAD PUSH2 0x230C JUMP JUMPDEST SWAP1 SSTORE PUSH2 0x325E JUMP JUMPDEST PUSH1 0x40 MLOAD SWAP3 DUP4 MSTORE CALLER SWAP3 LOG3 STOP JUMPDEST PUSH1 0x40 MLOAD PUSH3 0x461BCD PUSH1 0xE5 SHL DUP2 MSTORE PUSH1 0x4 DUP2 ADD DUP4 SWAP1 MSTORE PUSH1 0x1C PUSH1 0x24 DUP3 ADD MSTORE PUSH32 0x4D696E7420616D6F756E74206D75737420626520706F73697469766500000000 PUSH1 0x44 DUP3 ADD MSTORE PUSH1 0x64 SWAP1 REVERT JUMPDEST PUSH1 0x40 MLOAD PUSH3 0x461BCD PUSH1 0xE5 SHL DUP2 MSTORE PUSH1 0x4 DUP2 ADD DUP4 SWAP1 MSTORE PUSH1 0x18 PUSH1 0x24 DUP3 ADD MSTORE PUSH32 0x4D696E7420746F20746865207A65726F20616464726573730000000000000000 PUSH1 0x44 DUP3 ADD MSTORE PUSH1 0x64 SWAP1 REVERT JUMPDEST PUSH1 0x44 SWAP1 PUSH1 0x40 MLOAD SWAP1 PUSH4 0xE2517D3F PUSH1 0xE0 SHL DUP3 MSTORE CALLER PUSH1 0x4 DUP4 ADD MSTORE PUSH1 0x24 DUP3 ADD MSTORE REVERT JUMPDEST CALLVALUE PUSH2 0x7DA JUMPI PUSH1 0x0 CALLDATASIZE PUSH1 0x3 NOT ADD SLT PUSH2 0x7DA JUMPI PUSH2 0x1A2A PUSH2 0x2053 JUMP JUMPDEST PUSH1 0x5 SLOAD PUSH1 0xFF DUP2 AND ISZERO PUSH2 0x1A69 JUMPI PUSH1 0xFF NOT AND PUSH1 0x5 SSTORE PUSH32 0x5DB9EE0A495BF2E6FF9C91A7834C1BA4FDD244A5E8AA4E537BD38AEAE4B073AA PUSH1 0x20 PUSH1 0x40 MLOAD CALLER DUP2 MSTORE LOG1 STOP JUMPDEST PUSH1 0x40 MLOAD PUSH4 0x8DFC202B PUSH1 0xE0 SHL DUP2 MSTORE PUSH1 0x4 SWAP1 REVERT JUMPDEST CALLVALUE PUSH2 0x7DA JUMPI PUSH1 0x20 CALLDATASIZE PUSH1 0x3 NOT ADD SLT PUSH2 0x7DA JUMPI PUSH1 0x1 PUSH1 0x1 PUSH1 0xA0 SHL SUB PUSH2 0x1A9C PUSH2 0x1F96 JUMP JUMPDEST AND PUSH1 0x0 MSTORE PUSH1 0xF PUSH1 0x20 MSTORE PUSH1 0x80 PUSH1 0x40 PUSH1 0x0 KECCAK256 DUP1 SLOAD SWAP1 PUSH1 0x1 DUP2 ADD SLOAD SWAP1 PUSH1 0x3 PUSH1 0x2 DUP3 ADD SLOAD SWAP2 ADD SLOAD SWAP2 PUSH1 0x40 MLOAD SWAP4 DUP5 MSTORE PUSH1 0x20 DUP5 ADD MSTORE PUSH1 0x40 DUP4 ADD MSTORE PUSH1 0x60 DUP3 ADD MSTORE RETURN JUMPDEST CALLVALUE PUSH2 0x7DA JUMPI PUSH1 0x40 CALLDATASIZE PUSH1 0x3 NOT ADD SLT PUSH2 0x7DA JUMPI PUSH2 0x1AF0 PUSH2 0x1FAC JUMP JUMPDEST CALLER PUSH1 0x1 PUSH1 0x1 PUSH1 0xA0 SHL SUB DUP3 AND SUB PUSH2 0x1B0C JUMPI PUSH2 0x98E SWAP1 PUSH1 0x4 CALLDATALOAD PUSH2 0x2155 JUMP JUMPDEST PUSH1 0x40 MLOAD PUSH4 0x334BD919 PUSH1 0xE1 SHL DUP2 MSTORE PUSH1 0x4 SWAP1 REVERT JUMPDEST CALLVALUE PUSH2 0x7DA JUMPI PUSH1 0x0 CALLDATASIZE PUSH1 0x3 NOT ADD SLT PUSH2 0x7DA JUMPI PUSH1 0x20 PUSH1 0x40 MLOAD PUSH1 0x12 DUP2 MSTORE RETURN JUMPDEST CALLVALUE PUSH2 0x7DA JUMPI PUSH1 0x40 CALLDATASIZE PUSH1 0x3 NOT ADD SLT PUSH2 0x7DA JUMPI PUSH2 0x98E PUSH1 0x4 CALLDATALOAD PUSH2 0x1B59 PUSH2 0x1FAC JUMP JUMPDEST SWAP1 DUP1 PUSH1 0x0 MSTORE PUSH1 0x6 PUSH1 0x20 MSTORE PUSH2 0x1B74 PUSH1 0x1 PUSH1 0x40 PUSH1 0x0 KECCAK256 ADD SLOAD PUSH2 0x20AF JUMP JUMPDEST PUSH2 0x20D5 JUMP JUMPDEST CALLVALUE PUSH2 0x7DA JUMPI PUSH1 0x0 CALLDATASIZE PUSH1 0x3 NOT ADD SLT PUSH2 0x7DA JUMPI PUSH1 0x20 PUSH1 0x40 MLOAD PUSH32 0x3C11D16CBAFFD01DF69CE1C404F6340EE057498F5F00246190EA54220576A848 DUP2 MSTORE RETURN JUMPDEST CALLVALUE PUSH2 0x7DA JUMPI PUSH1 0x20 CALLDATASIZE PUSH1 0x3 NOT ADD SLT PUSH2 0x7DA JUMPI PUSH1 0x4 CALLDATALOAD PUSH1 0x0 MSTORE PUSH1 0x6 PUSH1 0x20 MSTORE PUSH1 0x20 PUSH1 0x1 PUSH1 0x40 PUSH1 0x0 KECCAK256 ADD SLOAD PUSH1 0x40 MLOAD SWAP1 DUP2 MSTORE RETURN JUMPDEST CALLVALUE PUSH2 0x7DA JUMPI PUSH2 0xA84 PUSH2 0x1BF4 CALLDATASIZE PUSH2 0x1FC2 JUMP JUMPDEST SWAP2 PUSH2 0x1C00 DUP4 CALLER DUP4 PUSH2 0x220A JUMP JUMPDEST PUSH1 0x1 PUSH1 0x1 PUSH1 0xA0 SHL SUB DUP3 AND PUSH1 0x0 MSTORE PUSH1 0xF PUSH1 0x20 MSTORE PUSH2 0x2319 JUMP JUMPDEST CALLVALUE PUSH2 0x7DA JUMPI PUSH1 0x0 CALLDATASIZE PUSH1 0x3 NOT ADD SLT PUSH2 0x7DA JUMPI PUSH1 0x20 PUSH1 0x2 SLOAD PUSH1 0x40 MLOAD SWAP1 DUP2 MSTORE RETURN JUMPDEST CALLVALUE PUSH2 0x7DA JUMPI PUSH1 0x20 CALLDATASIZE PUSH1 0x3 NOT ADD SLT PUSH2 0x7DA JUMPI PUSH1 0x4 CALLDATALOAD PUSH2 0x1C51 PUSH2 0x1FF7 JUMP JUMPDEST PUSH1 0x8 SLOAD DUP2 LT PUSH2 0x1C9D JUMPI PUSH1 0x9 SLOAD DUP2 GT PUSH2 0x1C68 JUMPI PUSH1 0x7 SSTORE STOP JUMPDEST PUSH1 0x40 MLOAD PUSH3 0x461BCD PUSH1 0xE5 SHL DUP2 MSTORE PUSH1 0x20 PUSH1 0x4 DUP3 ADD MSTORE PUSH1 0xD PUSH1 0x24 DUP3 ADD MSTORE PUSH13 0x41626F7665206D6178696D756D PUSH1 0x98 SHL PUSH1 0x44 DUP3 ADD MSTORE PUSH1 0x64 SWAP1 REVERT JUMPDEST PUSH1 0x40 MLOAD PUSH3 0x461BCD PUSH1 0xE5 SHL DUP2 MSTORE PUSH1 0x20 PUSH1 0x4 DUP3 ADD MSTORE PUSH1 0xD PUSH1 0x24 DUP3 ADD MSTORE PUSH13 0x42656C6F77206D696E696D756D PUSH1 0x98 SHL PUSH1 0x44 DUP3 ADD MSTORE PUSH1 0x64 SWAP1 REVERT JUMPDEST CALLVALUE PUSH2 0x7DA JUMPI PUSH1 0x20 CALLDATASIZE PUSH1 0x3 NOT ADD SLT PUSH2 0x7DA JUMPI PUSH1 0x1 PUSH1 0x1 PUSH1 0xA0 SHL SUB PUSH2 0x1CF3 PUSH2 0x1F96 JUMP JUMPDEST AND PUSH1 0x0 MSTORE PUSH1 0x10 PUSH1 0x20 MSTORE PUSH1 0x40 DUP1 PUSH1 0x0 KECCAK256 PUSH1 0x1 DUP2 SLOAD SWAP2 ADD SLOAD DUP3 MLOAD SWAP2 DUP3 MSTORE PUSH1 0x20 DUP3 ADD MSTORE RETURN JUMPDEST CALLVALUE PUSH2 0x7DA JUMPI PUSH1 0x40 CALLDATASIZE PUSH1 0x3 NOT ADD SLT PUSH2 0x7DA JUMPI PUSH2 0x1D2E PUSH2 0x1F96 JUMP JUMPDEST PUSH1 0x24 CALLDATALOAD SWAP1 CALLER ISZERO PUSH2 0x1DB4 JUMPI PUSH1 0x1 PUSH1 0x1 PUSH1 0xA0 SHL SUB AND SWAP1 DUP2 ISZERO PUSH2 0x1D9B JUMPI CALLER PUSH1 0x0 MSTORE PUSH1 0x1 PUSH1 0x20 MSTORE PUSH1 0x40 PUSH1 0x0 KECCAK256 DUP3 PUSH1 0x0 MSTORE PUSH1 0x20 MSTORE DUP1 PUSH1 0x40 PUSH1 0x0 KECCAK256 SSTORE PUSH1 0x40 MLOAD SWAP1 DUP2 MSTORE PUSH32 0x8C5BE1E5EBEC7D5BD14F71427D1E84F3DD0314C0F7B2291E5B200AC8C7C3B925 PUSH1 0x20 CALLER SWAP3 LOG3 PUSH1 0x20 PUSH1 0x40 MLOAD PUSH1 0x1 DUP2 MSTORE RETURN JUMPDEST PUSH1 0x40 MLOAD PUSH4 0x4A1406B1 PUSH1 0xE1 SHL DUP2 MSTORE PUSH1 0x0 PUSH1 0x4 DUP3 ADD MSTORE PUSH1 0x24 SWAP1 REVERT JUMPDEST PUSH1 0x40 MLOAD PUSH4 0xE602DF05 PUSH1 0xE0 SHL DUP2 MSTORE PUSH1 0x0 PUSH1 0x4 DUP3 ADD MSTORE PUSH1 0x24 SWAP1 REVERT JUMPDEST CALLVALUE PUSH2 0x7DA JUMPI PUSH1 0x20 CALLDATASIZE PUSH1 0x3 NOT ADD SLT PUSH2 0x7DA JUMPI PUSH1 0x1 PUSH1 0x1 PUSH1 0xA0 SHL SUB PUSH2 0x1DEE PUSH2 0x1F96 JUMP JUMPDEST AND PUSH1 0x0 MSTORE PUSH1 0xD PUSH1 0x20 MSTORE PUSH1 0x60 PUSH1 0x40 PUSH1 0x0 KECCAK256 DUP1 SLOAD SWAP1 PUSH1 0x2 PUSH1 0x1 DUP3 ADD SLOAD SWAP2 ADD SLOAD SWAP1 PUSH1 0x40 MLOAD SWAP3 DUP4 MSTORE PUSH1 0x20 DUP4 ADD MSTORE PUSH1 0x40 DUP3 ADD MSTORE RETURN JUMPDEST CALLVALUE PUSH2 0x7DA JUMPI PUSH1 0x0 CALLDATASIZE PUSH1 0x3 NOT ADD SLT PUSH2 0x7DA JUMPI PUSH1 0x40 MLOAD PUSH1 0x0 SWAP1 PUSH1 0x3 SLOAD PUSH1 0x1 DUP2 DUP2 SHR SWAP1 DUP1 DUP4 AND SWAP3 DUP4 ISZERO PUSH2 0x1ED2 JUMPI JUMPDEST PUSH1 0x20 SWAP4 DUP5 DUP5 LT DUP2 EQ PUSH2 0xB90 JUMPI DUP4 DUP7 MSTORE SWAP1 DUP2 ISZERO PUSH2 0xB70 JUMPI POP PUSH1 0x1 EQ PUSH2 0x1E77 JUMPI PUSH2 0xB11 DUP5 PUSH2 0xB05 DUP2 DUP9 SUB DUP3 PUSH2 0x21E8 JUMP JUMPDEST PUSH1 0x3 PUSH1 0x0 SWAP1 DUP2 MSTORE SWAP3 SWAP5 POP PUSH32 0xC2575A0E9E593C00F959F8C92F12DB2869C3395A3B0502D05E2516446F71F85B JUMPDEST DUP3 DUP5 LT PUSH2 0x1EBF JUMPI POP POP POP DUP2 PUSH2 0xB11 SWAP4 PUSH2 0xB05 SWAP3 DUP3 ADD ADD SWAP4 PUSH2 0xAF5 JUMP JUMPDEST DUP1 SLOAD DUP6 DUP6 ADD DUP8 ADD MSTORE SWAP3 DUP6 ADD SWAP3 DUP2 ADD PUSH2 0x1EA3 JUMP JUMPDEST SWAP2 PUSH1 0x7F AND SWAP2 PUSH2 0x1E49 JUMP JUMPDEST CALLVALUE PUSH2 0x7DA JUMPI PUSH1 0x0 CALLDATASIZE PUSH1 0x3 NOT ADD SLT PUSH2 0x7DA JUMPI PUSH1 0x20 PUSH1 0xA SLOAD PUSH1 0x40 MLOAD SWAP1 DUP2 MSTORE RETURN JUMPDEST CALLVALUE PUSH2 0x7DA JUMPI PUSH1 0x20 CALLDATASIZE PUSH1 0x3 NOT ADD SLT PUSH2 0x7DA JUMPI PUSH1 0x4 CALLDATALOAD SWAP1 PUSH4 0xFFFFFFFF PUSH1 0xE0 SHL DUP3 AND DUP1 SWAP3 SUB PUSH2 0x7DA JUMPI PUSH1 0x20 SWAP2 PUSH4 0x7965DB0B PUSH1 0xE0 SHL DUP2 EQ SWAP1 DUP2 ISZERO PUSH2 0x1F3C JUMPI JUMPDEST POP ISZERO ISZERO DUP2 MSTORE RETURN JUMPDEST PUSH4 0x1FFC9A7 PUSH1 0xE0 SHL EQ SWAP1 POP DUP4 PUSH2 0x1F35 JUMP JUMPDEST PUSH1 0x20 DUP1 DUP3 MSTORE DUP3 MLOAD DUP2 DUP4 ADD DUP2 SWAP1 MSTORE SWAP1 SWAP4 SWAP3 PUSH1 0x0 JUMPDEST DUP3 DUP2 LT PUSH2 0x1F82 JUMPI POP POP PUSH1 0x40 SWAP3 SWAP4 POP PUSH1 0x0 DUP4 DUP3 DUP5 ADD ADD MSTORE PUSH1 0x1F DUP1 NOT SWAP2 ADD AND ADD ADD SWAP1 JUMP JUMPDEST DUP2 DUP2 ADD DUP7 ADD MLOAD DUP5 DUP3 ADD PUSH1 0x40 ADD MSTORE DUP6 ADD PUSH2 0x1F60 JUMP JUMPDEST PUSH1 0x4 CALLDATALOAD SWAP1 PUSH1 0x1 PUSH1 0x1 PUSH1 0xA0 SHL SUB DUP3 AND DUP3 SUB PUSH2 0x7DA JUMPI JUMP JUMPDEST PUSH1 0x24 CALLDATALOAD SWAP1 PUSH1 0x1 PUSH1 0x1 PUSH1 0xA0 SHL SUB DUP3 AND DUP3 SUB PUSH2 0x7DA JUMPI JUMP JUMPDEST PUSH1 0x60 SWAP1 PUSH1 0x3 NOT ADD SLT PUSH2 0x7DA JUMPI PUSH1 0x1 PUSH1 0x1 PUSH1 0xA0 SHL SUB SWAP1 PUSH1 0x4 CALLDATALOAD DUP3 DUP2 AND DUP2 SUB PUSH2 0x7DA JUMPI SWAP2 PUSH1 0x24 CALLDATALOAD SWAP1 DUP2 AND DUP2 SUB PUSH2 0x7DA JUMPI SWAP1 PUSH1 0x44 CALLDATALOAD SWAP1 JUMP JUMPDEST CALLER PUSH1 0x0 SWAP1 DUP2 MSTORE PUSH32 0xC3BB05773FB95F6688E1E7D9C896674DCCD66884026CF30A3D5E3A9BFECD811 PUSH1 0x20 MSTORE PUSH1 0x40 SWAP1 KECCAK256 SLOAD PUSH32 0xA49807205CE4D355092EF5A8A18F56E8913CF4A201FBE287825B095693C21775 SWAP1 PUSH1 0xFF AND ISZERO PUSH2 0x19F3 JUMPI POP JUMP JUMPDEST CALLER PUSH1 0x0 SWAP1 DUP2 MSTORE PUSH32 0xE09F975E15F8F53F24CBBC282B13C40B84DF485FCDB8D3997FA103DC5A4EF841 PUSH1 0x20 MSTORE PUSH1 0x40 SWAP1 KECCAK256 SLOAD PUSH32 0x65D7A28E3265B37A6474929F336521B332C1681B933F6CB9F3376673440D862A SWAP1 PUSH1 0xFF AND ISZERO PUSH2 0x19F3 JUMPI POP JUMP JUMPDEST DUP1 PUSH1 0x0 MSTORE PUSH1 0x6 PUSH1 0x20 MSTORE PUSH1 0x40 PUSH1 0x0 KECCAK256 CALLER PUSH1 0x0 MSTORE PUSH1 0x20 MSTORE PUSH1 0xFF PUSH1 0x40 PUSH1 0x0 KECCAK256 SLOAD AND ISZERO PUSH2 0x19F3 JUMPI POP JUMP JUMPDEST SWAP1 PUSH1 0x0 SWAP2 DUP1 DUP4 MSTORE PUSH1 0x6 PUSH1 0x20 MSTORE PUSH1 0x40 DUP4 KECCAK256 SWAP2 PUSH1 0x1 DUP1 PUSH1 0xA0 SHL SUB AND SWAP2 DUP3 DUP5 MSTORE PUSH1 0x20 MSTORE PUSH1 0xFF PUSH1 0x40 DUP5 KECCAK256 SLOAD AND ISZERO PUSH1 0x0 EQ PUSH2 0x2150 JUMPI DUP1 DUP4 MSTORE PUSH1 0x6 PUSH1 0x20 MSTORE PUSH1 0x40 DUP4 KECCAK256 DUP3 DUP5 MSTORE PUSH1 0x20 MSTORE PUSH1 0x40 DUP4 KECCAK256 PUSH1 0x1 PUSH1 0xFF NOT DUP3 SLOAD AND OR SWAP1 SSTORE PUSH32 0x2F8788117E7EFF1D82E926EC794901D17C78024A50270940304540A733656F0D CALLER SWAP4 DUP1 LOG4 PUSH1 0x1 SWAP1 JUMP JUMPDEST POP POP SWAP1 JUMP JUMPDEST SWAP1 PUSH1 0x0 SWAP2 DUP1 DUP4 MSTORE PUSH1 0x6 PUSH1 0x20 MSTORE PUSH1 0x40 DUP4 KECCAK256 SWAP2 PUSH1 0x1 DUP1 PUSH1 0xA0 SHL SUB AND SWAP2 DUP3 DUP5 MSTORE PUSH1 0x20 MSTORE PUSH1 0xFF PUSH1 0x40 DUP5 KECCAK256 SLOAD AND PUSH1 0x0 EQ PUSH2 0x2150 JUMPI DUP1 DUP4 MSTORE PUSH1 0x6 PUSH1 0x20 MSTORE PUSH1 0x40 DUP4 KECCAK256 DUP3 DUP5 MSTORE PUSH1 0x20 MSTORE PUSH1 0x40 DUP4 KECCAK256 PUSH1 0xFF NOT DUP2 SLOAD AND SWAP1 SSTORE PUSH32 0xF6391F5C32D9C69D2A47EA670B442974B53935D1EDC7FD64EB21E047A839171B CALLER SWAP4 DUP1 LOG4 PUSH1 0x1 SWAP1 JUMP JUMPDEST PUSH1 0x40 DUP2 ADD SWAP1 DUP2 LT PUSH8 0xFFFFFFFFFFFFFFFF DUP3 GT OR PUSH2 0x7C4 JUMPI PUSH1 0x40 MSTORE JUMP JUMPDEST SWAP1 PUSH1 0x1F DUP1 NOT SWAP2 ADD AND DUP2 ADD SWAP1 DUP2 LT PUSH8 0xFFFFFFFFFFFFFFFF DUP3 GT OR PUSH2 0x7C4 JUMPI PUSH1 0x40 MSTORE JUMP JUMPDEST SWAP2 PUSH1 0x1 DUP1 PUSH1 0xA0 SHL SUB DUP1 SWAP4 AND SWAP2 PUSH1 0x0 SWAP4 DUP4 DUP6 MSTORE PUSH1 0x1 PUSH1 0x20 MSTORE PUSH1 0x40 SWAP4 DUP5 DUP7 KECCAK256 SWAP2 DUP4 AND SWAP2 DUP3 DUP8 MSTORE PUSH1 0x20 MSTORE DUP5 DUP7 KECCAK256 SLOAD SWAP3 PUSH1 0x0 NOT DUP5 LT PUSH2 0x2249 JUMPI JUMPDEST POP POP POP POP POP POP POP JUMP JUMPDEST DUP5 DUP5 LT PUSH2 0x22AD JUMPI POP DUP1 ISZERO PUSH2 0x2295 JUMPI DUP2 ISZERO PUSH2 0x227D JUMPI DUP6 MSTORE PUSH1 0x1 PUSH1 0x20 MSTORE DUP4 DUP6 KECCAK256 SWAP1 DUP6 MSTORE PUSH1 0x20 MSTORE SUB SWAP2 KECCAK256 SSTORE CODESIZE DUP1 DUP1 DUP1 DUP1 DUP1 DUP1 PUSH2 0x2240 JUMP JUMPDEST DUP5 MLOAD PUSH4 0x4A1406B1 PUSH1 0xE1 SHL DUP2 MSTORE PUSH1 0x4 DUP2 ADD DUP8 SWAP1 MSTORE PUSH1 0x24 SWAP1 REVERT JUMPDEST DUP5 MLOAD PUSH4 0xE602DF05 PUSH1 0xE0 SHL DUP2 MSTORE PUSH1 0x4 DUP2 ADD DUP8 SWAP1 MSTORE PUSH1 0x24 SWAP1 REVERT JUMPDEST DUP6 MLOAD PUSH4 0x7DC7A0D9 PUSH1 0xE1 SHL DUP2 MSTORE PUSH1 0x1 PUSH1 0x1 PUSH1 0xA0 SHL SUB SWAP2 SWAP1 SWAP2 AND PUSH1 0x4 DUP3 ADD MSTORE PUSH1 0x24 DUP2 ADD DUP5 SWAP1 MSTORE PUSH1 0x44 DUP2 ADD DUP6 SWAP1 MSTORE PUSH1 0x64 SWAP1 REVERT JUMPDEST DUP2 DUP2 MUL SWAP3 SWAP2 DUP2 ISZERO SWAP2 DUP5 DIV EQ OR ISZERO PUSH2 0x63A JUMPI JUMP JUMPDEST SWAP2 SWAP1 DUP3 SUB SWAP2 DUP3 GT PUSH2 0x63A JUMPI JUMP JUMPDEST PUSH1 0x0 NOT DUP2 EQ PUSH2 0x63A JUMPI PUSH1 0x1 ADD SWAP1 JUMP JUMPDEST SWAP2 SWAP1 DUP3 ADD DUP1 SWAP3 GT PUSH2 0x63A JUMPI JUMP JUMPDEST SWAP2 PUSH1 0x1 PUSH1 0x1 PUSH1 0xA0 SHL SUB DUP3 AND ISZERO PUSH2 0x2945 JUMPI DUP1 ISZERO PUSH2 0x28EE JUMPI PUSH1 0x1 PUSH1 0x1 PUSH1 0xA0 SHL SUB DUP4 AND PUSH1 0x0 SWAP1 DUP2 MSTORE PUSH1 0xC PUSH1 0x20 MSTORE PUSH1 0x40 SWAP1 KECCAK256 DUP1 SLOAD TIMESTAMP LT SWAP1 DUP2 PUSH2 0x28D3 JUMPI JUMPDEST POP PUSH2 0x2869 JUMPI PUSH2 0x2374 PUSH2 0x236E DUP3 DUP5 DUP7 PUSH2 0x2369 DUP4 PUSH2 0x2A72 JUMP JUMPDEST PUSH2 0x2DE2 JUMP JUMPDEST DUP5 PUSH2 0x3067 JUMP JUMPDEST POP SWAP1 DUP2 PUSH2 0x3E8 DUP3 MUL PUSH2 0x3E7 NOT DUP4 DUP3 DIV ADD PUSH2 0x63A JUMPI PUSH2 0x2710 SWAP1 DIV DUP1 SWAP2 GT PUSH2 0x2861 JUMPI JUMPDEST DUP3 ISZERO ISZERO DUP1 PUSH2 0x2852 JUMPI JUMPDEST DUP1 PUSH2 0x2842 JUMPI JUMPDEST PUSH2 0x281A JUMPI JUMPDEST POP DUP1 DUP3 GT PUSH2 0x2812 JUMPI JUMPDEST PUSH2 0x23BC DUP3 DUP3 PUSH2 0x22F0 JUMP JUMPDEST SWAP3 PUSH2 0x23C5 PUSH2 0x298A JUMP JUMPDEST PUSH1 0x1 PUSH1 0x1 PUSH1 0xA0 SHL SUB DUP6 AND PUSH2 0x27A3 JUMPI PUSH2 0x23DF DUP5 PUSH1 0x2 SLOAD PUSH2 0x230C JUMP JUMPDEST PUSH1 0x2 SSTORE JUMPDEST PUSH1 0x1 PUSH1 0x1 PUSH1 0xA0 SHL SUB DUP2 DUP2 AND PUSH1 0x0 DUP2 DUP2 MSTORE PUSH1 0x20 DUP2 DUP2 MSTORE PUSH1 0x40 SWAP2 DUP3 SWAP1 KECCAK256 DUP1 SLOAD DUP10 ADD SWAP1 SSTORE SWAP1 MLOAD DUP8 DUP2 MSTORE SWAP2 SWAP3 DUP9 AND SWAP2 PUSH1 0x0 DUP1 MLOAD PUSH1 0x20 PUSH2 0x3483 DUP4 CODECOPY DUP2 MLOAD SWAP2 MSTORE SWAP2 SWAP1 LOG3 DUP3 PUSH2 0x2793 JUMPI JUMPDEST PUSH1 0x1 PUSH1 0x1 PUSH1 0xA0 SHL SUB DUP6 DUP2 AND PUSH1 0x0 SWAP1 DUP2 MSTORE PUSH1 0xE PUSH1 0x20 SWAP1 DUP2 MSTORE PUSH1 0x40 DUP1 DUP4 KECCAK256 SWAP4 DUP6 AND DUP4 MSTORE SWAP3 SWAP1 MSTORE KECCAK256 DUP1 SLOAD PUSH2 0x2456 SWAP1 PUSH2 0x22FD JUMP JUMPDEST SWAP1 SSTORE PUSH1 0x7 SLOAD PUSH1 0x1 PUSH1 0x1 PUSH1 0xA0 SHL SUB DUP7 DUP2 AND PUSH1 0x0 SWAP1 DUP2 MSTORE PUSH1 0xE PUSH1 0x20 SWAP1 DUP2 MSTORE PUSH1 0x40 DUP1 DUP4 KECCAK256 SWAP4 DUP7 AND DUP4 MSTORE SWAP3 SWAP1 MSTORE KECCAK256 SLOAD DUP1 ISZERO DUP1 ISZERO PUSH2 0x2751 JUMPI JUMPDEST POP POP PUSH1 0x1 PUSH1 0x1 PUSH1 0xA0 SHL SUB DUP7 AND PUSH1 0x0 SWAP1 DUP2 MSTORE PUSH1 0xD PUSH1 0x20 MSTORE PUSH1 0x40 SWAP1 KECCAK256 PUSH1 0x1 DUP2 ADD SLOAD SWAP1 DUP2 ISZERO SWAP1 DUP2 ISZERO DUP1 PUSH2 0x2747 JUMPI JUMPDEST PUSH2 0x26D7 JUMPI JUMPDEST POP POP POP PUSH1 0x8 SLOAD SWAP1 DUP2 DUP2 LT PUSH1 0x0 EQ PUSH2 0x26BB JUMPI POP SWAP3 JUMPDEST PUSH2 0x24D8 DUP5 TIMESTAMP PUSH2 0x230C JUMP JUMPDEST SWAP3 PUSH1 0x1 DUP1 PUSH1 0xA0 SHL SUB DUP4 AND PUSH1 0x0 MSTORE PUSH1 0xC PUSH1 0x20 MSTORE PUSH1 0x3 PUSH1 0x40 PUSH1 0x0 KECCAK256 ADD SLOAD SWAP5 PUSH1 0x1 DUP7 ADD DUP7 GT PUSH2 0x63A JUMPI PUSH1 0x40 MLOAD SWAP5 PUSH1 0x20 DUP7 ADD SWAP6 PUSH1 0x1 PUSH1 0x1 PUSH1 0x60 SHL SUB NOT DUP1 DUP12 PUSH1 0x60 SHL AND DUP9 MSTORE DUP7 PUSH1 0x60 SHL AND PUSH1 0x34 DUP3 ADD MSTORE DUP4 PUSH1 0x48 DUP3 ADD MSTORE PUSH1 0x48 DUP2 MSTORE PUSH8 0xFFFFFFFFFFFFFFFF SWAP7 DUP2 PUSH1 0x80 DUP2 ADD LT DUP9 PUSH1 0x80 DUP5 ADD GT OR PUSH2 0x7C4 JUMPI PUSH1 0x80 DUP3 ADD PUSH1 0x40 MSTORE DUP2 MLOAD SWAP1 KECCAK256 SWAP7 PUSH1 0x80 DUP3 ADD PUSH2 0x160 DUP4 ADD LT SWAP1 PUSH2 0x160 DUP4 ADD GT OR PUSH2 0x7C4 JUMPI PUSH32 0x98BC3FE7D138931A49691B623C256B8812F2A3D7F9B25BA7098C82538977A5D0 SWAP8 PUSH1 0x40 SWAP8 PUSH1 0x6 SWAP4 PUSH2 0x160 DUP5 ADD DUP11 MSTORE PUSH1 0x80 DUP5 ADD MSTORE PUSH1 0xA0 DUP4 ADD SWAP5 DUP6 MSTORE PUSH1 0xC0 DUP4 ADD SWAP2 PUSH1 0x1 DUP1 PUSH1 0xA0 SHL SUB DUP14 AND DUP4 MSTORE PUSH1 0x1 PUSH1 0xE0 DUP6 ADD SWAP2 ADD DUP2 MSTORE PUSH2 0x100 DUP5 ADD SWAP2 DUP3 MSTORE PUSH2 0x120 DUP5 ADD SWAP3 DUP9 DUP5 MSTORE PUSH2 0x140 DUP6 ADD SWAP7 PUSH1 0x0 DUP9 MSTORE PUSH1 0x1 DUP1 PUSH1 0xA0 SHL SUB DUP12 AND PUSH1 0x0 MSTORE PUSH1 0xC PUSH1 0x20 MSTORE PUSH1 0x80 DUP13 PUSH1 0x0 KECCAK256 SWAP7 ADD MLOAD DUP7 SSTORE MLOAD PUSH1 0x1 DUP7 ADD SSTORE PUSH1 0x2 DUP6 ADD SWAP1 PUSH1 0x1 DUP1 PUSH1 0xA0 SHL SUB SWAP1 MLOAD AND PUSH1 0x1 PUSH1 0x1 PUSH1 0x60 SHL SUB PUSH1 0xA0 SHL DUP3 SLOAD AND OR SWAP1 SSTORE MLOAD PUSH1 0x3 DUP5 ADD SSTORE MLOAD PUSH1 0x4 DUP4 ADD SSTORE MLOAD PUSH1 0x5 DUP3 ADD SSTORE ADD SWAP1 MLOAD ISZERO ISZERO PUSH1 0xFF DUP1 NOT DUP4 SLOAD AND SWAP2 AND OR SWAP1 SSTORE PUSH1 0xD PUSH1 0x20 MSTORE PUSH1 0x1 DUP5 PUSH1 0x0 KECCAK256 PUSH2 0x266A PUSH1 0x2 DUP3 ADD SWAP4 DUP5 SLOAD DUP1 ISZERO ISZERO SWAP1 DUP2 PUSH2 0x26A6 JUMPI JUMPDEST POP PUSH2 0x2697 JUMPI JUMPDEST DUP3 SLOAD PUSH2 0x230C JUMP JUMPDEST DUP2 SSTORE ADD PUSH2 0x2677 DUP2 SLOAD PUSH2 0x22FD JUMP JUMPDEST SWAP1 SSTORE TIMESTAMP SWAP1 SSTORE DUP3 MLOAD SWAP5 DUP6 MSTORE PUSH1 0x20 DUP6 ADD MSTORE PUSH1 0x1 PUSH1 0x1 PUSH1 0xA0 SHL SUB SWAP1 DUP2 AND SWAP5 AND SWAP3 LOG3 JUMP JUMPDEST PUSH1 0x0 DUP4 SSTORE PUSH1 0x0 DUP5 DUP5 ADD SSTORE PUSH2 0x2663 JUMP JUMPDEST PUSH2 0x26B1 SWAP2 POP TIMESTAMP PUSH2 0x22F0 JUMP JUMPDEST PUSH1 0xA SLOAD LT CODESIZE PUSH2 0x265D JUMP JUMPDEST SWAP4 SWAP1 POP PUSH1 0x9 SLOAD DUP1 DUP6 GT PUSH2 0x26CF JUMPI JUMPDEST POP PUSH2 0x24CE JUMP JUMPDEST SWAP4 POP CODESIZE PUSH2 0x26C9 JUMP JUMPDEST SLOAD SWAP1 PUSH2 0x2731 JUMPI DIV PUSH1 0xA DUP2 MUL SWAP1 DUP1 DUP3 DIV PUSH1 0xA EQ SWAP1 ISZERO OR ISZERO PUSH2 0x63A JUMPI DUP4 GT PUSH2 0x2700 JUMPI JUMPDEST CODESIZE DUP1 DUP1 PUSH2 0x24BA JUMP JUMPDEST DUP1 PUSH1 0x1 SHL DUP2 DUP2 DIV PUSH1 0x2 EQ DUP3 ISZERO OR ISZERO PUSH2 0x63A JUMPI PUSH1 0x1 PUSH1 0x1 PUSH1 0xFF SHL SUB DUP3 AND DUP3 EQ PUSH2 0x2729 JUMPI JUMPDEST POP PUSH2 0x26F8 JUMP JUMPDEST SWAP1 POP CODESIZE PUSH2 0x2723 JUMP JUMPDEST PUSH4 0x4E487B71 PUSH1 0xE0 SHL PUSH1 0x0 MSTORE PUSH1 0x12 PUSH1 0x4 MSTORE PUSH1 0x24 PUSH1 0x0 REVERT JUMPDEST POP DUP1 SLOAD ISZERO ISZERO PUSH2 0x24B5 JUMP JUMPDEST PUSH1 0xA DUP3 MUL SWAP2 DUP3 DIV PUSH1 0xA EQ OR ISZERO PUSH2 0x63A JUMPI PUSH1 0x5A DUP2 GT ISZERO PUSH2 0x278E JUMPI POP PUSH1 0x5A JUMPDEST PUSH1 0x64 SUB SWAP1 PUSH1 0x64 DUP3 GT PUSH2 0x63A JUMPI PUSH1 0x64 SWAP2 PUSH2 0x2786 SWAP2 PUSH2 0x22DD JUMP JUMPDEST DIV CODESIZE DUP1 PUSH2 0x248A JUMP JUMPDEST PUSH2 0x276E JUMP JUMPDEST PUSH2 0x279E DUP4 DUP3 DUP8 PUSH2 0x30DA JUMP JUMPDEST PUSH2 0x2426 JUMP JUMPDEST PUSH1 0x1 PUSH1 0x1 PUSH1 0xA0 SHL SUB DUP6 AND PUSH1 0x0 SWAP1 DUP2 MSTORE PUSH1 0x20 DUP2 SWAP1 MSTORE PUSH1 0x40 SWAP1 KECCAK256 SLOAD DUP5 DUP2 LT PUSH2 0x27E2 JUMPI DUP5 SWAP1 PUSH1 0x1 DUP1 PUSH1 0xA0 SHL SUB DUP8 AND PUSH1 0x0 MSTORE PUSH1 0x0 PUSH1 0x20 MSTORE SUB PUSH1 0x40 PUSH1 0x0 KECCAK256 SSTORE PUSH2 0x23E3 JUMP JUMPDEST PUSH1 0x40 MLOAD PUSH4 0x391434E3 PUSH1 0xE2 SHL DUP2 MSTORE PUSH1 0x1 PUSH1 0x1 PUSH1 0xA0 SHL SUB DUP8 AND PUSH1 0x4 DUP3 ADD MSTORE PUSH1 0x24 DUP2 ADD SWAP2 SWAP1 SWAP2 MSTORE PUSH1 0x44 DUP2 ADD DUP6 SWAP1 MSTORE PUSH1 0x64 SWAP1 REVERT JUMPDEST SWAP1 POP DUP1 PUSH2 0x23B2 JUMP JUMPDEST PUSH6 0x9184E72A000 SWAP1 DUP2 GT ISZERO DUP1 PUSH2 0x2838 JUMPI JUMPDEST ISZERO PUSH2 0x23A9 JUMPI SWAP2 POP CODESIZE PUSH2 0x23A9 JUMP JUMPDEST POP DUP2 DUP2 GT ISZERO PUSH2 0x282B JUMP JUMPDEST POP PUSH6 0x9184E72A000 DUP3 LT ISZERO PUSH2 0x23A4 JUMP JUMPDEST POP PUSH6 0x9184E72A000 DUP4 LT PUSH2 0x239E JUMP JUMPDEST SWAP2 POP DUP2 PUSH2 0x2395 JUMP JUMPDEST PUSH1 0x84 PUSH1 0x40 MLOAD PUSH3 0x461BCD PUSH1 0xE5 SHL DUP2 MSTORE PUSH1 0x20 PUSH1 0x4 DUP3 ADD MSTORE PUSH1 0x40 PUSH1 0x24 DUP3 ADD MSTORE PUSH32 0x43616E6E6F74207472616E7366657220647572696E672048616C664C69666520 PUSH1 0x44 DUP3 ADD MSTORE PUSH32 0x706572696F6420657863657074206261636B20746F206F726967696E61746F72 PUSH1 0x64 DUP3 ADD MSTORE REVERT JUMPDEST PUSH1 0x2 ADD SLOAD PUSH1 0x1 PUSH1 0x1 PUSH1 0xA0 SHL SUB DUP5 DUP2 AND SWAP2 AND EQ ISZERO SWAP1 POP CODESIZE PUSH2 0x2352 JUMP JUMPDEST PUSH1 0x40 MLOAD PUSH3 0x461BCD PUSH1 0xE5 SHL DUP2 MSTORE PUSH1 0x20 PUSH1 0x4 DUP3 ADD MSTORE PUSH1 0x29 PUSH1 0x24 DUP3 ADD MSTORE PUSH32 0x5472616E7366657220616D6F756E74206D757374206265206772656174657220 PUSH1 0x44 DUP3 ADD MSTORE PUSH9 0x7468616E207A65726F PUSH1 0xB8 SHL PUSH1 0x64 DUP3 ADD MSTORE PUSH1 0x84 SWAP1 REVERT JUMPDEST PUSH1 0x40 MLOAD PUSH3 0x461BCD PUSH1 0xE5 SHL DUP2 MSTORE PUSH1 0x20 PUSH1 0x4 DUP3 ADD MSTORE PUSH1 0x18 PUSH1 0x24 DUP3 ADD MSTORE PUSH32 0x5472616E7366657220746F207A65726F20616464726573730000000000000000 PUSH1 0x44 DUP3 ADD MSTORE PUSH1 0x64 SWAP1 REVERT JUMPDEST PUSH1 0xFF PUSH1 0x5 SLOAD AND PUSH2 0x2996 JUMPI JUMP JUMPDEST PUSH1 0x40 MLOAD PUSH4 0xD93C0665 PUSH1 0xE0 SHL DUP2 MSTORE PUSH1 0x4 SWAP1 REVERT JUMPDEST DUP1 MLOAD ISZERO PUSH2 0x29B5 JUMPI PUSH1 0x20 ADD SWAP1 JUMP JUMPDEST PUSH4 0x4E487B71 PUSH1 0xE0 SHL PUSH1 0x0 MSTORE PUSH1 0x32 PUSH1 0x4 MSTORE PUSH1 0x24 PUSH1 0x0 REVERT JUMPDEST DUP1 MLOAD PUSH1 0x1 LT ISZERO PUSH2 0x29B5 JUMPI PUSH1 0x40 ADD SWAP1 JUMP JUMPDEST DUP1 MLOAD PUSH1 0x2 LT ISZERO PUSH2 0x29B5 JUMPI PUSH1 0x60 ADD SWAP1 JUMP JUMPDEST DUP1 MLOAD PUSH1 0x3 LT ISZERO PUSH2 0x29B5 JUMPI PUSH1 0x80 ADD SWAP1 JUMP JUMPDEST DUP1 MLOAD PUSH1 0x4 LT ISZERO PUSH2 0x29B5 JUMPI PUSH1 0xA0 ADD SWAP1 JUMP JUMPDEST DUP1 MLOAD PUSH1 0x5 LT ISZERO PUSH2 0x29B5 JUMPI PUSH1 0xC0 ADD SWAP1 JUMP JUMPDEST DUP1 MLOAD PUSH1 0x6 LT ISZERO PUSH2 0x29B5 JUMPI PUSH1 0xE0 ADD SWAP1 JUMP JUMPDEST DUP1 MLOAD PUSH1 0x7 LT ISZERO PUSH2 0x29B5 JUMPI PUSH2 0x100 ADD SWAP1 JUMP JUMPDEST DUP1 MLOAD PUSH1 0x8 LT ISZERO PUSH2 0x29B5 JUMPI PUSH2 0x120 ADD SWAP1 JUMP JUMPDEST DUP1 MLOAD PUSH1 0x9 LT ISZERO PUSH2 0x29B5 JUMPI PUSH2 0x140 ADD SWAP1 JUMP JUMPDEST DUP1 MLOAD DUP3 LT ISZERO PUSH2 0x29B5 JUMPI PUSH1 0x20 SWAP2 PUSH1 0x5 SHL ADD ADD SWAP1 JUMP JUMPDEST DUP1 ISZERO PUSH2 0x2DDC JUMPI PUSH1 0x0 PUSH1 0x40 DUP1 MLOAD SWAP3 PUSH2 0x160 DUP5 ADD DUP5 DUP2 LT PUSH8 0xFFFFFFFFFFFFFFFF DUP3 GT OR PUSH2 0x2DC8 JUMPI DUP3 MSTORE PUSH1 0xA DUP5 MSTORE DUP3 JUMPDEST PUSH2 0x140 DUP2 LT PUSH2 0x2DAA JUMPI POP DUP2 MLOAD SWAP2 PUSH2 0x2AB5 DUP4 PUSH2 0x21CC JUMP JUMPDEST PUSH7 0x2386F26FC10000 DUP4 MSTORE PUSH1 0x20 SWAP3 PUSH4 0x3B9ACA00 DUP5 DUP3 ADD MSTORE PUSH2 0x2AD4 DUP7 PUSH2 0x29A8 JUMP JUMPDEST MSTORE PUSH2 0x2ADE DUP6 PUSH2 0x29A8 JUMP JUMPDEST POP DUP1 MLOAD PUSH2 0x2AEA DUP2 PUSH2 0x21CC JUMP JUMPDEST PUSH8 0x16345785D8A0000 DUP2 MSTORE PUSH4 0x5F5E100 DUP5 DUP3 ADD MSTORE PUSH2 0x2B07 DUP7 PUSH2 0x29CB JUMP JUMPDEST MSTORE PUSH2 0x2B11 DUP6 PUSH2 0x29CB JUMP JUMPDEST POP DUP1 MLOAD SWAP1 PUSH2 0x2B1E DUP3 PUSH2 0x21CC JUMP JUMPDEST PUSH8 0xDE0B6B3A7640000 DUP3 MSTORE PUSH3 0x989680 SWAP2 DUP3 DUP6 DUP3 ADD MSTORE PUSH2 0x2B3C DUP8 PUSH2 0x29DB JUMP JUMPDEST MSTORE PUSH2 0x2B46 DUP7 PUSH2 0x29DB JUMP JUMPDEST POP DUP1 MLOAD PUSH2 0x2B52 DUP2 PUSH2 0x21CC JUMP JUMPDEST PUSH8 0x8AC7230489E80000 DUP2 MSTORE PUSH3 0xF4240 DUP6 DUP3 ADD MSTORE PUSH2 0x2B6E DUP8 PUSH2 0x29EB JUMP JUMPDEST MSTORE PUSH2 0x2B78 DUP7 PUSH2 0x29EB JUMP JUMPDEST POP DUP1 MLOAD PUSH2 0x2B84 DUP2 PUSH2 0x21CC JUMP JUMPDEST PUSH9 0x56BC75E2D63100000 DUP2 MSTORE PUSH3 0x186A0 DUP6 DUP3 ADD MSTORE PUSH2 0x2BA1 DUP8 PUSH2 0x29FB JUMP JUMPDEST MSTORE PUSH2 0x2BAB DUP7 PUSH2 0x29FB JUMP JUMPDEST POP DUP1 MLOAD PUSH2 0x2BB7 DUP2 PUSH2 0x21CC JUMP JUMPDEST PUSH9 0x3635C9ADC5DEA00000 DUP2 MSTORE PUSH2 0x2710 DUP6 DUP3 ADD MSTORE PUSH2 0x2BD3 DUP8 PUSH2 0x2A0B JUMP JUMPDEST MSTORE PUSH2 0x2BDD DUP7 PUSH2 0x2A0B JUMP JUMPDEST POP DUP1 MLOAD PUSH2 0x2BE9 DUP2 PUSH2 0x21CC JUMP JUMPDEST PUSH10 0x21E19E0C9BAB2400000 DUP2 MSTORE PUSH2 0x3E8 DUP6 DUP3 ADD MSTORE PUSH2 0x2C06 DUP8 PUSH2 0x2A1B JUMP JUMPDEST MSTORE PUSH2 0x2C10 DUP7 PUSH2 0x2A1B JUMP JUMPDEST POP DUP1 MLOAD PUSH2 0x2C1C DUP2 PUSH2 0x21CC JUMP JUMPDEST PUSH10 0x152D02C7E14AF6800000 DUP2 MSTORE PUSH1 0x64 DUP6 DUP3 ADD MSTORE PUSH2 0x2C38 DUP8 PUSH2 0x2A2B JUMP JUMPDEST MSTORE PUSH2 0x2C42 DUP7 PUSH2 0x2A2B JUMP JUMPDEST POP DUP1 MLOAD PUSH2 0x2C4E DUP2 PUSH2 0x21CC JUMP JUMPDEST PUSH10 0xD3C21BCECCEDA1000000 DUP2 MSTORE PUSH1 0xA DUP6 DUP3 ADD MSTORE PUSH2 0x2C6A DUP8 PUSH2 0x2A3C JUMP JUMPDEST MSTORE PUSH2 0x2C74 DUP7 PUSH2 0x2A3C JUMP JUMPDEST POP MLOAD SWAP5 PUSH2 0x2C80 DUP7 PUSH2 0x21CC JUMP JUMPDEST PUSH1 0x0 NOT DUP1 DUP8 MSTORE PUSH1 0x1 SWAP7 DUP8 DUP7 DUP3 ADD MSTORE PUSH2 0x2C97 DUP4 PUSH2 0x2A4D JUMP JUMPDEST MSTORE PUSH2 0x2CA1 DUP3 PUSH2 0x2A4D JUMP JUMPDEST POP DUP6 DUP8 JUMPDEST PUSH2 0x2CB5 JUMPI JUMPDEST POP POP POP POP POP POP SWAP1 POP SWAP1 JUMP JUMPDEST DUP3 MLOAD DUP2 LT ISZERO PUSH2 0x2D14 JUMPI PUSH2 0x2CC8 DUP2 DUP5 PUSH2 0x2A5E JUMP JUMPDEST MLOAD MLOAD DUP7 PUSH2 0x2CD5 DUP4 DUP7 PUSH2 0x2A5E JUMP JUMPDEST MLOAD ADD MLOAD PUSH1 0x0 DUP4 PUSH2 0x2D79 JUMPI POP PUSH1 0x0 JUMPDEST PUSH1 0x0 SWAP1 DUP1 DUP10 GT PUSH2 0x2D41 JUMPI JUMPDEST POP DUP1 ISZERO ISZERO DUP1 PUSH2 0x2D38 JUMPI JUMPDEST PUSH2 0x2D19 JUMPI JUMPDEST POP POP DUP6 LT PUSH2 0x2D14 JUMPI PUSH2 0x2D0E SWAP1 PUSH2 0x22FD JUMP JUMPDEST DUP8 PUSH2 0x2CA5 JUMP JUMPDEST PUSH2 0x2CAA JUMP JUMPDEST PUSH2 0x2D29 PUSH2 0x2D30 SWAP4 SWAP11 SWAP3 DUP9 SWAP3 PUSH2 0x22DD JUMP JUMPDEST DIV SWAP1 PUSH2 0x230C JUMP JUMPDEST SWAP7 CODESIZE DUP1 PUSH2 0x2CFD JUMP JUMPDEST POP DUP2 ISZERO ISZERO PUSH2 0x2CF8 JUMP JUMPDEST SWAP1 POP DUP3 DUP9 LT PUSH2 0x2D6A JUMPI DUP1 DUP4 GT ISZERO PUSH2 0x2D62 JUMPI PUSH2 0x2D5C SWAP1 DUP4 PUSH2 0x22F0 JUMP JUMPDEST CODESIZE PUSH2 0x2CEE JUMP JUMPDEST POP PUSH1 0x0 PUSH2 0x2D5C JUMP JUMPDEST PUSH2 0x2D74 SWAP1 DUP9 PUSH2 0x22F0 JUMP JUMPDEST PUSH2 0x2D5C JUMP JUMPDEST DUP5 DUP5 ADD SWAP1 DUP5 DUP3 GT PUSH2 0x2D96 JUMPI POP PUSH2 0x2D8F SWAP1 DUP7 PUSH2 0x2A5E JUMP JUMPDEST MLOAD MLOAD PUSH2 0x2CE3 JUMP JUMPDEST PUSH4 0x4E487B71 PUSH1 0xE0 SHL DUP2 MSTORE PUSH1 0x11 PUSH1 0x4 MSTORE PUSH1 0x24 SWAP1 REVERT JUMPDEST PUSH1 0x20 SWAP1 DUP4 MLOAD PUSH2 0x2DB8 DUP2 PUSH2 0x21CC JUMP JUMPDEST DUP5 CALLDATASIZE DUP3 CALLDATACOPY DUP3 DUP3 DUP9 ADD ADD MSTORE ADD PUSH2 0x2A9F JUMP JUMPDEST PUSH4 0x4E487B71 PUSH1 0xE0 SHL DUP5 MSTORE PUSH1 0x41 PUSH1 0x4 MSTORE PUSH1 0x24 DUP5 REVERT JUMPDEST POP PUSH1 0x0 SWAP1 JUMP JUMPDEST SWAP2 SWAP1 DUP3 ISZERO PUSH2 0x2E6D JUMPI PUSH2 0x2DF6 PUSH2 0x2DFC SWAP2 PUSH2 0x2F32 JUMP JUMPDEST SWAP2 PUSH2 0x2F32 JUMP JUMPDEST DUP1 DUP3 GT ISZERO PUSH2 0x2E65 JUMPI POP SWAP2 JUMPDEST PUSH2 0x2710 SWAP3 PUSH1 0x0 DUP5 DUP3 GT ISZERO PUSH2 0x2E5D JUMPI POP PUSH2 0x270F NOT DUP2 ADD SWAP1 DUP2 GT PUSH2 0x63A JUMPI SWAP1 JUMPDEST DUP2 ISZERO PUSH2 0x2E56 JUMPI DUP4 SWAP2 PUSH2 0x2E39 PUSH2 0x2E3F SWAP3 PUSH2 0x2E76 JUMP JUMPDEST SWAP1 PUSH2 0x22DD JUMP JUMPDEST DIV DUP3 ADD DUP1 DUP4 GT PUSH2 0x63A JUMPI PUSH2 0x2E52 SWAP2 PUSH2 0x22DD JUMP JUMPDEST DIV SWAP1 JUMP JUMPDEST POP POP SWAP1 POP SWAP1 JUMP JUMPDEST SWAP1 POP SWAP1 PUSH2 0x2E25 JUMP JUMPDEST SWAP1 POP SWAP2 PUSH2 0x2E07 JUMP JUMPDEST POP POP POP POP PUSH1 0x0 SWAP1 JUMP JUMPDEST DUP1 ISZERO PUSH2 0x2DDC JUMPI PUSH8 0xDE0B6B3A7640000 PUSH1 0x1 SWAP2 DUP3 SWAP2 DUP3 JUMPDEST PUSH2 0x2EA8 JUMPI JUMPDEST POP POP SWAP1 POP PUSH2 0x2710 DUP1 DUP3 GT PUSH2 0x2EA3 JUMPI POP SWAP1 JUMP JUMPDEST SWAP1 POP SWAP1 JUMP JUMPDEST DUP1 DUP3 GT DUP1 PUSH2 0x2F27 JUMPI JUMPDEST ISZERO PUSH2 0x2F22 JUMPI PUSH1 0xA SWAP3 DUP4 DUP3 MUL SWAP2 DUP1 ISZERO SWAP1 DUP1 DUP5 DIV DUP7 EQ DUP3 OR ISZERO PUSH2 0x2F04 JUMPI DUP6 DUP5 DIV EQ ISZERO SWAP1 DUP2 PUSH2 0x2F19 JUMPI JUMPDEST POP PUSH2 0x2EFD JUMPI DUP4 DUP2 MUL SWAP4 DUP2 DUP6 DIV EQ DUP2 ISZERO OR ISZERO PUSH2 0x2F04 JUMPI PUSH2 0x2710 DUP5 GT PUSH2 0x2EFD JUMPI POP DUP4 PUSH2 0x2E8C JUMP JUMPDEST SWAP3 POP PUSH2 0x2E91 JUMP JUMPDEST PUSH1 0x24 PUSH1 0x0 PUSH4 0x4E487B71 PUSH1 0xE0 SHL DUP2 MSTORE PUSH1 0x11 PUSH1 0x4 MSTORE REVERT JUMPDEST SWAP1 POP ISZERO CODESIZE PUSH2 0x2ED8 JUMP JUMPDEST PUSH2 0x2E91 JUMP JUMPDEST POP PUSH2 0x2710 DUP4 LT PUSH2 0x2EB1 JUMP JUMPDEST PUSH1 0x1 PUSH1 0x1 PUSH1 0xA0 SHL SUB AND PUSH1 0x0 SWAP1 DUP2 MSTORE PUSH1 0xF PUSH1 0x20 MSTORE PUSH1 0x40 DUP2 KECCAK256 PUSH1 0x2 DUP2 ADD SLOAD SWAP2 SWAP3 SWAP2 PUSH2 0x2710 SWAP1 DUP1 ISZERO ISZERO SWAP1 DUP2 PUSH2 0x3050 JUMPI JUMPDEST POP PUSH2 0x3047 JUMPI JUMPDEST PUSH1 0x1 DUP3 ADD SLOAD DUP1 ISZERO ISZERO SWAP1 DUP2 PUSH2 0x3030 JUMPI JUMPDEST POP PUSH2 0x300F JUMPI JUMPDEST DUP2 SLOAD PUSH2 0x3E8 SWAP1 DUP2 DUP2 MUL SWAP2 DUP2 DUP4 DIV EQ SWAP1 ISZERO OR ISZERO PUSH2 0x2FFB JUMPI PUSH1 0x3 SWAP2 PUSH2 0x2FAA SWAP2 PUSH2 0xC350 SWAP1 DUP2 DUP2 GT ISZERO PUSH2 0x2FDF JUMPI POP SWAP1 PUSH2 0x230C JUMP JUMPDEST SWAP2 ADD SLOAD PUSH2 0x1F4 SWAP1 DUP2 DUP2 MUL SWAP2 DUP2 DUP4 DIV EQ SWAP1 ISZERO OR ISZERO PUSH2 0x2FE7 JUMPI PUSH2 0x2FDC SWAP3 SWAP4 POP PUSH2 0x61A8 SWAP1 DUP2 DUP2 GT PUSH1 0x0 EQ PUSH2 0x2FDF JUMPI POP SWAP1 PUSH2 0x230C JUMP JUMPDEST SWAP1 JUMP JUMPDEST SWAP1 POP SWAP1 PUSH2 0x230C JUMP JUMPDEST PUSH4 0x4E487B71 PUSH1 0xE0 SHL DUP5 MSTORE PUSH1 0x11 PUSH1 0x4 MSTORE PUSH1 0x24 DUP5 REVERT JUMPDEST PUSH4 0x4E487B71 PUSH1 0xE0 SHL DUP6 MSTORE PUSH1 0x11 PUSH1 0x4 MSTORE PUSH1 0x24 DUP6 REVERT JUMPDEST PUSH2 0x2710 DUP2 ADD DUP1 SWAP2 GT ISZERO PUSH2 0x2F7A JUMPI PUSH4 0x4E487B71 PUSH1 0xE0 SHL DUP5 MSTORE PUSH1 0x11 PUSH1 0x4 MSTORE PUSH1 0x24 DUP5 REVERT JUMPDEST PUSH3 0x278D00 SWAP2 POP PUSH2 0x3040 SWAP1 TIMESTAMP PUSH2 0x22F0 JUMP JUMPDEST LT CODESIZE PUSH2 0x2F74 JUMP JUMPDEST POP PUSH2 0x3A98 PUSH2 0x2F65 JUMP JUMPDEST PUSH3 0x93A80 SWAP2 POP PUSH2 0x3060 SWAP1 TIMESTAMP PUSH2 0x22F0 JUMP JUMPDEST LT CODESIZE PUSH2 0x2F5F JUMP JUMPDEST PUSH1 0x1 PUSH1 0x1 PUSH1 0xA0 SHL SUB AND PUSH1 0x0 SWAP1 DUP2 MSTORE PUSH1 0x10 PUSH1 0x20 MSTORE PUSH1 0x40 SWAP1 KECCAK256 DUP1 SLOAD SWAP2 SWAP3 SWAP2 DUP1 ISZERO DUP1 ISZERO PUSH2 0x30D2 JUMPI JUMPDEST PUSH2 0x30CB JUMPI DUP4 DUP2 LT PUSH2 0x30B1 JUMPI POP PUSH2 0x30A3 DUP4 DUP3 SLOAD PUSH2 0x22F0 JUMP JUMPDEST DUP2 SSTORE PUSH1 0x1 TIMESTAMP SWAP2 ADD SSTORE PUSH1 0x0 SWAP2 SWAP1 JUMP JUMPDEST SWAP3 DUP4 PUSH2 0x30BC SWAP2 PUSH2 0x22F0 JUMP JUMPDEST SWAP1 PUSH1 0x0 DUP2 SSTORE PUSH1 0x1 TIMESTAMP SWAP2 ADD SSTORE SWAP2 SWAP1 JUMP JUMPDEST POP POP PUSH1 0x0 SWAP1 JUMP JUMPDEST POP DUP4 ISZERO PUSH2 0x308C JUMP JUMPDEST SWAP2 DUP1 ISZERO PUSH2 0x31B7 JUMPI PUSH2 0x3100 SWAP3 DUP2 PUSH1 0x1 SHR SWAP4 DUP3 PUSH2 0x30FB DUP7 SWAP5 PUSH1 0x2 SHR SWAP5 DUP6 SWAP3 PUSH2 0x22F0 JUMP JUMPDEST PUSH2 0x22F0 JUMP JUMPDEST SWAP4 DUP1 PUSH2 0x318E JUMPI JUMPDEST POP DUP2 PUSH2 0x3151 JUMPI JUMPDEST POP POP DUP2 PUSH2 0x3119 JUMPI POP POP JUMP JUMPDEST PUSH1 0x1 DUP1 PUSH1 0xA0 SHL SUB AND SWAP1 DUP2 PUSH1 0x0 MSTORE PUSH1 0x10 PUSH1 0x20 MSTORE PUSH2 0x313B PUSH1 0x40 PUSH1 0x0 KECCAK256 SWAP2 DUP3 SLOAD PUSH2 0x230C JUMP JUMPDEST SWAP1 SSTORE PUSH1 0x0 MSTORE PUSH1 0x10 PUSH1 0x20 MSTORE TIMESTAMP PUSH1 0x1 PUSH1 0x40 PUSH1 0x0 KECCAK256 ADD SSTORE JUMP JUMPDEST PUSH1 0x1 DUP1 PUSH1 0xA0 SHL SUB AND SWAP1 DUP2 PUSH1 0x0 MSTORE PUSH1 0x10 PUSH1 0x20 MSTORE PUSH2 0x3173 PUSH1 0x40 PUSH1 0x0 KECCAK256 SWAP2 DUP3 SLOAD PUSH2 0x230C JUMP JUMPDEST SWAP1 SSTORE PUSH1 0x0 MSTORE PUSH1 0x10 PUSH1 0x20 MSTORE TIMESTAMP PUSH1 0x1 PUSH1 0x40 PUSH1 0x0 KECCAK256 ADD SSTORE CODESIZE DUP1 PUSH2 0x310E JUMP JUMPDEST PUSH1 0xB SLOAD PUSH1 0x1 PUSH1 0x1 PUSH1 0xA0 SHL SUB AND SWAP1 DUP2 PUSH2 0x31A7 JUMPI JUMPDEST POP PUSH2 0x3107 JUMP JUMPDEST PUSH2 0x31B0 SWAP2 PUSH2 0x31BC JUMP JUMPDEST CODESIZE DUP1 PUSH2 0x31A1 JUMP JUMPDEST POP POP POP JUMP JUMPDEST PUSH1 0x1 PUSH1 0x1 PUSH1 0xA0 SHL SUB AND SWAP1 DUP2 ISZERO PUSH2 0x3210 JUMPI PUSH1 0x0 DUP1 MLOAD PUSH1 0x20 PUSH2 0x3483 DUP4 CODECOPY DUP2 MLOAD SWAP2 MSTORE PUSH1 0x20 PUSH1 0x0 SWAP3 PUSH2 0x31E8 PUSH2 0x298A JUMP JUMPDEST PUSH2 0x31F4 DUP2 PUSH1 0x2 SLOAD PUSH2 0x230C JUMP JUMPDEST PUSH1 0x2 SSTORE DUP5 DUP5 MSTORE DUP4 DUP3 MSTORE PUSH1 0x40 DUP5 KECCAK256 DUP2 DUP2 SLOAD ADD SWAP1 SSTORE PUSH1 0x40 MLOAD SWAP1 DUP2 MSTORE LOG3 JUMP JUMPDEST PUSH1 0x40 MLOAD PUSH4 0xEC442F05 PUSH1 0xE0 SHL DUP2 MSTORE PUSH1 0x0 PUSH1 0x4 DUP3 ADD MSTORE PUSH1 0x24 SWAP1 REVERT JUMPDEST PUSH2 0x3232 DUP2 PUSH2 0x325E JUMP JUMPDEST PUSH1 0x1 PUSH1 0x1 PUSH1 0xA0 SHL SUB AND PUSH1 0x0 SWAP1 DUP2 MSTORE PUSH1 0xF PUSH1 0x20 MSTORE PUSH1 0x40 SWAP1 KECCAK256 DUP1 SLOAD PUSH2 0x3254 SWAP1 PUSH2 0x22FD JUMP JUMPDEST DUP2 SSTORE PUSH1 0x1 TIMESTAMP SWAP2 ADD SSTORE JUMP JUMPDEST PUSH1 0x1 PUSH1 0x1 PUSH1 0xA0 SHL SUB AND DUP1 ISZERO ISZERO DUP1 PUSH2 0x328B JUMPI JUMPDEST PUSH2 0x3277 JUMPI POP JUMP JUMPDEST PUSH1 0x0 MSTORE PUSH1 0xF PUSH1 0x20 MSTORE TIMESTAMP PUSH1 0x2 PUSH1 0x40 PUSH1 0x0 KECCAK256 ADD SSTORE JUMP JUMPDEST POP DUP1 PUSH1 0x0 MSTORE PUSH1 0xF PUSH1 0x20 MSTORE PUSH1 0x2 PUSH1 0x40 PUSH1 0x0 KECCAK256 ADD SLOAD ISZERO PUSH2 0x3270 JUMP JUMPDEST ISZERO PUSH2 0x32AB JUMPI JUMP JUMPDEST PUSH1 0x40 MLOAD PUSH3 0x461BCD PUSH1 0xE5 SHL DUP2 MSTORE PUSH1 0x20 PUSH1 0x4 DUP3 ADD MSTORE PUSH1 0x1C PUSH1 0x24 DUP3 ADD MSTORE PUSH32 0x4275726E20616D6F756E74206D75737420626520706F73697469766500000000 PUSH1 0x44 DUP3 ADD MSTORE PUSH1 0x64 SWAP1 REVERT JUMPDEST SWAP1 PUSH1 0x1 PUSH1 0x1 PUSH1 0xA0 SHL SUB DUP3 AND SWAP1 DUP2 ISZERO PUSH2 0x3385 JUMPI PUSH2 0x330A PUSH2 0x298A JUMP JUMPDEST PUSH1 0x0 SWAP3 DUP3 DUP5 MSTORE DUP4 PUSH1 0x20 MSTORE PUSH1 0x40 DUP5 KECCAK256 SLOAD SWAP1 DUP3 DUP3 LT PUSH2 0x3353 JUMPI POP DUP2 PUSH1 0x0 DUP1 MLOAD PUSH1 0x20 PUSH2 0x3483 DUP4 CODECOPY DUP2 MLOAD SWAP2 MSTORE SWAP3 PUSH1 0x20 SWAP3 DUP6 DUP8 MSTORE DUP7 DUP5 MSTORE SUB PUSH1 0x40 DUP7 KECCAK256 SSTORE DUP1 PUSH1 0x2 SLOAD SUB PUSH1 0x2 SSTORE PUSH1 0x40 MLOAD SWAP1 DUP2 MSTORE LOG3 JUMP JUMPDEST PUSH1 0x40 MLOAD PUSH4 0x391434E3 PUSH1 0xE2 SHL DUP2 MSTORE PUSH1 0x1 PUSH1 0x1 PUSH1 0xA0 SHL SUB SWAP2 SWAP1 SWAP2 AND PUSH1 0x4 DUP3 ADD MSTORE PUSH1 0x24 DUP2 ADD SWAP2 SWAP1 SWAP2 MSTORE PUSH1 0x44 DUP2 ADD DUP3 SWAP1 MSTORE PUSH1 0x64 SWAP1 REVERT JUMPDEST PUSH1 0x40 MLOAD PUSH4 0x4B637E8F PUSH1 0xE1 SHL DUP2 MSTORE PUSH1 0x0 PUSH1 0x4 DUP3 ADD MSTORE PUSH1 0x24 SWAP1 REVERT JUMPDEST ISZERO PUSH2 0x33A5 JUMPI JUMP JUMPDEST PUSH1 0x40 MLOAD PUSH3 0x461BCD PUSH1 0xE5 SHL DUP2 MSTORE PUSH1 0x20 PUSH1 0x4 DUP3 ADD MSTORE PUSH1 0x1D PUSH1 0x24 DUP3 ADD MSTORE PUSH32 0x446562746F722063616E6E6F74206265207A65726F2061646472657373000000 PUSH1 0x44 DUP3 ADD MSTORE PUSH1 0x64 SWAP1 REVERT JUMPDEST ISZERO PUSH2 0x33F1 JUMPI JUMP JUMPDEST PUSH1 0x40 MLOAD PUSH3 0x461BCD PUSH1 0xE5 SHL DUP2 MSTORE PUSH1 0x20 PUSH1 0x4 DUP3 ADD MSTORE PUSH1 0x1F PUSH1 0x24 DUP3 ADD MSTORE PUSH32 0x4372656469746F722063616E6E6F74206265207A65726F206164647265737300 PUSH1 0x44 DUP3 ADD MSTORE PUSH1 0x64 SWAP1 REVERT JUMPDEST ISZERO PUSH2 0x343D JUMPI JUMP JUMPDEST PUSH1 0x40 MLOAD PUSH3 0x461BCD PUSH1 0xE5 SHL DUP2 MSTORE PUSH1 0x20 PUSH1 0x4 DUP3 ADD MSTORE PUSH1 0x19 PUSH1 0x24 DUP3 ADD MSTORE PUSH32 0x446562746F722063616E6E6F74206265206372656469746F7200000000000000 PUSH1 0x44 DUP3 ADD MSTORE PUSH1 0x64 SWAP1 REVERT INVALID 0xDD CALLCODE MSTORE 0xAD SHL 0xE2 0xC8 SWAP12 PUSH10 0xC2B068FC378DAA952BA7 CALL PUSH4 0xC4A11628 CREATE2 GAS 0x4D CREATE2 0x23 0xB3 0xEF LOG2 PUSH5 0x6970667358 0x22 SLT KECCAK256 0xC9 AND LOG2 DUP2 SWAP16 CALLDATACOPY GAS 0xB7 0xDD LOG0 0x29 0xE0 SWAP10 SWAP2 0xAE 0xA5 0xC7 PC DUP3 0xB4 PUSH4 0x208C3C34 0xDC 0xE9 PUSH30 0x3912B63A64736F6C634300081400332F8788117E7EFF1D82E926EC794901 0xD1 PUSH29 0x78024A50270940304540A733656F0D0000000000000000000000000000 "},"methodIdentifiers":{"ADMIN_ROLE()":"75b238fc","BURNER_ROLE()":"282c51f3","DEFAULT_ADMIN_ROLE()":"a217fddf","MINTER_ROLE()":"d5391393","PAUSER_ROLE()":"e63ab1e9","allowance(address,address)":"dd62ed3e","approve(address,uint256)":"095ea7b3","balanceOf(address)":"70a08231","burn(uint256)":"42966c68","burnFrom(address,uint256)":"79cc6790","calculateRiskFactor(address)":"6b6ef953","checkHalfLifeExpiry(address)":"508c0634","clearInterbankLiability(address,address,uint256)":"4d8183cc","decimals()":"313ce567","estimateTransferFeeDetails(address,address,uint256)":"e697da68","flagAbnormalTransaction(address)":"6e2fae47","getAvailableCredits(address)":"b065a8e5","getRoleAdmin(bytes32)":"248a9ca3","grantRole(bytes32,address)":"2f2ff15d","halfLifeDuration()":"4c915d18","hasRole(bytes32,address)":"91d14854","inactivityResetPeriod()":"03833501","incentiveCredits(address)":"0c27ab5a","interbankLiability(address,address)":"5ed61097","maxHalfLifeDuration()":"c750f203","minHalfLifeDuration()":"800753cf","mint(address,uint256)":"40c10f19","mintedByMinter(address)":"905b7fcb","name()":"06fdde03","pause()":"8456cb59","paused()":"5c975abb","recordInterbankLiability(address,address,uint256)":"dd7faab1","renounceRole(bytes32,address)":"36568abe","reverseTransfer(address,uint256)":"5a0f385a","revokeRole(bytes32,address)":"d547741f","rollingAverages(address)":"08d887d0","setHalfLifeDuration(uint256)":"0f3f0803","setInactivityResetPeriod(uint256)":"6cd9ca14","setMaxHalfLifeDuration(uint256)":"57fe51d2","setMinHalfLifeDuration(uint256)":"76223a27","setTreasuryAddress(address)":"6605bfda","supportsInterface(bytes4)":"01ffc9a7","symbol()":"95d89b41","totalSupply()":"18160ddd","transactionCountBetween(address,address)":"8ffa15d4","transfer(address,uint256)":"a9059cbb","transferData(address)":"62d3f814","transferFrom(address,address,uint256)":"23b872dd","treasuryAddress()":"c5f956af","unpause()":"3f4ba83a","walletRiskProfiles(address)":"3d8d1dce"}}}}}