{
  "_format": "hh-sol-artifact-1",
  "contractName": "T3Token",
  "sourceName": "contracts/T3Token.sol",
  "abi": [
    {
      "inputs": [],
      "stateMutability": "nonpayable",
      "type": "constructor"
    },
    {
      "inputs": [],
      "name": "AccessControlBadConfirmation",
      "type": "error"
    },
    {
      "inputs": [
        {
          "internalType": "address",
          "name": "account",
          "type": "address"
        },
        {
          "internalType": "bytes32",
          "name": "neededRole",
          "type": "bytes32"
        }
      ],
      "name": "AccessControlUnauthorizedAccount",
      "type": "error"
    },
    {
      "inputs": [
        {
          "internalType": "address",
          "name": "target",
          "type": "address"
        }
      ],
      "name": "AddressEmptyCode",
      "type": "error"
    },
    {
      "inputs": [
        {
          "internalType": "address",
          "name": "implementation",
          "type": "address"
        }
      ],
      "name": "ERC1967InvalidImplementation",
      "type": "error"
    },
    {
      "inputs": [],
      "name": "ERC1967NonPayable",
      "type": "error"
    },
    {
      "inputs": [
        {
          "internalType": "address",
          "name": "spender",
          "type": "address"
        },
        {
          "internalType": "uint256",
          "name": "allowance",
          "type": "uint256"
        },
        {
          "internalType": "uint256",
          "name": "needed",
          "type": "uint256"
        }
      ],
      "name": "ERC20InsufficientAllowance",
      "type": "error"
    },
    {
      "inputs": [
        {
          "internalType": "address",
          "name": "sender",
          "type": "address"
        },
        {
          "internalType": "uint256",
          "name": "balance",
          "type": "uint256"
        },
        {
          "internalType": "uint256",
          "name": "needed",
          "type": "uint256"
        }
      ],
      "name": "ERC20InsufficientBalance",
      "type": "error"
    },
    {
      "inputs": [
        {
          "internalType": "address",
          "name": "approver",
          "type": "address"
        }
      ],
      "name": "ERC20InvalidApprover",
      "type": "error"
    },
    {
      "inputs": [
        {
          "internalType": "address",
          "name": "receiver",
          "type": "address"
        }
      ],
      "name": "ERC20InvalidReceiver",
      "type": "error"
    },
    {
      "inputs": [
        {
          "internalType": "address",
          "name": "sender",
          "type": "address"
        }
      ],
      "name": "ERC20InvalidSender",
      "type": "error"
    },
    {
      "inputs": [
        {
          "internalType": "address",
          "name": "spender",
          "type": "address"
        }
      ],
      "name": "ERC20InvalidSpender",
      "type": "error"
    },
    {
      "inputs": [],
      "name": "EnforcedPause",
      "type": "error"
    },
    {
      "inputs": [],
      "name": "ExpectedPause",
      "type": "error"
    },
    {
      "inputs": [],
      "name": "FailedCall",
      "type": "error"
    },
    {
      "inputs": [],
      "name": "InvalidInitialization",
      "type": "error"
    },
    {
      "inputs": [],
      "name": "NotInitializing",
      "type": "error"
    },
    {
      "inputs": [],
      "name": "ReentrancyGuardReentrantCall",
      "type": "error"
    },
    {
      "inputs": [],
      "name": "UUPSUnauthorizedCallContext",
      "type": "error"
    },
    {
      "inputs": [
        {
          "internalType": "bytes32",
          "name": "slot",
          "type": "bytes32"
        }
      ],
      "name": "UUPSUnsupportedProxiableUUID",
      "type": "error"
    },
    {
      "anonymous": false,
      "inputs": [
        {
          "indexed": true,
          "internalType": "address",
          "name": "owner",
          "type": "address"
        },
        {
          "indexed": true,
          "internalType": "address",
          "name": "spender",
          "type": "address"
        },
        {
          "indexed": false,
          "internalType": "uint256",
          "name": "value",
          "type": "uint256"
        }
      ],
      "name": "Approval",
      "type": "event"
    },
    {
      "anonymous": false,
      "inputs": [
        {
          "indexed": true,
          "internalType": "address",
          "name": "user",
          "type": "address"
        },
        {
          "indexed": false,
          "internalType": "uint256",
          "name": "amount",
          "type": "uint256"
        }
      ],
      "name": "FeePrefunded",
      "type": "event"
    },
    {
      "anonymous": false,
      "inputs": [
        {
          "indexed": true,
          "internalType": "address",
          "name": "wallet",
          "type": "address"
        },
        {
          "indexed": false,
          "internalType": "uint256",
          "name": "timestamp",
          "type": "uint256"
        }
      ],
      "name": "HalfLifeExpired",
      "type": "event"
    },
    {
      "anonymous": false,
      "inputs": [
        {
          "indexed": true,
          "internalType": "address",
          "name": "user",
          "type": "address"
        },
        {
          "indexed": false,
          "internalType": "uint256",
          "name": "amountUsed",
          "type": "uint256"
        }
      ],
      "name": "IncentiveCreditUsed",
      "type": "event"
    },
    {
      "anonymous": false,
      "inputs": [
        {
          "indexed": false,
          "internalType": "uint64",
          "name": "version",
          "type": "uint64"
        }
      ],
      "name": "Initialized",
      "type": "event"
    },
    {
      "anonymous": false,
      "inputs": [
        {
          "indexed": true,
          "internalType": "address",
          "name": "debtor",
          "type": "address"
        },
        {
          "indexed": true,
          "internalType": "address",
          "name": "creditor",
          "type": "address"
        },
        {
          "indexed": false,
          "internalType": "uint256",
          "name": "amountCleared",
          "type": "uint256"
        }
      ],
      "name": "InterbankLiabilityCleared",
      "type": "event"
    },
    {
      "anonymous": false,
      "inputs": [
        {
          "indexed": true,
          "internalType": "address",
          "name": "debtor",
          "type": "address"
        },
        {
          "indexed": true,
          "internalType": "address",
          "name": "creditor",
          "type": "address"
        },
        {
          "indexed": false,
          "internalType": "uint256",
          "name": "amount",
          "type": "uint256"
        }
      ],
      "name": "InterbankLiabilityRecorded",
      "type": "event"
    },
    {
      "anonymous": false,
      "inputs": [
        {
          "indexed": true,
          "internalType": "address",
          "name": "wallet",
          "type": "address"
        },
        {
          "indexed": false,
          "internalType": "uint256",
          "name": "amount",
          "type": "uint256"
        }
      ],
      "name": "LoyaltyRefundProcessed",
      "type": "event"
    },
    {
      "anonymous": false,
      "inputs": [
        {
          "indexed": false,
          "internalType": "address",
          "name": "account",
          "type": "address"
        }
      ],
      "name": "Paused",
      "type": "event"
    },
    {
      "anonymous": false,
      "inputs": [
        {
          "indexed": true,
          "internalType": "address",
          "name": "user",
          "type": "address"
        },
        {
          "indexed": false,
          "internalType": "uint256",
          "name": "amountUsed",
          "type": "uint256"
        }
      ],
      "name": "PrefundedFeeUsed",
      "type": "event"
    },
    {
      "anonymous": false,
      "inputs": [
        {
          "indexed": true,
          "internalType": "address",
          "name": "user",
          "type": "address"
        },
        {
          "indexed": false,
          "internalType": "uint256",
          "name": "amount",
          "type": "uint256"
        }
      ],
      "name": "PrefundedFeeWithdrawn",
      "type": "event"
    },
    {
      "anonymous": false,
      "inputs": [
        {
          "indexed": true,
          "internalType": "address",
          "name": "wallet",
          "type": "address"
        },
        {
          "indexed": false,
          "internalType": "uint256",
          "name": "newRiskFactor",
          "type": "uint256"
        }
      ],
      "name": "RiskFactorUpdated",
      "type": "event"
    },
    {
      "anonymous": false,
      "inputs": [
        {
          "indexed": true,
          "internalType": "bytes32",
          "name": "role",
          "type": "bytes32"
        },
        {
          "indexed": true,
          "internalType": "bytes32",
          "name": "previousAdminRole",
          "type": "bytes32"
        },
        {
          "indexed": true,
          "internalType": "bytes32",
          "name": "newAdminRole",
          "type": "bytes32"
        }
      ],
      "name": "RoleAdminChanged",
      "type": "event"
    },
    {
      "anonymous": false,
      "inputs": [
        {
          "indexed": true,
          "internalType": "bytes32",
          "name": "role",
          "type": "bytes32"
        },
        {
          "indexed": true,
          "internalType": "address",
          "name": "account",
          "type": "address"
        },
        {
          "indexed": true,
          "internalType": "address",
          "name": "sender",
          "type": "address"
        }
      ],
      "name": "RoleGranted",
      "type": "event"
    },
    {
      "anonymous": false,
      "inputs": [
        {
          "indexed": true,
          "internalType": "bytes32",
          "name": "role",
          "type": "bytes32"
        },
        {
          "indexed": true,
          "internalType": "address",
          "name": "account",
          "type": "address"
        },
        {
          "indexed": true,
          "internalType": "address",
          "name": "sender",
          "type": "address"
        }
      ],
      "name": "RoleRevoked",
      "type": "event"
    },
    {
      "anonymous": false,
      "inputs": [
        {
          "indexed": true,
          "internalType": "address",
          "name": "minter",
          "type": "address"
        },
        {
          "indexed": true,
          "internalType": "address",
          "name": "recipient",
          "type": "address"
        },
        {
          "indexed": false,
          "internalType": "uint256",
          "name": "amount",
          "type": "uint256"
        }
      ],
      "name": "TokensMinted",
      "type": "event"
    },
    {
      "anonymous": false,
      "inputs": [
        {
          "indexed": true,
          "internalType": "address",
          "name": "from",
          "type": "address"
        },
        {
          "indexed": true,
          "internalType": "address",
          "name": "to",
          "type": "address"
        },
        {
          "indexed": false,
          "internalType": "uint256",
          "name": "value",
          "type": "uint256"
        }
      ],
      "name": "Transfer",
      "type": "event"
    },
    {
      "anonymous": false,
      "inputs": [
        {
          "indexed": true,
          "internalType": "address",
          "name": "from",
          "type": "address"
        },
        {
          "indexed": true,
          "internalType": "address",
          "name": "to",
          "type": "address"
        },
        {
          "indexed": false,
          "internalType": "uint256",
          "name": "amount",
          "type": "uint256"
        }
      ],
      "name": "TransferReversed",
      "type": "event"
    },
    {
      "anonymous": false,
      "inputs": [
        {
          "indexed": true,
          "internalType": "address",
          "name": "from",
          "type": "address"
        },
        {
          "indexed": true,
          "internalType": "address",
          "name": "to",
          "type": "address"
        },
        {
          "indexed": false,
          "internalType": "uint256",
          "name": "amountSentToRecipient",
          "type": "uint256"
        },
        {
          "indexed": false,
          "internalType": "uint256",
          "name": "totalFeeAssessed",
          "type": "uint256"
        },
        {
          "indexed": false,
          "internalType": "uint256",
          "name": "feePaidFromBalance",
          "type": "uint256"
        },
        {
          "indexed": false,
          "internalType": "uint256",
          "name": "feePaidFromPrefund",
          "type": "uint256"
        },
        {
          "indexed": false,
          "internalType": "uint256",
          "name": "feePaidFromCredits",
          "type": "uint256"
        }
      ],
      "name": "TransferWithFee",
      "type": "event"
    },
    {
      "anonymous": false,
      "inputs": [
        {
          "indexed": false,
          "internalType": "address",
          "name": "account",
          "type": "address"
        }
      ],
      "name": "Unpaused",
      "type": "event"
    },
    {
      "anonymous": false,
      "inputs": [
        {
          "indexed": true,
          "internalType": "address",
          "name": "implementation",
          "type": "address"
        }
      ],
      "name": "Upgraded",
      "type": "event"
    },
    {
      "inputs": [],
      "name": "ADMIN_ROLE",
      "outputs": [
        {
          "internalType": "bytes32",
          "name": "",
          "type": "bytes32"
        }
      ],
      "stateMutability": "view",
      "type": "function"
    },
    {
      "inputs": [],
      "name": "BURNER_ROLE",
      "outputs": [
        {
          "internalType": "bytes32",
          "name": "",
          "type": "bytes32"
        }
      ],
      "stateMutability": "view",
      "type": "function"
    },
    {
      "inputs": [],
      "name": "DEFAULT_ADMIN_ROLE",
      "outputs": [
        {
          "internalType": "bytes32",
          "name": "",
          "type": "bytes32"
        }
      ],
      "stateMutability": "view",
      "type": "function"
    },
    {
      "inputs": [],
      "name": "MINTER_ROLE",
      "outputs": [
        {
          "internalType": "bytes32",
          "name": "",
          "type": "bytes32"
        }
      ],
      "stateMutability": "view",
      "type": "function"
    },
    {
      "inputs": [],
      "name": "PAUSER_ROLE",
      "outputs": [
        {
          "internalType": "bytes32",
          "name": "",
          "type": "bytes32"
        }
      ],
      "stateMutability": "view",
      "type": "function"
    },
    {
      "inputs": [],
      "name": "UPGRADE_INTERFACE_VERSION",
      "outputs": [
        {
          "internalType": "string",
          "name": "",
          "type": "string"
        }
      ],
      "stateMutability": "view",
      "type": "function"
    },
    {
      "inputs": [
        {
          "internalType": "address",
          "name": "owner",
          "type": "address"
        },
        {
          "internalType": "address",
          "name": "spender",
          "type": "address"
        }
      ],
      "name": "allowance",
      "outputs": [
        {
          "internalType": "uint256",
          "name": "",
          "type": "uint256"
        }
      ],
      "stateMutability": "view",
      "type": "function"
    },
    {
      "inputs": [
        {
          "internalType": "address",
          "name": "spender",
          "type": "address"
        },
        {
          "internalType": "uint256",
          "name": "value",
          "type": "uint256"
        }
      ],
      "name": "approve",
      "outputs": [
        {
          "internalType": "bool",
          "name": "",
          "type": "bool"
        }
      ],
      "stateMutability": "nonpayable",
      "type": "function"
    },
    {
      "inputs": [
        {
          "internalType": "address",
          "name": "account",
          "type": "address"
        }
      ],
      "name": "balanceOf",
      "outputs": [
        {
          "internalType": "uint256",
          "name": "",
          "type": "uint256"
        }
      ],
      "stateMutability": "view",
      "type": "function"
    },
    {
      "inputs": [
        {
          "internalType": "uint256",
          "name": "amount",
          "type": "uint256"
        }
      ],
      "name": "burn",
      "outputs": [],
      "stateMutability": "nonpayable",
      "type": "function"
    },
    {
      "inputs": [
        {
          "internalType": "address",
          "name": "account",
          "type": "address"
        },
        {
          "internalType": "uint256",
          "name": "amount",
          "type": "uint256"
        }
      ],
      "name": "burnFrom",
      "outputs": [],
      "stateMutability": "nonpayable",
      "type": "function"
    },
    {
      "inputs": [
        {
          "internalType": "address",
          "name": "wallet",
          "type": "address"
        }
      ],
      "name": "calculateRiskFactor",
      "outputs": [
        {
          "internalType": "uint256",
          "name": "",
          "type": "uint256"
        }
      ],
      "stateMutability": "view",
      "type": "function"
    },
    {
      "inputs": [
        {
          "internalType": "address",
          "name": "wallet",
          "type": "address"
        }
      ],
      "name": "checkHalfLifeExpiry",
      "outputs": [],
      "stateMutability": "nonpayable",
      "type": "function"
    },
    {
      "inputs": [
        {
          "internalType": "address",
          "name": "debtor",
          "type": "address"
        },
        {
          "internalType": "address",
          "name": "creditor",
          "type": "address"
        },
        {
          "internalType": "uint256",
          "name": "amountToClear",
          "type": "uint256"
        }
      ],
      "name": "clearInterbankLiability",
      "outputs": [],
      "stateMutability": "nonpayable",
      "type": "function"
    },
    {
      "inputs": [],
      "name": "decimals",
      "outputs": [
        {
          "internalType": "uint8",
          "name": "",
          "type": "uint8"
        }
      ],
      "stateMutability": "view",
      "type": "function"
    },
    {
      "inputs": [
        {
          "internalType": "address",
          "name": "sender",
          "type": "address"
        },
        {
          "internalType": "address",
          "name": "recipient",
          "type": "address"
        },
        {
          "internalType": "uint256",
          "name": "amountIntendedForRecipient",
          "type": "uint256"
        }
      ],
      "name": "estimateTransferFeeDetails",
      "outputs": [
        {
          "components": [
            {
              "internalType": "uint256",
              "name": "requestedAmount",
              "type": "uint256"
            },
            {
              "internalType": "uint256",
              "name": "baseFeeAmount",
              "type": "uint256"
            },
            {
              "internalType": "uint256",
              "name": "senderRiskScore",
              "type": "uint256"
            },
            {
              "internalType": "uint256",
              "name": "recipientRiskScore",
              "type": "uint256"
            },
            {
              "internalType": "uint256",
              "name": "applicableRiskScore",
              "type": "uint256"
            },
            {
              "internalType": "uint256",
              "name": "amountRiskScaler",
              "type": "uint256"
            },
            {
              "internalType": "uint256",
              "name": "scaledRiskImpactBps",
              "type": "uint256"
            },
            {
              "internalType": "uint256",
              "name": "finalRiskFactorBps",
              "type": "uint256"
            },
            {
              "internalType": "uint256",
              "name": "feeBeforeCreditsAndBounds",
              "type": "uint256"
            },
            {
              "internalType": "uint256",
              "name": "availableCredits",
              "type": "uint256"
            },
            {
              "internalType": "uint256",
              "name": "creditsToApply",
              "type": "uint256"
            },
            {
              "internalType": "uint256",
              "name": "feeAfterCredits",
              "type": "uint256"
            },
            {
              "internalType": "uint256",
              "name": "maxFeeBound",
              "type": "uint256"
            },
            {
              "internalType": "uint256",
              "name": "minFeeBound",
              "type": "uint256"
            },
            {
              "internalType": "bool",
              "name": "maxFeeApplied",
              "type": "bool"
            },
            {
              "internalType": "bool",
              "name": "minFeeApplied",
              "type": "bool"
            },
            {
              "internalType": "uint256",
              "name": "totalFeeAssessed",
              "type": "uint256"
            },
            {
              "internalType": "uint256",
              "name": "netAmountToSendToRecipient",
              "type": "uint256"
            }
          ],
          "internalType": "struct T3Token.FeeDetails",
          "name": "details",
          "type": "tuple"
        }
      ],
      "stateMutability": "view",
      "type": "function"
    },
    {
      "inputs": [
        {
          "internalType": "address",
          "name": "wallet",
          "type": "address"
        }
      ],
      "name": "flagAbnormalTransaction",
      "outputs": [],
      "stateMutability": "nonpayable",
      "type": "function"
    },
    {
      "inputs": [
        {
          "internalType": "address",
          "name": "wallet",
          "type": "address"
        }
      ],
      "name": "getAvailableCredits",
      "outputs": [
        {
          "internalType": "uint256",
          "name": "",
          "type": "uint256"
        }
      ],
      "stateMutability": "view",
      "type": "function"
    },
    {
      "inputs": [
        {
          "internalType": "address",
          "name": "wallet",
          "type": "address"
        }
      ],
      "name": "getPrefundedFeeBalance",
      "outputs": [
        {
          "internalType": "uint256",
          "name": "",
          "type": "uint256"
        }
      ],
      "stateMutability": "view",
      "type": "function"
    },
    {
      "inputs": [
        {
          "internalType": "bytes32",
          "name": "role",
          "type": "bytes32"
        }
      ],
      "name": "getRoleAdmin",
      "outputs": [
        {
          "internalType": "bytes32",
          "name": "",
          "type": "bytes32"
        }
      ],
      "stateMutability": "view",
      "type": "function"
    },
    {
      "inputs": [
        {
          "internalType": "bytes32",
          "name": "role",
          "type": "bytes32"
        },
        {
          "internalType": "address",
          "name": "account",
          "type": "address"
        }
      ],
      "name": "grantRole",
      "outputs": [],
      "stateMutability": "nonpayable",
      "type": "function"
    },
    {
      "inputs": [],
      "name": "halfLifeDuration",
      "outputs": [
        {
          "internalType": "uint256",
          "name": "",
          "type": "uint256"
        }
      ],
      "stateMutability": "view",
      "type": "function"
    },
    {
      "inputs": [
        {
          "internalType": "bytes32",
          "name": "role",
          "type": "bytes32"
        },
        {
          "internalType": "address",
          "name": "account",
          "type": "address"
        }
      ],
      "name": "hasRole",
      "outputs": [
        {
          "internalType": "bool",
          "name": "",
          "type": "bool"
        }
      ],
      "stateMutability": "view",
      "type": "function"
    },
    {
      "inputs": [],
      "name": "inactivityResetPeriod",
      "outputs": [
        {
          "internalType": "uint256",
          "name": "",
          "type": "uint256"
        }
      ],
      "stateMutability": "view",
      "type": "function"
    },
    {
      "inputs": [
        {
          "internalType": "address",
          "name": "",
          "type": "address"
        }
      ],
      "name": "incentiveCredits",
      "outputs": [
        {
          "internalType": "uint256",
          "name": "amount",
          "type": "uint256"
        },
        {
          "internalType": "uint256",
          "name": "lastUpdated",
          "type": "uint256"
        }
      ],
      "stateMutability": "view",
      "type": "function"
    },
    {
      "inputs": [
        {
          "internalType": "string",
          "name": "name",
          "type": "string"
        },
        {
          "internalType": "string",
          "name": "symbol",
          "type": "string"
        },
        {
          "internalType": "address",
          "name": "initialAdmin",
          "type": "address"
        },
        {
          "internalType": "address",
          "name": "_treasuryAddress",
          "type": "address"
        },
        {
          "internalType": "uint256",
          "name": "initialMintAmount",
          "type": "uint256"
        },
        {
          "internalType": "uint256",
          "name": "_initialHalfLifeDuration",
          "type": "uint256"
        },
        {
          "internalType": "uint256",
          "name": "_initialMinHalfLifeDuration",
          "type": "uint256"
        },
        {
          "internalType": "uint256",
          "name": "_initialMaxHalfLifeDuration",
          "type": "uint256"
        },
        {
          "internalType": "uint256",
          "name": "_initialInactivityResetPeriod",
          "type": "uint256"
        }
      ],
      "name": "initialize",
      "outputs": [],
      "stateMutability": "nonpayable",
      "type": "function"
    },
    {
      "inputs": [
        {
          "internalType": "address",
          "name": "",
          "type": "address"
        },
        {
          "internalType": "address",
          "name": "",
          "type": "address"
        }
      ],
      "name": "interbankLiability",
      "outputs": [
        {
          "internalType": "uint256",
          "name": "",
          "type": "uint256"
        }
      ],
      "stateMutability": "view",
      "type": "function"
    },
    {
      "inputs": [],
      "name": "maxHalfLifeDuration",
      "outputs": [
        {
          "internalType": "uint256",
          "name": "",
          "type": "uint256"
        }
      ],
      "stateMutability": "view",
      "type": "function"
    },
    {
      "inputs": [],
      "name": "minHalfLifeDuration",
      "outputs": [
        {
          "internalType": "uint256",
          "name": "",
          "type": "uint256"
        }
      ],
      "stateMutability": "view",
      "type": "function"
    },
    {
      "inputs": [
        {
          "internalType": "address",
          "name": "recipient",
          "type": "address"
        },
        {
          "internalType": "uint256",
          "name": "amount",
          "type": "uint256"
        }
      ],
      "name": "mint",
      "outputs": [],
      "stateMutability": "nonpayable",
      "type": "function"
    },
    {
      "inputs": [
        {
          "internalType": "address",
          "name": "",
          "type": "address"
        }
      ],
      "name": "mintedByMinter",
      "outputs": [
        {
          "internalType": "uint256",
          "name": "",
          "type": "uint256"
        }
      ],
      "stateMutability": "view",
      "type": "function"
    },
    {
      "inputs": [],
      "name": "name",
      "outputs": [
        {
          "internalType": "string",
          "name": "",
          "type": "string"
        }
      ],
      "stateMutability": "view",
      "type": "function"
    },
    {
      "inputs": [],
      "name": "pause",
      "outputs": [],
      "stateMutability": "nonpayable",
      "type": "function"
    },
    {
      "inputs": [],
      "name": "paused",
      "outputs": [
        {
          "internalType": "bool",
          "name": "",
          "type": "bool"
        }
      ],
      "stateMutability": "view",
      "type": "function"
    },
    {
      "inputs": [
        {
          "internalType": "uint256",
          "name": "amount",
          "type": "uint256"
        }
      ],
      "name": "prefundFees",
      "outputs": [],
      "stateMutability": "nonpayable",
      "type": "function"
    },
    {
      "inputs": [
        {
          "internalType": "address",
          "name": "",
          "type": "address"
        }
      ],
      "name": "prefundedFeeBalances",
      "outputs": [
        {
          "internalType": "uint256",
          "name": "",
          "type": "uint256"
        }
      ],
      "stateMutability": "view",
      "type": "function"
    },
    {
      "inputs": [],
      "name": "proxiableUUID",
      "outputs": [
        {
          "internalType": "bytes32",
          "name": "",
          "type": "bytes32"
        }
      ],
      "stateMutability": "view",
      "type": "function"
    },
    {
      "inputs": [
        {
          "internalType": "address",
          "name": "debtor",
          "type": "address"
        },
        {
          "internalType": "address",
          "name": "creditor",
          "type": "address"
        },
        {
          "internalType": "uint256",
          "name": "amount",
          "type": "uint256"
        }
      ],
      "name": "recordInterbankLiability",
      "outputs": [],
      "stateMutability": "nonpayable",
      "type": "function"
    },
    {
      "inputs": [
        {
          "internalType": "bytes32",
          "name": "role",
          "type": "bytes32"
        },
        {
          "internalType": "address",
          "name": "callerConfirmation",
          "type": "address"
        }
      ],
      "name": "renounceRole",
      "outputs": [],
      "stateMutability": "nonpayable",
      "type": "function"
    },
    {
      "inputs": [
        {
          "internalType": "address",
          "name": "recipientOfOriginalTransfer",
          "type": "address"
        },
        {
          "internalType": "uint256",
          "name": "amountToReverse",
          "type": "uint256"
        }
      ],
      "name": "reverseTransfer",
      "outputs": [],
      "stateMutability": "nonpayable",
      "type": "function"
    },
    {
      "inputs": [
        {
          "internalType": "bytes32",
          "name": "role",
          "type": "bytes32"
        },
        {
          "internalType": "address",
          "name": "account",
          "type": "address"
        }
      ],
      "name": "revokeRole",
      "outputs": [],
      "stateMutability": "nonpayable",
      "type": "function"
    },
    {
      "inputs": [
        {
          "internalType": "address",
          "name": "",
          "type": "address"
        }
      ],
      "name": "rollingAverages",
      "outputs": [
        {
          "internalType": "uint256",
          "name": "totalAmount",
          "type": "uint256"
        },
        {
          "internalType": "uint256",
          "name": "count",
          "type": "uint256"
        },
        {
          "internalType": "uint256",
          "name": "lastUpdated",
          "type": "uint256"
        }
      ],
      "stateMutability": "view",
      "type": "function"
    },
    {
      "inputs": [
        {
          "internalType": "uint256",
          "name": "_halfLifeDuration",
          "type": "uint256"
        }
      ],
      "name": "setHalfLifeDuration",
      "outputs": [],
      "stateMutability": "nonpayable",
      "type": "function"
    },
    {
      "inputs": [
        {
          "internalType": "uint256",
          "name": "_inactivityResetPeriod",
          "type": "uint256"
        }
      ],
      "name": "setInactivityResetPeriod",
      "outputs": [],
      "stateMutability": "nonpayable",
      "type": "function"
    },
    {
      "inputs": [
        {
          "internalType": "uint256",
          "name": "_maxHalfLifeDuration",
          "type": "uint256"
        }
      ],
      "name": "setMaxHalfLifeDuration",
      "outputs": [],
      "stateMutability": "nonpayable",
      "type": "function"
    },
    {
      "inputs": [
        {
          "internalType": "uint256",
          "name": "_minHalfLifeDuration",
          "type": "uint256"
        }
      ],
      "name": "setMinHalfLifeDuration",
      "outputs": [],
      "stateMutability": "nonpayable",
      "type": "function"
    },
    {
      "inputs": [
        {
          "internalType": "address",
          "name": "_treasuryAddress",
          "type": "address"
        }
      ],
      "name": "setTreasuryAddress",
      "outputs": [],
      "stateMutability": "nonpayable",
      "type": "function"
    },
    {
      "inputs": [
        {
          "internalType": "bytes4",
          "name": "interfaceId",
          "type": "bytes4"
        }
      ],
      "name": "supportsInterface",
      "outputs": [
        {
          "internalType": "bool",
          "name": "",
          "type": "bool"
        }
      ],
      "stateMutability": "view",
      "type": "function"
    },
    {
      "inputs": [],
      "name": "symbol",
      "outputs": [
        {
          "internalType": "string",
          "name": "",
          "type": "string"
        }
      ],
      "stateMutability": "view",
      "type": "function"
    },
    {
      "inputs": [],
      "name": "totalSupply",
      "outputs": [
        {
          "internalType": "uint256",
          "name": "",
          "type": "uint256"
        }
      ],
      "stateMutability": "view",
      "type": "function"
    },
    {
      "inputs": [
        {
          "internalType": "address",
          "name": "",
          "type": "address"
        },
        {
          "internalType": "address",
          "name": "",
          "type": "address"
        }
      ],
      "name": "transactionCountBetween",
      "outputs": [
        {
          "internalType": "uint256",
          "name": "",
          "type": "uint256"
        }
      ],
      "stateMutability": "view",
      "type": "function"
    },
    {
      "inputs": [
        {
          "internalType": "address",
          "name": "recipient",
          "type": "address"
        },
        {
          "internalType": "uint256",
          "name": "amountIntendedForRecipient",
          "type": "uint256"
        }
      ],
      "name": "transfer",
      "outputs": [
        {
          "internalType": "bool",
          "name": "",
          "type": "bool"
        }
      ],
      "stateMutability": "nonpayable",
      "type": "function"
    },
    {
      "inputs": [
        {
          "internalType": "address",
          "name": "",
          "type": "address"
        }
      ],
      "name": "transferData",
      "outputs": [
        {
          "internalType": "uint256",
          "name": "commitWindowEnd",
          "type": "uint256"
        },
        {
          "internalType": "uint256",
          "name": "halfLifeDuration",
          "type": "uint256"
        },
        {
          "internalType": "address",
          "name": "originator",
          "type": "address"
        },
        {
          "internalType": "uint256",
          "name": "transferCount",
          "type": "uint256"
        },
        {
          "internalType": "bytes32",
          "name": "reversalHash",
          "type": "bytes32"
        },
        {
          "internalType": "uint256",
          "name": "totalFeeAssessed",
          "type": "uint256"
        },
        {
          "internalType": "bool",
          "name": "isReversed",
          "type": "bool"
        }
      ],
      "stateMutability": "view",
      "type": "function"
    },
    {
      "inputs": [
        {
          "internalType": "address",
          "name": "from",
          "type": "address"
        },
        {
          "internalType": "address",
          "name": "to",
          "type": "address"
        },
        {
          "internalType": "uint256",
          "name": "amountIntendedForRecipient",
          "type": "uint256"
        }
      ],
      "name": "transferFrom",
      "outputs": [
        {
          "internalType": "bool",
          "name": "",
          "type": "bool"
        }
      ],
      "stateMutability": "nonpayable",
      "type": "function"
    },
    {
      "inputs": [],
      "name": "treasuryAddress",
      "outputs": [
        {
          "internalType": "address",
          "name": "",
          "type": "address"
        }
      ],
      "stateMutability": "view",
      "type": "function"
    },
    {
      "inputs": [],
      "name": "unpause",
      "outputs": [],
      "stateMutability": "nonpayable",
      "type": "function"
    },
    {
      "inputs": [
        {
          "internalType": "address",
          "name": "newImplementation",
          "type": "address"
        },
        {
          "internalType": "bytes",
          "name": "data",
          "type": "bytes"
        }
      ],
      "name": "upgradeToAndCall",
      "outputs": [],
      "stateMutability": "payable",
      "type": "function"
    },
    {
      "inputs": [
        {
          "internalType": "address",
          "name": "",
          "type": "address"
        }
      ],
      "name": "walletRiskProfiles",
      "outputs": [
        {
          "internalType": "uint256",
          "name": "reversalCount",
          "type": "uint256"
        },
        {
          "internalType": "uint256",
          "name": "lastReversal",
          "type": "uint256"
        },
        {
          "internalType": "uint256",
          "name": "creationTime",
          "type": "uint256"
        },
        {
          "internalType": "uint256",
          "name": "abnormalTxCount",
          "type": "uint256"
        }
      ],
      "stateMutability": "view",
      "type": "function"
    },
    {
      "inputs": [
        {
          "internalType": "uint256",
          "name": "amount",
          "type": "uint256"
        }
      ],
      "name": "withdrawPrefundedFees",
      "outputs": [],
      "stateMutability": "nonpayable",
      "type": "function"
    }
  ],
  "bytecode": "0x60a0604052306080523480156200001557600080fd5b506200002062000026565b620000da565b7ff0c57e16840df040f15088dc2f81fe391c3923bec73e23a9662efc9c229c6a00805468010000000000000000900460ff1615620000775760405163f92ee8a960e01b815260040160405180910390fd5b80546001600160401b0390811614620000d75780546001600160401b0319166001600160401b0390811782556040519081527fc7f505b2f371ae2175ee4913f4499e1f2633a7b5936321eed1cdaeb6115181d29060200160405180910390a15b50565b608051614d966200010460003960008181612f8701528181612fb001526131010152614d966000f3fe60806040526004361061038c5760003560e01c80636605bfda116101dc578063a217fddf11610102578063d5391393116100a0578063e63ab1e91161006f578063e63ab1e914610c37578063e697da6814610c59578063f58978cc14610d47578063f7ad9ca514610d6757600080fd5b8063d539139314610ba3578063d547741f14610bd7578063dd62ed3e14610bf7578063dd7faab114610c1757600080fd5b8063af20d942116100dc578063af20d94214610aff578063b065a8e514610b1f578063c5f956af14610b55578063c750f20314610b8d57600080fd5b8063a217fddf14610a99578063a9059cbb14610aae578063ad3cb1cc14610ace57600080fd5b806377647f271161017a5780638ffa15d4116101495780638ffa15d4146109ff578063905b7fcb14610a3757806391d1485414610a6457806395d89b4114610a8457600080fd5b806377647f271461097e57806379cc6790146109b4578063800753cf146109d45780638456cb59146109ea57600080fd5b80636e2fae47116101b65780636e2fae47146108fc57806370a082311461091c57806375b238fc1461093c57806376223a271461095e57600080fd5b80636605bfda1461089c5780636b6ef953146108bc5780636cd9ca14146108dc57600080fd5b806336568abe116102c15780634f1ef2861161025f5780635a0f385a1161022e5780635a0f385a146107745780635c975abb146107945780635ed61097146107b957806362d3f814146107f157600080fd5b80634f1ef2861461070c578063508c06341461071f57806352d1902d1461073f57806357fe51d21461075457600080fd5b806340c10f191161029b57806340c10f191461069657806342966c68146106b65780634c915d18146106d65780634d8183cc146106ec57600080fd5b806336568abe146105ff5780633d8d1dce1461061f5780633f4ba83a1461068157600080fd5b806318160ddd1161032e578063282c51f311610308578063282c51f3146105625780632f2ff15d14610596578063313ce567146105b657806333dcdacb146105d257600080fd5b806318160ddd146104ee57806323b872dd14610522578063248a9ca31461054257600080fd5b806308d887d01161036a57806308d887d01461040c578063095ea7b3146104635780630c27ab5a146104835780630f3f0803146104cc57600080fd5b806301ffc9a71461039157806303833501146103c657806306fdde03146103ea575b600080fd5b34801561039d57600080fd5b506103b16103ac366004614647565b610d87565b60405190151581526020015b60405180910390f35b3480156103d257600080fd5b506103dc60035481565b6040519081526020016103bd565b3480156103f657600080fd5b506103ff610d98565b6040516103bd9190614695565b34801561041857600080fd5b506104486104273660046146e4565b60066020526000908152604090208054600182015460029092015490919083565b604080519384526020840192909252908201526060016103bd565b34801561046f57600080fd5b506103b161047e3660046146ff565b610e5b565b34801561048f57600080fd5b506104b761049e3660046146e4565b6009602052600090815260409020805460019091015482565b604080519283526020830191909152016103bd565b3480156104d857600080fd5b506104ec6104e7366004614729565b610e73565b005b3480156104fa57600080fd5b507f52c63247e1f47db19d5ce0460030c497f067ca4cebf71ba98eeadabe20bace02546103dc565b34801561052e57600080fd5b506103b161053d366004614742565b610f1a565b34801561054e57600080fd5b506103dc61055d366004614729565b610f48565b34801561056e57600080fd5b506103dc7f3c11d16cbaffd01df69ce1c404f6340ee057498f5f00246190ea54220576a84881565b3480156105a257600080fd5b506104ec6105b136600461477e565b610f6a565b3480156105c257600080fd5b50604051601281526020016103bd565b3480156105de57600080fd5b506103dc6105ed3660046146e4565b600c6020526000908152604090205481565b34801561060b57600080fd5b506104ec61061a36600461477e565b610f8c565b34801561062b57600080fd5b5061066161063a3660046146e4565b60086020526000908152604090208054600182015460028301546003909301549192909184565b6040805194855260208501939093529183015260608201526080016103bd565b34801561068d57600080fd5b506104ec610fc4565b3480156106a257600080fd5b506104ec6106b13660046146ff565b610fe7565b3480156106c257600080fd5b506104ec6106d1366004614729565b611154565b3480156106e257600080fd5b506103dc60005481565b3480156106f857600080fd5b506104ec610707366004614742565b6111b6565b6104ec61071a366004614836565b611425565b34801561072b57600080fd5b506104ec61073a3660046146e4565b611444565b34801561074b57600080fd5b506103dc61173c565b34801561076057600080fd5b506104ec61076f366004614729565b611759565b34801561078057600080fd5b506104ec61078f3660046146ff565b611817565b3480156107a057600080fd5b50600080516020614d218339815191525460ff166103b1565b3480156107c557600080fd5b506103dc6107d4366004614898565b600b60209081526000928352604080842090915290825290205481565b3480156107fd57600080fd5b5061085761080c3660046146e4565b60056020819052600091825260409091208054600182015460028301546003840154600485015495850154600690950154939592946001600160a01b03909216939092919060ff1687565b6040805197885260208801969096526001600160a01b03909416948601949094526060850191909152608084015260a0830191909152151560c082015260e0016103bd565b3480156108a857600080fd5b506104ec6108b73660046146e4565b611a7c565b3480156108c857600080fd5b506103dc6108d73660046146e4565b611b0d565b3480156108e857600080fd5b506104ec6108f7366004614729565b611c0c565b34801561090857600080fd5b506104ec6109173660046146e4565b611c7a565b34801561092857600080fd5b506103dc6109373660046146e4565b611ccb565b34801561094857600080fd5b506103dc600080516020614d4183398151915281565b34801561096a57600080fd5b506104ec610979366004614729565b611cf3565b34801561098a57600080fd5b506103dc6109993660046146e4565b6001600160a01b03166000908152600c602052604090205490565b3480156109c057600080fd5b506104ec6109cf3660046146ff565b611daf565b3480156109e057600080fd5b506103dc60015481565b3480156109f657600080fd5b506104ec611e1d565b348015610a0b57600080fd5b506103dc610a1a366004614898565b600760209081526000928352604080842090915290825290205481565b348015610a4357600080fd5b506103dc610a523660046146e4565b600a6020526000908152604090205481565b348015610a7057600080fd5b506103b1610a7f36600461477e565b611e3d565b348015610a9057600080fd5b506103ff611e75565b348015610aa557600080fd5b506103dc600081565b348015610aba57600080fd5b506103b1610ac93660046146ff565b611eb4565b348015610ada57600080fd5b506103ff604051806040016040528060058152602001640352e302e360dc1b81525081565b348015610b0b57600080fd5b506104ec610b1a366004614729565b611eca565b348015610b2b57600080fd5b506103dc610b3a3660046146e4565b6001600160a01b031660009081526009602052604090205490565b348015610b6157600080fd5b50600454610b75906001600160a01b031681565b6040516001600160a01b0390911681526020016103bd565b348015610b9957600080fd5b506103dc60025481565b348015610baf57600080fd5b506103dc7f9f2df0fed2c77648de5860a4cc508cd0818c85b8b8a1ab4ceeef8d981c8956a681565b348015610be357600080fd5b506104ec610bf236600461477e565b611fda565b348015610c0357600080fd5b506103dc610c12366004614898565b611ff6565b348015610c2357600080fd5b506104ec610c32366004614742565b612040565b348015610c4357600080fd5b506103dc600080516020614ce183398151915281565b348015610c6557600080fd5b50610c79610c74366004614742565b612234565b6040516103bd9190815181526020808301519082015260408083015190820152606080830151908201526080808301519082015260a0808301519082015260c0808301519082015260e08083015190820152610100808301519082015261012080830151908201526101408083015190820152610160808301519082015261018080830151908201526101a080830151908201526101c0808301511515908201526101e080830151151590820152610200808301519082015261022091820151918101919091526102400190565b348015610d5357600080fd5b506104ec610d623660046148e2565b612572565b348015610d7357600080fd5b506104ec610d82366004614729565b6128fb565b6000610d9282612a39565b92915050565b7f52c63247e1f47db19d5ce0460030c497f067ca4cebf71ba98eeadabe20bace038054606091600080516020614ca183398151915291610dd790614995565b80601f0160208091040260200160405190810160405280929190818152602001828054610e0390614995565b8015610e505780601f10610e2557610100808354040283529160200191610e50565b820191906000526020600020905b815481529060010190602001808311610e3357829003601f168201915b505050505091505090565b600033610e69818585612a6e565b5060019392505050565b600080516020614d41833981519152610e8b81612a7b565b600154821015610ed25760405162461bcd60e51b815260206004820152600d60248201526c42656c6f77206d696e696d756d60981b60448201526064015b60405180910390fd5b600254821115610f145760405162461bcd60e51b815260206004820152600d60248201526c41626f7665206d6178696d756d60981b6044820152606401610ec9565b50600055565b6000610f24612a85565b33610f30858285612ab8565b610f3b858585612b19565b60019150505b9392505050565b6000908152600080516020614d01833981519152602052604090206001015490565b610f7382610f48565b610f7c81612a7b565b610f868383612d39565b50505050565b6001600160a01b0381163314610fb55760405163334bd91960e11b815260040160405180910390fd5b610fbf8282612dde565b505050565b600080516020614ce1833981519152610fdc81612a7b565b610fe4612e5a565b50565b610fef612a85565b7f9f2df0fed2c77648de5860a4cc508cd0818c85b8b8a1ab4ceeef8d981c8956a661101981612a7b565b6001600160a01b03831661106f5760405162461bcd60e51b815260206004820152601860248201527f4d696e7420746f20746865207a65726f206164647265737300000000000000006044820152606401610ec9565b600082116110bf5760405162461bcd60e51b815260206004820152601c60248201527f4d696e7420616d6f756e74206d75737420626520706f736974697665000000006044820152606401610ec9565b336110ca8484612eba565b6001600160a01b0381166000908152600a6020526040812080548592906110f29084906149e5565b90915550611101905084612ef0565b836001600160a01b0316816001600160a01b03167fbf67ec129007be07f346d9d2933215293a6612ce7ff17d6b479a5a5cae72890c8560405161114691815260200190565b60405180910390a350505050565b61115c612a85565b600081116111ac5760405162461bcd60e51b815260206004820152601c60248201527f4275726e20616d6f756e74206d75737420626520706f736974697665000000006044820152606401610ec9565b610fe43382612f46565b600080516020614d418339815191526111ce81612a7b565b6001600160a01b0384166112245760405162461bcd60e51b815260206004820152601d60248201527f446562746f722063616e6e6f74206265207a65726f20616464726573730000006044820152606401610ec9565b6001600160a01b03831661127a5760405162461bcd60e51b815260206004820152601f60248201527f4372656469746f722063616e6e6f74206265207a65726f2061646472657373006044820152606401610ec9565b826001600160a01b0316846001600160a01b0316036112d75760405162461bcd60e51b81526020600482015260196024820152782232b13a37b91031b0b73737ba1031329031b932b234ba37b960391b6044820152606401610ec9565b600082116113275760405162461bcd60e51b815260206004820181905260248201527f416d6f756e7420746f20636c656172206d75737420626520706f7369746976656044820152606401610ec9565b6001600160a01b038085166000908152600b6020908152604080832093871683529290522054808311156113b35760405162461bcd60e51b815260206004820152602d60248201527f416d6f756e7420746f20636c6561722065786365656473206f75747374616e6460448201526c696e67206c696162696c69747960981b6064820152608401610ec9565b6113bd83826149f8565b6001600160a01b038681166000818152600b60209081526040808320948a16808452948252918290209490945551868152919290917f59ee8f52c52e61b33b5c6a4f2311c6855f389b6d4667bc980aaa3eb4fa8d7b7f91015b60405180910390a35050505050565b61142d612f7c565b61143682613021565b6114408282613039565b5050565b61144c612a85565b6001600160a01b038116600090815260056020526040902080546114b25760405162461bcd60e51b815260206004820152601f60248201527f4578706972793a204e6f20616374697665207472616e736665722064617461006044820152606401610ec9565b600681015460ff16156115075760405162461bcd60e51b815260206004820152601d60248201527f4578706972793a205472616e73666572207761732072657665727365640000006044820152606401610ec9565b80544210156115585760405162461bcd60e51b815260206004820181905260248201527f4578706972793a2048616c664c696665206e6f742065787069726564207965746044820152606401610ec9565b600581015480156116a8576000611570600883614a0b565b905080156116a6576000611585600283614a0b565b905080156116a45760028401546001600160a01b0316600090815260096020526040812080548392906115b99084906149e5565b90915550506002840180546001600160a01b0390811660009081526009602090815260409182902042600190910155925490518481529116917ffdfa38dc30c58b0662200654ef296c1527abbf34b03b2f908af130d2a35db878910160405180910390a26001600160a01b038516600090815260096020526040812080548392906116459084906149e5565b90915550506001600160a01b0385166000818152600960205260409081902042600190910155517ffdfa38dc30c58b0662200654ef296c1527abbf34b03b2f908af130d2a35db8789061169b9084815260200190565b60405180910390a25b505b505b6001600160a01b0383166000818152600560208190526040808320838155600181018490556002810180546001600160a01b0319169055600381018490556004810184905591820192909255600601805460ff19169055517f23bd7f8191a147e373def338d5a76dce96b4d2f7d15a43eca83e3ee6e75061439061172f9042815260200190565b60405180910390a2505050565b60006117466130f6565b50600080516020614cc183398151915290565b600080516020614d4183398151915261177181612a7b565b600082116117b85760405162461bcd60e51b81526020600482015260146024820152734d6178206d75737420626520706f73697469766560601b6044820152606401610ec9565b6001548210156117fe5760405162461bcd60e51b81526020600482015260116024820152704d61782062656c6f77206d696e696d756d60781b6044820152606401610ec9565b6002829055600054821015611440576002546000555050565b61181f612a85565b6001600160a01b0382811660009081526005602052604090206002810154339216821461188e5760405162461bcd60e51b815260206004820152601960248201527f526576657273616c3a2053656e646572206d69736d61746368000000000000006044820152606401610ec9565b80546118dc5760405162461bcd60e51b815260206004820152601c60248201527f526576657273616c3a204e6f20616374697665207472616e73666572000000006044820152606401610ec9565b8054421061192c5760405162461bcd60e51b815260206004820152601a60248201527f526576657273616c3a2048616c664c69666520657870697265640000000000006044820152606401610ec9565b600681015460ff161561198d5760405162461bcd60e51b815260206004820152602360248201527f526576657273616c3a205472616e7366657220616c72656164792072657665726044820152621cd95960ea1b6064820152608401610ec9565b8261199785611ccb565b1015611a0b5760405162461bcd60e51b815260206004820152603c60248201527f526576657273616c3a20496e73756666696369656e7420726563697069656e7460448201527f2062616c616e636520666f7220726576657273616c20616d6f756e74000000006064820152608401610ec9565b60068101805460ff19166001179055611a238261313f565b611a2c8461313f565b611a3784838561317e565b836001600160a01b0316826001600160a01b03167f55608e3380952b490f6dc0b1b0bcf7a16177fe10590cf1599b7a84f430b70e378560405161114691815260200190565b600080516020614d41833981519152611a9481612a7b565b6001600160a01b038216611aea5760405162461bcd60e51b815260206004820152601f60248201527f547265617375727920616464726573732063616e6e6f74206265207a65726f006044820152606401610ec9565b50600480546001600160a01b0319166001600160a01b0392909216919091179055565b6001600160a01b038116600090815260086020526040812060028101546127109015801590611b4d575062093a80826002015442611b4b91906149f8565b105b15611b6157611b5e611388826149e5565b90505b60008260010154118015611b86575062278d00826001015442611b8491906149f8565b105b15611b9a57611b97612710826149e5565b90505b815461c35090600090611baf906103e8614a2d565b9050818111611bbe5780611bc0565b815b611bca90846149e5565b60038501549093506161a890600090611be5906101f4614a2d565b9050818111611bf45780611bf6565b815b611c0090866149e5565b98975050505050505050565b600080516020614d41833981519152611c2481612a7b565b60008211611c745760405162461bcd60e51b815260206004820152601760248201527f506572696f64206d75737420626520706f7369746976650000000000000000006044820152606401610ec9565b50600355565b600080516020614d41833981519152611c9281612a7b565b611c9b82612ef0565b6001600160a01b0382166000908152600860205260408120600301805491611cc283614a44565b91905055505050565b6001600160a01b03166000908152600080516020614ca1833981519152602052604090205490565b600080516020614d41833981519152611d0b81612a7b565b60008211611d525760405162461bcd60e51b81526020600482015260146024820152734d696e206d75737420626520706f73697469766560601b6044820152606401610ec9565b600254821115611d965760405162461bcd60e51b815260206004820152600f60248201526e09ad2dc40caf0c6cacac8e640dac2f608b1b6044820152606401610ec9565b6001829055600054821115611440576001546000555050565b611db7612a85565b60008111611e075760405162461bcd60e51b815260206004820152601c60248201527f4275726e20616d6f756e74206d75737420626520706f736974697665000000006044820152606401610ec9565b33611e13838284612ab8565b610fbf8383612f46565b600080516020614ce1833981519152611e3581612a7b565b610fe46131dd565b6000918252600080516020614d01833981519152602090815260408084206001600160a01b0393909316845291905290205460ff1690565b7f52c63247e1f47db19d5ce0460030c497f067ca4cebf71ba98eeadabe20bace048054606091600080516020614ca183398151915291610dd790614995565b6000611ebe612a85565b33610e69818585612b19565b611ed2612a85565b611eda613226565b60008111611f2a5760405162461bcd60e51b815260206004820152601f60248201527f50726566756e6420616d6f756e74206d75737420626520706f736974697665006044820152606401610ec9565b6004543390611f449082906001600160a01b03168461317e565b6001600160a01b0381166000908152600c602052604081208054849290611f6c9084906149e5565b90915550506040518281526001600160a01b038216907f8e7bdecf6a0dc0bc4aeb18783cb10538303214d73bdbbb056d532848500edc0e906020015b60405180910390a250610fe460017f9b779b17422d0df92223018b32b4d1fa46e071723d6817e2486d003becc55f0055565b611fe382610f48565b611fec81612a7b565b610f868383612dde565b6001600160a01b0391821660009081527f52c63247e1f47db19d5ce0460030c497f067ca4cebf71ba98eeadabe20bace016020908152604080832093909416825291909152205490565b600080516020614d4183398151915261205881612a7b565b6001600160a01b0384166120ae5760405162461bcd60e51b815260206004820152601d60248201527f446562746f722063616e6e6f74206265207a65726f20616464726573730000006044820152606401610ec9565b6001600160a01b0383166121045760405162461bcd60e51b815260206004820152601f60248201527f4372656469746f722063616e6e6f74206265207a65726f2061646472657373006044820152606401610ec9565b826001600160a01b0316846001600160a01b0316036121615760405162461bcd60e51b81526020600482015260196024820152782232b13a37b91031b0b73737ba1031329031b932b234ba37b960391b6044820152606401610ec9565b600082116121b15760405162461bcd60e51b815260206004820152601760248201527f416d6f756e74206d75737420626520706f7369746976650000000000000000006044820152606401610ec9565b6001600160a01b038085166000908152600b60209081526040808320938716835292905290812080548492906121e89084906149e5565b92505081905550826001600160a01b0316846001600160a01b03167fbd91b9538487013e1f78426333a3445bdfcdece5d02e402f33f9e598122919f58460405161114691815260200190565b6122c6604051806102400160405280600081526020016000815260200160008152602001600081526020016000815260200160008152602001600081526020016000815260200160008152602001600081526020016000815260200160008152602001600081526020016000815260200160001515815260200160001515815260200160008152602001600081525090565b6001600160a01b0383166123275760405162461bcd60e51b815260206004820152602260248201527f457374696d6174653a205472616e7366657220746f207a65726f206164647265604482015261737360f01b6064820152608401610ec9565b600082116123935760405162461bcd60e51b815260206004820152603360248201527f457374696d6174653a205472616e7366657220616d6f756e74206d7573742062604482015272652067726561746572207468616e207a65726f60681b6064820152608401610ec9565b81815260006123a183613296565b905060006123b182878787613806565b610200840181905290506127106123ca6103e886614a2d565b6123d49190614a0b565b610180840181905261020084015111156124015761018083015161020084015260016101c084015261240a565b60006101c08401525b6509184e72a0006101a0840152610200830151158015906124345750826101a00151836102000151105b80156124455750826101a001518410155b156124b657826101800151836101a0015111158015612469575083836101a0015111155b156124a9576101a0830151610200840181905260016101e08501526101808401511161249c5760016101c08401526124bf565b60006101c08401526124bf565b60006101e08401526124bf565b60006101e08401525b61010083018190526001600160a01b03861660009081526009602052604081208054610120860181905290919015806124fb5750610200850151155b156125145750600061014085015261020084015161255a565b846102000151856101200151106125395750610200840151610140850152600061255a565b610120850151610140860181905261020086015161255791906149f8565b90505b61016085015250505061022081018290529392505050565b600061257c6138da565b805490915060ff600160401b820416159067ffffffffffffffff166000811580156125a45750825b905060008267ffffffffffffffff1660011480156125c15750303b155b9050811580156125cf575080155b156125ed5760405163f92ee8a960e01b815260040160405180910390fd5b845467ffffffffffffffff19166001178555831561261757845460ff60401b1916600160401b1785555b6126218e8e613903565b612629613915565b612631613915565b612639613915565b61264161391d565b6001600160a01b038b166126975760405162461bcd60e51b815260206004820152601f60248201527f547265617375727920616464726573732063616e6e6f74206265207a65726f006044820152606401610ec9565b600480546001600160a01b0319166001600160a01b038d161790556126bd60008d612d39565b506126d6600080516020614d418339815191528d612d39565b506126ef600080516020614ce18339815191528d612d39565b508915612700576127008c8b612eba565b6000899055600188905560028790556003869055876127615760405162461bcd60e51b815260206004820152601d60248201527f4d696e2048616c664c696665206d75737420626520706f7369746976650000006044820152606401610ec9565b60025460015411156127b55760405162461bcd60e51b815260206004820152601860248201527f4d696e2048616c664c6966652065786365656473206d617800000000000000006044820152606401610ec9565b600154600054101580156127cd575060025460005411155b6128195760405162461bcd60e51b815260206004820152601e60248201527f496e697469616c2048616c664c696665206f7574206f6620626f756e647300006044820152606401610ec9565b6000600354116128765760405162461bcd60e51b815260206004820152602260248201527f496e616374697669747920706572696f64206d75737420626520706f73697469604482015261766560f01b6064820152608401610ec9565b6001600160a01b038c16156128a5576001600160a01b038c166000908152600860205260409020426002909101555b83156128eb57845460ff60401b19168555604051600181527fc7f505b2f371ae2175ee4913f4499e1f2633a7b5936321eed1cdaeb6115181d29060200160405180910390a15b5050505050505050505050505050565b612903612a85565b61290b613226565b6000811161295b5760405162461bcd60e51b815260206004820181905260248201527f576974686472617720616d6f756e74206d75737420626520706f7369746976656044820152606401610ec9565b336000818152600c60205260409020548211156129ba5760405162461bcd60e51b815260206004820152601f60248201527f496e73756666696369656e74207072652d66756e6465642062616c616e6365006044820152606401610ec9565b6001600160a01b0381166000908152600c6020526040812080548492906129e29084906149f8565b90915550506004546129fe906001600160a01b0316828461317e565b806001600160a01b03167fbd55d9f44220c89bc817dc6343b4106e55550456ade2a5ed215bbd2c24a46d4e83604051611fa891815260200190565b60006001600160e01b03198216637965db0b60e01b1480610d9257506301ffc9a760e01b6001600160e01b0319831614610d92565b610fbf838383600161392d565b610fe48133613a0c565b600080516020614d218339815191525460ff1615612ab65760405163d93c066560e01b815260040160405180910390fd5b565b6000612ac48484611ff6565b9050600019811015610f865781811015612b0a57604051637dc7a0d960e11b81526001600160a01b03841660048201526024810182905260448101839052606401610ec9565b610f868484848403600061392d565b6001600160a01b038216612b6f5760405162461bcd60e51b815260206004820152601860248201527f5472616e7366657220746f207a65726f206164647265737300000000000000006044820152606401610ec9565b60008111612bd15760405162461bcd60e51b815260206004820152602960248201527f5472616e7366657220616d6f756e74206d7573742062652067726561746572206044820152687468616e207a65726f60b81b6064820152608401610ec9565b6001600160a01b03831660009081526005602052604090205442108015612c1857506001600160a01b03838116600090815260056020526040902060020154811690831614155b15612c8d576040805162461bcd60e51b81526020600482015260248101919091527f43616e6e6f74207472616e7366657220647572696e672048616c664c6966652060448201527f706572696f6420657863657074206261636b20746f206f726967696e61746f726064820152608401610ec9565b6000612c9a848484613a45565b90506000806000612cad87878787613ad9565b919450925090508315612cc557612cc5878786613cd2565b612cd187878787613da9565b604080518681526020810186905290810182905260608101849052608081018390526001600160a01b0380881691908916907f8657fd10f23e08d990dfb64ede272bec69b6400f33c93f96a1c0030a1cc6a3809060a00160405180910390a350505050505050565b6000600080516020614d01833981519152612d548484611e3d565b612dd4576000848152602082815260408083206001600160a01b03871684529091529020805460ff19166001179055612d8a3390565b6001600160a01b0316836001600160a01b0316857f2f8788117e7eff1d82e926ec794901d17c78024a50270940304540a733656f0d60405160405180910390a46001915050610d92565b6000915050610d92565b6000600080516020614d01833981519152612df98484611e3d565b15612dd4576000848152602082815260408083206001600160a01b0387168085529252808320805460ff1916905551339287917ff6391f5c32d9c69d2a47ea670b442974b53935d1edc7fd64eb21e047a839171b9190a46001915050610d92565b612e62613f3c565b600080516020614d21833981519152805460ff191681557f5db9ee0a495bf2e6ff9c91a7834c1ba4fdd244a5e8aa4e537bd38aeae4b073aa335b6040516001600160a01b03909116815260200160405180910390a150565b6001600160a01b038216612ee45760405163ec442f0560e01b815260006004820152602401610ec9565b61144060008383613f6c565b6001600160a01b03811615801590612f2157506001600160a01b038116600090815260086020526040902060020154155b15610fe4576001600160a01b0316600090815260086020526040902042600290910155565b6001600160a01b038216612f7057604051634b637e8f60e11b815260006004820152602401610ec9565b61144082600083613f6c565b306001600160a01b037f000000000000000000000000000000000000000000000000000000000000000016148061300357507f00000000000000000000000000000000000000000000000000000000000000006001600160a01b0316612ff7600080516020614cc1833981519152546001600160a01b031690565b6001600160a01b031614155b15612ab65760405163703e46dd60e11b815260040160405180910390fd5b600080516020614d4183398151915261144081612a7b565b816001600160a01b03166352d1902d6040518163ffffffff1660e01b8152600401602060405180830381865afa925050508015613093575060408051601f3d908101601f1916820190925261309091810190614a5d565b60015b6130bb57604051634c9c8ce360e01b81526001600160a01b0383166004820152602401610ec9565b600080516020614cc183398151915281146130ec57604051632a87526960e21b815260048101829052602401610ec9565b610fbf8383613f7f565b306001600160a01b037f00000000000000000000000000000000000000000000000000000000000000001614612ab65760405163703e46dd60e11b815260040160405180910390fd5b61314881612ef0565b6001600160a01b038116600090815260086020526040812080549091829061316f83614a44565b90915550504260019091015550565b6001600160a01b0383166131a857604051634b637e8f60e11b815260006004820152602401610ec9565b6001600160a01b0382166131d25760405163ec442f0560e01b815260006004820152602401610ec9565b610fbf838383613f6c565b6131e5612a85565b600080516020614d21833981519152805460ff191660011781557f62e78cea01bee320cd4e420270b5ea74000d11b0c9f74754ebdbfc544b05a25833612e9c565b7f9b779b17422d0df92223018b32b4d1fa46e071723d6817e2486d003becc55f0080546001190161326a57604051633ee5aeb560e01b815260040160405180910390fd5b60029055565b60017f9b779b17422d0df92223018b32b4d1fa46e071723d6817e2486d003becc55f0055565b6000816000036132a857506000919050565b60408051600b8082526101808201909252600091829190816020015b6132cc614629565b8152602001906001900390816132c457505060408051808201909152662386f26fc1000081529091506103e8906020810161330a83620186a0614a2d565b8152508260008151811061332057613320614a76565b6020026020010181905250604051806040016040528067016345785d8a00008152602001826127106133529190614a2d565b8152508260018151811061336857613368614a76565b60200260200101819052506040518060400160405280670de0b6b3a76400008152602001826103e861339a9190614a2d565b815250826002815181106133b0576133b0614a76565b60200260200101819052506040518060400160405280678ac7230489e8000081526020018260646133e19190614a2d565b815250826003815181106133f7576133f7614a76565b6020026020010181905250604051806040016040528068056bc75e2d63100000815260200182600a6134299190614a2d565b8152508260048151811061343f5761343f614a76565b60200260200101819052506040518060400160405280683635c9adc5dea0000081526020018260016134719190614a2d565b8152508260058151811061348757613487614a76565b6020026020010181905250604051806040016040528069021e19e0c9bab24000008152602001600a8360016134bc9190614a2d565b6134c69190614a0b565b815250826006815181106134dc576134dc614a76565b6020026020010181905250604051806040016040528069152d02c7e14af6800000815260200160648360016135119190614a2d565b61351b9190614a0b565b8152508260078151811061353157613531614a76565b6020026020010181905250604051806040016040528069d3c21bcecceda100000081526020016103e88360016135679190614a2d565b6135719190614a0b565b8152508260088151811061358757613587614a76565b6020026020010181905250604051806040016040528060001981526020016127108360016135b59190614a2d565b6135bf9190614a0b565b815250826009815181106135d5576135d5614a76565b602002602001018190525060405180604001604052806000198152602001620186a08360016136049190614a2d565b61360e9190614a0b565b81525082600a8151811061362457613624614a76565b602002602001018190525060005b82518110156137fc57600083828151811061364f5761364f614a76565b602002602001015160006002811061366957613669614a76565b60200201519050600084838151811061368457613684614a76565b602002602001015160016002811061369e5761369e614a76565b60200201519050600083156136ed57856136b96001866149f8565b815181106136c9576136c9614a76565b60200260200101516000600281106136e3576136e3614a76565b60200201516136f0565b60005b90506000818a111561379757838a1061378a578184111561371c5761371582856149f8565b9050613797565b506000600019841480156137305750600085115b80156137775750600019876137466001886149f8565b8151811061375657613756614a76565b602002602001015160006002811061377057613770614a76565b6020020151145b1561378557505050506137fc565b613797565b613794828b6149f8565b90505b6000811180156137a75750600083115b156137db576137ba6103e8612710614a2d565b6137c48483614a2d565b6137ce9190614a0b565b6137d890896149e5565b97505b838a10156137ec57505050506137fc565b5050600190920191506136329050565b5091949350505050565b600084600003613818575060006138d2565b600061382385611b0d565b9050600061383085611b0d565b905060008183116138415781613843565b825b905060006127108211613857576000613863565b613863612710836149f8565b90508060000361387957889450505050506138d2565b600061388487613fd5565b905060006127106138958385614a2d565b61389f9190614a0b565b905060006138af826127106149e5565b90506127106138be828e614a2d565b6138c89190614a0b565b9750505050505050505b949350505050565b6000807ff0c57e16840df040f15088dc2f81fe391c3923bec73e23a9662efc9c229c6a00610d92565b61390b61408f565b61144082826140b4565b612ab661408f565b61392561408f565b612ab6614105565b600080516020614ca18339815191526001600160a01b0385166139665760405163e602df0560e01b815260006004820152602401610ec9565b6001600160a01b03841661399057604051634a1406b160e11b815260006004820152602401610ec9565b6001600160a01b03808616600090815260018301602090815260408083209388168352929052208390558115613a0557836001600160a01b0316856001600160a01b03167f8c5be1e5ebec7d5bd14f71427d1e84f3dd0314c0f7b2291e5b200ac8c7c3b9258560405161141691815260200190565b5050505050565b613a168282611e3d565b6114405760405163e2517d3f60e01b81526001600160a01b038216600482015260248101839052604401610ec9565b600080613a5183613296565b90506000613a6182878787613806565b9050806000612710613a756103e888614a2d565b613a7f9190614a0b565b905080821115613a8d578091505b6509184e72a0008215801590613aa257508083105b8015613aae5750808710155b15613acc57818111158015613ac35750868111155b15613acc578092505b5090979650505050505050565b60008080838015801590613b0457506001600160a01b0388166000908152600c602052604090205415155b15613bd7576001600160a01b0388166000908152600c60205260408120548210613b46576001600160a01b0389166000908152600c6020526040902054613b48565b815b6001600160a01b038a166000908152600c6020526040812080549293508392909190613b759084906149f8565b90915550909450849050613b8981836149f8565b91508015613bd557886001600160a01b03167f61b2f2053fc2ed5f431a02115cc5585518b9e5118fc14db10fa1fa57310feec182604051613bcc91815260200190565b60405180910390a25b505b8015613c4157600080613bea8a8461410d565b955093508391508490508015613c3e57896001600160a01b03167fc7228b105191bcf0ea43e3534e8b2b750c8e8371115d300ef38189bfcd4bc26e82604051613c3591815260200190565b60405180910390a25b50505b6000613c4d83886149e5565b90506000613c5a8a611ccb565b905081811015613c965760405163391434e360e21b81526001600160a01b038b1660048201526024810182905260448101839052606401610ec9565b8315613cb457600454613cb4908b906001600160a01b03168661317e565b8715613cc557613cc58a8a8a61317e565b5050509450945094915050565b80600003613cdf57505050565b6000613cec600483614a0b565b90506000613cfb600484614a0b565b90508115613d50576001600160a01b03851660009081526009602052604081208054849290613d2b9084906149e5565b90915550506001600160a01b0385166000908152600960205260409020426001909101555b8015613a05576001600160a01b03841660009081526009602052604081208054839290613d7e9084906149e5565b90915550506001600160a01b0384166000908152600960205260409020426001909101555050505050565b6001600160a01b0380851660009081526007602090815260408083209387168352929052908120805491613ddc83614a44565b91905055506000613dee8585856141a6565b90506040518060e001604052808242613e0791906149e5565b8152602001828152602001866001600160a01b0316815260200160056000876001600160a01b03166001600160a01b03168152602001908152602001600020600301546001613e5691906149e5565b8152604051606088811b6bffffffffffffffffffffffff199081166020808501919091529189901b166034830152604882018790529091019060680160408051808303601f190181529181528151602092830120835282820186905260009281018390526001600160a01b03888116845260058084529382902085518155928501516001840155908401516002830180546001600160a01b03191691909216179055606083015160038201556080830151600482015560a08301519181019190915560c0909101516006909101805460ff1916911515919091179055613a0584846142db565b600080516020614d218339815191525460ff16612ab657604051638dfc202b60e01b815260040160405180910390fd5b613f74612a85565b610fbf838383614360565b613f8882614490565b6040516001600160a01b038316907fbc7cd75a20ee27fd9adebab32041f755214dbc6bffa90cc0225b39da2e5c2d3b90600090a2805115613fcd57610fbf82826144f5565b61144061456b565b600081600003613fe757506000919050565b60126000613ff682600a614b68565b614001906001614a2d565b905060015b8185118015614016575061271081105b15614079576000614028600a84614a2d565b9050614037600a600019614a0b565b8311156140445750614079565b915081614054600a600019614a0b565b82111561406657612710915050614079565b614071600a83614a2d565b915050614006565b6127108111156138d25750612710949350505050565b61409761458a565b612ab657604051631afcd79f60e31b815260040160405180910390fd5b6140bc61408f565b600080516020614ca18339815191527f52c63247e1f47db19d5ce0460030c497f067ca4cebf71ba98eeadabe20bace036140f68482614bc4565b5060048101610f868382614bc4565b61327061408f565b6001600160a01b038216600090815260096020526040812080548291901580614134575083155b1561414657836000925092505061419f565b8054841161417a578391508381600001600082825461416591906149f8565b9091555050426001909101556000915061419f565b8054915061418882856149f8565b6000825542600190920191909155915061419f565b505b9250929050565b600080546001600160a01b03808616835260076020908152604080852092871685529190528220548015614221576000605a6141e383600a614a2d565b116141f8576141f382600a614a2d565b6141fb565b605a5b9050606461420982826149f8565b6142139085614a2d565b61421d9190614a0b565b9250505b6001600160a01b038616600090815260066020526040902060018101541580159061424c5750805415155b156142ac576001810154815460009161426491614a0b565b905061427181600a614a2d565b8611156142aa576000614285856002614a2d565b90506142946002600019614a0b565b85116142a2578094506142a8565b60001994505b505b505b6001548310156142c05760015492506142d0565b6002548311156142d05760025492505b509095945050505050565b6001600160a01b03821660009081526006602052604090206002810154158015906143155750600354600282015461431390426149f8565b115b1561432557600080825560018201555b8181600001600082825461433991906149e5565b909155505060018101805490600061435083614a44565b9091555050426002909101555050565b600080516020614ca18339815191526001600160a01b03841661439c578181600201600082825461439191906149e5565b9091555061440e9050565b6001600160a01b038416600090815260208290526040902054828110156143ef5760405163391434e360e21b81526001600160a01b03861660048201526024810182905260448101849052606401610ec9565b6001600160a01b03851660009081526020839052604090209083900390555b6001600160a01b03831661442c57600281018054839003905561444b565b6001600160a01b03831660009081526020829052604090208054830190555b826001600160a01b0316846001600160a01b03167fddf252ad1be2c89b69c2b068fc378daa952ba7f163c4a11628f55a4df523b3ef8460405161114691815260200190565b806001600160a01b03163b6000036144c657604051634c9c8ce360e01b81526001600160a01b0382166004820152602401610ec9565b600080516020614cc183398151915280546001600160a01b0319166001600160a01b0392909216919091179055565b6060600080846001600160a01b0316846040516145129190614c84565b600060405180830381855af49150503d806000811461454d576040519150601f19603f3d011682016040523d82523d6000602084013e614552565b606091505b50915091506145628583836145a4565b95945050505050565b3415612ab65760405163b398979f60e01b815260040160405180910390fd5b60006145946138da565b54600160401b900460ff16919050565b6060826145b9576145b482614600565b610f41565b81511580156145d057506001600160a01b0384163b155b156145f957604051639996b31560e01b81526001600160a01b0385166004820152602401610ec9565b5080610f41565b8051156146105780518082602001fd5b60405163d6bda27560e01b815260040160405180910390fd5b60405180604001604052806002906020820280368337509192915050565b60006020828403121561465957600080fd5b81356001600160e01b031981168114610f4157600080fd5b60005b8381101561468c578181015183820152602001614674565b50506000910152565b60208152600082518060208401526146b4816040850160208701614671565b601f01601f19169190910160400192915050565b80356001600160a01b03811681146146df57600080fd5b919050565b6000602082840312156146f657600080fd5b610f41826146c8565b6000806040838503121561471257600080fd5b61471b836146c8565b946020939093013593505050565b60006020828403121561473b57600080fd5b5035919050565b60008060006060848603121561475757600080fd5b614760846146c8565b925061476e602085016146c8565b9150604084013590509250925092565b6000806040838503121561479157600080fd5b823591506147a1602084016146c8565b90509250929050565b634e487b7160e01b600052604160045260246000fd5b600067ffffffffffffffff808411156147db576147db6147aa565b604051601f8501601f19908116603f01168101908282118183101715614803576148036147aa565b8160405280935085815286868601111561481c57600080fd5b858560208301376000602087830101525050509392505050565b6000806040838503121561484957600080fd5b614852836146c8565b9150602083013567ffffffffffffffff81111561486e57600080fd5b8301601f8101851361487f57600080fd5b61488e858235602084016147c0565b9150509250929050565b600080604083850312156148ab57600080fd5b6148b4836146c8565b91506147a1602084016146c8565b600082601f8301126148d357600080fd5b610f41838335602085016147c0565b60008060008060008060008060006101208a8c03121561490157600080fd5b893567ffffffffffffffff8082111561491957600080fd5b6149258d838e016148c2565b9a5060208c013591508082111561493b57600080fd5b506149488c828d016148c2565b98505061495760408b016146c8565b965061496560608b016146c8565b989b979a50959860808101359760a0820135975060c0820135965060e08201359550610100909101359350915050565b600181811c908216806149a957607f821691505b6020821081036149c957634e487b7160e01b600052602260045260246000fd5b50919050565b634e487b7160e01b600052601160045260246000fd5b80820180821115610d9257610d926149cf565b81810381811115610d9257610d926149cf565b600082614a2857634e487b7160e01b600052601260045260246000fd5b500490565b8082028115828204841417610d9257610d926149cf565b600060018201614a5657614a566149cf565b5060010190565b600060208284031215614a6f57600080fd5b5051919050565b634e487b7160e01b600052603260045260246000fd5b600181815b8085111561419d578160001904821115614aad57614aad6149cf565b80851615614aba57918102915b93841c9390800290614a91565b600082614ad657506001610d92565b81614ae357506000610d92565b8160018114614af95760028114614b0357614b1f565b6001915050610d92565b60ff841115614b1457614b146149cf565b50506001821b610d92565b5060208310610133831016604e8410600b8410161715614b42575081810a610d92565b614b4c8383614a8c565b8060001904821115614b6057614b606149cf565b029392505050565b6000610f418383614ac7565b601f821115610fbf576000816000526020600020601f850160051c81016020861015614b9d5750805b601f850160051c820191505b81811015614bbc57828155600101614ba9565b505050505050565b815167ffffffffffffffff811115614bde57614bde6147aa565b614bf281614bec8454614995565b84614b74565b602080601f831160018114614c275760008415614c0f5750858301515b600019600386901b1c1916600185901b178555614bbc565b600085815260208120601f198616915b82811015614c5657888601518255948401946001909101908401614c37565b5085821015614c745787850151600019600388901b60f8161c191681555b5050505050600190811b01905550565b60008251614c96818460208701614671565b919091019291505056fe52c63247e1f47db19d5ce0460030c497f067ca4cebf71ba98eeadabe20bace00360894a13ba1a3210667c828492db98dca3e2076cc3735a920a3ca505d382bbc65d7a28e3265b37a6474929f336521b332c1681b933f6cb9f3376673440d862a02dd7bc7dec4dceedda775e58dd541e08a116c6c53815c0bd028192f7b626800cd5ed15c6e187e77e9aee88184c21f4f2182ab5827cb3b7e07fbedcd63f03300a49807205ce4d355092ef5a8a18f56e8913cf4a201fbe287825b095693c21775a2646970667358221220cbf7913be7f34f7121723fb51c8b9e9aa711539205b5838f2518357ea64a10a064736f6c63430008180033",
  "linkReferences": {},
  "deployedLinkReferences": {}
}