{
  "_format": "hh-sol-artifact-1",
  "contractName": "T3Token",
  "sourceName": "contracts/T3Token.sol",
  "abi": [
    {
      "inputs": [],
      "stateMutability": "nonpayable",
      "type": "constructor"
    },
    {
      "inputs": [],
      "name": "AccessControlBadConfirmation",
      "type": "error"
    },
    {
      "inputs": [
        {
          "internalType": "address",
          "name": "account",
          "type": "address"
        },
        {
          "internalType": "bytes32",
          "name": "neededRole",
          "type": "bytes32"
        }
      ],
      "name": "AccessControlUnauthorizedAccount",
      "type": "error"
    },
    {
      "inputs": [
        {
          "internalType": "address",
          "name": "target",
          "type": "address"
        }
      ],
      "name": "AddressEmptyCode",
      "type": "error"
    },
    {
      "inputs": [
        {
          "internalType": "address",
          "name": "implementation",
          "type": "address"
        }
      ],
      "name": "ERC1967InvalidImplementation",
      "type": "error"
    },
    {
      "inputs": [],
      "name": "ERC1967NonPayable",
      "type": "error"
    },
    {
      "inputs": [
        {
          "internalType": "address",
          "name": "spender",
          "type": "address"
        },
        {
          "internalType": "uint256",
          "name": "allowance",
          "type": "uint256"
        },
        {
          "internalType": "uint256",
          "name": "needed",
          "type": "uint256"
        }
      ],
      "name": "ERC20InsufficientAllowance",
      "type": "error"
    },
    {
      "inputs": [
        {
          "internalType": "address",
          "name": "sender",
          "type": "address"
        },
        {
          "internalType": "uint256",
          "name": "balance",
          "type": "uint256"
        },
        {
          "internalType": "uint256",
          "name": "needed",
          "type": "uint256"
        }
      ],
      "name": "ERC20InsufficientBalance",
      "type": "error"
    },
    {
      "inputs": [
        {
          "internalType": "address",
          "name": "approver",
          "type": "address"
        }
      ],
      "name": "ERC20InvalidApprover",
      "type": "error"
    },
    {
      "inputs": [
        {
          "internalType": "address",
          "name": "receiver",
          "type": "address"
        }
      ],
      "name": "ERC20InvalidReceiver",
      "type": "error"
    },
    {
      "inputs": [
        {
          "internalType": "address",
          "name": "sender",
          "type": "address"
        }
      ],
      "name": "ERC20InvalidSender",
      "type": "error"
    },
    {
      "inputs": [
        {
          "internalType": "address",
          "name": "spender",
          "type": "address"
        }
      ],
      "name": "ERC20InvalidSpender",
      "type": "error"
    },
    {
      "inputs": [],
      "name": "EnforcedPause",
      "type": "error"
    },
    {
      "inputs": [],
      "name": "ExpectedPause",
      "type": "error"
    },
    {
      "inputs": [],
      "name": "FailedCall",
      "type": "error"
    },
    {
      "inputs": [],
      "name": "InvalidInitialization",
      "type": "error"
    },
    {
      "inputs": [],
      "name": "NotInitializing",
      "type": "error"
    },
    {
      "inputs": [],
      "name": "ReentrancyGuardReentrantCall",
      "type": "error"
    },
    {
      "inputs": [],
      "name": "UUPSUnauthorizedCallContext",
      "type": "error"
    },
    {
      "inputs": [
        {
          "internalType": "bytes32",
          "name": "slot",
          "type": "bytes32"
        }
      ],
      "name": "UUPSUnsupportedProxiableUUID",
      "type": "error"
    },
    {
      "anonymous": false,
      "inputs": [
        {
          "indexed": true,
          "internalType": "address",
          "name": "owner",
          "type": "address"
        },
        {
          "indexed": true,
          "internalType": "address",
          "name": "spender",
          "type": "address"
        },
        {
          "indexed": false,
          "internalType": "uint256",
          "name": "value",
          "type": "uint256"
        }
      ],
      "name": "Approval",
      "type": "event"
    },
    {
      "anonymous": false,
      "inputs": [
        {
          "indexed": true,
          "internalType": "address",
          "name": "user",
          "type": "address"
        },
        {
          "indexed": false,
          "internalType": "uint256",
          "name": "amount",
          "type": "uint256"
        }
      ],
      "name": "FeePrefunded",
      "type": "event"
    },
    {
      "anonymous": false,
      "inputs": [
        {
          "indexed": true,
          "internalType": "address",
          "name": "wallet",
          "type": "address"
        },
        {
          "indexed": false,
          "internalType": "uint256",
          "name": "timestamp",
          "type": "uint256"
        }
      ],
      "name": "HalfLifeExpired",
      "type": "event"
    },
    {
      "anonymous": false,
      "inputs": [
        {
          "indexed": true,
          "internalType": "address",
          "name": "user",
          "type": "address"
        },
        {
          "indexed": false,
          "internalType": "uint256",
          "name": "amountUsed",
          "type": "uint256"
        }
      ],
      "name": "IncentiveCreditUsed",
      "type": "event"
    },
    {
      "anonymous": false,
      "inputs": [
        {
          "indexed": false,
          "internalType": "uint64",
          "name": "version",
          "type": "uint64"
        }
      ],
      "name": "Initialized",
      "type": "event"
    },
    {
      "anonymous": false,
      "inputs": [
        {
          "indexed": true,
          "internalType": "address",
          "name": "debtor",
          "type": "address"
        },
        {
          "indexed": true,
          "internalType": "address",
          "name": "creditor",
          "type": "address"
        },
        {
          "indexed": false,
          "internalType": "uint256",
          "name": "amountCleared",
          "type": "uint256"
        }
      ],
      "name": "InterbankLiabilityCleared",
      "type": "event"
    },
    {
      "anonymous": false,
      "inputs": [
        {
          "indexed": true,
          "internalType": "address",
          "name": "debtor",
          "type": "address"
        },
        {
          "indexed": true,
          "internalType": "address",
          "name": "creditor",
          "type": "address"
        },
        {
          "indexed": false,
          "internalType": "uint256",
          "name": "amount",
          "type": "uint256"
        }
      ],
      "name": "InterbankLiabilityRecorded",
      "type": "event"
    },
    {
      "anonymous": false,
      "inputs": [
        {
          "indexed": true,
          "internalType": "address",
          "name": "wallet",
          "type": "address"
        },
        {
          "indexed": false,
          "internalType": "uint256",
          "name": "amount",
          "type": "uint256"
        }
      ],
      "name": "LoyaltyRefundProcessed",
      "type": "event"
    },
    {
      "anonymous": false,
      "inputs": [
        {
          "indexed": false,
          "internalType": "address",
          "name": "account",
          "type": "address"
        }
      ],
      "name": "Paused",
      "type": "event"
    },
    {
      "anonymous": false,
      "inputs": [
        {
          "indexed": true,
          "internalType": "address",
          "name": "user",
          "type": "address"
        },
        {
          "indexed": false,
          "internalType": "uint256",
          "name": "amountUsed",
          "type": "uint256"
        }
      ],
      "name": "PrefundedFeeUsed",
      "type": "event"
    },
    {
      "anonymous": false,
      "inputs": [
        {
          "indexed": true,
          "internalType": "address",
          "name": "user",
          "type": "address"
        },
        {
          "indexed": false,
          "internalType": "uint256",
          "name": "amount",
          "type": "uint256"
        }
      ],
      "name": "PrefundedFeeWithdrawn",
      "type": "event"
    },
    {
      "anonymous": false,
      "inputs": [
        {
          "indexed": true,
          "internalType": "address",
          "name": "wallet",
          "type": "address"
        },
        {
          "indexed": false,
          "internalType": "uint256",
          "name": "newRiskFactor",
          "type": "uint256"
        }
      ],
      "name": "RiskFactorUpdated",
      "type": "event"
    },
    {
      "anonymous": false,
      "inputs": [
        {
          "indexed": true,
          "internalType": "bytes32",
          "name": "role",
          "type": "bytes32"
        },
        {
          "indexed": true,
          "internalType": "bytes32",
          "name": "previousAdminRole",
          "type": "bytes32"
        },
        {
          "indexed": true,
          "internalType": "bytes32",
          "name": "newAdminRole",
          "type": "bytes32"
        }
      ],
      "name": "RoleAdminChanged",
      "type": "event"
    },
    {
      "anonymous": false,
      "inputs": [
        {
          "indexed": true,
          "internalType": "bytes32",
          "name": "role",
          "type": "bytes32"
        },
        {
          "indexed": true,
          "internalType": "address",
          "name": "account",
          "type": "address"
        },
        {
          "indexed": true,
          "internalType": "address",
          "name": "sender",
          "type": "address"
        }
      ],
      "name": "RoleGranted",
      "type": "event"
    },
    {
      "anonymous": false,
      "inputs": [
        {
          "indexed": true,
          "internalType": "bytes32",
          "name": "role",
          "type": "bytes32"
        },
        {
          "indexed": true,
          "internalType": "address",
          "name": "account",
          "type": "address"
        },
        {
          "indexed": true,
          "internalType": "address",
          "name": "sender",
          "type": "address"
        }
      ],
      "name": "RoleRevoked",
      "type": "event"
    },
    {
      "anonymous": false,
      "inputs": [
        {
          "indexed": true,
          "internalType": "address",
          "name": "minter",
          "type": "address"
        },
        {
          "indexed": true,
          "internalType": "address",
          "name": "recipient",
          "type": "address"
        },
        {
          "indexed": false,
          "internalType": "uint256",
          "name": "amount",
          "type": "uint256"
        }
      ],
      "name": "TokensMinted",
      "type": "event"
    },
    {
      "anonymous": false,
      "inputs": [
        {
          "indexed": true,
          "internalType": "address",
          "name": "from",
          "type": "address"
        },
        {
          "indexed": true,
          "internalType": "address",
          "name": "to",
          "type": "address"
        },
        {
          "indexed": false,
          "internalType": "uint256",
          "name": "value",
          "type": "uint256"
        }
      ],
      "name": "Transfer",
      "type": "event"
    },
    {
      "anonymous": false,
      "inputs": [
        {
          "indexed": true,
          "internalType": "address",
          "name": "from",
          "type": "address"
        },
        {
          "indexed": true,
          "internalType": "address",
          "name": "to",
          "type": "address"
        },
        {
          "indexed": false,
          "internalType": "uint256",
          "name": "amount",
          "type": "uint256"
        }
      ],
      "name": "TransferReversed",
      "type": "event"
    },
    {
      "anonymous": false,
      "inputs": [
        {
          "indexed": true,
          "internalType": "address",
          "name": "from",
          "type": "address"
        },
        {
          "indexed": true,
          "internalType": "address",
          "name": "to",
          "type": "address"
        },
        {
          "indexed": false,
          "internalType": "uint256",
          "name": "amountSentToRecipient",
          "type": "uint256"
        },
        {
          "indexed": false,
          "internalType": "uint256",
          "name": "totalFeeAssessed",
          "type": "uint256"
        },
        {
          "indexed": false,
          "internalType": "uint256",
          "name": "feePaidFromBalance",
          "type": "uint256"
        },
        {
          "indexed": false,
          "internalType": "uint256",
          "name": "feePaidFromPrefund",
          "type": "uint256"
        },
        {
          "indexed": false,
          "internalType": "uint256",
          "name": "feePaidFromCredits",
          "type": "uint256"
        }
      ],
      "name": "TransferWithFee",
      "type": "event"
    },
    {
      "anonymous": false,
      "inputs": [
        {
          "indexed": false,
          "internalType": "address",
          "name": "account",
          "type": "address"
        }
      ],
      "name": "Unpaused",
      "type": "event"
    },
    {
      "anonymous": false,
      "inputs": [
        {
          "indexed": true,
          "internalType": "address",
          "name": "implementation",
          "type": "address"
        }
      ],
      "name": "Upgraded",
      "type": "event"
    },
    {
      "inputs": [],
      "name": "ADMIN_ROLE",
      "outputs": [
        {
          "internalType": "bytes32",
          "name": "",
          "type": "bytes32"
        }
      ],
      "stateMutability": "view",
      "type": "function"
    },
    {
      "inputs": [],
      "name": "BURNER_ROLE",
      "outputs": [
        {
          "internalType": "bytes32",
          "name": "",
          "type": "bytes32"
        }
      ],
      "stateMutability": "view",
      "type": "function"
    },
    {
      "inputs": [],
      "name": "DEFAULT_ADMIN_ROLE",
      "outputs": [
        {
          "internalType": "bytes32",
          "name": "",
          "type": "bytes32"
        }
      ],
      "stateMutability": "view",
      "type": "function"
    },
    {
      "inputs": [],
      "name": "MINTER_ROLE",
      "outputs": [
        {
          "internalType": "bytes32",
          "name": "",
          "type": "bytes32"
        }
      ],
      "stateMutability": "view",
      "type": "function"
    },
    {
      "inputs": [],
      "name": "PAUSER_ROLE",
      "outputs": [
        {
          "internalType": "bytes32",
          "name": "",
          "type": "bytes32"
        }
      ],
      "stateMutability": "view",
      "type": "function"
    },
    {
      "inputs": [],
      "name": "UPGRADE_INTERFACE_VERSION",
      "outputs": [
        {
          "internalType": "string",
          "name": "",
          "type": "string"
        }
      ],
      "stateMutability": "view",
      "type": "function"
    },
    {
      "inputs": [
        {
          "internalType": "address",
          "name": "owner",
          "type": "address"
        },
        {
          "internalType": "address",
          "name": "spender",
          "type": "address"
        }
      ],
      "name": "allowance",
      "outputs": [
        {
          "internalType": "uint256",
          "name": "",
          "type": "uint256"
        }
      ],
      "stateMutability": "view",
      "type": "function"
    },
    {
      "inputs": [
        {
          "internalType": "address",
          "name": "spender",
          "type": "address"
        },
        {
          "internalType": "uint256",
          "name": "value",
          "type": "uint256"
        }
      ],
      "name": "approve",
      "outputs": [
        {
          "internalType": "bool",
          "name": "",
          "type": "bool"
        }
      ],
      "stateMutability": "nonpayable",
      "type": "function"
    },
    {
      "inputs": [
        {
          "internalType": "address",
          "name": "account",
          "type": "address"
        }
      ],
      "name": "balanceOf",
      "outputs": [
        {
          "internalType": "uint256",
          "name": "",
          "type": "uint256"
        }
      ],
      "stateMutability": "view",
      "type": "function"
    },
    {
      "inputs": [
        {
          "internalType": "uint256",
          "name": "amount",
          "type": "uint256"
        }
      ],
      "name": "burn",
      "outputs": [],
      "stateMutability": "nonpayable",
      "type": "function"
    },
    {
      "inputs": [
        {
          "internalType": "address",
          "name": "account",
          "type": "address"
        },
        {
          "internalType": "uint256",
          "name": "amount",
          "type": "uint256"
        }
      ],
      "name": "burnFrom",
      "outputs": [],
      "stateMutability": "nonpayable",
      "type": "function"
    },
    {
      "inputs": [
        {
          "internalType": "address",
          "name": "wallet",
          "type": "address"
        }
      ],
      "name": "calculateRiskFactor",
      "outputs": [
        {
          "internalType": "uint256",
          "name": "",
          "type": "uint256"
        }
      ],
      "stateMutability": "view",
      "type": "function"
    },
    {
      "inputs": [
        {
          "internalType": "address",
          "name": "wallet",
          "type": "address"
        }
      ],
      "name": "checkHalfLifeExpiry",
      "outputs": [],
      "stateMutability": "nonpayable",
      "type": "function"
    },
    {
      "inputs": [
        {
          "internalType": "address",
          "name": "debtor",
          "type": "address"
        },
        {
          "internalType": "address",
          "name": "creditor",
          "type": "address"
        },
        {
          "internalType": "uint256",
          "name": "amountToClear",
          "type": "uint256"
        }
      ],
      "name": "clearInterbankLiability",
      "outputs": [],
      "stateMutability": "nonpayable",
      "type": "function"
    },
    {
      "inputs": [],
      "name": "decimals",
      "outputs": [
        {
          "internalType": "uint8",
          "name": "",
          "type": "uint8"
        }
      ],
      "stateMutability": "view",
      "type": "function"
    },
    {
      "inputs": [
        {
          "internalType": "address",
          "name": "sender",
          "type": "address"
        },
        {
          "internalType": "address",
          "name": "recipient",
          "type": "address"
        },
        {
          "internalType": "uint256",
          "name": "amountIntendedForRecipient",
          "type": "uint256"
        }
      ],
      "name": "estimateTransferFeeDetails",
      "outputs": [
        {
          "components": [
            {
              "internalType": "uint256",
              "name": "requestedAmount",
              "type": "uint256"
            },
            {
              "internalType": "uint256",
              "name": "baseFeeAmount",
              "type": "uint256"
            },
            {
              "internalType": "uint256",
              "name": "senderRiskScore",
              "type": "uint256"
            },
            {
              "internalType": "uint256",
              "name": "recipientRiskScore",
              "type": "uint256"
            },
            {
              "internalType": "uint256",
              "name": "applicableRiskScore",
              "type": "uint256"
            },
            {
              "internalType": "uint256",
              "name": "amountRiskScaler",
              "type": "uint256"
            },
            {
              "internalType": "uint256",
              "name": "scaledRiskImpactBps",
              "type": "uint256"
            },
            {
              "internalType": "uint256",
              "name": "finalRiskFactorBps",
              "type": "uint256"
            },
            {
              "internalType": "uint256",
              "name": "feeBeforeCreditsAndBounds",
              "type": "uint256"
            },
            {
              "internalType": "uint256",
              "name": "availableCredits",
              "type": "uint256"
            },
            {
              "internalType": "uint256",
              "name": "creditsToApply",
              "type": "uint256"
            },
            {
              "internalType": "uint256",
              "name": "feeAfterCredits",
              "type": "uint256"
            },
            {
              "internalType": "uint256",
              "name": "maxFeeBound",
              "type": "uint256"
            },
            {
              "internalType": "uint256",
              "name": "minFeeBound",
              "type": "uint256"
            },
            {
              "internalType": "bool",
              "name": "maxFeeApplied",
              "type": "bool"
            },
            {
              "internalType": "bool",
              "name": "minFeeApplied",
              "type": "bool"
            },
            {
              "internalType": "uint256",
              "name": "totalFeeAssessed",
              "type": "uint256"
            },
            {
              "internalType": "uint256",
              "name": "netAmountToSendToRecipient",
              "type": "uint256"
            }
          ],
          "internalType": "struct T3Token.FeeDetails",
          "name": "details",
          "type": "tuple"
        }
      ],
      "stateMutability": "view",
      "type": "function"
    },
    {
      "inputs": [
        {
          "internalType": "address",
          "name": "wallet",
          "type": "address"
        }
      ],
      "name": "flagAbnormalTransaction",
      "outputs": [],
      "stateMutability": "nonpayable",
      "type": "function"
    },
    {
      "inputs": [
        {
          "internalType": "address",
          "name": "wallet",
          "type": "address"
        }
      ],
      "name": "getAvailableCredits",
      "outputs": [
        {
          "internalType": "uint256",
          "name": "",
          "type": "uint256"
        }
      ],
      "stateMutability": "view",
      "type": "function"
    },
    {
      "inputs": [
        {
          "internalType": "address",
          "name": "wallet",
          "type": "address"
        }
      ],
      "name": "getPrefundedFeeBalance",
      "outputs": [
        {
          "internalType": "uint256",
          "name": "",
          "type": "uint256"
        }
      ],
      "stateMutability": "view",
      "type": "function"
    },
    {
      "inputs": [
        {
          "internalType": "bytes32",
          "name": "role",
          "type": "bytes32"
        }
      ],
      "name": "getRoleAdmin",
      "outputs": [
        {
          "internalType": "bytes32",
          "name": "",
          "type": "bytes32"
        }
      ],
      "stateMutability": "view",
      "type": "function"
    },
    {
      "inputs": [
        {
          "internalType": "bytes32",
          "name": "role",
          "type": "bytes32"
        },
        {
          "internalType": "address",
          "name": "account",
          "type": "address"
        }
      ],
      "name": "grantRole",
      "outputs": [],
      "stateMutability": "nonpayable",
      "type": "function"
    },
    {
      "inputs": [],
      "name": "halfLifeDuration",
      "outputs": [
        {
          "internalType": "uint256",
          "name": "",
          "type": "uint256"
        }
      ],
      "stateMutability": "view",
      "type": "function"
    },
    {
      "inputs": [
        {
          "internalType": "bytes32",
          "name": "role",
          "type": "bytes32"
        },
        {
          "internalType": "address",
          "name": "account",
          "type": "address"
        }
      ],
      "name": "hasRole",
      "outputs": [
        {
          "internalType": "bool",
          "name": "",
          "type": "bool"
        }
      ],
      "stateMutability": "view",
      "type": "function"
    },
    {
      "inputs": [],
      "name": "inactivityResetPeriod",
      "outputs": [
        {
          "internalType": "uint256",
          "name": "",
          "type": "uint256"
        }
      ],
      "stateMutability": "view",
      "type": "function"
    },
    {
      "inputs": [
        {
          "internalType": "address",
          "name": "",
          "type": "address"
        }
      ],
      "name": "incentiveCredits",
      "outputs": [
        {
          "internalType": "uint256",
          "name": "amount",
          "type": "uint256"
        },
        {
          "internalType": "uint256",
          "name": "lastUpdated",
          "type": "uint256"
        }
      ],
      "stateMutability": "view",
      "type": "function"
    },
    {
      "inputs": [
        {
          "internalType": "string",
          "name": "name",
          "type": "string"
        },
        {
          "internalType": "string",
          "name": "symbol",
          "type": "string"
        },
        {
          "internalType": "address",
          "name": "initialAdmin",
          "type": "address"
        },
        {
          "internalType": "address",
          "name": "_treasuryAddress",
          "type": "address"
        },
        {
          "internalType": "uint256",
          "name": "initialMintAmount",
          "type": "uint256"
        },
        {
          "internalType": "uint256",
          "name": "_initialHalfLifeDuration",
          "type": "uint256"
        },
        {
          "internalType": "uint256",
          "name": "_initialMinHalfLifeDuration",
          "type": "uint256"
        },
        {
          "internalType": "uint256",
          "name": "_initialMaxHalfLifeDuration",
          "type": "uint256"
        },
        {
          "internalType": "uint256",
          "name": "_initialInactivityResetPeriod",
          "type": "uint256"
        }
      ],
      "name": "initialize",
      "outputs": [],
      "stateMutability": "nonpayable",
      "type": "function"
    },
    {
      "inputs": [
        {
          "internalType": "address",
          "name": "",
          "type": "address"
        },
        {
          "internalType": "address",
          "name": "",
          "type": "address"
        }
      ],
      "name": "interbankLiability",
      "outputs": [
        {
          "internalType": "uint256",
          "name": "",
          "type": "uint256"
        }
      ],
      "stateMutability": "view",
      "type": "function"
    },
    {
      "inputs": [],
      "name": "maxHalfLifeDuration",
      "outputs": [
        {
          "internalType": "uint256",
          "name": "",
          "type": "uint256"
        }
      ],
      "stateMutability": "view",
      "type": "function"
    },
    {
      "inputs": [],
      "name": "minHalfLifeDuration",
      "outputs": [
        {
          "internalType": "uint256",
          "name": "",
          "type": "uint256"
        }
      ],
      "stateMutability": "view",
      "type": "function"
    },
    {
      "inputs": [
        {
          "internalType": "address",
          "name": "recipient",
          "type": "address"
        },
        {
          "internalType": "uint256",
          "name": "amount",
          "type": "uint256"
        }
      ],
      "name": "mint",
      "outputs": [],
      "stateMutability": "nonpayable",
      "type": "function"
    },
    {
      "inputs": [
        {
          "internalType": "address",
          "name": "",
          "type": "address"
        }
      ],
      "name": "mintedByMinter",
      "outputs": [
        {
          "internalType": "uint256",
          "name": "",
          "type": "uint256"
        }
      ],
      "stateMutability": "view",
      "type": "function"
    },
    {
      "inputs": [],
      "name": "name",
      "outputs": [
        {
          "internalType": "string",
          "name": "",
          "type": "string"
        }
      ],
      "stateMutability": "view",
      "type": "function"
    },
    {
      "inputs": [],
      "name": "pause",
      "outputs": [],
      "stateMutability": "nonpayable",
      "type": "function"
    },
    {
      "inputs": [],
      "name": "paused",
      "outputs": [
        {
          "internalType": "bool",
          "name": "",
          "type": "bool"
        }
      ],
      "stateMutability": "view",
      "type": "function"
    },
    {
      "inputs": [
        {
          "internalType": "uint256",
          "name": "amount",
          "type": "uint256"
        }
      ],
      "name": "prefundFees",
      "outputs": [],
      "stateMutability": "nonpayable",
      "type": "function"
    },
    {
      "inputs": [
        {
          "internalType": "address",
          "name": "",
          "type": "address"
        }
      ],
      "name": "prefundedFeeBalances",
      "outputs": [
        {
          "internalType": "uint256",
          "name": "",
          "type": "uint256"
        }
      ],
      "stateMutability": "view",
      "type": "function"
    },
    {
      "inputs": [],
      "name": "proxiableUUID",
      "outputs": [
        {
          "internalType": "bytes32",
          "name": "",
          "type": "bytes32"
        }
      ],
      "stateMutability": "view",
      "type": "function"
    },
    {
      "inputs": [
        {
          "internalType": "address",
          "name": "debtor",
          "type": "address"
        },
        {
          "internalType": "address",
          "name": "creditor",
          "type": "address"
        },
        {
          "internalType": "uint256",
          "name": "amount",
          "type": "uint256"
        }
      ],
      "name": "recordInterbankLiability",
      "outputs": [],
      "stateMutability": "nonpayable",
      "type": "function"
    },
    {
      "inputs": [
        {
          "internalType": "bytes32",
          "name": "role",
          "type": "bytes32"
        },
        {
          "internalType": "address",
          "name": "callerConfirmation",
          "type": "address"
        }
      ],
      "name": "renounceRole",
      "outputs": [],
      "stateMutability": "nonpayable",
      "type": "function"
    },
    {
      "inputs": [
        {
          "internalType": "address",
          "name": "recipientOfOriginalTransfer",
          "type": "address"
        },
        {
          "internalType": "uint256",
          "name": "amountToReverse",
          "type": "uint256"
        }
      ],
      "name": "reverseTransfer",
      "outputs": [],
      "stateMutability": "nonpayable",
      "type": "function"
    },
    {
      "inputs": [
        {
          "internalType": "bytes32",
          "name": "role",
          "type": "bytes32"
        },
        {
          "internalType": "address",
          "name": "account",
          "type": "address"
        }
      ],
      "name": "revokeRole",
      "outputs": [],
      "stateMutability": "nonpayable",
      "type": "function"
    },
    {
      "inputs": [
        {
          "internalType": "address",
          "name": "",
          "type": "address"
        }
      ],
      "name": "rollingAverages",
      "outputs": [
        {
          "internalType": "uint256",
          "name": "totalAmount",
          "type": "uint256"
        },
        {
          "internalType": "uint256",
          "name": "count",
          "type": "uint256"
        },
        {
          "internalType": "uint256",
          "name": "lastUpdated",
          "type": "uint256"
        }
      ],
      "stateMutability": "view",
      "type": "function"
    },
    {
      "inputs": [
        {
          "internalType": "uint256",
          "name": "_halfLifeDuration",
          "type": "uint256"
        }
      ],
      "name": "setHalfLifeDuration",
      "outputs": [],
      "stateMutability": "nonpayable",
      "type": "function"
    },
    {
      "inputs": [
        {
          "internalType": "uint256",
          "name": "_inactivityResetPeriod",
          "type": "uint256"
        }
      ],
      "name": "setInactivityResetPeriod",
      "outputs": [],
      "stateMutability": "nonpayable",
      "type": "function"
    },
    {
      "inputs": [
        {
          "internalType": "uint256",
          "name": "_maxHalfLifeDuration",
          "type": "uint256"
        }
      ],
      "name": "setMaxHalfLifeDuration",
      "outputs": [],
      "stateMutability": "nonpayable",
      "type": "function"
    },
    {
      "inputs": [
        {
          "internalType": "uint256",
          "name": "_minHalfLifeDuration",
          "type": "uint256"
        }
      ],
      "name": "setMinHalfLifeDuration",
      "outputs": [],
      "stateMutability": "nonpayable",
      "type": "function"
    },
    {
      "inputs": [
        {
          "internalType": "address",
          "name": "_treasuryAddress",
          "type": "address"
        }
      ],
      "name": "setTreasuryAddress",
      "outputs": [],
      "stateMutability": "nonpayable",
      "type": "function"
    },
    {
      "inputs": [
        {
          "internalType": "bytes4",
          "name": "interfaceId",
          "type": "bytes4"
        }
      ],
      "name": "supportsInterface",
      "outputs": [
        {
          "internalType": "bool",
          "name": "",
          "type": "bool"
        }
      ],
      "stateMutability": "view",
      "type": "function"
    },
    {
      "inputs": [],
      "name": "symbol",
      "outputs": [
        {
          "internalType": "string",
          "name": "",
          "type": "string"
        }
      ],
      "stateMutability": "view",
      "type": "function"
    },
    {
      "inputs": [],
      "name": "totalSupply",
      "outputs": [
        {
          "internalType": "uint256",
          "name": "",
          "type": "uint256"
        }
      ],
      "stateMutability": "view",
      "type": "function"
    },
    {
      "inputs": [
        {
          "internalType": "address",
          "name": "",
          "type": "address"
        },
        {
          "internalType": "address",
          "name": "",
          "type": "address"
        }
      ],
      "name": "transactionCountBetween",
      "outputs": [
        {
          "internalType": "uint256",
          "name": "",
          "type": "uint256"
        }
      ],
      "stateMutability": "view",
      "type": "function"
    },
    {
      "inputs": [
        {
          "internalType": "address",
          "name": "recipient",
          "type": "address"
        },
        {
          "internalType": "uint256",
          "name": "amountIntendedForRecipient",
          "type": "uint256"
        }
      ],
      "name": "transfer",
      "outputs": [
        {
          "internalType": "bool",
          "name": "",
          "type": "bool"
        }
      ],
      "stateMutability": "nonpayable",
      "type": "function"
    },
    {
      "inputs": [
        {
          "internalType": "address",
          "name": "",
          "type": "address"
        }
      ],
      "name": "transferData",
      "outputs": [
        {
          "internalType": "uint256",
          "name": "commitWindowEnd",
          "type": "uint256"
        },
        {
          "internalType": "uint256",
          "name": "halfLifeDuration",
          "type": "uint256"
        },
        {
          "internalType": "address",
          "name": "originator",
          "type": "address"
        },
        {
          "internalType": "uint256",
          "name": "transferCount",
          "type": "uint256"
        },
        {
          "internalType": "bytes32",
          "name": "reversalHash",
          "type": "bytes32"
        },
        {
          "internalType": "uint256",
          "name": "totalFeeAssessed",
          "type": "uint256"
        },
        {
          "internalType": "bool",
          "name": "isReversed",
          "type": "bool"
        }
      ],
      "stateMutability": "view",
      "type": "function"
    },
    {
      "inputs": [
        {
          "internalType": "address",
          "name": "from",
          "type": "address"
        },
        {
          "internalType": "address",
          "name": "to",
          "type": "address"
        },
        {
          "internalType": "uint256",
          "name": "amountIntendedForRecipient",
          "type": "uint256"
        }
      ],
      "name": "transferFrom",
      "outputs": [
        {
          "internalType": "bool",
          "name": "",
          "type": "bool"
        }
      ],
      "stateMutability": "nonpayable",
      "type": "function"
    },
    {
      "inputs": [],
      "name": "treasuryAddress",
      "outputs": [
        {
          "internalType": "address",
          "name": "",
          "type": "address"
        }
      ],
      "stateMutability": "view",
      "type": "function"
    },
    {
      "inputs": [],
      "name": "unpause",
      "outputs": [],
      "stateMutability": "nonpayable",
      "type": "function"
    },
    {
      "inputs": [
        {
          "internalType": "address",
          "name": "newImplementation",
          "type": "address"
        },
        {
          "internalType": "bytes",
          "name": "data",
          "type": "bytes"
        }
      ],
      "name": "upgradeToAndCall",
      "outputs": [],
      "stateMutability": "payable",
      "type": "function"
    },
    {
      "inputs": [
        {
          "internalType": "address",
          "name": "",
          "type": "address"
        }
      ],
      "name": "walletRiskProfiles",
      "outputs": [
        {
          "internalType": "uint256",
          "name": "reversalCount",
          "type": "uint256"
        },
        {
          "internalType": "uint256",
          "name": "lastReversal",
          "type": "uint256"
        },
        {
          "internalType": "uint256",
          "name": "creationTime",
          "type": "uint256"
        },
        {
          "internalType": "uint256",
          "name": "abnormalTxCount",
          "type": "uint256"
        }
      ],
      "stateMutability": "view",
      "type": "function"
    },
    {
      "inputs": [
        {
          "internalType": "uint256",
          "name": "amount",
          "type": "uint256"
        }
      ],
      "name": "withdrawPrefundedFees",
      "outputs": [],
      "stateMutability": "nonpayable",
      "type": "function"
    }
  ],
  "bytecode": "0x60a06040523073ffffffffffffffffffffffffffffffffffffffff1660809073ffffffffffffffffffffffffffffffffffffffff168152503480156200004457600080fd5b506200006167381ac8eeafa8be7060c01b620000af60201b60201c565b6200007d6790891579275f890d60c01b620000af60201b60201c565b62000099673fb2cd4ed85c947560c01b620000af60201b60201c565b620000a9620000b260201b60201c565b62000245565b50565b6000620000c4620001bc60201b60201c565b90508060000160089054906101000a900460ff161562000110576040517ff92ee8a900000000000000000000000000000000000000000000000000000000815260040160405180910390fd5b67ffffffffffffffff80168160000160009054906101000a900467ffffffffffffffff1667ffffffffffffffff1614620001b95767ffffffffffffffff8160000160006101000a81548167ffffffffffffffff021916908367ffffffffffffffff1602179055507fc7f505b2f371ae2175ee4913f4499e1f2633a7b5936321eed1cdaeb6115181d267ffffffffffffffff604051620001b0919062000228565b60405180910390a15b50565b600080620001cf620001d860201b60201c565b90508091505090565b60007ff0c57e16840df040f15088dc2f81fe391c3923bec73e23a9662efc9c229c6a0060001b905090565b600067ffffffffffffffff82169050919050565b620002228162000203565b82525050565b60006020820190506200023f600083018462000217565b92915050565b60805161cd526200026f60003960008181616aba01528181616b0f0152616d29015261cd526000f3fe60806040526004361061038c5760003560e01c80636605bfda116101dc578063a217fddf11610102578063d5391393116100a0578063e63ab1e91161006f578063e63ab1e914610dd7578063e697da6814610e02578063f58978cc14610e3f578063f7ad9ca514610e685761038c565b8063d539139314610d1d578063d547741f14610d48578063dd62ed3e14610d71578063dd7faab114610dae5761038c565b8063af20d942116100dc578063af20d94214610c61578063b065a8e514610c8a578063c5f956af14610cc7578063c750f20314610cf25761038c565b8063a217fddf14610bce578063a9059cbb14610bf9578063ad3cb1cc14610c365761038c565b806377647f271161017a5780638ffa15d4116101495780638ffa15d414610aec578063905b7fcb14610b2957806391d1485414610b6657806395d89b4114610ba35761038c565b806377647f2714610a4457806379cc679014610a81578063800753cf14610aaa5780638456cb5914610ad55761038c565b80636e2fae47116101b65780636e2fae471461098a57806370a08231146109b357806375b238fc146109f057806376223a2714610a1b5761038c565b80636605bfda146108fb5780636b6ef953146109245780636cd9ca14146109615761038c565b806336568abe116102c15780634f1ef2861161025f5780635a0f385a1161022e5780635a0f385a146108275780635c975abb146108505780635ed610971461087b57806362d3f814146108b85761038c565b80634f1ef2861461078e578063508c0634146107aa57806352d1902d146107d357806357fe51d2146107fe5761038c565b806340c10f191161029b57806340c10f19146106e857806342966c68146107115780634c915d181461073a5780634d8183cc146107655761038c565b806336568abe146106685780633d8d1dce146106915780633f4ba83a146106d15761038c565b806318160ddd1161032e578063282c51f311610308578063282c51f3146105ac5780632f2ff15d146105d7578063313ce5671461060057806333dcdacb1461062b5761038c565b806318160ddd1461050757806323b872dd14610532578063248a9ca31461056f5761038c565b806308d887d01161036a57806308d887d014610424578063095ea7b3146104635780630c27ab5a146104a05780630f3f0803146104de5761038c565b806301ffc9a71461039157806303833501146103ce57806306fdde03146103f9575b600080fd5b34801561039d57600080fd5b506103b860048036038101906103b3919061a9bd565b610e91565b6040516103c5919061aa05565b60405180910390f35b3480156103da57600080fd5b506103e361105f565b6040516103f0919061aa39565b60405180910390f35b34801561040557600080fd5b5061040e611065565b60405161041b919061aae4565b60405180910390f35b34801561043057600080fd5b5061044b6004803603810190610446919061ab64565b611106565b60405161045a9392919061ab91565b60405180910390f35b34801561046f57600080fd5b5061048a6004803603810190610485919061abf4565b611130565b604051610497919061aa05565b60405180910390f35b3480156104ac57600080fd5b506104c760048036038101906104c2919061ab64565b611153565b6040516104d592919061ac34565b60405180910390f35b3480156104ea57600080fd5b506105056004803603810190610500919061ac5d565b611177565b005b34801561051357600080fd5b5061051c611326565b604051610529919061aa39565b60405180910390f35b34801561053e57600080fd5b506105596004803603810190610554919061ac8a565b61133e565b604051610566919061aa05565b60405180910390f35b34801561057b57600080fd5b506105966004803603810190610591919061ad13565b6114b4565b6040516105a3919061ad4f565b60405180910390f35b3480156105b857600080fd5b506105c16114e2565b6040516105ce919061ad4f565b60405180910390f35b3480156105e357600080fd5b506105fe60048036038101906105f9919061ad6a565b611506565b005b34801561060c57600080fd5b50610615611528565b604051610622919061adc6565b60405180910390f35b34801561063757600080fd5b50610652600480360381019061064d919061ab64565b611531565b60405161065f919061aa39565b60405180910390f35b34801561067457600080fd5b5061068f600480360381019061068a919061ad6a565b611549565b005b34801561069d57600080fd5b506106b860048036038101906106b3919061ab64565b6115c4565b6040516106c8949392919061ade1565b60405180910390f35b3480156106dd57600080fd5b506106e66115f4565b005b3480156106f457600080fd5b5061070f600480360381019061070a919061abf4565b61168d565b005b34801561071d57600080fd5b506107386004803603810190610733919061ac5d565b611a09565b005b34801561074657600080fd5b5061074f611b1c565b60405161075c919061aa39565b60405180910390f35b34801561077157600080fd5b5061078c6004803603810190610787919061ac8a565b611b22565b005b6107a860048036038101906107a3919061af5b565b6120c7565b005b3480156107b657600080fd5b506107d160048036038101906107cc919061ab64565b6120e6565b005b3480156107df57600080fd5b506107e8612943565b6040516107f5919061ad4f565b60405180910390f35b34801561080a57600080fd5b506108256004803603810190610820919061ac5d565b612976565b005b34801561083357600080fd5b5061084e6004803603810190610849919061abf4565b612ba1565b005b34801561085c57600080fd5b50610865613129565b604051610872919061aa05565b60405180910390f35b34801561088757600080fd5b506108a2600480360381019061089d919061afb7565b61314e565b6040516108af919061aa39565b60405180910390f35b3480156108c457600080fd5b506108df60048036038101906108da919061ab64565b613173565b6040516108f2979695949392919061b006565b60405180910390f35b34801561090757600080fd5b50610922600480360381019061091d919061ab64565b6131e2565b005b34801561093057600080fd5b5061094b6004803603810190610946919061ab64565b613360565b604051610958919061aa39565b60405180910390f35b34801561096d57600080fd5b506109886004803603810190610983919061ac5d565b613767565b005b34801561099657600080fd5b506109b160048036038101906109ac919061ab64565b61387f565b005b3480156109bf57600080fd5b506109da60048036038101906109d5919061ab64565b613986565b6040516109e7919061aa39565b60405180910390f35b3480156109fc57600080fd5b50610a056139dd565b604051610a12919061ad4f565b60405180910390f35b348015610a2757600080fd5b50610a426004803603810190610a3d919061ac5d565b613a01565b005b348015610a5057600080fd5b50610a6b6004803603810190610a66919061ab64565b613c2d565b604051610a78919061aa39565b60405180910390f35b348015610a8d57600080fd5b50610aa86004803603810190610aa3919061abf4565b613cb2565b005b348015610ab657600080fd5b50610abf613e27565b604051610acc919061aa39565b60405180910390f35b348015610ae157600080fd5b50610aea613e2d565b005b348015610af857600080fd5b50610b136004803603810190610b0e919061afb7565b613ec5565b604051610b20919061aa39565b60405180910390f35b348015610b3557600080fd5b50610b506004803603810190610b4b919061ab64565b613eea565b604051610b5d919061aa39565b60405180910390f35b348015610b7257600080fd5b50610b8d6004803603810190610b88919061ad6a565b613f02565b604051610b9a919061aa05565b60405180910390f35b348015610baf57600080fd5b50610bb8613f7b565b604051610bc5919061aae4565b60405180910390f35b348015610bda57600080fd5b50610be361401c565b604051610bf0919061ad4f565b60405180910390f35b348015610c0557600080fd5b50610c206004803603810190610c1b919061abf4565b614023565b604051610c2d919061aa05565b60405180910390f35b348015610c4257600080fd5b50610c4b614165565b604051610c58919061aae4565b60405180910390f35b348015610c6d57600080fd5b50610c886004803603810190610c83919061ac5d565b61419e565b005b348015610c9657600080fd5b50610cb16004803603810190610cac919061ab64565b61441a565b604051610cbe919061aa39565b60405180910390f35b348015610cd357600080fd5b50610cdc6144a2565b604051610ce9919061b075565b60405180910390f35b348015610cfe57600080fd5b50610d076144c8565b604051610d14919061aa39565b60405180910390f35b348015610d2957600080fd5b50610d326144ce565b604051610d3f919061ad4f565b60405180910390f35b348015610d5457600080fd5b50610d6f6004803603810190610d6a919061ad6a565b6144f2565b005b348015610d7d57600080fd5b50610d986004803603810190610d93919061afb7565b614514565b604051610da5919061aa39565b60405180910390f35b348015610dba57600080fd5b50610dd56004803603810190610dd0919061ac8a565b6145a9565b005b348015610de357600080fd5b50610dec614a17565b604051610df9919061ad4f565b60405180910390f35b348015610e0e57600080fd5b50610e296004803603810190610e24919061ac8a565b614a3b565b604051610e36919061b222565b60405180910390f35b348015610e4b57600080fd5b50610e666004803603810190610e61919061b2df565b6152e5565b005b348015610e7457600080fd5b50610e8f6004803603810190610e8a919061ac5d565b615bdb565b005b6000610ea7678ada1c5a78302f6760c01b615f29565b610ebb67c5f34c057457aeb060c01b615f29565b610ecf67836f1e079d9ea67d60c01b615f29565b6301ffc9a760e01b827bffffffffffffffffffffffffffffffffffffffffffffffffffffffff1916148015610f145750610f13678345baf684665d3660c01b615f2c565b5b80610f7c5750637965db0b60e01b827bffffffffffffffffffffffffffffffffffffffffffffffffffffffff1916148015610f5f5750610f5e6707b3dc5ed7909b2860c01b615f2c565b5b8015610f7b5750610f7a673852881ea1b3232060c01b615f2c565b5b5b80610fc857506336372b0760e01b827bffffffffffffffffffffffffffffffffffffffffffffffffffffffff1916148015610fc75750610fc6675a0168e89f8a95ec60c01b615f2c565b5b5b1561101257610fe167e14323ace6814c7860c01b615f29565b610ff5671a1570a81a40c83f60c01b615f29565b6110096743f4bdf95ba6cc1e60c01b615f29565b6001905061105a565b61102667d65aed36ee2ba1d060c01b615f29565b61103a670d66f7b7d0bcf50060c01b615f29565b61104e67f3bf55bb46f7447b60c01b615f29565b61105782615f37565b90505b919050565b60035481565b60606000611071615fb1565b90508060030180546110829061b410565b80601f01602080910402602001604051908101604052809291908181526020018280546110ae9061b410565b80156110fb5780601f106110d0576101008083540402835291602001916110fb565b820191906000526020600020905b8154815290600101906020018083116110de57829003601f168201915b505050505091505090565b60066020528060005260406000206000915090508060000154908060010154908060020154905083565b60008061113b615fd9565b9050611148818585615fe1565b600191505092915050565b60096020528060005260406000206000915090508060000154908060010154905082565b61118b674ff50904b1df722460c01b615f29565b7fa49807205ce4d355092ef5a8a18f56e8913cf4a201fbe287825b095693c217756111b581615ff3565b6111c9670aee41f21d49182560c01b615f29565b6111dd67e10be077e4d0fbd960c01b615f29565b6111f167208115fc19d94e0860c01b615f29565b611205670766811c0a279aa260c01b615f29565b61121967cc29317f48594e6060c01b615f29565b60015482101561125e576040517f08c379a00000000000000000000000000000000000000000000000000000000081526004016112559061b48d565b60405180910390fd5b61127267545839643162b72f60c01b615f29565b611286671ed3c715d096976460c01b615f29565b61129a670f5d95597f48a4a860c01b615f29565b6112ae671ca0fee09e3ff5f260c01b615f29565b6002548211156112f3576040517f08c379a00000000000000000000000000000000000000000000000000000000081526004016112ea9061b4f9565b60405180910390fd5b61130767eaf723ed3e46e60260c01b615f29565b61131b678b96bf175de77c8860c01b615f29565b816000819055505050565b600080611331615fb1565b9050806002015491505090565b60006113546781156c445ae3e01660c01b615f29565b61135c616007565b611370678650233f756b76c660c01b615f29565b61138467d71b4c7288a0b72760c01b615f29565b611398670eca914eb79f97ef60c01b615f29565b6113ac679950ee3b9439513d60c01b615f29565b60006113b6615fd9565b90506113cc67132f2ae4b721f44b60c01b615f29565b6113e067c2b04a2d562d255e60c01b615f29565b6113eb858285616048565b6113ff677d28254b50bd90a560c01b615f29565b61141367f7f078bd6d060d2160c01b615f29565b61141c856160dd565b61143067721770c9cf5aebfe60c01b615f29565b611444676d961577fadeb00260c01b615f29565b61144d846160dd565b61146167786970cf6cfaf2c060c01b615f29565b611475672b88e3a6c513adf260c01b615f29565b6114808585856160f4565b61149467021c8de47c8a0ff260c01b615f29565b6114a867e4fb6108bba8b7ab60c01b615f29565b60019150509392505050565b6000806114bf6165cb565b905080600001600084815260200190815260200160002060010154915050919050565b7f3c11d16cbaffd01df69ce1c404f6340ee057498f5f00246190ea54220576a84881565b61150f826114b4565b61151881615ff3565b61152283836165f3565b50505050565b60006012905090565b600c6020528060005260406000206000915090505481565b611551615fd9565b73ffffffffffffffffffffffffffffffffffffffff168173ffffffffffffffffffffffffffffffffffffffff16146115b5576040517f6697b23200000000000000000000000000000000000000000000000000000000815260040160405180910390fd5b6115bf82826166f4565b505050565b60086020528060005260406000206000915090508060000154908060010154908060020154908060030154905084565b611608679d10ab4185a8e5d660c01b615f29565b7f65d7a28e3265b37a6474929f336521b332c1681b933f6cb9f3376673440d862a61163281615ff3565b61164667ff2a356716a0d2fd60c01b615f29565b61165a67de6bf0b229e2919860c01b615f29565b61166e6708732cd630bd94e960c01b615f29565b611682673727c0c2a316566060c01b615f29565b61168a6167f6565b50565b6116a167160b4d0c14f1999860c01b615f29565b6116a9616007565b6116bd676596f76b1474db0260c01b615f29565b6116d1672d4a54fd79f7676d60c01b615f29565b7f9f2df0fed2c77648de5860a4cc508cd0818c85b8b8a1ab4ceeef8d981c8956a66116fb81615ff3565b61170f67bf9a31bc2d19077160c01b615f29565b61172367274f0f8b6569996f60c01b615f29565b6117376707c4d3af1a7bdd3d60c01b615f29565b61174b67353c0c88cc6cdba660c01b615f29565b61175f67e655ea291db40dbe60c01b615f29565b600073ffffffffffffffffffffffffffffffffffffffff168373ffffffffffffffffffffffffffffffffffffffff16036117ce576040517f08c379a00000000000000000000000000000000000000000000000000000000081526004016117c59061b565565b60405180910390fd5b6117e267d8ec3cc45ad3357760c01b615f29565b6117f6673648c5979683f2e760c01b615f29565b61180a67fbe67a8d388d0a1c60c01b615f29565b61181e67284e7cd7242d5d3560c01b615f29565b60008211611861576040517f08c379a00000000000000000000000000000000000000000000000000000000081526004016118589061b5d1565b60405180910390fd5b61187567eeec0144a9a1aa8860c01b615f29565b61188967f4e05ad29eebcad760c01b615f29565b61189d67be886be0d54997d660c01b615f29565b60006118a7615fd9565b90506118bd67d1bc14c2a756f34360c01b615f29565b6118d16773f1d6a05f45c47160c01b615f29565b6118db8484616868565b6118ef67a94c623995f8e79960c01b615f29565b82600a60008373ffffffffffffffffffffffffffffffffffffffff1673ffffffffffffffffffffffffffffffffffffffff168152602001908152602001600020600082825461193e919061b620565b9250508190555061195967ccfa86d7239013d360c01b615f29565b61196d676c720fb553041f0360c01b615f29565b611976846168ea565b61198a673bca97dc298cdaa260c01b615f29565b61199e672ccbc703ac2e6ba960c01b615f29565b8373ffffffffffffffffffffffffffffffffffffffff168173ffffffffffffffffffffffffffffffffffffffff167fbf67ec129007be07f346d9d2933215293a6612ce7ff17d6b479a5a5cae72890c856040516119fb919061aa39565b60405180910390a350505050565b611a1d6740b855729d72eb8360c01b615f29565b611a25616007565b611a396777250cdda1558e6160c01b615f29565b611a4d67d2b8e7f2b3b8c8a060c01b615f29565b611a6167d6936bb942ee242c60c01b615f29565b611a7567da5f9bd6519b2ab160c01b615f29565b611a8967b1572293e41e051260c01b615f29565b60008111611acc576040517f08c379a0000000000000000000000000000000000000000000000000000000008152600401611ac39061b6a0565b60405180910390fd5b611ae06777d130d4b4c5611d60c01b615f29565b611af467395fb67a0955de0260c01b615f29565b611b0867866c59e3976c1b8860c01b615f29565b611b19611b13615fd9565b82616a36565b50565b60005481565b611b366776aa10e71fb6a93260c01b615f29565b7fa49807205ce4d355092ef5a8a18f56e8913cf4a201fbe287825b095693c21775611b6081615ff3565b611b74676fa43835479718c760c01b615f29565b611b88675c214dbc0608ba3860c01b615f29565b611b9c67276561e1859d270360c01b615f29565b611bb0674d1891093f36a6e060c01b615f29565b611bc4671a11343deb0b25be60c01b615f29565b600073ffffffffffffffffffffffffffffffffffffffff168473ffffffffffffffffffffffffffffffffffffffff1603611c33576040517f08c379a0000000000000000000000000000000000000000000000000000000008152600401611c2a9061b70c565b60405180910390fd5b611c4767eb11f5318ce81c5060c01b615f29565b611c5b67c23425da9c0f023160c01b615f29565b611c6f67aa569c4e03fedc3460c01b615f29565b611c8367a7ec7ac43b81256f60c01b615f29565b600073ffffffffffffffffffffffffffffffffffffffff168373ffffffffffffffffffffffffffffffffffffffff1603611cf2576040517f08c379a0000000000000000000000000000000000000000000000000000000008152600401611ce99061b778565b60405180910390fd5b611d06678e81a49b0241309260c01b615f29565b611d1a67129da755f6b7fe9f60c01b615f29565b611d2e6761ec3b1b1ef6488860c01b615f29565b611d4267406794a88077e5f160c01b615f29565b8273ffffffffffffffffffffffffffffffffffffffff168473ffffffffffffffffffffffffffffffffffffffff1603611db0576040517f08c379a0000000000000000000000000000000000000000000000000000000008152600401611da79061b7e4565b60405180910390fd5b611dc467728834754181907a60c01b615f29565b611dd8671d231205faa77eea60c01b615f29565b611dec67652cc8a9917ce34f60c01b615f29565b611e00677e92098582ba7bdb60c01b615f29565b60008211611e43576040517f08c379a0000000000000000000000000000000000000000000000000000000008152600401611e3a9061b850565b60405180910390fd5b611e5767ebcb973331d1e7a560c01b615f29565b611e6b67b09ca99605f0dd3f60c01b615f29565b611e7f677cfcaff5c7fcc0d960c01b615f29565b6000600b60008673ffffffffffffffffffffffffffffffffffffffff1673ffffffffffffffffffffffffffffffffffffffff16815260200190815260200160002060008573ffffffffffffffffffffffffffffffffffffffff1673ffffffffffffffffffffffffffffffffffffffff168152602001908152602001600020549050611f146764af18c627da737c60c01b615f29565b611f28676fa60d8c6c54e34b60c01b615f29565b611f3c6762c11d9e18e9676e60c01b615f29565b80831115611f7f576040517f08c379a0000000000000000000000000000000000000000000000000000000008152600401611f769061b8e2565b60405180910390fd5b611f93674943a23b693fea9e60c01b615f29565b611fa767fa8e76b5d7ec06a660c01b615f29565b8281611fb3919061b902565b600b60008773ffffffffffffffffffffffffffffffffffffffff1673ffffffffffffffffffffffffffffffffffffffff16815260200190815260200160002060008673ffffffffffffffffffffffffffffffffffffffff1673ffffffffffffffffffffffffffffffffffffffff168152602001908152602001600020819055506120476752eda0b7b385c7a260c01b615f29565b61205b67a8c404813e35634060c01b615f29565b8373ffffffffffffffffffffffffffffffffffffffff168573ffffffffffffffffffffffffffffffffffffffff167f59ee8f52c52e61b33b5c6a4f2311c6855f389b6d4667bc980aaa3eb4fa8d7b7f856040516120b8919061aa39565b60405180910390a35050505050565b6120cf616ab8565b6120d882616b9e565b6120e28282616c08565b5050565b6120fa67a34030000b106bd860c01b615f29565b612102616007565b61211667148b65eb758ceab060c01b615f29565b61212a67c38ab22e7a52a53f60c01b615f29565b61213e6727e4bc3f8e96380760c01b615f29565b6121526751e3139876156ac060c01b615f29565b6000600560008373ffffffffffffffffffffffffffffffffffffffff1673ffffffffffffffffffffffffffffffffffffffff16815260200190815260200160002090506121a967c1d360bbb763a0c560c01b615f29565b6121bd67fb1c0ace0964719a60c01b615f29565b6121d1671abd59526f4a4ab560c01b615f29565b6000816000015411612218576040517f08c379a000000000000000000000000000000000000000000000000000000000815260040161220f9061b982565b60405180910390fd5b61222c677b875ad516566dee60c01b615f29565b61224067e812a43b321dafa560c01b615f29565b61225467fd406f9ef9c2830d60c01b615f29565b61226867f14468c74cd71e6060c01b615f29565b8060060160009054906101000a900460ff16156122ba576040517f08c379a00000000000000000000000000000000000000000000000000000000081526004016122b19061b9ee565b60405180910390fd5b6122ce6764814a37376def7c60c01b615f29565b6122e267e2d8e940103d582060c01b615f29565b6122f667ffed167c1722676c60c01b615f29565b61230a67d06678ccc318ee7b60c01b615f29565b8060000154421015612351576040517f08c379a00000000000000000000000000000000000000000000000000000000081526004016123489061ba5a565b60405180910390fd5b61236567e4f3fa07cc8fd44860c01b615f29565b612379674e2546b47a796dcb60c01b615f29565b61238d67d64f7704877a567060c01b615f29565b6000816005015490506123aa67f1d367cf73ea9fee60c01b615f29565b6123be67cfa570d50f54fe9660c01b615f29565b60008111156127fa576123db67b5bb3adc0661a15060c01b615f29565b6123ef678dbab2789bf375f060c01b615f29565b612403674f8fa4f1a1404f1660c01b615f29565b6000600882612412919061baa9565b905061242867161185f1d0a1fa6e60c01b615f29565b61243c67d8ffb15fadf2ec5460c01b615f29565b60008111156127df57612459671d25f357bc9cc4c860c01b615f29565b61246d67cf40caef1e36b08e60c01b615f29565b612481671ce08140b455598160c01b615f29565b6000600282612490919061baa9565b90506124a6675eb7fedb49e9037860c01b615f29565b6124ba6752ac4272ae74205c60c01b615f29565b60008111156127c4576124d767682504699cde6cb360c01b615f29565b6124eb67d25ccd752a1e4b8860c01b615f29565b80600960008660020160009054906101000a900473ffffffffffffffffffffffffffffffffffffffff1673ffffffffffffffffffffffffffffffffffffffff1673ffffffffffffffffffffffffffffffffffffffff1681526020019081526020016000206000016000828254612561919061b620565b9250508190555061257c678a143ffd753f2f8960c01b615f29565b42600960008660020160009054906101000a900473ffffffffffffffffffffffffffffffffffffffff1673ffffffffffffffffffffffffffffffffffffffff1673ffffffffffffffffffffffffffffffffffffffff168152602001908152602001600020600101819055506125fb6771c1bfc3b07bed0260c01b615f29565b61260f67eea9bebadfbd076260c01b615f29565b8360020160009054906101000a900473ffffffffffffffffffffffffffffffffffffffff1673ffffffffffffffffffffffffffffffffffffffff167ffdfa38dc30c58b0662200654ef296c1527abbf34b03b2f908af130d2a35db87882604051612679919061aa39565b60405180910390a26126956748024d505805270660c01b615f29565b80600960008773ffffffffffffffffffffffffffffffffffffffff1673ffffffffffffffffffffffffffffffffffffffff16815260200190815260200160002060000160008282546126e7919061b620565b9250508190555061270267cd745cad9d9047cf60c01b615f29565b42600960008773ffffffffffffffffffffffffffffffffffffffff1673ffffffffffffffffffffffffffffffffffffffff1681526020019081526020016000206001018190555061275d6754ebbeee8ee1f0aa60c01b615f29565b61277167b1c83a3d664e0c0c60c01b615f29565b8473ffffffffffffffffffffffffffffffffffffffff167ffdfa38dc30c58b0662200654ef296c1527abbf34b03b2f908af130d2a35db878826040516127b7919061aa39565b60405180910390a26127d9565b6127d86786a66d8eafc7db6660c01b615f29565b5b506127f4565b6127f367b716e83f993d7c7860c01b615f29565b5b5061280f565b61280e6708f2a9f7348528aa60c01b615f29565b5b61282367f46d328b4d9bc25760c01b615f29565b600560008473ffffffffffffffffffffffffffffffffffffffff1673ffffffffffffffffffffffffffffffffffffffff16815260200190815260200160002060008082016000905560018201600090556002820160006101000a81549073ffffffffffffffffffffffffffffffffffffffff02191690556003820160009055600482016000905560058201600090556006820160006101000a81549060ff021916905550506128dc67d1c1b7c5e35f90d460c01b615f29565b6128f067ee363fd0e51050fb60c01b615f29565b8273ffffffffffffffffffffffffffffffffffffffff167f23bd7f8191a147e373def338d5a76dce96b4d2f7d15a43eca83e3ee6e750614342604051612936919061aa39565b60405180910390a2505050565b600061294d616d27565b7f360894a13ba1a3210667c828492db98dca3e2076cc3735a920a3ca505d382bbc60001b905090565b61298a67a21c82bf9c0c771860c01b615f29565b7fa49807205ce4d355092ef5a8a18f56e8913cf4a201fbe287825b095693c217756129b481615ff3565b6129c867377b1dafca1555c360c01b615f29565b6129dc676ce439946c5173ad60c01b615f29565b6129f0673bf51b7c155d8f7560c01b615f29565b612a04673064441de40b00c460c01b615f29565b612a18674c7c411a32a700f260c01b615f29565b60008211612a5b576040517f08c379a0000000000000000000000000000000000000000000000000000000008152600401612a529061bb26565b60405180910390fd5b612a6f67d788d962d2f3c7b360c01b615f29565b612a83672df7e72f1c18542860c01b615f29565b612a976721b7c40e4362602760c01b615f29565b612aab678933417fef87fc1360c01b615f29565b600154821015612af0576040517f08c379a0000000000000000000000000000000000000000000000000000000008152600401612ae79061bb92565b60405180910390fd5b612b046772edd903335a9dd360c01b615f29565b612b186775c653ac34a84c0b60c01b615f29565b81600281905550612b3367388d5132d99321fd60c01b615f29565b612b47672e0b2790e81cc84660c01b615f29565b6002546000541115612b8857612b6666aa42bb5c1f6e1460c01b615f29565b612b7a67c5e21788a3248f2060c01b615f29565b600254600081905550612b9d565b612b9c672968efc7aad5732e60c01b615f29565b5b5050565b612bb567fbc000334f45045060c01b615f29565b612bbd616007565b612bd1676c89a2db1c5d285960c01b615f29565b612be567b9caad54b6e3375b60c01b615f29565b612bf96753174c1d1fdf6fc660c01b615f29565b612c0d67bc1db6e009e7f0ee60c01b615f29565b6000612c17615fd9565b9050612c2d67dda3bc29a7f6ef5b60c01b615f29565b612c4167b8aca3247432423b60c01b615f29565b6000600560008573ffffffffffffffffffffffffffffffffffffffff1673ffffffffffffffffffffffffffffffffffffffff1681526020019081526020016000209050612c9867890d9597fd7c13c560c01b615f29565b612cac670d9999fb5ced0a9660c01b615f29565b612cc067a85934be70513fee60c01b615f29565b8173ffffffffffffffffffffffffffffffffffffffff168160020160009054906101000a900473ffffffffffffffffffffffffffffffffffffffff1673ffffffffffffffffffffffffffffffffffffffff1614612d52576040517f08c379a0000000000000000000000000000000000000000000000000000000008152600401612d499061bbfe565b60405180910390fd5b612d6667a8434d65d66e12bd60c01b615f29565b612d7a67204451a6811a1cf260c01b615f29565b612d8e677c3707fcd955864860c01b615f29565b612da267eaa6a3fead30ecda60c01b615f29565b6000816000015411612de9576040517f08c379a0000000000000000000000000000000000000000000000000000000008152600401612de09061bc6a565b60405180910390fd5b612dfd67016e6dfad21a3b6f60c01b615f29565b612e1167ca106294cc6cd6f960c01b615f29565b612e25679812762b9f18975460c01b615f29565b612e39672ccd7547cf619b4d60c01b615f29565b80600001544210612e7f576040517f08c379a0000000000000000000000000000000000000000000000000000000008152600401612e769061bcd6565b60405180910390fd5b612e93673c65c5ab7b3bb2b160c01b615f29565b612ea76773b54db42187736260c01b615f29565b612ebb67527bc522d8879a8860c01b615f29565b612ecf67d2363b30d530c1f060c01b615f29565b8060060160009054906101000a900460ff1615612f21576040517f08c379a0000000000000000000000000000000000000000000000000000000008152600401612f189061bd68565b60405180910390fd5b612f356739a4567302acde4f60c01b615f29565b612f496710a5912cd49b0aec60c01b615f29565b612f5d67d5920b2e0ececc7160c01b615f29565b612f7167f0cd674ae2ecaad560c01b615f29565b82612f7b85613986565b1015612fbc576040517f08c379a0000000000000000000000000000000000000000000000000000000008152600401612fb39061bdfa565b60405180910390fd5b612fd0671a127f25bfd68a0c60c01b615f29565b612fe467049fe2a263651e4060c01b615f29565b60018160060160006101000a81548160ff02191690831515021790555061301567e9c9a701ad83410860c01b615f29565b613029676fbaee0197faff8060c01b615f29565b61303282616dae565b6130466777a06e8eb711f48860c01b615f29565b61305a6724df8222487e2d2060c01b615f29565b61306384616dae565b613077678deddfb1ef461d0860c01b615f29565b61308b67beb3a8e38873ec4660c01b615f29565b613096848385616ead565b6130aa67c6f9d7ec3c7aaee560c01b615f29565b6130be67ebecfb9f8fe90c2560c01b615f29565b8373ffffffffffffffffffffffffffffffffffffffff168273ffffffffffffffffffffffffffffffffffffffff167f55608e3380952b490f6dc0b1b0bcf7a16177fe10590cf1599b7a84f430b70e378560405161311b919061aa39565b60405180910390a350505050565b600080613134616fa1565b90508060000160009054906101000a900460ff1691505090565b600b602052816000526040600020602052806000526040600020600091509150505481565b60056020528060005260406000206000915090508060000154908060010154908060020160009054906101000a900473ffffffffffffffffffffffffffffffffffffffff16908060030154908060040154908060050154908060060160009054906101000a900460ff16905087565b6131f66731f4089e142890de60c01b615f29565b7fa49807205ce4d355092ef5a8a18f56e8913cf4a201fbe287825b095693c2177561322081615ff3565b61323467fe1ac62b9d72efbf60c01b615f29565b61324867eb6012b73bd341d560c01b615f29565b61325c6746f3c75f95bdc7bd60c01b615f29565b613270676aaa82bfdd49a67e60c01b615f29565b613284671fb78bddba7e1eb260c01b615f29565b600073ffffffffffffffffffffffffffffffffffffffff168273ffffffffffffffffffffffffffffffffffffffff16036132f3576040517f08c379a00000000000000000000000000000000000000000000000000000000081526004016132ea9061be66565b60405180910390fd5b61330767fa42e8cf07f377cd60c01b615f29565b61331b67627688083bfd8e6360c01b615f29565b81600460006101000a81548173ffffffffffffffffffffffffffffffffffffffff021916908373ffffffffffffffffffffffffffffffffffffffff1602179055505050565b6000613376674158eeff91cbcf1860c01b615f29565b61338a679bc28b8f1ce9b67060c01b615f29565b61339e67ff34496dd4652ce460c01b615f29565b6133a7826160dd565b6133bb67b114aebb44d9238060c01b615f29565b6133cf67214a91a0165ab2d760c01b615f29565b6000600860008473ffffffffffffffffffffffffffffffffffffffff1673ffffffffffffffffffffffffffffffffffffffff16815260200190815260200160002090506134266788a6474a656603ac60c01b615f29565b61343a676e76ca4478414d6860c01b615f29565b60006127109050613455670a2015d934ff016160c01b615f29565b61346967a2784186fcfdac4260c01b615f29565b6000826002015411801561348e575062093a8082600201544261348c919061b902565b105b156134d0576134a767c7180a52c3f9e8d760c01b615f29565b6134bb67310f8595d7d7310860c01b615f29565b611388816134c9919061b620565b90506134e5565b6134e467786a45853a0dc12c60c01b615f29565b5b6134f967bb6bb168b49cbc9c60c01b615f29565b61350d67b3f087b88e65adb260c01b615f29565b60008260010154118015613532575062278d00826001015442613530919061b902565b105b156135745761354b67b84ec72c25173bda60c01b615f29565b61355f67861cc63006224c5560c01b615f29565b6127108161356d919061b620565b9050613589565b613588674d55bb2b1cd4137f60c01b615f29565b5b61359d67b93aae95d3d8da3060c01b615f29565b6135b167f8dc96dad160358160c01b615f29565b600061c35090506135cc67fd59382499a7589d60c01b615f29565b6135e067ecb1d3c45602dc2e60c01b615f29565b60006103e884600001546135f4919061be86565b905061360a676172198088b8942460c01b615f29565b81811180613628575061362767517baf22a991035360c01b616fc9565b5b8015613644575061364367c23ffb13cbfd2fe560c01b615f2c565b5b61364e5780613650565b815b8361365b919061b620565b9250613671671be90252b5bf88ba60c01b615f29565b6136856710d729b41b676fd160c01b615f29565b60006161a890506136a067266e506c0ef4295860c01b615f29565b6136b467f299df3b788fd80560c01b615f29565b60006101f486600301546136c8919061be86565b90506136de67801bd12ab499d3a060c01b615f29565b818111806136fc57506136fb67b60fa566cbf4dee260c01b616fc9565b5b8015613718575061371767c988e491e6c0741160c01b615f2c565b5b6137225780613724565b815b8561372f919061b620565b945061374567ec96f9efe72cba3360c01b615f29565b613759679e23fd2ca4ffafa560c01b615f29565b849650505050505050919050565b61377b676cd307997fa1ba2460c01b615f29565b7fa49807205ce4d355092ef5a8a18f56e8913cf4a201fbe287825b095693c217756137a581615ff3565b6137b967358fba914d705b2160c01b615f29565b6137cd6765d380fefd0dfbc160c01b615f29565b6137e167dc58a7afacf79ef260c01b615f29565b6137f567bc9a652086507a3e60c01b615f29565b613809677d76cc8498c7ca7e60c01b615f29565b6000821161384c576040517f08c379a00000000000000000000000000000000000000000000000000000000081526004016138439061bf14565b60405180910390fd5b61386067e0b373268bb1a05360c01b615f29565b6138746766aa789d6eb2af4c60c01b615f29565b816003819055505050565b613893672eda0a843ba7b9e760c01b615f29565b7fa49807205ce4d355092ef5a8a18f56e8913cf4a201fbe287825b095693c217756138bd81615ff3565b6138d1675f9572a04a84966f60c01b615f29565b6138e5679ae5512b419ca87e60c01b615f29565b6138f9671cf3b1b7ead2d9ab60c01b615f29565b61390d67a7981c534607d31760c01b615f29565b613916826168ea565b61392a674f7df6ba37ab80b460c01b615f29565b600860008373ffffffffffffffffffffffffffffffffffffffff1673ffffffffffffffffffffffffffffffffffffffff168152602001908152602001600020600301600081548092919061397d9061bf34565b91905055505050565b600080613991615fb1565b90508060000160008473ffffffffffffffffffffffffffffffffffffffff1673ffffffffffffffffffffffffffffffffffffffff16815260200190815260200160002054915050919050565b7fa49807205ce4d355092ef5a8a18f56e8913cf4a201fbe287825b095693c2177581565b613a1567162203fe151843c760c01b615f29565b7fa49807205ce4d355092ef5a8a18f56e8913cf4a201fbe287825b095693c21775613a3f81615ff3565b613a53674f7bc42f117cc24760c01b615f29565b613a6767db3d6d1426822a4760c01b615f29565b613a7b67537a1f99687262e960c01b615f29565b613a8f6780857aa4d9f3944660c01b615f29565b613aa36705afdcb13ce5b63160c01b615f29565b60008211613ae6576040517f08c379a0000000000000000000000000000000000000000000000000000000008152600401613add9061bfc8565b60405180910390fd5b613afa6707d8a9152bc63f0660c01b615f29565b613b0e673246d342e4f4544f60c01b615f29565b613b22676be020db0a462a9560c01b615f29565b613b366704f4d01d6f29808760c01b615f29565b600254821115613b7b576040517f08c379a0000000000000000000000000000000000000000000000000000000008152600401613b729061c034565b60405180910390fd5b613b8f676411a98c0e68143060c01b615f29565b613ba3679693fc7df7c5e2ba60c01b615f29565b81600181905550613bbe67af3a60bc4097c75d60c01b615f29565b613bd267f0873a3d2a09605860c01b615f29565b6001546000541015613c1457613bf267bd44aca681f527d960c01b615f29565b613c066765ce28cf8ae7693760c01b615f29565b600154600081905550613c29565b613c28671f440751ff769a3960c01b615f29565b5b5050565b6000613c4367da39b37178a809b460c01b615f29565b613c5767bc9e88c8fcc8701060c01b615f29565b613c6b6794b418e7a6a8af3760c01b615f29565b600c60008373ffffffffffffffffffffffffffffffffffffffff1673ffffffffffffffffffffffffffffffffffffffff168152602001908152602001600020549050919050565b613cc6679f3d636dde0ec3d060c01b615f29565b613cce616007565b613ce26749ad54d8f1f5a50560c01b615f29565b613cf6675aafc5a3ff4ede6060c01b615f29565b613d0a67bdf0d9c44d9769e460c01b615f29565b613d1e673f7a71d3aaed241160c01b615f29565b613d3267abd8295a14a9e53a60c01b615f29565b60008111613d75576040517f08c379a0000000000000000000000000000000000000000000000000000000008152600401613d6c9061b6a0565b60405180910390fd5b613d896707d932c5e5ee045d60c01b615f29565b613d9d677ec7b3b414a0661460c01b615f29565b613db167671405569589c1d460c01b615f29565b6000613dbb615fd9565b9050613dd1678515661a96d7f4f960c01b615f29565b613de567546e73ed63e0ccc760c01b615f29565b613df0838284616048565b613e0467e1eccc0397d8fe4860c01b615f29565b613e18673e3d8a55834ce0a460c01b615f29565b613e228383616a36565b505050565b60015481565b613e4066e422e1c15cd3df60c01b615f29565b7f65d7a28e3265b37a6474929f336521b332c1681b933f6cb9f3376673440d862a613e6a81615ff3565b613e7e6775dc2228d2ec356760c01b615f29565b613e9267060b1cf57c470f4060c01b615f29565b613ea6676d419bc40bce6a8460c01b615f29565b613eba673b2fbf34e50eee1f60c01b615f29565b613ec2616fd0565b50565b6007602052816000526040600020602052806000526040600020600091509150505481565b600a6020528060005260406000206000915090505481565b600080613f0d6165cb565b905080600001600085815260200190815260200160002060000160008473ffffffffffffffffffffffffffffffffffffffff1673ffffffffffffffffffffffffffffffffffffffff16815260200190815260200160002060009054906101000a900460ff1691505092915050565b60606000613f87615fb1565b9050806004018054613f989061b410565b80601f0160208091040260200160405190810160405280929190818152602001828054613fc49061b410565b80156140115780601f10613fe657610100808354040283529160200191614011565b820191906000526020600020905b815481529060010190602001808311613ff457829003601f168201915b505050505091505090565b6000801b81565b600061403967d6851242656c821560c01b615f29565b614041616007565b61405567497c153b37b5bb3d60c01b615f29565b6140696756a303a8585edd3e60c01b615f29565b61407d67d503388dcccc56f560c01b615f29565b61409167e584e058fe986d3260c01b615f29565b600061409b615fd9565b90506140b167a84d096c843a09f860c01b615f29565b6140c567598a7c1de55e946560c01b615f29565b6140ce816160dd565b6140e267878135b942a0dfcc60c01b615f29565b6140f667095437731b92e54760c01b615f29565b6140ff846160dd565b614113678d0aac23415f216760c01b615f29565b61412767e71189c2b044f20f60c01b615f29565b6141328185856160f4565b61414667e08a4433a50e74e560c01b615f29565b61415a678b50aeb11537200e60c01b615f29565b600191505092915050565b6040518060400160405280600581526020017f352e302e3000000000000000000000000000000000000000000000000000000081525081565b6141b2677375de7276c7574760c01b615f29565b6141ba616007565b6141ce67c3fd66f053eb771a60c01b615f29565b6141e2675651ebac9efe105a60c01b615f29565b6141ea617042565b6141fe67c3574ef83f1c3ab760c01b615f29565b61421267e5bf39fa8fe5691860c01b615f29565b614226678113c7a41d13ea1060c01b615f29565b61423a6796fc4228ac37385d60c01b615f29565b61424e67cb6dfc6ac247525260c01b615f29565b60008111614291576040517f08c379a00000000000000000000000000000000000000000000000000000000081526004016142889061c0a0565b60405180910390fd5b6142a567b1799ee79082e74a60c01b615f29565b6142b9674bb7fe1da910d09160c01b615f29565b6142cd676d05e43ca178335060c01b615f29565b60006142d7615fd9565b90506142ed676357211b9e09890860c01b615f29565b61430167ee01c08d14976b5960c01b615f29565b61432e81600460009054906101000a900473ffffffffffffffffffffffffffffffffffffffff1684616ead565b614342679b48e61cc3b6a39b60c01b615f29565b81600c60008373ffffffffffffffffffffffffffffffffffffffff1673ffffffffffffffffffffffffffffffffffffffff1681526020019081526020016000206000828254614391919061b620565b925050819055506143ac6778fc774d95cfb23560c01b615f29565b6143c0676d87decd851252ad60c01b615f29565b8073ffffffffffffffffffffffffffffffffffffffff167f8e7bdecf6a0dc0bc4aeb18783cb10538303214d73bdbbb056d532848500edc0e83604051614406919061aa39565b60405180910390a250614417617099565b50565b6000614430672878c8468a6c65e560c01b615f29565b6144446705c83f4eae029d3f60c01b615f29565b6144586745fd21313b69f5c060c01b615f29565b600960008373ffffffffffffffffffffffffffffffffffffffff1673ffffffffffffffffffffffffffffffffffffffff168152602001908152602001600020600001549050919050565b600460009054906101000a900473ffffffffffffffffffffffffffffffffffffffff1681565b60025481565b7f9f2df0fed2c77648de5860a4cc508cd0818c85b8b8a1ab4ceeef8d981c8956a681565b6144fb826114b4565b61450481615ff3565b61450e83836166f4565b50505050565b60008061451f615fb1565b90508060010160008573ffffffffffffffffffffffffffffffffffffffff1673ffffffffffffffffffffffffffffffffffffffff16815260200190815260200160002060008473ffffffffffffffffffffffffffffffffffffffff1673ffffffffffffffffffffffffffffffffffffffff1681526020019081526020016000205491505092915050565b6145bd67a22292fae89b7a0f60c01b615f29565b7fa49807205ce4d355092ef5a8a18f56e8913cf4a201fbe287825b095693c217756145e781615ff3565b6145fb671945e889419c581e60c01b615f29565b61460e66e63928af7a5af260c01b615f29565b61462267b131611d8d4c6ff560c01b615f29565b6146366719becc35dee5bb3760c01b615f29565b61464a676e25bf03b9a5343d60c01b615f29565b600073ffffffffffffffffffffffffffffffffffffffff168473ffffffffffffffffffffffffffffffffffffffff16036146b9576040517f08c379a00000000000000000000000000000000000000000000000000000000081526004016146b09061b70c565b60405180910390fd5b6146cd67d256e0779e84d38960c01b615f29565b6146e16730fdeba40befd9f260c01b615f29565b6146f5679c9aedda7e37dcc760c01b615f29565b6147096758625a131eb35c1560c01b615f29565b600073ffffffffffffffffffffffffffffffffffffffff168373ffffffffffffffffffffffffffffffffffffffff1603614778576040517f08c379a000000000000000000000000000000000000000000000000000000000815260040161476f9061b778565b60405180910390fd5b61478c67b2169588a1e392d160c01b615f29565b6147a067126399ec999cdd2660c01b615f29565b6147b467f6c2fe481592618e60c01b615f29565b6147c867fe6091184159b44c60c01b615f29565b8273ffffffffffffffffffffffffffffffffffffffff168473ffffffffffffffffffffffffffffffffffffffff1603614836576040517f08c379a000000000000000000000000000000000000000000000000000000000815260040161482d9061b7e4565b60405180910390fd5b61484a679ca76caa36be1aec60c01b615f29565b61485e6749691f1725258d0d60c01b615f29565b6148726755ac876d7cc016d960c01b615f29565b61488667cc4cf0ca317e991d60c01b615f29565b600082116148c9576040517f08c379a00000000000000000000000000000000000000000000000000000000081526004016148c09061c10c565b60405180910390fd5b6148dd6784fddc2429ce7a1460c01b615f29565b6148f1677fc920658dd62d7960c01b615f29565b81600b60008673ffffffffffffffffffffffffffffffffffffffff1673ffffffffffffffffffffffffffffffffffffffff16815260200190815260200160002060008573ffffffffffffffffffffffffffffffffffffffff1673ffffffffffffffffffffffffffffffffffffffff168152602001908152602001600020600082825461497d919061b620565b9250508190555061499867d82d1fb2cfb77fd860c01b615f29565b6149ac67ffc07ab9d0d5576460c01b615f29565b8273ffffffffffffffffffffffffffffffffffffffff168473ffffffffffffffffffffffffffffffffffffffff167fbd91b9538487013e1f78426333a3445bdfcdece5d02e402f33f9e598122919f584604051614a09919061aa39565b60405180910390a350505050565b7f65d7a28e3265b37a6474929f336521b332c1681b933f6cb9f3376673440d862a81565b614a4361a8a0565b614a5767a258917d611bfdf460c01b615f29565b614a6b67e044a3e9b2a03fb160c01b615f29565b614a7f67991596c4bd79e74360c01b615f29565b614a9367afff036e1c1046f460c01b615f29565b600073ffffffffffffffffffffffffffffffffffffffff168373ffffffffffffffffffffffffffffffffffffffff1603614b02576040517f08c379a0000000000000000000000000000000000000000000000000000000008152600401614af99061c19e565b60405180910390fd5b614b1667237b733b6ab8fa4960c01b615f29565b614b2a678970762da90f4dc560c01b615f29565b614b3e67e3acf11d65febd2a60c01b615f29565b614b5267d0fab72521b4876d60c01b615f29565b60008211614b95576040517f08c379a0000000000000000000000000000000000000000000000000000000008152600401614b8c9061c230565b60405180910390fd5b614ba967e5207ee267e44fa160c01b615f29565b614bbd6728236a522bc9ab4a60c01b615f29565b81816000018181525050614bdb6757cae479e3ef361b60c01b615f29565b614bef67f3b4fd21f1614e2d60c01b615f29565b6000614bfa836170b2565b9050614c10676271c449a4d8df0f60c01b615f29565b614c2467b67634e35e315b6d60c01b615f29565b6000614c3282878787617c2b565b9050614c4867d20c5255bf370ac160c01b615f29565b8083610200018181525050614c6767cb544949da76c3b660c01b615f29565b6127106103e885614c78919061be86565b614c82919061baa9565b83610180018181525050614ca067c767579415ceba9760c01b615f29565b614cb467f825d35b11a720b460c01b615f29565b8261018001518361020001511115614d2957614cda676ae4e11da6dd1b8360c01b615f29565b614cee67351845b0c8f782d760c01b615f29565b82610180015183610200018181525050614d12672ed60f4e74ca134160c01b615f29565b6001836101c0019015159081151581525050614d64565b614d3d677a9f3d8e3ff80e4a60c01b615f29565b614d5167a7076ad60f95aa0a60c01b615f29565b6000836101c00190151590811515815250505b614d78674efc479eb77fe9f460c01b615f29565b6509184e72a000836101a0018181525050614d9d6702b23f0da6ac6ba660c01b615f29565b614db167389cb309ef77a38760c01b615f29565b6000836102000151118015614dcf5750826101a00151836102000151105b8015614de05750826101a001518410155b15614f9b57614df9678ce019a7226d790760c01b615f29565b614e0d6741c08f8e0181a4c860c01b615f29565b614e2167c86ce084e93a281160c01b615f29565b826101800151836101a0015111158015614e40575083836101a0015111155b15614f5b57614e596783355b814ce1a74d60c01b615f29565b614e6d6737b7240ba48a529460c01b615f29565b826101a0015183610200018181525050614e9167b25d890fc91ac6cb60c01b615f29565b6001836101e0019015159081151581525050614eb7674ed663b05d5a5fb460c01b615f29565b614ecb679d8fc5da1735d33960c01b615f29565b82610180015183610200015110614f1b57614ef0679c71374e72a4ecf160c01b615f29565b614f04670c6251e82d72815060c01b615f29565b6001836101c0019015159081151581525050614f56565b614f2f67e446c6487464fa4c60c01b615f29565b614f4367b9aa4138c2f3e48f60c01b615f29565b6000836101c00190151590811515815250505b614f96565b614f6f6771db7de6be0d6c6c60c01b615f29565b614f83671c3b0d88e960c25760c01b615f29565b6000836101e00190151590811515815250505b614fd6565b614faf6713b6a9c2290d299b60c01b615f29565b614fc3676c485b910c5cd70060c01b615f29565b6000836101e00190151590811515815250505b614fea6753c2cab722ff339a60c01b615f29565b808361010001818152505061500967b74ad7c8e3beefcf60c01b615f29565b61501d678dd60beca797fc0f60c01b615f29565b6000600960008873ffffffffffffffffffffffffffffffffffffffff1673ffffffffffffffffffffffffffffffffffffffff168152602001908152602001600020905061507467f4079d80159b138560c01b615f29565b80600001548461012001818152505061509767813dd67d1d0d65b260c01b615f29565b6150ab672d3cdac452fb263560c01b615f29565b60006150c167d5c03b2660f858c560c01b615f29565b6150d5674971a79f448f182360c01b615f29565b60008561012001511480156150fa57506150f96712a0f19661b9d07d60c01b615f2c565b5b8061512657506000856102000151148015615125575061512467eabfefc7dbcc965460c01b615f2c565b5b5b156151805761513f67efc3856ca4cd5bbb60c01b615f29565b615153679469d3da97e2b37a60c01b615f29565b600085610140018181525050615173673d357151b4217f9b60c01b615f29565b8461020001519050615274565b61519467064c8b1e0d7a80a660c01b615f29565b6151a8673a222bfbb52c44d460c01b615f29565b8461020001518561012001511061520e576151cd67a03ffde0b4437f2460c01b615f29565b6151e167c8b66cb85d79a80a60c01b615f29565b8461020001518561014001818152505061520567232b60faeeb2497360c01b615f29565b60009050615273565b61522267642b4c065328085560c01b615f29565b615236670327e248a448e0fa60c01b615f29565b8461012001518561014001818152505061525a67716b3142fac07b2b60c01b615f29565b846101200151856102000151615270919061b902565b90505b5b615288671451371436b7eb1260c01b615f29565b80856101600181815250506152a767d22ceadb411c080c60c01b615f29565b85856102200181815250506152c6672a455e5fa57cfa6860c01b615f29565b6152da679312a2fd4613cddf60c01b615f29565b505050509392505050565b6152f967f1db7991cc45137960c01b615f29565b6000615303617fbb565b905060008160000160089054906101000a900460ff1615905060008260000160009054906101000a900467ffffffffffffffff1690506000808267ffffffffffffffff161480156153515750825b9050600060018367ffffffffffffffff16148015615386575060003073ffffffffffffffffffffffffffffffffffffffff163b145b905081158015615394575080155b156153cb576040517ff92ee8a900000000000000000000000000000000000000000000000000000000815260040160405180910390fd5b60018560000160006101000a81548167ffffffffffffffff021916908367ffffffffffffffff160217905550831561541b5760018560000160086101000a81548160ff0219169083151502179055505b61542f6757aa862f7fddf79060c01b615f29565b61544367a9117729b60ec89c60c01b615f29565b61545767cb50be76e160e51560c01b615f29565b61546b67330c18d49e7d478360c01b615f29565b6154758e8e617fcf565b61548967cf3c25a0fb8350f660c01b615f29565b61549d67d5b02b891ba709c360c01b615f29565b6154a5617fe5565b6154b967a55c42058aee251660c01b615f29565b6154cd67f484b6e0c00f68da60c01b615f29565b6154d5617fef565b6154e9676ef032792f16385560c01b615f29565b6154fd67d8a78e7592d3e8e460c01b615f29565b615505617ff9565b615519673be3757e057d078d60c01b615f29565b61552d6788d000dfa9f975a460c01b615f29565b615535618003565b61554967ee70c7a947e45c5160c01b615f29565b61555d672aca639dd303de5660c01b615f29565b61557167fd6ff3ebea57ffcd60c01b615f29565b600073ffffffffffffffffffffffffffffffffffffffff168b73ffffffffffffffffffffffffffffffffffffffff16036155e0576040517f08c379a00000000000000000000000000000000000000000000000000000000081526004016155d79061be66565b60405180910390fd5b6155f46757e6103ea3f41d8160c01b615f29565b61560867eca1263dbee62dfd60c01b615f29565b8a600460006101000a81548173ffffffffffffffffffffffffffffffffffffffff021916908373ffffffffffffffffffffffffffffffffffffffff16021790555061565d67dd190fa0c416775860c01b615f29565b61567167683c26f29d39852560c01b615f29565b61567e6000801b8d6165f3565b5061569367ea66f9c0473bbad760c01b615f29565b6156a7679726fcccfdc056cd60c01b615f29565b6156d17fa49807205ce4d355092ef5a8a18f56e8913cf4a201fbe287825b095693c217758d6165f3565b506156e667c084b68ca9b270bd60c01b615f29565b6156fa67ba64b7d0772f870260c01b615f29565b6157247f65d7a28e3265b37a6474929f336521b332c1681b933f6cb9f3376673440d862a8d6165f3565b5061573967f0643339b10b5d7c60c01b615f29565b61574d674b89a69e172958be60c01b615f29565b60008a11156157a15761576a6791f60e2c86217d4160c01b615f29565b61577e677cd0f728cb1c49c560c01b615f29565b6157926789e6b7d91afa305160c01b615f29565b61579c8c8b616868565b6157b6565b6157b5679dea0d05abe87f6960c01b615f29565b5b6157ca67fb3a8da1c55ba02b60c01b615f29565b886000819055506157e567d7148e212112c93660c01b615f29565b87600181905550615800677a2e566154a78d4a60c01b615f29565b8660028190555061581b67f564134f285a280b60c01b615f29565b856003819055506158366758166cf06edc237460c01b615f29565b61584a67d646ae7acaea3e7560c01b615f29565b61585e679541a246c7b863ab60c01b615f29565b6000600154116158a3576040517f08c379a000000000000000000000000000000000000000000000000000000000815260040161589a9061c29c565b60405180910390fd5b6158b767444bd495b14a33e060c01b615f29565b6158cb67434891f622e1827860c01b615f29565b6158df6732662dafd8d8aca660c01b615f29565b6158f36758ab4b291b44b99460c01b615f29565b600254600154111561593a576040517f08c379a00000000000000000000000000000000000000000000000000000000081526004016159319061c308565b60405180910390fd5b61594e67b409080422c4946060c01b615f29565b61596267ac523941df9faae160c01b615f29565b6159766791ddd97f2fffceec60c01b615f29565b61598a6722d1a78d2540961f60c01b615f29565b600154600054101580156159a2575060025460005411155b6159e1576040517f08c379a00000000000000000000000000000000000000000000000000000000081526004016159d89061c374565b60405180910390fd5b6159f567910a011fda85175c60c01b615f29565b615a0967d664119ca29cc15a60c01b615f29565b615a1d67f9bb10727acc78f960c01b615f29565b615a31677ba44c14e6e59c5960c01b615f29565b600060035411615a76576040517f08c379a0000000000000000000000000000000000000000000000000000000008152600401615a6d9061c406565b60405180910390fd5b615a8a67a5d24a330a4a72e660c01b615f29565b615a9e6728c45b8c5e88be1160c01b615f29565b615ab2677441bb798bef93dc60c01b615f29565b600073ffffffffffffffffffffffffffffffffffffffff168c73ffffffffffffffffffffffffffffffffffffffff1614615b5a57615afa679655df7ae60af37e60c01b615f29565b615b0e67cb3203a83b0d7f5460c01b615f29565b42600860008e73ffffffffffffffffffffffffffffffffffffffff1673ffffffffffffffffffffffffffffffffffffffff16815260200190815260200160002060020181905550615b6f565b615b6e67db521a07f1b032e460c01b615f29565b5b8315615bcb5760008560000160086101000a81548160ff0219169083151502179055507fc7f505b2f371ae2175ee4913f4499e1f2633a7b5936321eed1cdaeb6115181d26001604051615bc2919061c47f565b60405180910390a15b5050505050505050505050505050565b615bef6773c579a10a9b27a060c01b615f29565b615bf7616007565b615c0b67ad1b80c0e2ab395360c01b615f29565b615c1f67654ec4dc64942fd060c01b615f29565b615c27617042565b615c3b67ad1aa0df26945ba860c01b615f29565b615c4f6738b644a1b3d7b3f060c01b615f29565b615c6367404f3854cb9a99bd60c01b615f29565b615c776721c522ad475491d060c01b615f29565b615c8b678973c497199f91ee60c01b615f29565b60008111615cce576040517f08c379a0000000000000000000000000000000000000000000000000000000008152600401615cc59061c4e6565b60405180910390fd5b615ce267d5049e2f3fa56f2560c01b615f29565b615cf6678c66913e76022cfe60c01b615f29565b615d0a67e544f8d5c64dd42a60c01b615f29565b6000615d14615fd9565b9050615d2a6720a717e0edb6997760c01b615f29565b615d3e675bc3db1ca1f81aaf60c01b615f29565b615d52677db89d911b19302360c01b615f29565b81600c60008373ffffffffffffffffffffffffffffffffffffffff1673ffffffffffffffffffffffffffffffffffffffff168152602001908152602001600020541015615dd4576040517f08c379a0000000000000000000000000000000000000000000000000000000008152600401615dcb9061c552565b60405180910390fd5b615de867ed167311731d9ba260c01b615f29565b615dfc67f633374e65d2f3d560c01b615f29565b81600c60008373ffffffffffffffffffffffffffffffffffffffff1673ffffffffffffffffffffffffffffffffffffffff1681526020019081526020016000206000828254615e4b919061b902565b92505081905550615e6667d53b57e314e5a2ad60c01b615f29565b615e7a675d41c46baa18dc5760c01b615f29565b615ea7600460009054906101000a900473ffffffffffffffffffffffffffffffffffffffff168284616ead565b615ebb67f1508f02cbdc573960c01b615f29565b615ecf671022e216eaf0c96960c01b615f29565b8073ffffffffffffffffffffffffffffffffffffffff167fbd55d9f44220c89bc817dc6343b4106e55550456ade2a5ed215bbd2c24a46d4e83604051615f15919061aa39565b60405180910390a250615f26617099565b50565b50565b600060019050919050565b60007f7965db0b000000000000000000000000000000000000000000000000000000007bffffffffffffffffffffffffffffffffffffffffffffffffffffffff1916827bffffffffffffffffffffffffffffffffffffffffffffffffffffffff19161480615faa5750615fa982618015565b5b9050919050565b60007f52c63247e1f47db19d5ce0460030c497f067ca4cebf71ba98eeadabe20bace00905090565b600033905090565b615fee838383600161807f565b505050565b61600481615fff615fd9565b618265565b50565b61600f613129565b15616046576040517fd93c066500000000000000000000000000000000000000000000000000000000815260040160405180910390fd5b565b60006160548484614514565b90507fffffffffffffffffffffffffffffffffffffffffffffffffffffffffffffffff8110156160d757818110156160c7578281836040517ffb8f41b20000000000000000000000000000000000000000000000000000000081526004016160be9392919061c572565b60405180910390fd5b6160d68484848403600061807f565b5b50505050565b6160f16789aee01022257bfe60c01b615f29565b50565b616108670d40150fbb82f0d360c01b615f29565b61611c6735c94e61db9d32e860c01b615f29565b61613067f05967c26124163160c01b615f29565b61614467f6f6e641c8a5cc1660c01b615f29565b600073ffffffffffffffffffffffffffffffffffffffff168273ffffffffffffffffffffffffffffffffffffffff16036161b3576040517f08c379a00000000000000000000000000000000000000000000000000000000081526004016161aa9061c5f5565b60405180910390fd5b6161c767f0e21760971d51a760c01b615f29565b6161db672df644e8c5cbdb4760c01b615f29565b6161ef678a4ed341a071f75f60c01b615f29565b61620367db96722d24e91d6960c01b615f29565b60008111616246576040517f08c379a000000000000000000000000000000000000000000000000000000000815260040161623d9061c687565b60405180910390fd5b61625a6758459cc8ef7f737b60c01b615f29565b61626e67385d5eb20eb0da8360c01b615f29565b61628267083f5dfea5c6dd9a60c01b615f29565b42600560008573ffffffffffffffffffffffffffffffffffffffff1673ffffffffffffffffffffffffffffffffffffffff1681526020019081526020016000206000015411801561636157508173ffffffffffffffffffffffffffffffffffffffff16600560008573ffffffffffffffffffffffffffffffffffffffff1673ffffffffffffffffffffffffffffffffffffffff16815260200190815260200160002060020160009054906101000a900473ffffffffffffffffffffffffffffffffffffffff1673ffffffffffffffffffffffffffffffffffffffff1614155b156163dd5761637a67ce4bf12ad379e90f60c01b615f29565b61638e67bf19aebb8577491f60c01b615f29565b6163a26732b5cdd2777f87ba60c01b615f29565b6040517f08c379a00000000000000000000000000000000000000000000000000000000081526004016163d49061c719565b60405180910390fd5b6163f16770b05ea7ba7b5a9560c01b615f29565b61640567a077485172906cf760c01b615f29565b616419676c4a53675909ae2860c01b615f29565b60006164268484846182b6565b905061643c67e7a2e6401475519760c01b615f29565b61645067603e50595465beca60c01b615f29565b600080600061646187878787618570565b92509250925061647b67d06f45fc37e2c81760c01b615f29565b61648f67293648f4ef3074c160c01b615f29565b60008411156164e4576164ac67b41fe25c49afe40360c01b615f29565b6164c067a270f78f003dc35460c01b615f29565b6164d46797e7fd84584e016260c01b615f29565b6164df878786618cd3565b6164f9565b6164f867a5ae49f719a4037a60c01b615f29565b5b61650d67bd3a447a3b39322860c01b615f29565b616521674a2bffcb6ede39b160c01b615f29565b61652d87878787619034565b6165416771a42d4ac21804fb60c01b615f29565b61655567588037a8a068d32960c01b615f29565b8573ffffffffffffffffffffffffffffffffffffffff168773ffffffffffffffffffffffffffffffffffffffff167f8657fd10f23e08d990dfb64ede272bec69b6400f33c93f96a1c0030a1cc6a38087878588886040516165ba95949392919061c739565b60405180910390a350505050505050565b60007f02dd7bc7dec4dceedda775e58dd541e08a116c6c53815c0bd028192f7b626800905090565b6000806165fe6165cb565b905061660a8484613f02565b6166e857600181600001600086815260200190815260200160002060000160008573ffffffffffffffffffffffffffffffffffffffff1673ffffffffffffffffffffffffffffffffffffffff16815260200190815260200160002060006101000a81548160ff021916908315150217905550616684615fd9565b73ffffffffffffffffffffffffffffffffffffffff168373ffffffffffffffffffffffffffffffffffffffff16857f2f8788117e7eff1d82e926ec794901d17c78024a50270940304540a733656f0d60405160405180910390a460019150506166ee565b60009150505b92915050565b6000806166ff6165cb565b905061670b8484613f02565b156167ea57600081600001600086815260200190815260200160002060000160008573ffffffffffffffffffffffffffffffffffffffff1673ffffffffffffffffffffffffffffffffffffffff16815260200190815260200160002060006101000a81548160ff021916908315150217905550616786615fd9565b73ffffffffffffffffffffffffffffffffffffffff168373ffffffffffffffffffffffffffffffffffffffff16857ff6391f5c32d9c69d2a47ea670b442974b53935d1edc7fd64eb21e047a839171b60405160405180910390a460019150506167f0565b60009150505b92915050565b6167fe61931c565b6000616808616fa1565b905060008160000160006101000a81548160ff0219169083151502179055507f5db9ee0a495bf2e6ff9c91a7834c1ba4fdd244a5e8aa4e537bd38aeae4b073aa616850615fd9565b60405161685d919061b075565b60405180910390a150565b600073ffffffffffffffffffffffffffffffffffffffff168273ffffffffffffffffffffffffffffffffffffffff16036168da5760006040517fec442f050000000000000000000000000000000000000000000000000000000081526004016168d1919061b075565b60405180910390fd5b6168e66000838361935c565b5050565b6168fe67c0da323109f906d060c01b615f29565b6169126701ebb4de6d522b9160c01b615f29565b61692667a6086998ed8d8d0e60c01b615f29565b600073ffffffffffffffffffffffffffffffffffffffff168173ffffffffffffffffffffffffffffffffffffffff16141580156169a557506000600860008373ffffffffffffffffffffffffffffffffffffffff1673ffffffffffffffffffffffffffffffffffffffff16815260200190815260200160002060020154145b15616a1e576169be676fb823e295938aae60c01b615f29565b6169d2671073ce0e44a1305e60c01b615f29565b42600860008373ffffffffffffffffffffffffffffffffffffffff1673ffffffffffffffffffffffffffffffffffffffff16815260200190815260200160002060020181905550616a33565b616a3267f963b3bebcf50f9a60c01b615f29565b5b50565b600073ffffffffffffffffffffffffffffffffffffffff168273ffffffffffffffffffffffffffffffffffffffff1603616aa85760006040517f96c6fd1e000000000000000000000000000000000000000000000000000000008152600401616a9f919061b075565b60405180910390fd5b616ab48260008361935c565b5050565b7f000000000000000000000000000000000000000000000000000000000000000073ffffffffffffffffffffffffffffffffffffffff163073ffffffffffffffffffffffffffffffffffffffff161480616b6557507f000000000000000000000000000000000000000000000000000000000000000073ffffffffffffffffffffffffffffffffffffffff16616b4c619374565b73ffffffffffffffffffffffffffffffffffffffff1614155b15616b9c576040517fe07c8dba00000000000000000000000000000000000000000000000000000000815260040160405180910390fd5b565b616bb26757612a4670b9e3d360c01b615f29565b7fa49807205ce4d355092ef5a8a18f56e8913cf4a201fbe287825b095693c21775616bdc81615ff3565b616bf067d9b26dbfef343b4060c01b615f29565b616c0467efe93ed1b12c225660c01b615f29565b5050565b8173ffffffffffffffffffffffffffffffffffffffff166352d1902d6040518163ffffffff1660e01b8152600401602060405180830381865afa925050508015616c7057506040513d601f19601f82011682018060405250810190616c6d919061c7a1565b60015b616cb157816040517f4c9c8ce3000000000000000000000000000000000000000000000000000000008152600401616ca8919061b075565b60405180910390fd5b7f360894a13ba1a3210667c828492db98dca3e2076cc3735a920a3ca505d382bbc60001b8114616d1857806040517faa1d49a4000000000000000000000000000000000000000000000000000000008152600401616d0f919061ad4f565b60405180910390fd5b616d2283836193cb565b505050565b7f000000000000000000000000000000000000000000000000000000000000000073ffffffffffffffffffffffffffffffffffffffff163073ffffffffffffffffffffffffffffffffffffffff1614616dac576040517fe07c8dba00000000000000000000000000000000000000000000000000000000815260040160405180910390fd5b565b616dc2672a06c83b6fd48e0660c01b615f29565b616dd667518db4763619040560c01b615f29565b616dea679b79b13e4bae78fb60c01b615f29565b616df3816168ea565b616e0767fdab2ad70c62a2ae60c01b615f29565b616e1b672b929827d2714c0360c01b615f29565b6000600860008373ffffffffffffffffffffffffffffffffffffffff1673ffffffffffffffffffffffffffffffffffffffff1681526020019081526020016000209050616e72673906e3b332906f2060c01b615f29565b806000016000815480929190616e879061bf34565b9190505550616ea06730768d18e9674a6f60c01b615f29565b4281600101819055505050565b600073ffffffffffffffffffffffffffffffffffffffff168373ffffffffffffffffffffffffffffffffffffffff1603616f1f5760006040517f96c6fd1e000000000000000000000000000000000000000000000000000000008152600401616f16919061b075565b60405180910390fd5b600073ffffffffffffffffffffffffffffffffffffffff168273ffffffffffffffffffffffffffffffffffffffff1603616f915760006040517fec442f05000000000000000000000000000000000000000000000000000000008152600401616f88919061b075565b60405180910390fd5b616f9c83838361935c565b505050565b60007fcd5ed15c6e187e77e9aee88184c21f4f2182ab5827cb3b7e07fbedcd63f03300905090565b6000919050565b616fd8616007565b6000616fe2616fa1565b905060018160000160006101000a81548160ff0219169083151502179055507f62e78cea01bee320cd4e420270b5ea74000d11b0c9f74754ebdbfc544b05a25861702a615fd9565b604051617037919061b075565b60405180910390a150565b600061704c61943e565b9050600281600001540361708c576040517f3ee5aeb500000000000000000000000000000000000000000000000000000000815260040160405180910390fd5b6002816000018190555050565b60006170a361943e565b90506001816000018190555050565b60006170c867351c612e56ca022560c01b615f29565b6170dc6794430484344a1ee560c01b615f29565b6170f06763ac2acdc785cfcd60c01b615f29565b600082036171295761710c67fe355263f28f598060c01b615f29565b61712067276701610a5964de60c01b615f29565b60009050617c26565b61713d67d0d9db96b5915c0360c01b615f29565b6171516729a758419a4bdd4260c01b615f29565b6171656727ba81baa8b7dd2f60c01b615f29565b600061717b67e476d1019ea1b94060c01b615f29565b61718f670532844ee209428d60c01b615f29565b6000600b67ffffffffffffffff8111156171ac576171ab61ae30565b5b6040519080825280602002602001820160405280156171e557816020015b6171d261a92f565b8152602001906001900390816171ca5790505b5090506171fc67011d688e1244dfef60c01b615f29565b6172106791984b193fbe887e60c01b615f29565b60006103e8905061722b675b126bdff542396860c01b615f29565b6040518060400160405280662386f26fc10000815260200182620186a0617252919061be86565b815250826000815181106172695761726861c7ce565b5b602002602001018190525061728867740921a02ff81e4f60c01b615f29565b604051806040016040528067016345785d8a00008152602001826127106172af919061be86565b815250826001815181106172c6576172c561c7ce565b5b60200260200101819052506172e567a2b369c0905b637960c01b615f29565b6040518060400160405280670de0b6b3a76400008152602001826103e861730c919061be86565b815250826002815181106173235761732261c7ce565b5b602002602001018190525061734267717b6185b9c5a39460c01b615f29565b6040518060400160405280678ac7230489e800008152602001826064617368919061be86565b8152508260038151811061737f5761737e61c7ce565b5b602002602001018190525061739e6796785bbe9c8e41c960c01b615f29565b604051806040016040528068056bc75e2d63100000815260200182600a6173c5919061be86565b815250826004815181106173dc576173db61c7ce565b5b60200260200101819052506173fb67affd7b8000f6c4bf60c01b615f29565b6040518060400160405280683635c9adc5dea000008152602001826001617422919061be86565b815250826005815181106174395761743861c7ce565b5b60200260200101819052506174586749adea1b5b0bfe7d60c01b615f29565b604051806040016040528069021e19e0c9bab24000008152602001600a836001617482919061be86565b61748c919061baa9565b815250826006815181106174a3576174a261c7ce565b5b60200260200101819052506174c267fefca0d8a8fca2f560c01b615f29565b604051806040016040528069152d02c7e14af6800000815260200160648360016174ec919061be86565b6174f6919061baa9565b8152508260078151811061750d5761750c61c7ce565b5b602002602001018190525061752c6706baaf7e6d2e9c0960c01b615f29565b604051806040016040528069d3c21bcecceda100000081526020016103e8836001617557919061be86565b617561919061baa9565b815250826008815181106175785761757761c7ce565b5b602002602001018190525061759767a8deb1739e934e7360c01b615f29565b60405180604001604052807fffffffffffffffffffffffffffffffffffffffffffffffffffffffffffffffff81526020016127108360016175d8919061be86565b6175e2919061baa9565b815250826009815181106175f9576175f861c7ce565b5b602002602001018190525061761867791d28fa1234180160c01b615f29565b60405180604001604052807fffffffffffffffffffffffffffffffffffffffffffffffffffffffffffffffff8152602001620186a083600161765a919061be86565b617664919061baa9565b81525082600a8151811061767b5761767a61c7ce565b5b602002602001018190525061769a672d3ef5e851c7844b60c01b615f29565b6176ae677a3acc61737f2e5860c01b615f29565b60005b8251811015617bf6576176ce67f502d3af7960b01b60c01b615f29565b6176e2678177c65a13f23f7460c01b615f29565b60008382815181106176f7576176f661c7ce565b5b60200260200101516000600281106177125761771161c7ce565b5b6020020151905061772d67a3be25e4ffa2e59360c01b615f29565b617741674ea5e05ce254cb4360c01b615f29565b60008483815181106177565761775561c7ce565b5b60200260200101516001600281106177715761777061c7ce565b5b6020020151905061778c679cbb8e5a764af42560c01b615f29565b6177a067fc36672e32700b1260c01b615f29565b6000808414806177c057506177bf674ff30456ba9cf12060c01b616fc9565b5b80156177dc57506177db67065130bf6094212860c01b615f2c565b5b61782457856001856177ee919061b902565b815181106177ff576177fe61c7ce565b5b602002602001015160006002811061781a5761781961c7ce565b5b6020020151617827565b60005b905061783d677637a75f5d905afd60c01b615f29565b61785167b0a5db727e3ea9a260c01b615f29565b600061786767717ef842b538a3b460c01b615f29565b61787b6752c1b33c141905ac60c01b615f29565b818a1115617abd5761789767fd566bc503332d2160c01b615f29565b6178ab6777360be160722dd060c01b615f29565b6178bf676f4ffb76f06d3dc360c01b615f29565b838a10617a81576178da67eb5aba8c9da6bde760c01b615f29565b6178ee6715eb7600730720ab60c01b615f29565b61790267842681e4ea987ed860c01b615f29565b818411156179455761791e670b43647bbf56a03f60c01b615f29565b617932678958e901c9771a1b60c01b615f29565b818461793e919061b902565b9050617a7c565b61795967613ab4de610b5c5760c01b615f29565b61796d67cafc46ecb473031560c01b615f29565b6000905061798567f7b6bb6db87996c860c01b615f29565b61799967b683fd93b190372f60c01b615f29565b7fffffffffffffffffffffffffffffffffffffffffffffffffffffffffffffffff841480156179c85750600085115b8015617a3157507fffffffffffffffffffffffffffffffffffffffffffffffffffffffffffffffff876001876179fe919061b902565b81518110617a0f57617a0e61c7ce565b5b6020026020010151600060028110617a2a57617a2961c7ce565b5b6020020151145b15617a6757617a4a6780a0b16545cfcde160c01b615f29565b617a5e6704ff5493bc6a760f60c01b615f29565b50505050617bf6565b617a7b67d4ec93b14db7b80f60c01b615f29565b5b617ab8565b617a9567f59f8b3da72472bc60c01b615f29565b617aa967a2663d45c9e1b11260c01b615f29565b818a617ab5919061b902565b90505b617ad2565b617ad16722353e90d8f546d760c01b615f29565b5b617ae6675de8b07c8d38a57060c01b615f29565b617afa670ddad87e26fb43a760c01b615f29565b600081118015617b0a5750600083115b15617b6f57617b23676b71878835203fe860c01b615f29565b617b3767bcfe23f7698d15b360c01b615f29565b6103e8612710617b47919061be86565b8382617b53919061be86565b617b5d919061baa9565b88617b68919061b620565b9750617b84565b617b836788f0c49d411df09860c01b615f29565b5b617b9867c9a5133ed11e5d0560c01b615f29565b617bac672a2b503999e5521b60c01b615f29565b838a1015617bd157617bc8671cbc84435aea169d60c01b615f29565b50505050617bf6565b617be567b19b67f0b608e47260c01b615f29565b5050505080806001019150506176b1565b50617c0b670925def1d7e43af660c01b615f29565b617c1f679aa8e9bfb8e0c26260c01b615f29565b8293505050505b919050565b6000617c4167cef1af2cbf33ad7860c01b615f29565b617c55679c2bc4119675a09a60c01b615f29565b617c6967fa7a7ad4cbf2da5460c01b615f29565b60008503617ca257617c8567c25f0ecfcc17ae8560c01b615f29565b617c99673b7a61cc8d09c78b60c01b615f29565b60009050617fb3565b617cb667b3e6b7de2758995c60c01b615f29565b617cca6757e0d2006c8d047a60c01b615f29565b617cde679d2d2c250b9088a960c01b615f29565b6000617ce985613360565b9050617cff67628a0ca2e56ce15160c01b615f29565b617d13676623b6cbdf7bd8a560c01b615f29565b6000617d1e85613360565b9050617d3467c6cefceda278815960c01b615f29565b617d486779c17916b4b6c38260c01b615f29565b600081831180617d685750617d6767156e27292949f55260c01b616fc9565b5b8015617d845750617d836732df86365413d96260c01b615f2c565b5b617d8e5781617d90565b825b9050617da667d5e357225291cb3660c01b615f29565b617dba67240bd256d5221a8c60c01b615f29565b6000612710821180617ddc5750617ddb67b59e61d0d0d3cc4d60c01b616fc9565b5b8015617df85750617df767cdb7ce5b7731b87a60c01b615f2c565b5b617e03576000617e12565b61271082617e11919061b902565b5b9050617e2867b553f13884d73c7260c01b615f29565b617e3c67d675bc8dfe77ff0d60c01b615f29565b60008103617e8c57617e58672e3ded333ad101f960c01b615f29565b617e6c6702ff2eaec02049dc60c01b615f29565b617e8067853f0e4c9af04e3660c01b615f29565b88945050505050617fb3565b617ea067dd8fd0066fdbb5b260c01b615f29565b617eb467eaced9d7ae2ded6a60c01b615f29565b617ec867d660ab513108491160c01b615f29565b6000617ed387619466565b9050617ee967e8782b0ba11e5ad460c01b615f29565b617efd678b13ef8328830bac60c01b615f29565b60006127108284617f0e919061be86565b617f18919061baa9565b9050617f2e675097d6c2db0801f760c01b615f29565b617f4267961f032f5a89137260c01b615f29565b600081612710617f52919061b620565b9050617f6867716e7d9bf546efeb60c01b615f29565b612710818d617f77919061be86565b617f81919061baa9565b9750617f9767492ae2de46ec508a60c01b615f29565b617fab675a020af8bd37737860c01b615f29565b505050505050505b949350505050565b600080617fc66198b3565b90508091505090565b617fd76198de565b617fe1828261991e565b5050565b617fed6198de565b565b617ff76198de565b565b6180016198de565b565b61800b6198de565b61801361995b565b565b60007f01ffc9a7000000000000000000000000000000000000000000000000000000007bffffffffffffffffffffffffffffffffffffffffffffffffffffffff1916827bffffffffffffffffffffffffffffffffffffffffffffffffffffffff1916149050919050565b6000618089615fb1565b9050600073ffffffffffffffffffffffffffffffffffffffff168573ffffffffffffffffffffffffffffffffffffffff16036180fd5760006040517fe602df050000000000000000000000000000000000000000000000000000000081526004016180f4919061b075565b60405180910390fd5b600073ffffffffffffffffffffffffffffffffffffffff168473ffffffffffffffffffffffffffffffffffffffff160361816f5760006040517f94280d62000000000000000000000000000000000000000000000000000000008152600401618166919061b075565b60405180910390fd5b828160010160008773ffffffffffffffffffffffffffffffffffffffff1673ffffffffffffffffffffffffffffffffffffffff16815260200190815260200160002060008673ffffffffffffffffffffffffffffffffffffffff1673ffffffffffffffffffffffffffffffffffffffff16815260200190815260200160002081905550811561825e578373ffffffffffffffffffffffffffffffffffffffff168573ffffffffffffffffffffffffffffffffffffffff167f8c5be1e5ebec7d5bd14f71427d1e84f3dd0314c0f7b2291e5b200ac8c7c3b92585604051618255919061aa39565b60405180910390a35b5050505050565b61826f8282613f02565b6182b25780826040517fe2517d3f0000000000000000000000000000000000000000000000000000000081526004016182a992919061c7fd565b60405180910390fd5b5050565b60006182cc677655a89e1513e62160c01b615f29565b6182e067f66e951297a4663160c01b615f29565b6182f467cfbb16f0b6ee26cc60c01b615f29565b60006182ff836170b2565b905061831567661c3196a1d6c76960c01b615f29565b61832967ac22313539a0ceb860c01b615f29565b600061833782878787617c2b565b905061834d675a3ca1cf49f2381c60c01b615f29565b61836167f6487604891612ce60c01b615f29565b600081905061837a675d119374999754f260c01b615f29565b61838e67d9f7d8893c9fe35460c01b615f29565b60006127106103e8876183a1919061be86565b6183ab919061baa9565b90506183c167c602138714531f7760c01b615f29565b6183d5679c781d8c743a377260c01b615f29565b808211156183f9576183f1671014204a60e4b7a860c01b615f29565b80915061840e565b61840d6752c4cb969862dc5360c01b615f29565b5b618422673a91e17110d0595060c01b615f29565b6184366739642faeb338863860c01b615f29565b60006509184e72a000905061845567738912f6bbb050ee60c01b615f29565b618469675d85879ba2cdae1360c01b615f29565b60008311801561847857508083105b80156184845750808710155b156185245761849d674518318e11bfa2d460c01b615f29565b6184b1679054353e29c31f6b60c01b615f29565b6184c5673d2df2d9e248af6860c01b615f29565b8181111580156184d55750868111155b1561850a576184ee67597cab332b38bc9360c01b615f29565b61850267918ff31dc724197860c01b615f29565b80925061851f565b61851e6775b4ac699824722260c01b615f29565b5b618539565b61853867969c0e807bd5694660c01b615f29565b5b61854d67eb24f66ddfa5df7a60c01b615f29565b61856167fc6710fb583b48ab60c01b615f29565b82955050505050509392505050565b600080600061858967ed9ca143ef2d546260c01b615f29565b61859d67e3dcc33b090babe860c01b615f29565b6185b167c296552c18fc56da60c01b615f29565b60008490506185ca670c6dd2a4eda2adfc60c01b615f29565b6185de6755e1d5d743580ca060c01b615f29565b60008111801561862d57506000600c60008a73ffffffffffffffffffffffffffffffffffffffff1673ffffffffffffffffffffffffffffffffffffffff16815260200190815260200160002054115b156188a0576186466701d68d2b7fd3937d60c01b615f29565b61865a67eef4760b0605d1e060c01b615f29565b61866e67b590e3423de264f660c01b615f29565b6000600c60008a73ffffffffffffffffffffffffffffffffffffffff1673ffffffffffffffffffffffffffffffffffffffff168152602001908152602001600020548210806186cd57506186cc674437f2b32de6b1df60c01b616fc9565b5b80156186e957506186e867f71094d3a81bcee860c01b615f2c565b5b61873257600c60008a73ffffffffffffffffffffffffffffffffffffffff1673ffffffffffffffffffffffffffffffffffffffff16815260200190815260200160002054618734565b815b905061874a674a6a22466120812760c01b615f29565b80600c60008b73ffffffffffffffffffffffffffffffffffffffff1673ffffffffffffffffffffffffffffffffffffffff1681526020019081526020016000206000828254618799919061b902565b925050819055506187b467eba82d8c91c0a39760c01b615f29565b8094506187cb67ce26315eddc0ef6560c01b615f29565b80826187d7919061b902565b91506187ed6733aeb44e6fa84ceb60c01b615f29565b61880167bf00ac1b68174eb660c01b615f29565b60008111156188855761881e671a4047301d322e4b60c01b615f29565b61883267a426246508b679ef60c01b615f29565b8873ffffffffffffffffffffffffffffffffffffffff167f61b2f2053fc2ed5f431a02115cc5585518b9e5118fc14db10fa1fa57310feec182604051618878919061aa39565b60405180910390a261889a565b6188996715daa92f63e9d0a360c01b615f29565b5b506188b5565b6188b4679f654242d653a59d60c01b615f29565b5b6188c967ad84b3bf9de3fac260c01b615f29565b6188dd67409e1091aea238ec60c01b615f29565b6000811115618a29576188fa67ed85706206e3e31660c01b615f29565b61890e67c2c5720ad290e68e60c01b615f29565b61892267bdc9fb83a6e6721060c01b615f29565b60008061892f8a8461997c565b91509150618947672d93bb1771a3b62360c01b615f29565b80945061895e67e54bc28b23eebc6e60c01b615f29565b81935061897567337e1b499f5652b660c01b615f29565b6189896746c8a5c8a63303aa60c01b615f29565b6000811115618a0d576189a6675ded91106669abad60c01b615f29565b6189ba6723af09954d1b56ff60c01b615f29565b8973ffffffffffffffffffffffffffffffffffffffff167fc7228b105191bcf0ea43e3534e8b2b750c8e8371115d300ef38189bfcd4bc26e82604051618a00919061aa39565b60405180910390a2618a22565b618a216772eddc5b7553d8fb60c01b615f29565b5b5050618a3e565b618a3d6736569c83b9bcc0b960c01b615f29565b5b618a52677e4d25f43d215aa460c01b615f29565b618a6667821592551584705a60c01b615f29565b60008287618a74919061b620565b9050618a8a675e9fbc3fef79460460c01b615f29565b618a9e67600e4aa8101c007360c01b615f29565b6000618aa98a613986565b9050618abf67c14291070d01bbac60c01b615f29565b618ad36775666e31adfb2e9960c01b615f29565b81811015618b4457618aef672aa5c16b4d2ebe3f60c01b615f29565b618b03670a0d7c6aabf9a78260c01b615f29565b8981836040517fe450d38c000000000000000000000000000000000000000000000000000000008152600401618b3b9392919061c572565b60405180910390fd5b618b58676b9f4bda987dcb8060c01b615f29565b618b6c67ba5903aaaa9939eb60c01b615f29565b618b80679a1c2a539dbce48460c01b615f29565b6000841115618bf757618b9d67d7af8d262cf09f5760c01b615f29565b618bb167c0db076b8723686060c01b615f29565b618bc5671a318ad4a59f6ba760c01b615f29565b618bf28a600460009054906101000a900473ffffffffffffffffffffffffffffffffffffffff1686616ead565b618c0c565b618c0b67999ed43c123d673260c01b615f29565b5b618c206710c996d48e258bd160c01b615f29565b618c34675767c621ff6e9b4e60c01b615f29565b6000881115618c8957618c516773682e088cad5f8660c01b615f29565b618c65676c694afaf526f4a660c01b615f29565b618c796758068fe164f7a32260c01b615f29565b618c848a8a8a616ead565b618c9e565b618c9d67b80c982a634dbac060c01b615f29565b5b618cb267e6eb89f8815a6b5f60c01b615f29565b618cc667ac5890c741bcb84960c01b615f29565b5050509450945094915050565b618ce767659423811b15e1cc60c01b615f29565b618cfb67a30ef3f76197610560c01b615f29565b618d0f67437b43afced55bbb60c01b615f29565b60008103618d5857618d2b6710fae009836fc0cf60c01b615f29565b618d3f679323aeec7cc72ef160c01b615f29565b618d5367155d77b5a0bba30b60c01b615f29565b61902f565b618d6c67526df771e66f889d60c01b615f29565b618d806789ba7c974831f69060c01b615f29565b618d9467a83ac668cc3ffb3d60c01b615f29565b6000600482618da3919061baa9565b9050618db9673c71a2e4980a64b760c01b615f29565b618dcd6783145c07c10064d660c01b615f29565b6000600483618ddc919061baa9565b9050618df267580d77c3531453fc60c01b615f29565b618e066733e6563b46c8354e60c01b615f29565b6000821115618ef057618e2367fa898d362164ce2b60c01b615f29565b618e37670bbaafc14921f3e760c01b615f29565b81600960008773ffffffffffffffffffffffffffffffffffffffff1673ffffffffffffffffffffffffffffffffffffffff1681526020019081526020016000206000016000828254618e89919061b620565b92505081905550618ea467aaf1f67b7ad23a4860c01b615f29565b42600960008773ffffffffffffffffffffffffffffffffffffffff1673ffffffffffffffffffffffffffffffffffffffff16815260200190815260200160002060010181905550618f05565b618f0467e8d432209e41338760c01b615f29565b5b618f19674a7d1c4bf4ee6de860c01b615f29565b618f2d67cfaa33d44ff5a79060c01b615f29565b600081111561901757618f4a676e15e4f7e1e7c3b360c01b615f29565b618f5e67469ed6e9ec11b73760c01b615f29565b80600960008673ffffffffffffffffffffffffffffffffffffffff1673ffffffffffffffffffffffffffffffffffffffff1681526020019081526020016000206000016000828254618fb0919061b620565b92505081905550618fcb67204f7c4297435bb460c01b615f29565b42600960008673ffffffffffffffffffffffffffffffffffffffff1673ffffffffffffffffffffffffffffffffffffffff1681526020019081526020016000206001018190555061902c565b61902b670cac54498d14bdf860c01b615f29565b5b50505b505050565b6190486764658ce9559125f160c01b615f29565b61905c671876f5d57b193ad760c01b615f29565b600760008573ffffffffffffffffffffffffffffffffffffffff1673ffffffffffffffffffffffffffffffffffffffff16815260200190815260200160002060008473ffffffffffffffffffffffffffffffffffffffff1673ffffffffffffffffffffffffffffffffffffffff16815260200190815260200160002060008154809291906190e99061bf34565b919050555061910267adb3ff348de0240860c01b615f29565b6191166742a8e24736f1efc760c01b615f29565b6000619123858585619c84565b905061913967068d9db242076fde60c01b615f29565b6040518060e001604052808242619150919061b620565b81526020018281526020018673ffffffffffffffffffffffffffffffffffffffff1681526020016001600560008873ffffffffffffffffffffffffffffffffffffffff1673ffffffffffffffffffffffffffffffffffffffff168152602001908152602001600020600301546191c6919061b620565b81526020018686866040516020016191e09392919061c88f565b60405160208183030381529060405280519060200120815260200183815260200160001515815250600560008673ffffffffffffffffffffffffffffffffffffffff1673ffffffffffffffffffffffffffffffffffffffff168152602001908152602001600020600082015181600001556020820151816001015560408201518160020160006101000a81548173ffffffffffffffffffffffffffffffffffffffff021916908373ffffffffffffffffffffffffffffffffffffffff160217905550606082015181600301556080820151816004015560a0820151816005015560c08201518160060160006101000a81548160ff0219169083151502179055509050506192f767f4787596d596b0e460c01b615f29565b61930b675d89277c2651f01760c01b615f29565b619315848461a21c565b5050505050565b619324613129565b61935a576040517f8dfc202b00000000000000000000000000000000000000000000000000000000815260040160405180910390fd5b565b619364616007565b61936f83838361a3d5565b505050565b60006193a27f360894a13ba1a3210667c828492db98dca3e2076cc3735a920a3ca505d382bbc60001b61a614565b60000160009054906101000a900473ffffffffffffffffffffffffffffffffffffffff16905090565b6193d48261a61e565b8173ffffffffffffffffffffffffffffffffffffffff167fbc7cd75a20ee27fd9adebab32041f755214dbc6bffa90cc0225b39da2e5c2d3b60405160405180910390a26000815111156194315761942b828261a6eb565b5061943a565b61943961a76f565b5b5050565b60007f9b779b17422d0df92223018b32b4d1fa46e071723d6817e2486d003becc55f00905090565b600061947c673adb2669911537e960c01b615f29565b61949067b5d6455dbce8548c60c01b615f29565b6194a4672f76169f969d002a60c01b615f29565b600082036194dd576194c067c136179d9c50850660c01b615f29565b6194d4679a69d4adc433d3d460c01b615f29565b600090506198ae565b6194f167cf1a58c88c2391ed60c01b615f29565b61950567668f9336e73bd5a460c01b615f29565b61951967d7f4019e9a3b3d8660c01b615f29565b6000619523611528565b60ff16905061953c671b04ae535c64095e60c01b615f29565b61955067467d9d817d5b59e560c01b615f29565b600081600a61955f919061c9ff565b600161956b919061be86565b905061958167eb20546b39b6872d60c01b615f29565b61959567a2dd03354eee1b3a60c01b615f29565b6000600190506195af6772f2dfbe2c808c6060c01b615f29565b6195c367df90bc631a3ce6e660c01b615f29565b5b81851180156195d4575061271081105b15619806576195ed67dad3f4a266139f2760c01b615f29565b61960167244bab1095e8c35860c01b615f29565b6000600a83619610919061be86565b905061962667c14e487909cf9e7960c01b615f29565b61963a67af5364ff53b5897360c01b615f29565b6000600a0361965d5761965767178d6c3eae2695f560c01b615f29565b50619806565b6196716775e558baff836c1460c01b615f29565b619685679ec629e19e2d0ce660c01b615f29565b6196996794c328a1a49e0f3460c01b615f29565b600a7fffffffffffffffffffffffffffffffffffffffffffffffffffffffffffffffff6196c6919061baa9565b8311156196fb576196e167a7179594bb0c030b60c01b615f29565b6196f5677463bb48a763d8e260c01b615f29565b50619806565b61970f67f591f69924dbd26360c01b615f29565b61972367ae72c1e76c91247a60c01b615f29565b80925061973a674410dc1a256ae0fe60c01b615f29565b61974e67053a4fa79322d74d60c01b615f29565b600a7fffffffffffffffffffffffffffffffffffffffffffffffffffffffffffffffff61977b919061baa9565b8211156197c95761979667edb88ff4279232bc60c01b615f29565b6197aa677644cff056c0911060c01b615f29565b61271091506197c367e6569ab27d5dc30d60c01b615f29565b50619806565b6197dd6756d9d9f4905c2bbe60c01b615f29565b6197f167078c0613fc5cb7ce60c01b615f29565b600a826197fe919061be86565b9150506195c4565b61981a67f77b810446ba221c60c01b615f29565b61982e6783b3f434578f1ab160c01b615f29565b61271081111561986a5761984c676f168546ffb1280060c01b615f29565b61986067880528dbee0eed2c60c01b615f29565b612710905061987f565b61987e67249c2fb65b1fcfc560c01b615f29565b5b61989367dc9e5b92a10899f960c01b615f29565b6198a767d8db0dbcac5547da60c01b615f29565b8093505050505b919050565b60007ff0c57e16840df040f15088dc2f81fe391c3923bec73e23a9662efc9c229c6a0060001b905090565b6198e661a7ac565b61991c576040517fd7e6bcf800000000000000000000000000000000000000000000000000000000815260040160405180910390fd5b565b6199266198de565b6000619930615fb1565b905082816003019081619943919061cbec565b5081816004019081619955919061cbec565b50505050565b6199636198de565b600061996d61943e565b90506001816000018190555050565b6000806199936795ce540aa8b25b5660c01b615f29565b6199a767f952befa8117990160c01b615f29565b6199bb6765bc72bc15465c5360c01b615f29565b6000600960008673ffffffffffffffffffffffffffffffffffffffff1673ffffffffffffffffffffffffffffffffffffffff1681526020019081526020016000209050619a126757025257f8f987ce60c01b615f29565b619a26676ef7f392d936c45560c01b615f29565b60008160000154148015619a4a5750619a496780331ff7cec1446560c01b615f2c565b5b80619a715750600084148015619a705750619a6f67d809d7d8b6dbac9560c01b615f2c565b5b5b15619abf57619a8a67f999e70b4a04994560c01b615f29565b619a9e67078f2d99cc6dcccd60c01b615f29565b619ab2679cefe992a5aba15860c01b615f29565b8360009250925050619c7d565b619ad36713545e441819281560c01b615f29565b619ae767935fbc1d5aa7419c60c01b615f29565b619afb6739f2ec4038e7686060c01b615f29565b83816000015410619bc357619b1a678798b8a55734dfc560c01b615f29565b619b2e67361457cae340ea6860c01b615f29565b839150619b456774a62e35db5ac3dc60c01b615f29565b83816000016000828254619b59919061b902565b92505081905550619b74678a90e777ca3b4f9760c01b615f29565b428160010181905550619b91673b11f25d7a3f9eac60c01b615f29565b60009250619ba967170f4c8d76b38ded60c01b615f29565b619bbd670533317e682535c260c01b615f29565b50619c7d565b619bd7673ddaf16babc7ea0f60c01b615f29565b619beb676ca22cd135f8089460c01b615f29565b80600001549150619c066778f28d72c789147d60c01b615f29565b806000015484619c16919061b902565b9250619c2c67caca375edbc3bf1e60c01b615f29565b60008160000181905550619c4a6710b34bb31202f6df60c01b615f29565b428160010181905550619c6767d865bf09aa567a0960c01b615f29565b619c7b675be39ef66627ec0e60c01b615f29565b505b9250929050565b6000619c9a674e2f900942c9ec2260c01b615f29565b619cae67a5a3583889b7418e60c01b615f29565b619cc2675994cb41a34e38b160c01b615f29565b600080549050619cdc67910abec134e8cbe960c01b615f29565b619cf06789dd7cbb1647168c60c01b615f29565b6000600760008773ffffffffffffffffffffffffffffffffffffffff1673ffffffffffffffffffffffffffffffffffffffff16815260200190815260200160002060008673ffffffffffffffffffffffffffffffffffffffff1673ffffffffffffffffffffffffffffffffffffffff168152602001908152602001600020549050619d85679caa78f1f1cebff860c01b615f29565b619d9967456deccf1dd3cd2960c01b615f29565b6000811115619e8257619db667802aa3420849e7cd60c01b615f29565b619dca67a48ee59e239312ec60c01b615f29565b619dde67d3f9742b6d93df9d60c01b615f29565b6000605a600a83619def919061be86565b1180619e0b5750619e0a67d4fe0f534577069260c01b616fc9565b5b8015619e275750619e2667c262575dd1e92e8260c01b615f2c565b5b619e3d57600a82619e38919061be86565b619e40565b605a5b9050619e566744d23052b63b4a3760c01b615f29565b6064816064619e65919061b902565b84619e70919061be86565b619e7a919061baa9565b925050619e97565b619e9667f88a30aebcb2df2260c01b615f29565b5b619eab6726e28d0ae8b8968860c01b615f29565b619ebf679125859db0195f9360c01b615f29565b6000600660008873ffffffffffffffffffffffffffffffffffffffff1673ffffffffffffffffffffffffffffffffffffffff1681526020019081526020016000209050619f1667f87de376ef0a461260c01b615f29565b619f2a67c33f908aa0d16d0560c01b615f29565b60008160010154118015619f42575060008160000154115b1561a11c57619f5b67bec18da17744eae460c01b615f29565b619f6f6773a01fa5cccbad8060c01b615f29565b619f83676a7d0cb176f159ad60c01b615f29565b600081600101548260000154619f99919061baa9565b9050619faf67b6167f2c40e8c4a460c01b615f29565b619fc3677d0480b9e90c5bb960c01b615f29565b600a81619fd0919061be86565b86111561a10157619feb674438e1de269d218460c01b615f29565b619fff679b375ec79481239f60c01b615f29565b61a01367d10b157f70bdeed860c01b615f29565b600060028561a022919061be86565b905061a03867784e07a7637a32a860c01b615f29565b61a04c67f89ebd908b78552b60c01b615f29565b60027fffffffffffffffffffffffffffffffffffffffffffffffffffffffffffffffff61a079919061baa9565b851161a0af5761a093678813bcd1644ccdb660c01b615f29565b61a0a767cbb5d07ba6c8349760c01b615f29565b80945061a0fb565b61a0c367455377a17fe4e71d60c01b615f29565b61a0d767abcc366f4a2991b460c01b615f29565b7fffffffffffffffffffffffffffffffffffffffffffffffffffffffffffffffff94505b5061a116565b61a11567f795c99e2fc1ecfe60c01b615f29565b5b5061a131565b61a1306727c2be352fd8551760c01b615f29565b5b61a145679c4b62c8a8936ba160c01b615f29565b61a15967038a219bf38f1f7960c01b615f29565b60015483101561a1815761a17767eb5d63a91bdfb20860c01b615f29565b600154925061a1e7565b61a19567329d3eadc3abd39a60c01b615f29565b61a1a9678330f502c637f03a60c01b615f29565b60025483111561a1d15761a1c767f9644448491a1af260c01b615f29565b600254925061a1e6565b61a1e567239b103d0558f8dd60c01b615f29565b5b5b61a1fb67103fa74e9a11eb4f60c01b615f29565b61a20f67c2dde7b56644a08a60c01b615f29565b8293505050509392505050565b61a23067e5074f08ca2bf7db60c01b615f29565b61a24467c9b975af137bb6c560c01b615f29565b61a25867c439bbe3dfcf750c60c01b615f29565b6000600660008473ffffffffffffffffffffffffffffffffffffffff1673ffffffffffffffffffffffffffffffffffffffff168152602001908152602001600020905061a2af6792779140645eef9f60c01b615f29565b61a2c367d46521052fe14a5460c01b615f29565b6000816002015411801561a2e7575060035481600201544261a2e5919061b902565b115b1561a3415761a300673ecce84ebef3477660c01b615f29565b61a31467683d303bb9da488660c01b615f29565b6000816000018190555061a33267fa1a099625794edf60c01b615f29565b6000816001018190555061a356565b61a3556798f96907d32b921f60c01b615f29565b5b61a36a67cea66cfafd12e68d60c01b615f29565b8181600001600082825461a37e919061b620565b9250508190555061a399674c89261e2ef24cb260c01b615f29565b80600101600081548092919061a3ae9061bf34565b919050555061a3c76763f0489795f624f960c01b615f29565b428160020181905550505050565b600061a3df615fb1565b9050600073ffffffffffffffffffffffffffffffffffffffff168473ffffffffffffffffffffffffffffffffffffffff160361a435578181600201600082825461a429919061b620565b9250508190555061a50e565b60008160000160008673ffffffffffffffffffffffffffffffffffffffff1673ffffffffffffffffffffffffffffffffffffffff1681526020019081526020016000205490508281101561a4c4578481846040517fe450d38c00000000000000000000000000000000000000000000000000000000815260040161a4bb9392919061c572565b60405180910390fd5b8281038260000160008773ffffffffffffffffffffffffffffffffffffffff1673ffffffffffffffffffffffffffffffffffffffff16815260200190815260200160002081905550505b600073ffffffffffffffffffffffffffffffffffffffff168373ffffffffffffffffffffffffffffffffffffffff160361a5595781816002016000828254039250508190555061a5a9565b818160000160008573ffffffffffffffffffffffffffffffffffffffff1673ffffffffffffffffffffffffffffffffffffffff168152602001908152602001600020600082825401925050819055505b8273ffffffffffffffffffffffffffffffffffffffff168473ffffffffffffffffffffffffffffffffffffffff167fddf252ad1be2c89b69c2b068fc378daa952ba7f163c4a11628f55a4df523b3ef8460405161a606919061aa39565b60405180910390a350505050565b6000819050919050565b60008173ffffffffffffffffffffffffffffffffffffffff163b0361a67a57806040517f4c9c8ce300000000000000000000000000000000000000000000000000000000815260040161a671919061b075565b60405180910390fd5b8061a6a77f360894a13ba1a3210667c828492db98dca3e2076cc3735a920a3ca505d382bbc60001b61a614565b60000160006101000a81548173ffffffffffffffffffffffffffffffffffffffff021916908373ffffffffffffffffffffffffffffffffffffffff16021790555050565b60606000808473ffffffffffffffffffffffffffffffffffffffff168460405161a715919061cd05565b600060405180830381855af49150503d806000811461a750576040519150601f19603f3d011682016040523d82523d6000602084013e61a755565b606091505b509150915061a76585838361a7cc565b9250505092915050565b600034111561a7aa576040517fb398979f00000000000000000000000000000000000000000000000000000000815260040160405180910390fd5b565b600061a7b6617fbb565b60000160089054906101000a900460ff16905090565b60608261a7e15761a7dc8261a85b565b61a853565b6000825114801561a809575060008473ffffffffffffffffffffffffffffffffffffffff163b145b1561a84b57836040517f9996b31500000000000000000000000000000000000000000000000000000000815260040161a842919061b075565b60405180910390fd5b81905061a854565b5b9392505050565b60008151111561a86e5780518082602001fd5b6040517fd6bda27500000000000000000000000000000000000000000000000000000000815260040160405180910390fd5b604051806102400160405280600081526020016000815260200160008152602001600081526020016000815260200160008152602001600081526020016000815260200160008152602001600081526020016000815260200160008152602001600081526020016000815260200160001515815260200160001515815260200160008152602001600081525090565b6040518060400160405280600290602082028036833780820191505090505090565b6000604051905090565b600080fd5b600080fd5b60007fffffffff0000000000000000000000000000000000000000000000000000000082169050919050565b61a99a8161a965565b811461a9a557600080fd5b50565b60008135905061a9b78161a991565b92915050565b60006020828403121561a9d35761a9d261a95b565b5b600061a9e18482850161a9a8565b91505092915050565b60008115159050919050565b61a9ff8161a9ea565b82525050565b600060208201905061aa1a600083018461a9f6565b92915050565b6000819050919050565b61aa338161aa20565b82525050565b600060208201905061aa4e600083018461aa2a565b92915050565b600081519050919050565b600082825260208201905092915050565b60005b8381101561aa8e57808201518184015260208101905061aa73565b60008484015250505050565b6000601f19601f8301169050919050565b600061aab68261aa54565b61aac0818561aa5f565b935061aad081856020860161aa70565b61aad98161aa9a565b840191505092915050565b6000602082019050818103600083015261aafe818461aaab565b905092915050565b600073ffffffffffffffffffffffffffffffffffffffff82169050919050565b600061ab318261ab06565b9050919050565b61ab418161ab26565b811461ab4c57600080fd5b50565b60008135905061ab5e8161ab38565b92915050565b60006020828403121561ab7a5761ab7961a95b565b5b600061ab888482850161ab4f565b91505092915050565b600060608201905061aba6600083018661aa2a565b61abb3602083018561aa2a565b61abc0604083018461aa2a565b949350505050565b61abd18161aa20565b811461abdc57600080fd5b50565b60008135905061abee8161abc8565b92915050565b6000806040838503121561ac0b5761ac0a61a95b565b5b600061ac198582860161ab4f565b925050602061ac2a8582860161abdf565b9150509250929050565b600060408201905061ac49600083018561aa2a565b61ac56602083018461aa2a565b9392505050565b60006020828403121561ac735761ac7261a95b565b5b600061ac818482850161abdf565b91505092915050565b60008060006060848603121561aca35761aca261a95b565b5b600061acb18682870161ab4f565b935050602061acc28682870161ab4f565b925050604061acd38682870161abdf565b9150509250925092565b6000819050919050565b61acf08161acdd565b811461acfb57600080fd5b50565b60008135905061ad0d8161ace7565b92915050565b60006020828403121561ad295761ad2861a95b565b5b600061ad378482850161acfe565b91505092915050565b61ad498161acdd565b82525050565b600060208201905061ad64600083018461ad40565b92915050565b6000806040838503121561ad815761ad8061a95b565b5b600061ad8f8582860161acfe565b925050602061ada08582860161ab4f565b9150509250929050565b600060ff82169050919050565b61adc08161adaa565b82525050565b600060208201905061addb600083018461adb7565b92915050565b600060808201905061adf6600083018761aa2a565b61ae03602083018661aa2a565b61ae10604083018561aa2a565b61ae1d606083018461aa2a565b95945050505050565b600080fd5b600080fd5b7f4e487b7100000000000000000000000000000000000000000000000000000000600052604160045260246000fd5b61ae688261aa9a565b810181811067ffffffffffffffff8211171561ae875761ae8661ae30565b5b80604052505050565b600061ae9a61a951565b905061aea6828261ae5f565b919050565b600067ffffffffffffffff82111561aec65761aec561ae30565b5b61aecf8261aa9a565b9050602081019050919050565b82818337600083830152505050565b600061aefe61aef98461aeab565b61ae90565b90508281526020810184848401111561af1a5761af1961ae2b565b5b61af2584828561aedc565b509392505050565b600082601f83011261af425761af4161ae26565b5b813561af5284826020860161aeeb565b91505092915050565b6000806040838503121561af725761af7161a95b565b5b600061af808582860161ab4f565b925050602083013567ffffffffffffffff81111561afa15761afa061a960565b5b61afad8582860161af2d565b9150509250929050565b6000806040838503121561afce5761afcd61a95b565b5b600061afdc8582860161ab4f565b925050602061afed8582860161ab4f565b9150509250929050565b61b0008161ab26565b82525050565b600060e08201905061b01b600083018a61aa2a565b61b028602083018961aa2a565b61b035604083018861aff7565b61b042606083018761aa2a565b61b04f608083018661ad40565b61b05c60a083018561aa2a565b61b06960c083018461a9f6565b98975050505050505050565b600060208201905061b08a600083018461aff7565b92915050565b61b0998161aa20565b82525050565b61b0a88161a9ea565b82525050565b6102408201600082015161b0c5600085018261b090565b50602082015161b0d8602085018261b090565b50604082015161b0eb604085018261b090565b50606082015161b0fe606085018261b090565b50608082015161b111608085018261b090565b5060a082015161b12460a085018261b090565b5060c082015161b13760c085018261b090565b5060e082015161b14a60e085018261b090565b5061010082015161b15f61010085018261b090565b5061012082015161b17461012085018261b090565b5061014082015161b18961014085018261b090565b5061016082015161b19e61016085018261b090565b5061018082015161b1b361018085018261b090565b506101a082015161b1c86101a085018261b090565b506101c082015161b1dd6101c085018261b09f565b506101e082015161b1f26101e085018261b09f565b5061020082015161b20761020085018261b090565b5061022082015161b21c61022085018261b090565b50505050565b60006102408201905061b238600083018461b0ae565b92915050565b600067ffffffffffffffff82111561b2595761b25861ae30565b5b61b2628261aa9a565b9050602081019050919050565b600061b28261b27d8461b23e565b61ae90565b90508281526020810184848401111561b29e5761b29d61ae2b565b5b61b2a984828561aedc565b509392505050565b600082601f83011261b2c65761b2c561ae26565b5b813561b2d684826020860161b26f565b91505092915050565b60008060008060008060008060006101208a8c03121561b3025761b30161a95b565b5b60008a013567ffffffffffffffff81111561b3205761b31f61a960565b5b61b32c8c828d0161b2b1565b99505060208a013567ffffffffffffffff81111561b34d5761b34c61a960565b5b61b3598c828d0161b2b1565b985050604061b36a8c828d0161ab4f565b975050606061b37b8c828d0161ab4f565b965050608061b38c8c828d0161abdf565b95505060a061b39d8c828d0161abdf565b94505060c061b3ae8c828d0161abdf565b93505060e061b3bf8c828d0161abdf565b92505061010061b3d18c828d0161abdf565b9150509295985092959850929598565b7f4e487b7100000000000000000000000000000000000000000000000000000000600052602260045260246000fd5b6000600282049050600182168061b42857607f821691505b60208210810361b43b5761b43a61b3e1565b5b50919050565b7f42656c6f77206d696e696d756d00000000000000000000000000000000000000600082015250565b600061b477600d8361aa5f565b915061b4828261b441565b602082019050919050565b6000602082019050818103600083015261b4a68161b46a565b9050919050565b7f41626f7665206d6178696d756d00000000000000000000000000000000000000600082015250565b600061b4e3600d8361aa5f565b915061b4ee8261b4ad565b602082019050919050565b6000602082019050818103600083015261b5128161b4d6565b9050919050565b7f4d696e7420746f20746865207a65726f20616464726573730000000000000000600082015250565b600061b54f60188361aa5f565b915061b55a8261b519565b602082019050919050565b6000602082019050818103600083015261b57e8161b542565b9050919050565b7f4d696e7420616d6f756e74206d75737420626520706f73697469766500000000600082015250565b600061b5bb601c8361aa5f565b915061b5c68261b585565b602082019050919050565b6000602082019050818103600083015261b5ea8161b5ae565b9050919050565b7f4e487b7100000000000000000000000000000000000000000000000000000000600052601160045260246000fd5b600061b62b8261aa20565b915061b6368361aa20565b925082820190508082111561b64e5761b64d61b5f1565b5b92915050565b7f4275726e20616d6f756e74206d75737420626520706f73697469766500000000600082015250565b600061b68a601c8361aa5f565b915061b6958261b654565b602082019050919050565b6000602082019050818103600083015261b6b98161b67d565b9050919050565b7f446562746f722063616e6e6f74206265207a65726f2061646472657373000000600082015250565b600061b6f6601d8361aa5f565b915061b7018261b6c0565b602082019050919050565b6000602082019050818103600083015261b7258161b6e9565b9050919050565b7f4372656469746f722063616e6e6f74206265207a65726f206164647265737300600082015250565b600061b762601f8361aa5f565b915061b76d8261b72c565b602082019050919050565b6000602082019050818103600083015261b7918161b755565b9050919050565b7f446562746f722063616e6e6f74206265206372656469746f7200000000000000600082015250565b600061b7ce60198361aa5f565b915061b7d98261b798565b602082019050919050565b6000602082019050818103600083015261b7fd8161b7c1565b9050919050565b7f416d6f756e7420746f20636c656172206d75737420626520706f736974697665600082015250565b600061b83a60208361aa5f565b915061b8458261b804565b602082019050919050565b6000602082019050818103600083015261b8698161b82d565b9050919050565b7f416d6f756e7420746f20636c6561722065786365656473206f75747374616e6460008201527f696e67206c696162696c69747900000000000000000000000000000000000000602082015250565b600061b8cc602d8361aa5f565b915061b8d78261b870565b604082019050919050565b6000602082019050818103600083015261b8fb8161b8bf565b9050919050565b600061b90d8261aa20565b915061b9188361aa20565b925082820390508181111561b9305761b92f61b5f1565b5b92915050565b7f4578706972793a204e6f20616374697665207472616e73666572206461746100600082015250565b600061b96c601f8361aa5f565b915061b9778261b936565b602082019050919050565b6000602082019050818103600083015261b99b8161b95f565b9050919050565b7f4578706972793a205472616e7366657220776173207265766572736564000000600082015250565b600061b9d8601d8361aa5f565b915061b9e38261b9a2565b602082019050919050565b6000602082019050818103600083015261ba078161b9cb565b9050919050565b7f4578706972793a2048616c664c696665206e6f74206578706972656420796574600082015250565b600061ba4460208361aa5f565b915061ba4f8261ba0e565b602082019050919050565b6000602082019050818103600083015261ba738161ba37565b9050919050565b7f4e487b7100000000000000000000000000000000000000000000000000000000600052601260045260246000fd5b600061bab48261aa20565b915061babf8361aa20565b92508261bacf5761bace61ba7a565b5b828204905092915050565b7f4d6178206d75737420626520706f736974697665000000000000000000000000600082015250565b600061bb1060148361aa5f565b915061bb1b8261bada565b602082019050919050565b6000602082019050818103600083015261bb3f8161bb03565b9050919050565b7f4d61782062656c6f77206d696e696d756d000000000000000000000000000000600082015250565b600061bb7c60118361aa5f565b915061bb878261bb46565b602082019050919050565b6000602082019050818103600083015261bbab8161bb6f565b9050919050565b7f526576657273616c3a2053656e646572206d69736d6174636800000000000000600082015250565b600061bbe860198361aa5f565b915061bbf38261bbb2565b602082019050919050565b6000602082019050818103600083015261bc178161bbdb565b9050919050565b7f526576657273616c3a204e6f20616374697665207472616e7366657200000000600082015250565b600061bc54601c8361aa5f565b915061bc5f8261bc1e565b602082019050919050565b6000602082019050818103600083015261bc838161bc47565b9050919050565b7f526576657273616c3a2048616c664c6966652065787069726564000000000000600082015250565b600061bcc0601a8361aa5f565b915061bccb8261bc8a565b602082019050919050565b6000602082019050818103600083015261bcef8161bcb3565b9050919050565b7f526576657273616c3a205472616e7366657220616c726561647920726576657260008201527f7365640000000000000000000000000000000000000000000000000000000000602082015250565b600061bd5260238361aa5f565b915061bd5d8261bcf6565b604082019050919050565b6000602082019050818103600083015261bd818161bd45565b9050919050565b7f526576657273616c3a20496e73756666696369656e7420726563697069656e7460008201527f2062616c616e636520666f7220726576657273616c20616d6f756e7400000000602082015250565b600061bde4603c8361aa5f565b915061bdef8261bd88565b604082019050919050565b6000602082019050818103600083015261be138161bdd7565b9050919050565b7f547265617375727920616464726573732063616e6e6f74206265207a65726f00600082015250565b600061be50601f8361aa5f565b915061be5b8261be1a565b602082019050919050565b6000602082019050818103600083015261be7f8161be43565b9050919050565b600061be918261aa20565b915061be9c8361aa20565b925082820261beaa8161aa20565b9150828204841483151761bec15761bec061b5f1565b5b5092915050565b7f506572696f64206d75737420626520706f736974697665000000000000000000600082015250565b600061befe60178361aa5f565b915061bf098261bec8565b602082019050919050565b6000602082019050818103600083015261bf2d8161bef1565b9050919050565b600061bf3f8261aa20565b91507fffffffffffffffffffffffffffffffffffffffffffffffffffffffffffffffff820361bf715761bf7061b5f1565b5b600182019050919050565b7f4d696e206d75737420626520706f736974697665000000000000000000000000600082015250565b600061bfb260148361aa5f565b915061bfbd8261bf7c565b602082019050919050565b6000602082019050818103600083015261bfe18161bfa5565b9050919050565b7f4d696e2065786365656473206d61780000000000000000000000000000000000600082015250565b600061c01e600f8361aa5f565b915061c0298261bfe8565b602082019050919050565b6000602082019050818103600083015261c04d8161c011565b9050919050565b7f50726566756e6420616d6f756e74206d75737420626520706f73697469766500600082015250565b600061c08a601f8361aa5f565b915061c0958261c054565b602082019050919050565b6000602082019050818103600083015261c0b98161c07d565b9050919050565b7f416d6f756e74206d75737420626520706f736974697665000000000000000000600082015250565b600061c0f660178361aa5f565b915061c1018261c0c0565b602082019050919050565b6000602082019050818103600083015261c1258161c0e9565b9050919050565b7f457374696d6174653a205472616e7366657220746f207a65726f20616464726560008201527f7373000000000000000000000000000000000000000000000000000000000000602082015250565b600061c18860228361aa5f565b915061c1938261c12c565b604082019050919050565b6000602082019050818103600083015261c1b78161c17b565b9050919050565b7f457374696d6174653a205472616e7366657220616d6f756e74206d757374206260008201527f652067726561746572207468616e207a65726f00000000000000000000000000602082015250565b600061c21a60338361aa5f565b915061c2258261c1be565b604082019050919050565b6000602082019050818103600083015261c2498161c20d565b9050919050565b7f4d696e2048616c664c696665206d75737420626520706f736974697665000000600082015250565b600061c286601d8361aa5f565b915061c2918261c250565b602082019050919050565b6000602082019050818103600083015261c2b58161c279565b9050919050565b7f4d696e2048616c664c6966652065786365656473206d61780000000000000000600082015250565b600061c2f260188361aa5f565b915061c2fd8261c2bc565b602082019050919050565b6000602082019050818103600083015261c3218161c2e5565b9050919050565b7f496e697469616c2048616c664c696665206f7574206f6620626f756e64730000600082015250565b600061c35e601e8361aa5f565b915061c3698261c328565b602082019050919050565b6000602082019050818103600083015261c38d8161c351565b9050919050565b7f496e616374697669747920706572696f64206d75737420626520706f7369746960008201527f7665000000000000000000000000000000000000000000000000000000000000602082015250565b600061c3f060228361aa5f565b915061c3fb8261c394565b604082019050919050565b6000602082019050818103600083015261c41f8161c3e3565b9050919050565b6000819050919050565b600067ffffffffffffffff82169050919050565b6000819050919050565b600061c46961c46461c45f8461c426565b61c444565b61c430565b9050919050565b61c4798161c44e565b82525050565b600060208201905061c494600083018461c470565b92915050565b7f576974686472617720616d6f756e74206d75737420626520706f736974697665600082015250565b600061c4d060208361aa5f565b915061c4db8261c49a565b602082019050919050565b6000602082019050818103600083015261c4ff8161c4c3565b9050919050565b7f496e73756666696369656e74207072652d66756e6465642062616c616e636500600082015250565b600061c53c601f8361aa5f565b915061c5478261c506565b602082019050919050565b6000602082019050818103600083015261c56b8161c52f565b9050919050565b600060608201905061c587600083018661aff7565b61c594602083018561aa2a565b61c5a1604083018461aa2a565b949350505050565b7f5472616e7366657220746f207a65726f20616464726573730000000000000000600082015250565b600061c5df60188361aa5f565b915061c5ea8261c5a9565b602082019050919050565b6000602082019050818103600083015261c60e8161c5d2565b9050919050565b7f5472616e7366657220616d6f756e74206d75737420626520677265617465722060008201527f7468616e207a65726f0000000000000000000000000000000000000000000000602082015250565b600061c67160298361aa5f565b915061c67c8261c615565b604082019050919050565b6000602082019050818103600083015261c6a08161c664565b9050919050565b7f43616e6e6f74207472616e7366657220647572696e672048616c664c6966652060008201527f706572696f6420657863657074206261636b20746f206f726967696e61746f72602082015250565b600061c70360408361aa5f565b915061c70e8261c6a7565b604082019050919050565b6000602082019050818103600083015261c7328161c6f6565b9050919050565b600060a08201905061c74e600083018861aa2a565b61c75b602083018761aa2a565b61c768604083018661aa2a565b61c775606083018561aa2a565b61c782608083018461aa2a565b9695505050505050565b60008151905061c79b8161ace7565b92915050565b60006020828403121561c7b75761c7b661a95b565b5b600061c7c58482850161c78c565b91505092915050565b7f4e487b7100000000000000000000000000000000000000000000000000000000600052603260045260246000fd5b600060408201905061c812600083018561aff7565b61c81f602083018461ad40565b9392505050565b60008160601b9050919050565b600061c83e8261c826565b9050919050565b600061c8508261c833565b9050919050565b61c86861c8638261ab26565b61c845565b82525050565b6000819050919050565b61c88961c8848261aa20565b61c86e565b82525050565b600061c89b828661c857565b60148201915061c8ab828561c857565b60148201915061c8bb828461c878565b602082019150819050949350505050565b60008160011c9050919050565b6000808291508390505b600185111561c9235780860481111561c8ff5761c8fe61b5f1565b5b600185161561c90e5780820291505b808102905061c91c8561c8cc565b945061c8e3565b94509492505050565b60008261c93c576001905061c9f8565b8161c94a576000905061c9f8565b816001811461c960576002811461c96a5761c999565b600191505061c9f8565b60ff84111561c97c5761c97b61b5f1565b5b8360020a91508482111561c9935761c99261b5f1565b5b5061c9f8565b5060208310610133831016604e8410600b841016171561c9ce5782820a90508381111561c9c95761c9c861b5f1565b5b61c9f8565b61c9db848484600161c8d9565b9250905081840481111561c9f25761c9f161b5f1565b5b81810290505b9392505050565b600061ca0a8261aa20565b915061ca158361aa20565b925061ca427fffffffffffffffffffffffffffffffffffffffffffffffffffffffffffffffff848461c92c565b905092915050565b60008190508160005260206000209050919050565b60006020601f8301049050919050565b600082821b905092915050565b60006008830261caac7fffffffffffffffffffffffffffffffffffffffffffffffffffffffffffffffff8261ca6f565b61cab6868361ca6f565b95508019841693508086168417925050509392505050565b600061cae961cae461cadf8461aa20565b61c444565b61aa20565b9050919050565b6000819050919050565b61cb038361cace565b61cb1761cb0f8261caf0565b84845461ca7c565b825550505050565b600090565b61cb2c61cb1f565b61cb3781848461cafa565b505050565b5b8181101561cb5b5761cb5060008261cb24565b60018101905061cb3d565b5050565b601f82111561cba05761cb718161ca4a565b61cb7a8461ca5f565b8101602085101561cb89578190505b61cb9d61cb958561ca5f565b83018261cb3c565b50505b505050565b600082821c905092915050565b600061cbc36000198460080261cba5565b1980831691505092915050565b600061cbdc838361cbb2565b9150826002028217905092915050565b61cbf58261aa54565b67ffffffffffffffff81111561cc0e5761cc0d61ae30565b5b61cc18825461b410565b61cc2382828561cb5f565b600060209050601f83116001811461cc56576000841561cc44578287015190505b61cc4e858261cbd0565b86555061ccb6565b601f19841661cc648661ca4a565b60005b8281101561cc8c5784890151825560018201915060208501945060208101905061cc67565b8683101561cca9578489015161cca5601f89168261cbb2565b8355505b6001600288020188555050505b505050505050565b600081519050919050565b600081905092915050565b600061ccdf8261ccbe565b61cce9818561ccc9565b935061ccf981856020860161aa70565b80840191505092915050565b600061cd11828461ccd4565b91508190509291505056fea264697066735822122045b273cfb28deacd02d8cda62c02ebe46a7f2b472546b17076a6af47442eb94b64736f6c63430008180033",
  "linkReferences": {},
  "deployedLinkReferences": {}
}