{
  "_format": "hh-sol-artifact-1",
  "contractName": "CustodianRegistry",
  "sourceName": "contracts/custodian-registry.sol",
  "abi": [
    {
      "inputs": [
        {
          "internalType": "address",
          "name": "initialAdmin",
          "type": "address"
        }
      ],
      "stateMutability": "nonpayable",
      "type": "constructor"
    },
    {
      "inputs": [],
      "name": "AccessControlBadConfirmation",
      "type": "error"
    },
    {
      "inputs": [
        {
          "internalType": "address",
          "name": "account",
          "type": "address"
        },
        {
          "internalType": "bytes32",
          "name": "neededRole",
          "type": "bytes32"
        }
      ],
      "name": "AccessControlUnauthorizedAccount",
      "type": "error"
    },
    {
      "anonymous": false,
      "inputs": [
        {
          "indexed": true,
          "internalType": "address",
          "name": "userAddress",
          "type": "address"
        },
        {
          "indexed": true,
          "internalType": "address",
          "name": "custodian",
          "type": "address"
        },
        {
          "indexed": false,
          "internalType": "uint256",
          "name": "kycValidatedTimestamp",
          "type": "uint256"
        },
        {
          "indexed": false,
          "internalType": "uint256",
          "name": "kycExpiresTimestamp",
          "type": "uint256"
        }
      ],
      "name": "KYCStatusUpdated",
      "type": "event"
    },
    {
      "anonymous": false,
      "inputs": [
        {
          "indexed": true,
          "internalType": "bytes32",
          "name": "role",
          "type": "bytes32"
        },
        {
          "indexed": true,
          "internalType": "bytes32",
          "name": "previousAdminRole",
          "type": "bytes32"
        },
        {
          "indexed": true,
          "internalType": "bytes32",
          "name": "newAdminRole",
          "type": "bytes32"
        }
      ],
      "name": "RoleAdminChanged",
      "type": "event"
    },
    {
      "anonymous": false,
      "inputs": [
        {
          "indexed": true,
          "internalType": "bytes32",
          "name": "role",
          "type": "bytes32"
        },
        {
          "indexed": true,
          "internalType": "address",
          "name": "account",
          "type": "address"
        },
        {
          "indexed": true,
          "internalType": "address",
          "name": "sender",
          "type": "address"
        }
      ],
      "name": "RoleGranted",
      "type": "event"
    },
    {
      "anonymous": false,
      "inputs": [
        {
          "indexed": true,
          "internalType": "bytes32",
          "name": "role",
          "type": "bytes32"
        },
        {
          "indexed": true,
          "internalType": "address",
          "name": "account",
          "type": "address"
        },
        {
          "indexed": true,
          "internalType": "address",
          "name": "sender",
          "type": "address"
        }
      ],
      "name": "RoleRevoked",
      "type": "event"
    },
    {
      "anonymous": false,
      "inputs": [
        {
          "indexed": true,
          "internalType": "address",
          "name": "userAddress",
          "type": "address"
        },
        {
          "indexed": true,
          "internalType": "address",
          "name": "custodian",
          "type": "address"
        },
        {
          "indexed": false,
          "internalType": "uint256",
          "name": "kycValidatedTimestamp",
          "type": "uint256"
        },
        {
          "indexed": false,
          "internalType": "uint256",
          "name": "kycExpiresTimestamp",
          "type": "uint256"
        }
      ],
      "name": "WalletRegistered",
      "type": "event"
    },
    {
      "anonymous": false,
      "inputs": [
        {
          "indexed": true,
          "internalType": "address",
          "name": "userAddress",
          "type": "address"
        },
        {
          "indexed": true,
          "internalType": "address",
          "name": "custodian",
          "type": "address"
        }
      ],
      "name": "WalletUnregistered",
      "type": "event"
    },
    {
      "inputs": [],
      "name": "ADMIN_ROLE",
      "outputs": [
        {
          "internalType": "bytes32",
          "name": "",
          "type": "bytes32"
        }
      ],
      "stateMutability": "view",
      "type": "function"
    },
    {
      "inputs": [],
      "name": "CUSTODIAN_ROLE",
      "outputs": [
        {
          "internalType": "bytes32",
          "name": "",
          "type": "bytes32"
        }
      ],
      "stateMutability": "view",
      "type": "function"
    },
    {
      "inputs": [],
      "name": "DEFAULT_ADMIN_ROLE",
      "outputs": [
        {
          "internalType": "bytes32",
          "name": "",
          "type": "bytes32"
        }
      ],
      "stateMutability": "view",
      "type": "function"
    },
    {
      "inputs": [
        {
          "internalType": "uint256",
          "name": "index",
          "type": "uint256"
        }
      ],
      "name": "custodianAtIndex",
      "outputs": [
        {
          "internalType": "address",
          "name": "",
          "type": "address"
        }
      ],
      "stateMutability": "view",
      "type": "function"
    },
    {
      "inputs": [],
      "name": "custodianCount",
      "outputs": [
        {
          "internalType": "uint256",
          "name": "",
          "type": "uint256"
        }
      ],
      "stateMutability": "view",
      "type": "function"
    },
    {
      "inputs": [
        {
          "internalType": "address",
          "name": "userAddress",
          "type": "address"
        }
      ],
      "name": "getCustodian",
      "outputs": [
        {
          "internalType": "address",
          "name": "",
          "type": "address"
        }
      ],
      "stateMutability": "view",
      "type": "function"
    },
    {
      "inputs": [
        {
          "internalType": "address",
          "name": "userAddress",
          "type": "address"
        }
      ],
      "name": "getKYCTimestamps",
      "outputs": [
        {
          "internalType": "uint256",
          "name": "validatedTimestamp",
          "type": "uint256"
        },
        {
          "internalType": "uint256",
          "name": "expiresTimestamp",
          "type": "uint256"
        }
      ],
      "stateMutability": "view",
      "type": "function"
    },
    {
      "inputs": [
        {
          "internalType": "bytes32",
          "name": "role",
          "type": "bytes32"
        }
      ],
      "name": "getRoleAdmin",
      "outputs": [
        {
          "internalType": "bytes32",
          "name": "",
          "type": "bytes32"
        }
      ],
      "stateMutability": "view",
      "type": "function"
    },
    {
      "inputs": [
        {
          "internalType": "address",
          "name": "fiAddress",
          "type": "address"
        }
      ],
      "name": "grantCustodianRole",
      "outputs": [],
      "stateMutability": "nonpayable",
      "type": "function"
    },
    {
      "inputs": [
        {
          "internalType": "bytes32",
          "name": "role",
          "type": "bytes32"
        },
        {
          "internalType": "address",
          "name": "account",
          "type": "address"
        }
      ],
      "name": "grantRole",
      "outputs": [],
      "stateMutability": "nonpayable",
      "type": "function"
    },
    {
      "inputs": [
        {
          "internalType": "bytes32",
          "name": "role",
          "type": "bytes32"
        },
        {
          "internalType": "address",
          "name": "account",
          "type": "address"
        }
      ],
      "name": "hasRole",
      "outputs": [
        {
          "internalType": "bool",
          "name": "",
          "type": "bool"
        }
      ],
      "stateMutability": "view",
      "type": "function"
    },
    {
      "inputs": [
        {
          "internalType": "address",
          "name": "userAddress",
          "type": "address"
        }
      ],
      "name": "isKYCValid",
      "outputs": [
        {
          "internalType": "bool",
          "name": "",
          "type": "bool"
        }
      ],
      "stateMutability": "view",
      "type": "function"
    },
    {
      "inputs": [
        {
          "internalType": "address",
          "name": "userAddress",
          "type": "address"
        },
        {
          "internalType": "uint256",
          "name": "kycValidatedTimestamp",
          "type": "uint256"
        },
        {
          "internalType": "uint256",
          "name": "kycExpiresTimestamp",
          "type": "uint256"
        }
      ],
      "name": "registerCustodiedWallet",
      "outputs": [],
      "stateMutability": "nonpayable",
      "type": "function"
    },
    {
      "inputs": [
        {
          "internalType": "bytes32",
          "name": "role",
          "type": "bytes32"
        },
        {
          "internalType": "address",
          "name": "callerConfirmation",
          "type": "address"
        }
      ],
      "name": "renounceRole",
      "outputs": [],
      "stateMutability": "nonpayable",
      "type": "function"
    },
    {
      "inputs": [
        {
          "internalType": "address",
          "name": "fiAddress",
          "type": "address"
        }
      ],
      "name": "revokeCustodianRole",
      "outputs": [],
      "stateMutability": "nonpayable",
      "type": "function"
    },
    {
      "inputs": [
        {
          "internalType": "bytes32",
          "name": "role",
          "type": "bytes32"
        },
        {
          "internalType": "address",
          "name": "account",
          "type": "address"
        }
      ],
      "name": "revokeRole",
      "outputs": [],
      "stateMutability": "nonpayable",
      "type": "function"
    },
    {
      "inputs": [
        {
          "internalType": "bytes4",
          "name": "interfaceId",
          "type": "bytes4"
        }
      ],
      "name": "supportsInterface",
      "outputs": [
        {
          "internalType": "bool",
          "name": "",
          "type": "bool"
        }
      ],
      "stateMutability": "view",
      "type": "function"
    },
    {
      "inputs": [
        {
          "internalType": "address",
          "name": "userAddress",
          "type": "address"
        }
      ],
      "name": "unregisterCustodiedWallet",
      "outputs": [],
      "stateMutability": "nonpayable",
      "type": "function"
    },
    {
      "inputs": [
        {
          "internalType": "address",
          "name": "userAddress",
          "type": "address"
        },
        {
          "internalType": "uint256",
          "name": "kycValidatedTimestamp",
          "type": "uint256"
        },
        {
          "internalType": "uint256",
          "name": "kycExpiresTimestamp",
          "type": "uint256"
        }
      ],
      "name": "updateKYCStatus",
      "outputs": [],
      "stateMutability": "nonpayable",
      "type": "function"
    }
  ],
  "bytecode": "0x60803461007257601f610fac38819003918201601f19168301916001600160401b038311848410176100775780849260209460405283398101031261007257516001600160a01b0381168103610072578061005c6100629261008d565b5061010b565b50604051610de090816101ac8239f35b600080fd5b634e487b7160e01b600052604160045260246000fd5b6001600160a01b031660008181527fad3228b676f7d3cd4284a5443f17f1962b36e491b30a40b2405849e597ba5fb5602052604081205490919060ff1661010757818052816020526040822081835260205260408220600160ff198254161790553391600080516020610f8c8339815191528180a4600190565b5090565b6001600160a01b031660008181527f7d7ffb7a348e1c6a02869081a26547b49160dd3df72d1d75a570eb9b698292ec60205260408120549091907fa49807205ce4d355092ef5a8a18f56e8913cf4a201fbe287825b095693c217759060ff166101a657808352826020526040832082845260205260408320600160ff19825416179055600080516020610f8c833981519152339380a4600190565b50509056fe608060408181526004918236101561001657600080fd5b600092833560e01c91826301ffc9a7146106d95750816310f69a3e146106455781631e5e7d5a146105fb578163248a9ca3146105d15781632f2ff15d146105a757816336568abe146105615781636f7949f71461054257816375b238fc146105075781638289836e1461041357816385c40f49146103a657816391d1485414610360578163a217fddf14610345578163c79445d01461031c578163ca8a5e12146102cf578163cb5aa7e914610294578163cf0e0f9d14610228578163d547741f146101e557508063e1e75188146101a15763ef0c98d6146100f657600080fd5b3461019d577fee79ff8223fea588b4d71e08a1628aaf55f92de31cee63f4b6ab01bfd3de8c60906101263661075d565b6101339492939194610787565b6001600160a01b0393841693819060029061014f871515610c97565b8689526001602052610169858a2091339083541614610d2f565b82158015610193575b61017b90610ce3565b8760018201550155815194855260208501523393a380f35b5087831015610172565b5080fd5b503461019d57602036600319011261019d579081906001600160a01b036101c661072c565b1681526001602052206002600182015491015482519182526020820152f35b91905034610224578060031936011261022457610220913561021b600161020a610747565b93838752866020528620015461084b565b610a23565b5080f35b8280fd5b50503461019d57602036600319011261019d5760209181906001600160a01b0361025061072c565b168152600184522090600182015415159182610270575b50519015158152f35b600291925001548015908115610289575b509038610267565b905042111538610281565b50503461019d57602036600319011261019d576020916001600160a01b03908290826102be61072c565b168152600185522054169051908152f35b8334610319576020366003190112610319576102206102ec61072c565b6102f46107ef565b6001600160a01b038116906103139061030e831515610a98565b610871565b50610b30565b80fd5b50503461019d578160031936011261019d5760209051600080516020610d8b8339815191528152f35b50503461019d578160031936011261019d5751908152602090f35b9050346102245781600319360112610224578160209360ff92610381610747565b903582528186528282206001600160a01b039091168252855220549151911615158152f35b90503461022457602036600319011261022457803590600254821015610400575060026020935260018060a01b03907f405787fa12a823e0f2b7631cc41b3ba8828b3321ca811111fa75cd3aa3bb5ace0154169051908152f35b634e487b7160e01b845260329052602483fd5b83833461019d576104233661075d565b61042e939193610787565b6001600160a01b0392831692610445841515610c97565b811580156104fd575b61045790610ce3565b8251906060820182811067ffffffffffffffff8211176104ea57849392916002917f634c47f05bf8adf94f3da009bf2ac07a991711e8d8197c80d8bfa8734376358596523383526020830188815285840191858352888b526001602052868b209451166bffffffffffffffffffffffff60a01b85541617845551600184015551910155815194855260208501523393a380f35b634e487b7160e01b885260418952602488fd5b508482101561044e565b50503461019d578160031936011261019d57602090517fa49807205ce4d355092ef5a8a18f56e8913cf4a201fbe287825b095693c217758152f35b50503461019d578160031936011261019d576020906002549051908152f35b83833461019d578060031936011261019d5761057b610747565b90336001600160a01b038316036105985750610220919235610a23565b5163334bd91960e11b81528390fd5b9190503461022457806003193601126102245761022091356105cc600161020a610747565b610911565b90503461022457602036600319011261022457816020936001923581528085522001549051908152f35b83346103195760203660031901126103195761022061061861072c565b6106206107ef565b6001600160a01b0381169061063f9061063a831515610a98565b61098a565b50610bb2565b50503461019d57602036600319011261019d5781600261066361072c565b9261066c610787565b6001600160a01b039384169361069b90610687861515610c97565b858552600160205282852054163314610d2f565b83835260016020528220828155826001820155015533907feda8a21ceab321f39831c4a21c8a60cc97bb4d844303e693e8fc7c8ab4526a728380a380f35b849134610224576020366003190112610224573563ffffffff60e01b81168091036102245760209250637965db0b60e01b811490811561071b575b5015158152f35b6301ffc9a760e01b14905083610714565b600435906001600160a01b038216820361074257565b600080fd5b602435906001600160a01b038216820361074257565b6060906003190112610742576004356001600160a01b038116810361074257906024359060443590565b3360009081527f743ba43598e4e97429683c7739c35500cae7b09b5afdf7135b85b54a773e67d26020526040902054600080516020610d8b8339815191529060ff16156107d15750565b6044906040519063e2517d3f60e01b82523360048301526024820152fd5b3360009081527f7d7ffb7a348e1c6a02869081a26547b49160dd3df72d1d75a570eb9b698292ec60205260409020547fa49807205ce4d355092ef5a8a18f56e8913cf4a201fbe287825b095693c217759060ff16156107d15750565b80600052600060205260406000203360005260205260ff60406000205416156107d15750565b6001600160a01b031660008181527f743ba43598e4e97429683c7739c35500cae7b09b5afdf7135b85b54a773e67d26020526040812054909190600080516020610d8b8339815191529060ff1661090c57808352826020526040832082845260205260408320600160ff198254161790557f2f8788117e7eff1d82e926ec794901d17c78024a50270940304540a733656f0d339380a4600190565b505090565b9060009180835282602052604083209160018060a01b03169182845260205260ff6040842054161560001461090c57808352826020526040832082845260205260408320600160ff198254161790557f2f8788117e7eff1d82e926ec794901d17c78024a50270940304540a733656f0d339380a4600190565b6001600160a01b031660008181527f743ba43598e4e97429683c7739c35500cae7b09b5afdf7135b85b54a773e67d26020526040812054909190600080516020610d8b8339815191529060ff161561090c5780835282602052604083208284526020526040832060ff1981541690557ff6391f5c32d9c69d2a47ea670b442974b53935d1edc7fd64eb21e047a839171b339380a4600190565b9060009180835282602052604083209160018060a01b03169182845260205260ff60408420541660001461090c5780835282602052604083208284526020526040832060ff1981541690557ff6391f5c32d9c69d2a47ea670b442974b53935d1edc7fd64eb21e047a839171b339380a4600190565b15610a9f57565b606460405162461bcd60e51b815260206004820152602060248201527f437573746f6469616e2063616e6e6f74206265207a65726f20616464726573736044820152fd5b600254811015610b1a5760026000527f405787fa12a823e0f2b7631cc41b3ba8828b3321ca811111fa75cd3aa3bb5ace0190600090565b634e487b7160e01b600052603260045260246000fd5b600081815260036020526040812054610bad5760025468010000000000000000811015610b99579082610b85610b6e84600160409601600255610ae3565b819391549060031b91821b91600019901b19161790565b905560025492815260036020522055600190565b634e487b7160e01b82526041600452602482fd5b905090565b600081815260036020526040812054909190801561090c5760001990808201818111610c835760025490838201918211610c6f57818103610c3b575b5050506002548015610c2757810190610c0682610ae3565b909182549160031b1b19169055600255815260036020526040812055600190565b634e487b7160e01b84526031600452602484fd5b610c59610c4a610b6e93610ae3565b90549060031b1c928392610ae3565b9055845260036020526040842055388080610bee565b634e487b7160e01b86526011600452602486fd5b634e487b7160e01b85526011600452602485fd5b15610c9e57565b60405162461bcd60e51b815260206004820152601b60248201527f5573657220616464726573732063616e6e6f74206265207a65726f00000000006044820152606490fd5b15610cea57565b60405162461bcd60e51b815260206004820152601c60248201527f4b594320657870697279206265666f72652076616c69646174696f6e000000006044820152606490fd5b15610d3657565b60405162461bcd60e51b815260206004820152602660248201527f43616c6c6572206973206e6f74207468652072656769737465726564206375736044820152653a37b234b0b760d11b6064820152608490fdfee28434228950b641dbbc0178de89daa359a87c6ee0d8399aeace52a98fe902b9a264697066735822122063217869b25387a4a4e264d03530fda020273ef092be6caecb295138323644af64736f6c634300081400332f8788117e7eff1d82e926ec794901d17c78024a50270940304540a733656f0d",
  "linkReferences": {},
  "deployedLinkReferences": {}
}